:020000040800F2
:10000000280B002089010008BF200008231D0008DC
:10001000BD2000087F0300087D22000800000000CA
:1000200000000000000000000000000001210008A6
:100030003504000800000000C1200008032100086A
:10004000A3010008A3010008A3010008A301000800
:10005000A3010008A3010008A3010008A3010008F0
:10006000A3010008A3010008A3010008A3010008E0
:10007000A3010008A3010008A3010008A3010008D0
:10008000A3010008A3010008A301000865220008DD
:1000900071220008810300088D030008A3010008F5
:1000A000A3010008A3010008A3010008A3010008A0
:1000B000692100087521000881210008A3010008BA
:1000C000A3010008A3010008A3010008A301000880
:1000D000A3010008A3010008A3010008A301000870
:1000E000A3010008A3010008A301000800F002F822
:1000F00000F03AF80AA090E8000C82448344AAF188
:100100000107DA4501D100F02FF8AFF2090EBAE885
:100110000F0013F0010F18BFFB1A43F0010318473B
:10012000B4350000D4350000103A24BF78C878C137
:10013000FAD8520724BF30C830C144BF04680C60ED
:10014000704700000023002400250026103A28BF35
:1001500078C1FBD8520728BF30C148BF0B60704739
:100160001FB51FBD10B510BD00F0CFF81146FFF749
:10017000F7FF02F067F900F0EDF803B4FFF7F2FFC4
:1001800003BC00F0F5F80000094880470948004723
:10019000FEE7FEE7FEE7FEE7FEE7FEE7FEE7FEE737
:1001A000FEE7FEE704480549054A064B7047000094
:1001B00065210008ED00000828050020280B00201C
:1001C0002807002028070020032A40F2308010F082
:1001D000030C00F0158011F8013BBCF1020F6244E2
:1001E00098BF11F801CB00F8013B38BF11F8013B73
:1001F000A2F1040298BF00F801CB38BF00F8013B20
:1002000011F0030300F04F80083AC0F0088051F865
:10021000043B083A51F804CBA0E80810F5E7121D9A
:100220005CBF51F8043B40F8043BAFF30080D207B9
:1002300024BF11F8013B11F801CB48BF11F8012B85
:1002400024BF00F8013B00F801CB48BF00F8012BA8
:1002500070474FF0000200B5134694469646203989
:1002600022BFA0E80C50A0E80C50B1F12001BFF46F
:10027000F7AF090728BFA0E80C5048BF0CC05DF8D5
:1002800004EB890028BF40F8042B08BF704748BF23
:1002900020F8022B11F0804F18BF00F8012B704797
:1002A00070477047704710B5203AC0F00B80B1E836
:1002B0001850203AA0E81850B1E81850A0E818509B
:1002C000BFF4F5AF5FEA027C24BFB1E81850A0E8A4
:1002D000185044BF18C918C0BDE810405FEA827CBE
:1002E00024BF51F8043B40F8043B08BF7047D207D5
:1002F00028BF31F8023B48BF11F8012B28BF20F876
:10030000023B48BF00F8012B7047754600F02CF8FF
:10031000AE4605006946534620F00700854618B0F2
:1003200020B5FFF73FFFBDE820404FF000064FF03B
:1003300000074FF000084FF0000B21F00701AC461A
:10034000ACE8C009ACE8C009ACE8C009ACE8C00939
:100350008D46704710B50446AFF300802046BDE8D7
:100360001040FFF70ABF000000487047C404002097
:1003700001491820ABBEFEE7260002007047FEE7E9
:10038000014800F0D9B90000C4030020014800F082
:10039000D3B90000C403002030B5234C89B0607984
:1003A000002838D0207A002500EB80011F4800EBA0
:1003B00041014978227A02EB820210F8122002F001
:1003C000F00201EBC2010091217A01EB810110F8EA
:1003D0001110029501F00F01CDE90351217A04F1CA
:1003E000180301EB810100EB410006AA50F8021F3F
:1003F00006914068079069460D4800F030F860B1FA
:1004000000F019F86079401E6071207A1D2808D02C
:10041000207A401C207209B030BD6089401C608188
:10042000F0E72572F7E7000004000020DC0100205F
:10043000C4030020704772B6FEE790F82020012A1E
:1004400007D0022A05D0416A41F48021416201208F
:100450007047006842690A43426100207047F0B566
:1004600090F820500468A468012D05D0022D03D017
:10047000416A41F480215DE014F0406F01D1E50054
:1004800055D5C4F30164022C03D9416A41F400013B
:1004900050E00125A5401D608D684FF4C0739DB1EB
:1004A000CE6835434E6845EAC605066803EB041777
:1004B000F5514FF4C275076805EB04150E697E51BE
:1004C000097D012905D009E00E88CD6845EA465529
:1004D000EBE701684E5946F480764E511179D57993
:1004E000567941EA056195792D0445EA06252943A7
:1004F0004FF4C676056806EB0416A9511178D57835
:1005000041EA0561957852782D0445EA02221143AB
:100510004FF4C475026805EB04155151006803EBF4
:100520000411425842F0010242500020F0BD416ADD
:1005300041F4001141620120F0BD000010B590F8B7
:1005400020300268012B07D0022B05D0416A41F40C
:1005500080214162012010BDD2F8000240F001006C
:10056000C2F80002087D00F01F0301209840D2F875
:100570001C328343C2F81C32CB69B3B9D2F80C32B7
:100580008343C2F80C328C894B6864F31F434C6977
:1005900002EBC404C4F840320C890B6864F31F43B7
:1005A0004C6902EBC404C4F84432CB69012B16D168
:1005B000D2F80C320343C2F80C320C884B6864F357
:1005C0001F434C6902EBC404C4F840320C89CB6869
:1005D00064F31F434C6902EBC404C4F844328B69D2
:1005E000002BD2F804320FD053EA0003C2F80432D1
:1005F0000B69002BD2F8143208D00343C2F814322E
:10060000096A012904D008E08343EFE78343F5E753
:10061000D2F81C120143C2F81C12D2F8000220F0DA
:100620000100C2F80002002010BD90F82020012A2D
:1006300007D0022A05D0416A41F48021416201209D
:100640007047006842698A434261002070477047E2
:1006500030B590F82040012C05D0022C03D0416A1F
:1006600041F480215DE00468002955D02469A40785
:1006700054D04FF4D874056804EB01142D5915F0CB
:100680000405956005682D594ED0ED085560056844
:100690002C5904F00204D4604FF4DA74056804EBBA
:1006A00001142D5905F00F05156105682D59C5F385
:1006B0000725956105682C59240C54614FF4DC72B0
:1006C000046802EB0112A4581C700468A458240AA0
:1006D0005C700468A458240C9C700468A258120E24
:1006E000DA704FF4DE72046802EB0112A4581C7138
:1006F0000468A458240A5C710468A458240C9C71F2
:100700000468A258120EDA71006881B1016941F0E3
:1007100020010161002030BDE468A8E7416A41F48E
:1007200000114162012030BD6D0D1560AFE7C16859
:1007300041F02001C160EDE72DE9F05F054600685A
:1007400000244669D0F804908768D0F80CB0D0F83F
:1007500010A0D0F81880F10748D0F90714D0012173
:100760008160B80703D5284600F088FA0CE07807C6
:1007700002D54FF4006407E0380702D54FF48054E7
:1007800002E0284600F078FAF80516D529684FF4FB
:1007900080708860B80503D5284600F079FA0CE02F
:1007A000780502D544F4005407E0380502D544F436
:1007B000804402E0284600F069FAF80316D529685B
:1007C0004FF480308860B80303D5284600F06AFAF9
:1007D0000CE0780302D544F4004407E0380302D566
:1007E00044F4803402E0284600F05AFA300707D576
:1007F0005FEACB6004D52968102044F40074C86017
:1008000070074FF0080707D55FEA0B7004D528681A
:10081000C760284600F072F9B00706D52868C0689E
:10082000800702D0284600F06BF9700607D55FEA12
:10083000CA6004D52968102044F480640861B006B9
:1008400007D55FEA0A7004D528680761284600F0DA
:1008500089F9F00606D528680069800702D0284685
:1008600000F082F9B00308D55FEAC96005D52968B0
:1008700010204860284600F0D1F9F00307D55FEA60
:10088000097004D528684760284600F013FA300440
:1008900046D55FEA497040D5F00504D55FEAC870D7
:1008A00001D044F00104B00504D55FEA887001D599
:1008B00044F00204700504D55FEA487001D544F0A5
:1008C0000404300529D518F0700F26D008F0700008
:1008D000402815D006DC102809D020280AD030285E
:1008E00016D10AE050280ED0602811D10EE044F055
:1008F00008040DE044F010040AE044F0200407E08E
:1009000044F0400404E044F0800401E044F48074C6
:100910002868816921F0700181612968042048609C
:10092000002C05D0686A204368622846FFF78FFED6
:10093000BDE8F09F70B5040003D094F8200010B11A
:1009400004E0012070BD204600F082F820680168B4
:1009500041F00101016000F0A5FA0546052604E01A
:1009600000F0A0FA401B0A2811D820684068C00790
:10097000F6D02068016821F00201016000F092FACF
:1009800005460BE000F08EFA401B0A2806D9606A83
:1009900040F40030606284F82060D2E7206840684C
:1009A0008007EFD4207E0128206801683DD021F027
:1009B00080010160607E01282068016838D021F044
:1009C00040010160A07E01282068016833D021F039
:1009D00020010160E07E0128206801682ED041F0EE
:1009E00010010160207F01282068016829D021F0D2
:1009F00008010160607F01282068016824D021F08F
:100A000004010160D4E902010843D4E9041211434E
:100A100008436168491E08432168C861002060627C
:100A2000012084F82000002070BD41F08001C0E763
:100A300041F04001C5E741F02001CAE721F0100173
:100A4000CFE741F00801D4E741F00401D9E7000005
:100A500010B586B0002100910191029103910068C8
:100A60002349884242D12348C16941F00071C161E4
:100A7000C16901F000710491816941F00401816153
:100A800080691D4C00F0040004904FF40060009059
:100A90006946204600F010F9A01400900220019051
:100AA000032003906946204600F006F90022114613
:100AB000132000F063FA132000F052FA00221146CE
:100AC000142000F05BFA142000F04AFA00221146CC
:100AD000152000F053FA152000F042FA00221146CA
:100AE000162000F04BFA162000F03AFA06B010BDBE
:100AF0000064004000100240000801407047000000
:100B000010B5144B144A0021FFF7A2FD10B1FFF7F6
:100B100092FC14E010484FF0320201680F4811F4C3
:100B2000F06F00D1027001F03F01491E082901D287
:100B3000027001E02821017009490120087000F0CD
:100B4000B1F9044C2A3C6169401A206100F0AAF90D
:100B5000606110BD2E000020240300208F000020C3
:100B60004F0000207047000070B5284B284A012133
:100B7000FFF76EFD18B1BDE87040FFF75CBC234C79
:100B8000223C20791E281BD02149F0200A8800EA47
:100B9000D203E07900EB8005A1F5167000F815305E
:100BA000E37902F03F0203EB830300EB43035A7047
:100BB000E27902EB820210F81220C02A10D105E07F
:100BC0001448017841F01001017070BDE27902EB28
:100BD000820200EB420252780F4B1B789A42F4D10A
:100BE0000A69E17901EB810100EB41000749801CB2
:100BF000FFF7EAFAE0791D2806D0E079401CE071A1
:100C00002079401C207170BD0020F8E726000020EC
:100C1000080300204200002036000020704700003A
:100C200070B5044690F82000012804D0606A40F4B2
:100C30000020606218E0022084F82000206801682B
:100C400021F00101016000F02DF905460EE000BF22
:100C500000F028F9401B0A2808D9606A40F40030E7
:100C60006062052084F82000012070BD2068406883
:100C7000C007EDD1606270BD704700000248018876
:100C8000491C0180FFF788BB20000020704700004E
:100C900002484188491C4180FFF77EBB20000020AC
:100CA0007047000002488188491C8180FFF774BBAF
:100CB00020000020704700002DE9F84FDFF8B891C0
:100CC000002409F1040A0AF1040B23460F270BF153
:100CD000040EC9E00125A5402A40AA427DD1674EF5
:100CE000D1F804C0ACEB0608B44532D014DCBCF13A
:100CF000030F3AD009DCBCF1000F2AD0BCF1010F80
:100D00001CD0BCF1020F31D11DE0BCF1110F17D086
:100D1000BCF1120F2AD119E0B8F5881F19D006DCF2
:100D2000B8F5803F15D0B8F5801F1FD111E0B8F598
:100D3000001F0ED0B8F5041F18D10AE0CB6815E0EB
:100D4000CB681B1D12E0CB6808330FE0CB680C3377
:100D50000CE08B682BB1012B4FF0080303D04561E9
:100D600004E0042302E0056100E00023FF2A01D82B
:100D7000064601E000F104064FEA840501D9A5F119
:100D80002005D6F8008007FA05FC28EA0C0803FACB
:100D900005F548EA0508C6F800804D68ED0062D503
:100DA000374DAE6946F00106AE61AD6924F0030629
:100DB00005F001050095334D06EB050CDCF80850F5
:100DC000A607360F07FA06F825EA0805DFF8B88007
:100DD000404503D14FF0000817E044E0DFF8AC8055
:100DE000404502D14FF001080FE0DFF8A4804045F4
:100DF00002D14FF0020808E0DFF89880404502D1A8
:100E00004FF0030801E04FF0040808FA06F848EA3A
:100E10000508CCF808804D68D9F80060ED034D4610
:100E200001D5164300E096432E604D68DAF8006065
:100E3000AD03554601D5164300E096432E604D683C
:100E4000DBF80060ED025D4601D5164300E09643F5
:100E50002E604D68DEF80060AD02754601D5164380
:100E600000E096432E60641C0D682A46E5407FF43E
:100E700031AFBDE8F88F0000000401400000111000
:100E8000001002400000014000080140000C014039
:100E900000100140001401400AB1016170470904CB
:100EA000FBE700000148806870470000A0000020B8
:100EB000024881680278114481607047A0000020D8
:100EC000074810B5016841F010010160032000F0EF
:100ED00075F80F2000F006F800F024F8002010BD8F
:100EE0000020024070B50D4D04464FF47A71287809
:100EF000B1FBF0F00A490968B1FBF0F000F0CCFA60
:100F000048B9102C07D200222146501E00F036F8B6
:100F100000206C6070BD012070BD0000A0000020AA
:100F2000AC0000200C4808B5816941F001018161E5
:100F3000816901F001010091C16941F08051C161F5
:100F4000C06900F0805000900448416821F0E061E1
:100F500041F00071416008BD0010024000000140F6
:100F6000002809DB00F01F020121914040098000A8
:100F700000F1E020C0F8001170470000F0B40E4B03
:100F80001B680C46C3F30223C3F10705042D00D9E7
:100F90000425191D072901D2002300E0DB1E0126CC
:100FA00006FA05F1491E214099409E40761E1640E2
:100FB0003143F0BC01F063B90CED00E0064900F0EC
:100FC000070208684FF6FF03184040EA0220034A70
:100FD00010430860704700000CED00E00000FA05C7
:100FE0002DE9F0470F46050061D0434E306800F010
:100FF0000700B84209D2306820F00700384330605B
:10100000306800F00700B84251D128683B4C810796
:1010100012D5400703D5606840F4E060606028782E
:10102000000703D5606840F4605060606068A9689C
:1010300020F0F000084360602878C00728D0686876
:10104000012810D02168022810D0890700292EDA43
:10105000616821F0030101436160FFF723FF8046CF
:1010600041F288390DE021688903EFE78901EDE756
:10107000FFF718FFA0EB0801494502D90320BDE89E
:10108000F0876068696800F00C00B0EB810FEFD169
:10109000306800F00700B8420BD9306820F0070034
:1010A00038433060306800F00700B84201D00120BA
:1010B000E5E72878400705D56068E96820F4E06036
:1010C000084360602878000706D56068296920F425
:1010D000605040EAC100606000F018F86168084A9A
:1010E000C1F30311515CC840064908600648006816
:1010F000FFF7F8FE0020C2E7002002400010024087
:10110000C4360008AC000020A400002012A185B065
:101110000FC98DE80F0014A0144A006804905168AC
:10112000134801F00C03042B10D0082B0ED1C1F38F
:101130008343C9031DF803000AD5516804AAC1F30B
:101140004041515C0A4A5043B0FBF1F005B0704792
:1011500008494843FAE700000203040506070809A6
:101160000A0B0C0D0E0F10100102000000100240BF
:1011700000127A0000093D002DE9F84F040070D0FC
:101180002078C04DC00749D06868C0F381000128AD
:1011900007D06868C0F38100022809D16868C003DD
:1011A00006D52868800339D560680028E7D035E087
:1011B0006068B0F5803F0BD010B1B0F5A02F11D012
:1011C000286820F480302860286820F4802002E01D
:1011D000286840F480302860606890B1FFF762FEB4
:1011E00006460AE0286840F480202860F0E700BF47
:1011F000FFF758FE801B642873D828688003F7D552
:101200000CE0FFF74FFE064605E000BFFFF74AFE81
:10121000801B6428F0D828688003F7D420789A4E81
:1012200080074FF001094FF0000839D5686810F0C9
:101230000C0F07D06868C0F38100022809D16868E4
:10124000C00306D42868800714D52069012808D176
:1012500010E02069B0B1C6F80090FFF723FE074602
:1012600005E00AE1FFF71EFEC01B0228C4D828686B
:101270008007F7D52868616920F0F80040EAC100CE
:1012800028600DE0C6F80080FFF70CFE074604E07A
:10129000FFF708FEC01B022823D828688007F7D470
:1012A000207800072CD57948A169D9B1C0F8009001
:1012B000FFF7F8FD074604E0FFF7F4FDC01B022826
:1012C0000FD8686A8007F7D571484FF4FA51006863
:1012D000B0FBF1F0009000BF0098411E0091FAD2DF
:1012E0000EE080E0C0F80080FFF7DCFD074604E078
:1012F000FFF7D8FDC01B022875D8686A8007F7D4AD
:101300002078400760D5E8690027C00008D4E86964
:1013100040F08050E861E869012700F080500090BB
:101320005C480168C90513D40168834641F48071A3
:101330000160FFF7B7FD824606E000BFFFF7B2FD90
:10134000A0EB0A0064284ED8DBF80000C005F5D5F4
:10135000E06801280AD008B1052813D0286A20F0D7
:1013600001002862286A20F0040002E0286A40F0A8
:1013700001002862E06841F2883B98B1FFF792FDD6
:1013800082460BE0286A40F004002862EEE700BFC6
:10139000FFF788FDA0EB0A0159455AD8286A800753
:1013A000F6D50CE0FFF77EFD824605E0FFF77AFDFB
:1013B000A0EB0A0159454CD8286A8007F6D41FB122
:1013C000E86920F08050E861E06988B36968C1F39A
:1013D0008101022944D00228C6F8608004D0FFF7BA
:1013E00061FD044638E034E0FFF75CFD074604E0A9
:1013F000FFF758FDC01B02282BD828688001F7D4BE
:10140000206AB0F5803F05D16868A16820F40030FB
:1014100008436860D4E908010843696821F474113D
:1014200008436860C6F86090FFF73CFD044606E09C
:1014300025E000BFFFF736FD001B022809D8286809
:101440008001F7D51BE000BFFFF72CFD001B022831
:1014500002D90320BDE8F88F28688001F4D40EE09B
:101460000128F7D06868226A00F48031914204D1E3
:10147000616A00F47010884201D00120EAE7002080
:10148000E8E70000001002400000424280044242AF
:10149000AC0000200070004010B5401EB0F1807F0D
:1014A00001D3012010BD4FF0E02460610F216017CF
:1014B00000F0E5FE0020A06107202061002010BDA3
:1014C0007047704770B590F83C20012A26D001245F
:1014D00080F83C40022280F83D2003685A689D68ED
:1014E00022F070060A6832435A600D4B02689A4235
:1014F00008D0B2F1804F05D00A4B9A4202D00A4B75
:101500009A4204D1496825F080031943916080F81C
:101510003D40002180F83C10084670BD022070BD9F
:10152000002C0140000400400008004010B50400F9
:1015300003D094F83D0010B107E0012010BD002059
:1015400084F83C00204600F01FF8022084F83D009B
:10155000211D206800F01AFE012084F8460084F85E
:101560003E0084F83F0084F8400084F8410084F88D
:10157000420084F8430084F8440084F8450084F86D
:101580003D00002010BD000008B501681D48B1F104
:10159000804F11D01C4A91421DD1C16941F0020116
:1015A000C161C069002200F00200009011461D20B8
:1015B000FFF7E4FC1D201FE0C16941F00101C1619A
:1015C000C069002200F00100009011461C20FFF7C6
:1015D000D5FC1C2010E00D4A914211D1C16941F0A7
:1015E0000401C161C069002200F0040000901146AE
:1015F0001E20FFF7C3FC1E20BDE80840FFF7B0BC6B
:1016000008BD000000100240000400400008004037
:1016100090F83D10012901D001207047022180F887
:101620003D100168CA6842F00102CA6000680B49B7
:10163000884208D0B0F1804F05D00949884202D0D5
:101640000849884204D1816801F00701062903D0C6
:10165000016841F00101016000207047002C014049
:10166000000400400008004070B5044690F83C00BB
:10167000012817D0012584F83C50022084F83D0051
:101680002068826822F0770222F47F428260086834
:10169000502830D00DDC20284DD005DC98B3102820
:1016A0003BD148E0022070BD302844D0402834D1DE
:1016B00039E0602828D0702806D0B0F5805F2CD0A3
:1016C000B0F5005F29D10AE0CB68D1E9012120689B
:1016D00000F092FD2068816841F0770109E0CB6855
:1016E000D1E90121206800F087FD2068816841F47C
:1016F0008041816011E0CA684968206800F08EFD71
:101700005021206807E016E0CA684968206800F0A8
:1017100096FD6021206800F079FD84F83D5000209E
:1017200084F83C0070BDCA684968206800F076FD06
:1017300040212068EFE7226801461046EBE770473A
:1017400070B50446006801694FF00005C943890778
:1017500015D4C168C943890711D4E91E016101206C
:101760002077206880698007204602D0FFF7E7FFD6
:1017700004E000F098F8204600F096F825772068FD
:101780000169C943490717D4C168C943490713D43C
:101790006FF004010161022020772068806910F455
:1017A000407F204602D0FFF7CAFF04E000F07BF83C
:1017B000204600F079F8257720680169C9430907B8
:1017C00016D4C168C943090712D46FF0080101613A
:1017D000042020772068C0698007204602D0FFF7E8
:1017E000AEFF04E000F05FF8204600F05DF82577DA
:1017F00020680169C943C90617D4C168C943C9062D
:1018000013D46FF010010161082020772068C069AF
:1018100010F4407F204602D0FFF791FF04E000F073
:1018200042F8204600F040F8257720680169C94356
:10183000C90708D1C168C943C90704D1891E01611C
:10184000204600F033F820680169C943090609D42D
:10185000C168C943090605D46FF0800101612046C3
:10186000FFF72EFE20680169C943490609D4C16803
:10187000C943490605D46FF040010161204600F0DC
:101880004FFA20680169C94389060BD4C168C9436E
:10189000890607D46FF0200101612046BDE8704041
:1018A000FFF70FBE70BD7047704700002DE9F05F75
:1018B000EE49804600680968DFF8B4930126DFF836
:1018C000B4A3002488427DD1EB48017841F00401A3
:1018D0000170EA49087808B1401E0870E8480178AC
:1018E00011B10178491E0170007808B9E548067009
:1018F000E548017811B10178491E0170E349087883
:1019000008B1401E0870E249087808B1401E08700E
:10191000E049087808B1401E0870DF49087808B12E
:10192000401E0870DD49087808B1401E0870DC4987
:101930000878401C0870DB488178491C8170DA49BE
:101940000A78DA48DA4B552A09D004601C70D94A63
:10195000002000BF12F83030442B0DD020E0026888
:10196000571C0760D44800688242F0D9D3480078F9
:101970000028ECD01E70EAE702EBC00C9CF80730A0
:1019800073B15B1E13F0FF038CF8073008D199F890
:10199000007006FA00F39F4389F800708CF8054048
:1019A000401CC0B20828D5D3C5480278D30712D04E
:1019B000C44B9AF800701B7867B1170607D522F060
:1019C000800200E007E002705520087003E042F05A
:1019D000800202700B70BC48D8F800100068814289
:1019E00060D1BA48007828B9B948016811B10168D6
:1019F000491E0160DFF8DCB29BF80030ABBBB64893
:101A00004178817001784170B4490968C1F3C321FC
:101A1000017002780F219143017000224FEA000EFD
:101A200006FA02F0C1B29EF8027070469EF801C03C
:101A30000F400CEA010C674513D1477890F800C0BD
:101A40000F400CEA010C67450BD1A54F97F800C079
:101A50002CEA010C87F800C08078084039780843E8
:101A60003870521CD2B2082ADAD35B1CD9B28BF878
:101A70000010072901D18BF8004099F800709948AF
:101A8000DFF8589220210078A9F10809474007F0B3
:101A900001024846FFF700FAC7F34002102148460A
:101AA000FFF7FAF99048D8F80010006881426ED12B
:101AB0007C4F8E497878401CC0B278700978012933
:101AC0007DD13221B0FBF1F201FB120010B9884840
:101AD00006703E70DFF81CC287489CF8001004298D
:101AE00003D2491C8CF8001018E084498CF800409F
:101AF000097891B982490A78082A05D2521C12F055
:101B0000FF020A7001D009E00C709AF800206FF013
:101B10000701012A2AD0022A30D0047062498A784B
:101B2000E246C2EBC2039CF800C0764A0078134438
:101B3000E14613F80C804FF0070B0BEBC803484449
:101B4000DBB240B263F30705072821D291F800C049
:101B50004FF0F808CCEBCC0C94441CF800C00CF00F
:101B6000180C48EA9C0C03EA0C0313E090F90020DF
:101B7000082A01DA521C06E00170CFE790F9002034
:101B80008A4202DD521E0270C8E70821F4E76BE0CA
:101B900003F0F80363F307054B78C3EBC30303EBD0
:101BA000020C1CF809C00BEBCC03DBB263F30F256E
:101BB0000CD20978C1EBC1011144085C00E030E0AF
:101BC00040F0F800034063F30F2503E003F0F80052
:101BD00060F30F25DFF83081C8F88441E8B200F0E7
:101BE00071FAC5F3072000F06DFA9AF8000006FAC2
:101BF00000F0C1B23948001D02684FF6F0731A4078
:101C000002604246C8F8846100BF00BF00BF00BF49
:101C1000C2F8844100BF00BF00BF00BF02680A4392
:101C20000260387800281FD03849087848B1401E33
:101C300010F0FF00087004D13548017841F0080128
:101C400001703448017871B1491E11F0FF01017033
:101C500009D131490C7031490A7819490A70047068
:101C60001A487F2101703C70BDE8F09FEC03002012
:101C70007C0000204400002099000020410000204A
:101C80008F0000204E000020500000208000002027
:101C9000560000204800002058000020510000207D
:101CA000540000209A000020000000206000002066
:101CB00059000020840300205C0000206400002004
:101CC0004B0000204D00002034040020670000205D
:101CD000700000204700002078000020080C014020
:101CE0007B0000207F0000207C04002053000020A7
:101CF0005200002043000020450000204A00002040
:101D000046000020AA3400080000214257000020AD
:101D10009800002055000020680000204C000020A2
:101D20007047FEE7F0B554488BB000240471C471CD
:101D30008471447144720472504A214601EB81035C
:101D4000002002EB43031C54401CC0B20A28FAD303
:101D5000491CC9B21E29F1D3494B002000EB800277
:101D6000002103EB42025454491CC9B20A29FAD398
:101D7000401CC0B21E28F1D301254FF6A0400594A7
:101D8000CDE90645CDE9000402A90E2681E831001F
:101D9000CDE9085669463B48FEF7D0FB08B1FEF78F
:101DA0004AFB4FF400404FF4704705958DE89100D1
:101DB00069463448CDE90345FEF7C0FB08B1FEF79C
:101DC0003AFB022005903048C021007841EAD0015A
:101DD000090201EB40108DE89100694629480394FF
:101DE000FEF7ACFB08B1FEF726FB0320009405903C
:101DF000CDE90147694623480394FEF79FFB08B1EC
:101E0000FEF719FB042005904AF260108DE891005E
:101E100069461C480394FEF791FB08B1FEF70BFBE3
:101E2000052005904FF450408DE891006946154813
:101E30000394FEF783FB08B1FEF7FDFA05A90A201B
:101E400081E831004EF22000CDE90204CDE9000422
:101E50000494CDE9085669460A48FEF76FFB08B1BD
:101E6000FEF7E9FA13210748FEF7E7FA0548FEF7FF
:101E7000D7FE0BB0F0BD000004000020B000002031
:101E8000DC010020C4030020360000200E4810B5FD
:101E90000C4901602D21416000214FF440228160F6
:101EA000C0E903124FF480124261017641768176D7
:101EB000C17601774177FEF73DFD002801D072B66B
:101EC000FEE710BD00640040C40300202DE9F0418E
:101ED00086B00024284800940194029403948169F8
:101EE00041F020018161816901F020010491816943
:101EF00041F004018161816901F00401049181696B
:101F000041F00801816180691C4F00F008000490D5
:101F100001224FF481713846FEF7BEFF00224FF4D4
:101F20003F713846FEF7B8FFDFF8548000223F21AA
:101F30004046FEF7B1FF40F2FE3001250226CDE912
:101F40000005CDE9024669463846FEF7B5FE3F205A
:101F5000CDE90005CDE9024669464046FEF7ACFEF4
:101F60004FF47840CDE90004694640460294FEF7FC
:101F7000A3FE06B0BDE8F081001002400008014059
:101F8000000C014010B586B000241748009401945D
:101F90000294039404944FF080410594016041F64B
:101FA0001F41C0E9011441F28731C0E90314846183
:101FB000FFF7BCFA08B172B6FEE74FF4805000900C
:101FC00069460948FFF750FB08B172B6FEE7049472
:101FD00004A905480594FFF775FA002801D072B6E8
:101FE000FEE706B010BD0000EC03002010B586B07F
:101FF0000024174800940194029403940494134914
:102000000594016041F61F41C0E901141D21C0E99A
:1020100003148461FFF78AFA08B172B6FEE74FF441
:102020008050009069460A48FFF71EFB08B172B65F
:10203000FEE7049404A906480594FFF743FA002834
:1020400001D072B6FEE706B010BD000000040040EB
:102050003404002010B586B0002417480094019481
:1020600002940394049413490594016041F61F41BE
:10207000C0E901141321C0E903148461FFF756FA83
:1020800008B172B6FEE74FF48050009069460A48E6
:10209000FFF7EAFA08B172B6FEE7049404A906480D
:1020A0000594FFF70FFA002801D072B6FEE706B0DC
:1020B00010BD0000000800407C040020FEE7FEE7A1
:1020C0007047000030B50D490023C1F8943100BFBE
:1020D0000722012420FA02F505F00105C1F89C5100
:1020E00000BFC1F8944100BF00BFC1F8943100BFE8
:1020F00000BF00BF521EEDD530BD000000002142E0
:102100007047FEF7D5BE30B58FB028216846FEF780
:10211000A0F814210AA8FEF79CF801210804CDE9D3
:1021200000100024029402250491CDE907504FF4D9
:10213000E01009906846FFF71FF808B172B6FEE795
:102140000F20CDE90A054FF48060CDE90C40022153
:102150000AA80E94FEF744FF002801D072B6FEE7ED
:102160000FB030BD704700000148FFF7E9BA00002A
:10217000EC0300200148FFF7E3BA0000340400201C
:102180000148FFF7DDBA00007C040020F0B50268CA
:10219000164B174C174D4FF08047984205D0B84268
:1021A00003D0A04201D0A84203D122F070064A68B1
:1021B0003243984205D0B84203D0A04201D0A84291
:1021C00003D122F44074CA6822434C6922F0800291
:1021D000224302608A68C2620A688262984201D120
:1021E0000969016301214161F0BD0000002C01403B
:1021F000000400400008004010B5846842EA032251
:1022000024F47F440A432243826010BD826822F096
:1022100070020A4342F007018160704710B5036AFB
:10222000046A24F001040462846924F0F00444EA9E
:10223000021423F00A020A438461026210BD10B541
:10224000036A23F0100303628369046A23F4704372
:1022500043EA023224F0A00343EA011182610162E1
:1022600010BD00000148FEF767BA0000C40300205B
:102270000148FEF761BA0000C4030020FEE7090729
:10228000090E002804DB00F1E02080F800147047FC
:1022900000F00F0000F1E02080F8141D70470000EE
:1022A00030B428494A791E2AFCD04A7AB82302EB76
:1022B0008204254A02F81430244B4C7A1B7804EB34
:1022C000840402EB440463704C7A802304EB84049E
:1022D00002EB4404A3701E4B1C684D7A05EB850588
:1022E00002EB4505EC701B684C7A1B0A04EB840476
:1022F00002EB44042371174B1B784C7A04EB8404E3
:1023000002EB440463714B7A03EB830302EB430358
:1023100098714C7A030A04EB840402EB4404E371E1
:102320004C7A030C04EB840402EB44042372497AD4
:10233000000E01EB810102EB4101487230BC00F05C
:102340000BB8000004000020DC0100203600002053
:102350003C0000204000002030B52D4C89B0A08901
:10236000401CA0812B480078002841D02A480078E2
:1023700055283DD0607A00251D283BD0607A401C4E
:10238000607201212548FEF750F9207A00EB8001A8
:10239000234800EB41014978227A02EB820210F8CF
:1023A000122002F0F00201EBC2010091217A01EB50
:1023B000810110F81110029501F00F01CDE90351D0
:1023C000217A08AB01EB810100EB410006AA50F82D
:1023D000021F06914068079069461048FEF73FF8D3
:1023E00050B16079401C607101210C48FEF725F85E
:1023F00009B030BD6572C4E76089401C6081207AF5
:102400001D2803D0207A401C2072EDE72572EBE7EF
:10241000040000204F00002066000020C4030020BC
:10242000DC0100208F280BD004DC022808D005280E
:1024300004D105E0902803D0912801D000207047F6
:1024400001207047FEF73CFDFFF75DFEFFF73EFD04
:10245000FFF71CFDFFF796FDFFF7C8FDFFF7FAFD3C
:10246000FFF760FC1748FFF7D3F816484830FFF72E
:10247000CFF814489030FFF7CBF8134C002201211D
:102480002046FEF709FD002202212046FEF704FD4A
:10249000002204212046FEF7FFFC002208212046EE
:1024A000FEF7FAFC094C012211022046FEF7F4FC6B
:1024B000012251022046FEF7EFFC00BF00F058F861
:1024C000FCE70000EC030020000C01400008014084
:1024D00078B5264D00EB400605EB8602481E947940
:1024E00003D300FB04F3DBB200E0002355F82650D1
:1024F000B5F5C34F1FD00ADC05F6EA75B5F50055F2
:1025000026D005F6B665B5F5C04F07D10DE005F547
:10251000ED55B5F5004508D0202D12D000200090D3
:102520009168002906D06A461CE091680978C1408C
:10253000C807000C78BD9268C1EBC100C01F105CD9
:1025400078BD90686FF0070202EBC101405C78BD76
:1025500046F2A81000EB014078BD1D184D5D1554E2
:10256000401CC0B2A042F8D3009878BD8035000866
:102570002DE9FC5FDFF8E09399F8060000EB80019D
:10258000F64810F811C0F849F64FF54E0A7855256F
:10259000DFF8D883DFF8D8E30024F6493B784FF022
:1025A000040BBCF1A00F7AD006DCBCF1000F77D091
:1025B000BCF1800F5DD18AE0BCF1C00F71D0BCF1DD
:1025C000F00FF7D199F806C049460CEB8C0C00EBE4
:1025D0004C0C9CF801C0BCF1650FEBD189798246A7
:1025E00001EB810100EB410090F80280DFF888C325
:1025F000E248E349B8F1110F09D0B8F1120F39D010
:10260000B8F1130F54D0B8F1140FD3D14DE0022319
:102610000B708CF8004099F80630494603EB8306AE
:102620000AEB4606F6783E7099F8066006EB8606D9
:102630000AEB4606B679067099F8066006EB860640
:102640000AEB460636794670897901EB81010AEB7F
:1026500041014979817012B10178202900D80570B3
:1026600042788521202A00D841708278202A00D81B
:102670008170A2E203220A70C2490C70A3F110011A
:1026800005706E290ED20A210F3B93FBF1F2303216
:10269000427093FBF1F201FB12313031E8E759E26D
:1026A00014E23AE04570857087E281F800B00BE0F3
:1026B000B548A52202700878022804D17F20307026
:1026C000B248007838700C708CF8004075E299F8C8
:1026D00006104A4601EB810100EB4101897899F827
:1026E000063003EB830300EB4303DB780029C0D003
:1026F00031780529BDD1A64B0021957905EB8505DB
:1027000000EB45050D44AD785D54491CC9B207295D
:10271000F3D39F4800F0AAFB4FE299F806304946F0
:1027200003EB830300EB43039F78DFF868B207F005
:10273000E00C994B994EDFF868A29A4DBCF1400F1E
:1027400077D006DCBCF1000F5ED0BCF1200F06D1C3
:1027500007E0BCF1600F6DD0BCF1800F6BD09248E8
:1027600016E08A797D4802EB820200EB4202897909
:10277000D2F8036001EB810100EB41004079764B18
:1027800080460146DB1C3A46304600F0EFFA10B1B5
:10279000FFF786FD11E2B80731D599F806004D46DE
:1027A0006E4F00EB800007EB40004146D0F806205A
:1027B00099F8030000F0E2FD0028E9D1A879B1B250
:1027C00000EB800007EB40004246D0F80630602066
:1027D00000F03AFAA6F51050CA389DD1734801228C
:1027E0000178734811B1012907D002E05E490978E8
:1027F00019B1047000786F4993E10270FAE7002381
:10280000B1B242466020E0E0DAF80020002A74D03D
:10281000FA0673D4FA070FD0DAF80020113AB2F5AD
:10282000C0420ED0EF2A1ED0A2F58072EF3A60D1DE
:102830003DE064E0DEE043E15F4800BFFFF730FDCC
:102840003EE1534B00228E7906EB860600EB4606EE
:102850001644F6789E54521CD2B2072AF3D34C4841
:1028600000F004FB45E000222E788F79C6EBC60607
:102870001E44164416F8076C07EB870700EB470762
:102880001744FF78BE420DD08E7906EB860600EB2A
:1028900046061644F6782F78C7EBC7071F4417443F
:1028A00007F8076C521CD2B2052ADDD321E02B7841
:1028B0008F7906EBC303134413F8083C07EB870733
:1028C00000EB47071744FF78BB420CD08B7903EB32
:1028D000830300EB43031344DB782F7806EBC70731
:1028E000174407F8083C521CD2B2052ADFD300F087
:1028F00083FA002211462020E0E082E07FE08A791E
:10290000897902EB820200EB4202D2F8036001EB0C
:10291000810100EB410040790F4B80460146DB1CF2
:102920003A46304600F022FA00287FF419AF99F8B1
:102930000320224802EB420100EB810188790B79E8
:1029400004284CD9B8F1000F3BD1CBB3B1B2424609
:10295000422000F079F930E104000020B0000020AE
:102960006700002036000020530000205A35000880
:102970006035000800000020690000206A00002087
:102980006800002037000020660000203900002089
:1029900088000020410000204C0300208403002018
:1029A0003C00002040000020010004054A000020F7
:1029B0004B0000204C000020120007068035000864
:1029C000FFE70346B1B24246402000F03DF9CAF8A5
:1029D000006085F800800A208BF80000EDE0B8F177
:1029E000000001D1002BB1D101461046FFF770FD68
:1029F0000346ABE7DAF8000018B1F80603D58448BF
:102A00001CE784481AE7DAF8000046F21007C11BF9
:102A1000B84240D00ADC00F6F8706946B0F50050C4
:102A20000CD0012819D002284AD125E0012934D040
:102A3000F02935D0B1F5F87F42D139E0764E774BA9
:102A4000002042B11F5C0F54401CC0B20628F8D3CE
:102A50000A4606210EE0375CF5E7714B714E002007
:102A600032B1375C0F54401CC0B20628F8D30DE0D9
:102A70001F5CF7E7012021E000204646734642B183
:102A80001F5C0F54401CC0B20628F8D30A4605212B
:102A9000F0E7375CF5E7644A00E0644A0721E9E7BC
:102AA00028780721C0EBC000C2180120D21F05E022
:102AB0002878072106EBC0020120083A00F016F939
:102AC000CAF800402C708BF8004076E099F8067048
:102AD000CC4607EB870700EB4707FF780FB19F4213
:102AE0006BD19CF8063003EB830300EB4300807846
:102AF000822862D006DC012809D080285DD0812898
:102B00005BD107E0F02808D0F22856D10BE0052071
:102B1000307052E0464804704FE0F0203070454974
:102B20000620087049E072B19EF80120303A4A70E0
:102B30009EF80300303888700D703F483F4904709C
:102B400081F800B039E098F80120303A4A7098F8DE
:102B50000300EFE799F806204B4602EB820200EBF8
:102B60004202527899F8065005EB850500EB4505C1
:102B7000AD780B2A21D105BB314D00229E7906EBA1
:102B8000860600EB46061644B678AE54521CD2B206
:102B9000082AF3D3E8790206CA7802D542F0020285
:102BA00001E022F00202CA70C007C87802D040F0EB
:102BB000010001E020F00100C87012212148FDF75A
:102BC00034FD99F806004D461D281ED0A879401CFA
:102BD000A8712879401E2871EC792E7912211948A4
:102BE000FDF72BFCA879844201D21E34E4B21E20EA
:102BF000B6FBF0F100FB1160A979611A884202D09E
:102C00000B485A210170BDE8FC9FAC71E1E7000060
:102C100000000305000001066C3500087835000847
:102C20006635000872350008810000208800002009
:102C30006600002058000020440000208000002092
:102C400090000020C4030020F0B4254C65791E2DAF
:102C5000FCD0657AB82605EB8507224D05F817608C
:102C6000214E677A367807EB870705EB47077E70BA
:102C7000667A06EB860605EB4606B070607A00EBD6
:102C8000800005EB4000C170080A617A01EB810108
:102C900005EB41010871607A00EB800005EB400014
:102CA0004271607A00EB800005EB40008371617A2D
:102CB000180A01EB810105EB4101C871617A180C1A
:102CC00001EB810105EB41010872617A180E01EBFD
:102CD000810105EB41014872F0BCFFF73DBB0000EC
:102CE00004000020DC01002036000020F0B41C4C61
:102CF00063791E2BFCD0637AB82503EB8306194B4E
:102D000003F81650184D667A2D7806EB860603EB0D
:102D100046067570657A05EB850503EB4505A870D9
:102D200000200AE012F8015B667A06EB860603EBE8
:102D300046060644F570401CC0B28842F2D300201B
:102D400008E0627A02EB820203EB42020A44D0708E
:102D5000491CC9B20729F4D3F0BCFFF7FDBA000043
:102D600004000020DC01002036000020F0B5002423
:102D700026461D4D4FF6FF7E2BE0874227D105EBFF
:102D80008C0636798E4221D30120B0EB521F1AD126
:102D900004EB440005EB80051448AE79920707D593
:102DA000042E07D9002910D12A79002A0DD001E07C
:102DB000042E0AD90D486A79801C002A05D011B961
:102DC0002979002901D11C700020F0BD0126641C66
:102DD000E4B204EB440C55F82C707745CDD10EB11C
:102DE0000348F0BD0348F0BD80350008000001062F
:102DF000110009060000020630B51A4900200870CB
:102E0000194B012213F830408F2C25D006DC022C00
:102E100022D0052C20D00E2C14D104E0902C1BD0F5
:102E2000912C0FD118E003EBC00464780A2C13D066
:102E300004DC012C10D0092C04D10DE09A2C0BD00D
:102E4000A12C09D00D7802FA00F4A5430D70401CA6
:102E5000C0B20828D6D330BD0D7802FA00F42C4356
:102E60000C70F4E77D000020840300202DE9F0437E
:102E70000678014600253046FFF7D4FAFA4CFB4BA2
:102E80000122E8B3022E05D04878FF284FF0000059
:102E900002D024E0C878F8E714F83070B74218D1AF
:102EA00004EBC00797F806C0BCF1010F11D197F8E9
:102EB00007C091F802803CEA080C87F807C008D1E7
:102EC00093F8008002FA00FC28EA0C0883F80080DE
:102ED0007D71401CC0B20828DED3BDE8F0830E78B7
:102EE00014F83070BE4240D104EBC0064F7896F81B
:102EF00001C0674539D1CF7896F803C0674500E037
:102F000038E032D18F7896F802C017EA0C0F2CD037
:102F100096F804C091F804802CEA080C5FEA0C7C57
:102F200023D196F806C0BCF1010F1ED191F805C05F
:102F30005FEACC7C0FD093F8008002FA00FC4CEAE8
:102F4000080C83F800C096F807C04CEA070C86F816
:102F500007C0727109E0F57193F800C002FA00F73A
:102F60002CEA070C83F800C07571401CC0B2082819
:102F7000B5D3B2E7BE4FDFF8FCC2BF48402E10D039
:102F8000422E40D0412E74D0492E72D0442E6CD0A7
:102F90000E2E6BD0142EFCD0152EFAD0452E7DD0DF
:102FA00038E08A783B789A4297D19CF80020002A32
:102FB00093D10A794B790021B04C5525665CB24219
:102FC00001D1417007E062B1202A0AD01EB1491C2C
:102FD000C9B25F29F2D30021625C934203D18170B0
:102FE00009E04570F7E762B15BB1202B09D0491CBD
:102FF000C9B25F29F0D381785529BAD12521417012
:103000006AE18570F7E78E783F78BE4202D19CF87E
:1030100000607EB100200E7814F83070BE4208D1F6
:1030200004EBC0064F7896F801C067457ED0002FAC
:10303000FCD092E14A79AAB14A7802F00302027008
:103040000278022A00D9057003788D4A7BB149784D
:10305000C1F301111170017855310170007889496F
:1030600008703AE70570EBE703E0BFE0EFE01570AA
:10307000F1E74878844F412E19D0492EF1D100074D
:10308000EFD000200E7814F830C066450ED104EB66
:10309000C00691F802C096F8028000E01EE1C44527
:1030A00004D196F806C0BCF1010F5ED098E0002074
:1030B0000E7814F830C0664552D104EBC00691F882
:1030C00002C096F80280C4454AD196F806C0BCF109
:1030D000010F45D191F8018096F801C0C14608EA78
:1030E0000C085FEA887802D1BCF1000F2FD191F86B
:1030F00003C096F80380C44505D0BCF1FF0F02D091
:10310000B8F1000F23D191F8048096F804C018EAB2
:103110000C0F02D1BCF1000F19D197F800C0BCF11F
:10312000000F0FD05FEA191C11D10BE0F0E000BFD7
:1031300093F8008002FA00FC4CEA080C83F800C007
:1031400072710DE091F805C05FEACC7CF0D193F884
:10315000008002FA00FC28EA0C0883F800807571F0
:10316000401CC0B20828A3D3B7E691F801C096F876
:103170000180E1460CEA080C5FEA0C7C27D091F84C
:1031800003C096F80380C44502D0BCF1FF0F1ED1E6
:1031900091F804C096F804801CEA080F17D097F83D
:1031A00000C0BCF1000F0DD05FEA191C0FD109E07F
:1031B00093F8008002FA00FC4CEA080C83F800C087
:1031C00072710DE091F805C05FEACC7CF0D193F804
:1031D000008002FA00FC28EA0C0883F80080757170
:1031E000401CC0B20828FFF44DAF76E600200E78F0
:1031F00014F83050AE4225D104EBC0054E786F78FC
:103200003E40B60700D1EFB9CE78EF78BE4202D08B
:10321000FF2E00D0B7B98E78AF78BE4212D10F79A9
:103220002E79374200D16EB9AE79012E0AD14E798E
:10323000F60707D01F7802FA00F63E431E701426E8
:10324000EE716A71401CC0B20828D0D345E64A78B6
:103250008B2A33D01ADC102A86D0812A2ED0862AD7
:1032600021D0882AC1D115E0840300207C000020F1
:10327000380000206800002000000020843400088E
:10328000440000204D000020490000208F2A01D07A
:10329000902AAAD13448882A1DD08F2A18D0902A83
:1032A000A3D1497932E049790029C17802D041F0AF
:1032B000020101E021F00201C1700EE64979002906
:1032C000C17802D041F00101F6E721F00101F3E7F6
:1032D0004979417001E649798170FEE5C8784B78FB
:1032E00040EA0320A0F514530D3BAFD148791F4BA2
:1032F000C0F30111197000F00F011D4BC1EB01115A
:10330000C90019601B490A7081091B480170E4E576
:10331000CF7896F803C067451FD18F7896F802C022
:1033200067451AD191F804C037791CEA070F00D11C
:103330009FB9B779012F10D14F7993F800C0FF07DB
:1033400002FA00F704D047EA0C071F70727104E01C
:103350002CEA070C83F800C07571401CC0B2082825
:10336000FFF459AEB9E50000040000205B00002026
:103370005C00002064000020650000202DE9F74378
:103380003A4A00EB400502EB85064B1EB47903D3A5
:1033900003FB04F7FFB200E00027DFF8D08000EB6A
:1033A000400052F825C008EB80000CF5F55C806801
:1033B0004FF00109BCF5004C10D0DDF80880BCF1DD
:1033C000200F08F0FF081DD0BCF5807F06D0BCF5AB
:1033D000907F1CD070B3002002A929E00278029CE3
:1033E00022FA03F3C4F3C03403F00103A34207D06D
:1033F0000123491E8B4014B11343DAB200E09A4313
:10340000027030E078B3C1EBC101C91F04E050B3D2
:103410006FF0070202EBC10100F8018023E00B5CB2
:1034200007EB0008D6F808C0401CC0B20CF8083002
:10343000A042F4D352F82510A1F514500D3812D142
:103440000B480C4A0078C0F30111117000F00F0115
:10345000094AC1EB0111C9001160084A08498009F5
:1034600082F8009008700020BDE8FE8380350008D7
:103470005A0000205B0000205C0000206400002057
:1034800065000020323334353638394145464850DE
:10349000524247534B3031374344494A4C4D4E4FCB
:1034A000545155565758595A2B2D0B01101A1A10B2
:1034B000101A101011111A10010B1B11010B1B1106
:1034C000111B1010111B1111111B0B01010B01011C
:1034D000010B111111110101111B0109111B1E1406
:1034E000141E1B11010B1A10020A010909011B11FC
:1034F000111B101018100404080A0B01010B1E14F4
:10350000141E0E04040E1B1110100B0101011111E9
:103510001B11111913111B11111B0404040E1B198B
:10352000111B1B11111101030901111B1111000ABB
:103530000A0004040A000A02080AC8C8C8C83838C1
:1035400038380000040404040000000000040000F7
:103550000400000400000400000056322E30430036
:1035600056312E34420056312E330000472D373469
:10357000310056312E310000472D37343200000023
:103580000010000000000400740000200110000082
:1035900000000100420000200810000000000600AA
:1035A0006C350008091000000000050066350008B1
:1035B0000A100000000005005A350008161000002F
:1035C00008000400000000001810000004010400BE
:1035D0000000000000600000030002004003002023
:1035E000016000000001010038000020206100009F
:1035F0000801040000000000406100000801040010
:103600000000000060610000080104007E0000204E
:1036100080610000080104005203002020620000C5
:1036200008010400000000004062000008010400DE
:103630000000000060620000080104007F0000201C
:1036400080620000080104008A030020106000006E
:1036500000000700000000001160000000010700EA
:1036600000000000006100000801070000000000E9
:10367000006200000801070000000000FD2F0000AC
:10368000000001007B000020FE2F0000000101006F
:103690007C000020CA240000000101004A00002034
:1036A000EE24000000010100490000200D2500006B
:1036B000000101005A000020FFFF00000000000090
:1036C00000000000000000000000000001020304F0
:1036D00006070809F436000800000020B0000000CA
:1036E00028010008A4370008B0000020780A000074
:1036F000440100080000000000000000000000007D
:1037000000000000000000000000000000000000B9
:1037100000000000000000000000000000000000A9
:103720000000000000000000000000000000000099
:103730000000000000000000000000000000000089
:103740000000000000000000000000000000000079
:103750000000000000000000000000000000000069
:103760000000000000000000000000000000000059
:103770000000000000000000000000000000000049
:103780000000000000000000000000000000000039
:103790000000000001000000100000000000000018
:0437A0000024F4000D
:04000005080000ED02
:00000001FF
