:020000040800F2
:10000000300B00208901000827230008871D000805
:10001000252300087F030008552700080000000082
:10002000000000000000000000000000692300083C
:100030003504000800000000292300087D24000882
:10004000A3010008A3010008A3010008A301000800
:10005000A3010008A3010008A3010008A3010008F0
:10006000A3010008A3010008A3010008A3010008E0
:10007000A3010008A3010008A3010008A3010008D0
:10008000A3010008A3010008A30100083D27000800
:1000900049270008810300088D030008A301000818
:1000A000A3010008A3010008A3010008A3010008A0
:1000B000E9240008F524000801250008A301000830
:1000C000A3010008A3010008A3010008A301000880
:1000D000A3010008A3010008A3010008A301000870
:1000E000A3010008A3010008A301000800F002F822
:1000F00000F03AF80AA090E8000C82448344AAF188
:100100000107DA4501D100F02FF8AFF2090EBAE885
:100110000F0013F0010F18BFFB1A43F0010318473B
:100120005841000078410000103A24BF78C878C1D7
:10013000FAD8520724BF30C830C144BF04680C60ED
:10014000704700000023002400250026103A28BF35
:1001500078C1FBD8520728BF30C148BF0B60704739
:100160001FB51FBD10B510BD00F0CFF81146FFF749
:10017000F7FF02F0CBFC00F0EDF803B4FFF7F2FF5D
:1001800003BC00F0F5F80000094880470948004723
:10019000FEE7FEE7FEE7FEE7FEE7FEE7FEE7FEE737
:1001A000FEE7FEE704480549054A064B7047000094
:1001B000E5240008ED00000830050020300B002089
:1001C0003007002030070020032A40F2308010F072
:1001D000030C00F0158011F8013BBCF1020F6244E2
:1001E00098BF11F801CB00F8013B38BF11F8013B73
:1001F000A2F1040298BF00F801CB38BF00F8013B20
:1002000011F0030300F04F80083AC0F0088051F865
:10021000043B083A51F804CBA0E80810F5E7121D9A
:100220005CBF51F8043B40F8043BAFF30080D207B9
:1002300024BF11F8013B11F801CB48BF11F8012B85
:1002400024BF00F8013B00F801CB48BF00F8012BA8
:1002500070474FF0000200B5134694469646203989
:1002600022BFA0E80C50A0E80C50B1F12001BFF46F
:10027000F7AF090728BFA0E80C5048BF0CC05DF8D5
:1002800004EB890028BF40F8042B08BF704748BF23
:1002900020F8022B11F0804F18BF00F8012B704797
:1002A00070477047704710B5203AC0F00B80B1E836
:1002B0001850203AA0E81850B1E81850A0E818509B
:1002C000BFF4F5AF5FEA027C24BFB1E81850A0E8A4
:1002D000185044BF18C918C0BDE810405FEA827CBE
:1002E00024BF51F8043B40F8043B08BF7047D207D5
:1002F00028BF31F8023B48BF11F8012B28BF20F876
:10030000023B48BF00F8012B7047754600F02CF8FF
:10031000AE4605006946534620F00700854618B0F2
:1003200020B5FFF73FFFBDE820404FF000064FF03B
:1003300000074FF000084FF0000B21F00701AC461A
:10034000ACE8C009ACE8C009ACE8C009ACE8C00939
:100350008D46704710B50446AFF300802046BDE8D7
:100360001040FFF70ABF000000487047D00400208B
:1003700001491820ABBEFEE7260002007047FEE7E9
:10038000014800F0D9B90000C4030020014800F082
:10039000D3B90000C403002030B5234C89B0607984
:1003A000002838D0207A002500EB80011F4800EBA0
:1003B00041014978227A02EB820210F8122002F001
:1003C000F00201EBC2010091217A01EB810110F8EA
:1003D0001110029501F00F01CDE90351217A04F1CA
:1003E000100301EB810100EB410006AA50F8021F47
:1003F00006914068079069460D4800F030F860B1FA
:1004000000F019F86079401E6071207A1D2808D02C
:10041000207A401C207209B030BD6089401C608188
:10042000F0E72572F7E700000C000020E80100204B
:10043000C4030020704772B6FEE790F82020012A1E
:1004400007D0022A05D0416A41F48021416201208F
:100450007047006842690A43426100207047F0B566
:1004600090F820500468A468012D05D0022D03D017
:10047000416A41F480215DE014F0406F01D1E50054
:1004800055D5C4F30164022C03D9416A41F400013B
:1004900050E00125A5401D608D684FF4C0739DB1EB
:1004A000CE6835434E6845EAC605066803EB041777
:1004B000F5514FF4C275076805EB04150E697E51BE
:1004C000097D012905D009E00E88CD6845EA465529
:1004D000EBE701684E5946F480764E511179D57993
:1004E000567941EA056195792D0445EA06252943A7
:1004F0004FF4C676056806EB0416A9511178D57835
:1005000041EA0561957852782D0445EA02221143AB
:100510004FF4C475026805EB04155151006803EBF4
:100520000411425842F0010242500020F0BD416ADD
:1005300041F4001141620120F0BD000010B590F8B7
:1005400020300268012B07D0022B05D0416A41F40C
:1005500080214162012010BDD2F8000240F001006C
:10056000C2F80002087D00F01F0301209840D2F875
:100570001C328343C2F81C32CB69B3B9D2F80C32B7
:100580008343C2F80C328C894B6864F31F434C6977
:1005900002EBC404C4F840320C890B6864F31F43B7
:1005A0004C6902EBC404C4F84432CB69012B16D168
:1005B000D2F80C320343C2F80C320C884B6864F357
:1005C0001F434C6902EBC404C4F840320C89CB6869
:1005D00064F31F434C6902EBC404C4F844328B69D2
:1005E000002BD2F804320FD053EA0003C2F80432D1
:1005F0000B69002BD2F8143208D00343C2F814322E
:10060000096A012904D008E08343EFE78343F5E753
:10061000D2F81C120143C2F81C12D2F8000220F0DA
:100620000100C2F80002002010BD90F82020012A2D
:1006300007D0022A05D0416A41F48021416201209D
:100640007047006842698A434261002070477047E2
:1006500030B590F82040012C05D0022C03D0416A1F
:1006600041F480215DE00468002955D02469A40785
:1006700054D04FF4D874056804EB01142D5915F0CB
:100680000405956005682D594ED0ED085560056844
:100690002C5904F00204D4604FF4DA74056804EBBA
:1006A00001142D5905F00F05156105682D59C5F385
:1006B0000725956105682C59240C54614FF4DC72B0
:1006C000046802EB0112A4581C700468A458240AA0
:1006D0005C700468A458240C9C700468A258120E24
:1006E000DA704FF4DE72046802EB0112A4581C7138
:1006F0000468A458240A5C710468A458240C9C71F2
:100700000468A258120EDA71006881B1016941F0E3
:1007100020010161002030BDE468A8E7416A41F48E
:1007200000114162012030BD6D0D1560AFE7C16859
:1007300041F02001C160EDE72DE9F05F054600685A
:1007400000244669D0F804908768D0F80CB0D0F83F
:1007500010A0D0F81880F10748D0F90714D0012173
:100760008160B80703D5284600F07AFA0CE07807D4
:1007700002D54FF4006407E0380702D54FF48054E7
:1007800002E0284600F06AFAF80516D529684FF409
:1007900080708860B80503D5284600F06BFA0CE03D
:1007A000780502D544F4005407E0380502D544F436
:1007B000804402E0284600F05BFAF80316D5296869
:1007C0004FF480308860B80303D5284600F05CFA07
:1007D0000CE0780302D544F4004407E0380302D566
:1007E00044F4803402E0284600F04CFA300707D584
:1007F0005FEACB6004D52968102044F40074C86017
:1008000070074FF0080707D55FEA0B7004D528681A
:10081000C760284600F072F9B00706D52868C0689E
:10082000800702D0284600F06BF9700607D55FEA12
:10083000CA6004D52968102044F480640861B006B9
:1008400007D55FEA0A7004D528680761284600F0DA
:1008500079F9F00606D528680069800702D0284695
:1008600000F072F9B00308D55FEAC96005D52968C0
:1008700010204860284600F0C3F9F00307D55FEA6E
:10088000097004D528684760284600F005FA30044E
:1008900046D55FEA497040D5F00504D55FEAC870D7
:1008A00001D044F00104B00504D55FEA887001D599
:1008B00044F00204700504D55FEA487001D544F0A5
:1008C0000404300529D518F0700F26D008F0700008
:1008D000402815D006DC102809D020280AD030285E
:1008E00016D10AE050280ED0602811D10EE044F055
:1008F00008040DE044F010040AE044F0200407E08E
:1009000044F0400404E044F0800401E044F48074C6
:100910002868816921F0700181612968042048609C
:10092000002C05D0686A204368622846FFF78FFED6
:10093000BDE8F09F70B5040003D094F8200010B11A
:1009400004E0012070BD204600F082F820680168B4
:1009500041F00101016000F0ADFA0546052604E012
:1009600000F0A8FA401B0A2811D820684068C00788
:10097000F6D02068016821F00201016000F09AFAC7
:1009800005460BE000F096FA401B0A2806D9606A7B
:1009900040F40030606284F82060D2E7206840684C
:1009A0008007EFD4207E0128206801683DD021F027
:1009B00080010160607E01282068016838D021F044
:1009C00040010160A07E01282068016833D021F039
:1009D00020010160E07E0128206801682ED041F0EE
:1009E00010010160207F01282068016829D021F0D2
:1009F00008010160607F01282068016824D021F08F
:100A000004010160D4E902010843D4E9041211434E
:100A100008436168491E08432168C861002060627C
:100A2000012084F82000002070BD41F08001C0E763
:100A300041F04001C5E741F02001CAE721F0100173
:100A4000CFE741F00801D4E741F00401D9E7000005
:100A500010B586B0002100910191029103910068C8
:100A60002349884242D12348C16941F00071C161E4
:100A7000C16901F000710491816941F00401816153
:100A800080691D4C00F0040004904FF40060009059
:100A90006946204600F014F9A0140090022001904D
:100AA000032003906946204600F00AF9002211460F
:100AB000132000F09FFA132000F08EFA0022114656
:100AC000142000F097FA142000F086FA0022114654
:100AD000152000F08FFA152000F07EFA0022114652
:100AE000162000F087FA162000F076FA06B010BD46
:100AF0000064004000100240000801407047000000
:100B000010B50C4B0C4A0021FFF7A2FD0A48006803
:100B1000C0F3C3110E2909D100F07F010748491E17
:100B2000082901D2322100E0282101700449012066
:100B3000087010BD2E00002030030020650000204A
:100B4000500000207047000070B5284B284A012152
:100B5000FFF77EFD254C1A3C20791E2802D125483E
:100B60000178D9B1224AF020118800EAD103E07956
:100B700000EB8005A2F5167000F81530E37901F05E
:100B80007F0103EB830300EB43035970E17901EB31
:100B9000810110F81110C02912D107E016490A7816
:100BA00042F010020A701421017070BDE17901EB6E
:100BB000810100EB41014978104B1B789942F4D137
:100BC0001269E17901EB810100EB41000749801CCA
:100BD000FFF7FAFAE0791D2806D0E079401CE071B1
:100BE0002079401C207170BD0020F8E7260000200D
:100BF0001403002090000020480000204400002042
:100C00007047000070B5044690F82000012804D019
:100C1000606A40F40020606218E0022084F820003E
:100C20002068016821F00101016000F043F90546E8
:100C30000EE000BF00F03EF9401B0A2808D9606AA8
:100C400040F400306062052084F82000012070BD6F
:100C500020684068C007EDD1606270BD7047000039
:100C600002480188491C0180FFF796BB2000002044
:100C70007047000002484188491C4180FFF78CBB47
:100C8000200000207047000002488188491C8180B4
:100C9000FFF782BB200000207047000070B50446BB
:100CA00000F008F90546601C02D0044800780444AE
:100CB00000F000F9401BA042FAD370BDAC00002048
:100CC0002DE9F84FDFF8B891002409F1040A0AF180
:100CD000040B23460F270BF1040EC9E00125A540A4
:100CE0002A40AA427DD1674ED1F804C0ACEB060879
:100CF000B44532D014DCBCF1030F3AD009DCBCF1AE
:100D0000000F2AD0BCF1010F1CD0BCF1020F31D171
:100D10001DE0BCF1110F17D0BCF1120F2AD119E060
:100D2000B8F5881F19D006DCB8F5803F15D0B8F5A6
:100D3000801F1FD111E0B8F5001F0ED0B8F5041FB9
:100D400018D10AE0CB6815E0CB681B1D12E0CB6818
:100D500008330FE0CB680C330CE08B682BB1012B10
:100D60004FF0080303D0456104E0042302E005616D
:100D700000E00023FF2A01D8064601E000F1040646
:100D80004FEA840501D9A5F12005D6F8008007FABD
:100D900005FC28EA0C0803FA05F548EA0508C6F838
:100DA00000804D68ED0062D5374DAE6946F0010612
:100DB000AE61AD6924F0030605F001050095334DE1
:100DC00006EB050CDCF80850A607360F07FA06F804
:100DD00025EA0805DFF8B880404503D14FF0000848
:100DE00017E044E0DFF8AC80404502D14FF0010845
:100DF0000FE0DFF8A480404502D14FF0020808E080
:100E0000DFF89880404502D14FF0030801E04FF031
:100E1000040808FA06F848EA0508CCF808804D6886
:100E2000D9F80060ED034D4601D5164300E0964326
:100E30002E604D68DAF80060AD03554601D51643C3
:100E400000E096432E604D68DBF80060ED025D46E1
:100E500001D5164300E096432E604D68DEF8006031
:100E6000AD02754601D5164300E096432E60641C22
:100E70000D682A46E5407FF431AFBDE8F88F0000E9
:100E80000004014000001110001002400000014069
:100E900000080140000C0140001001400014014016
:100EA0008068084000D0012070470AB10161704796
:100EB0000904FBE70148806870470000AC0000208F
:100EC00070B5040011D021684CF6CC400860216850
:100ED00045F255500860D4E9000141602168A068DE
:100EE0008860FFF7E7FF05460DE0012070BD00BFF9
:100EF000FFF7E0FF401B272805D92068C06880075E
:100F000001D0032070BD2068C0688007F0D121683F
:100F10004AF6AA200860002070BD00684AF6AA219F
:100F20000160002070470000024881680278114487
:100F300081607047AC000020074810B5016841F09F
:100F400010010160032000F075F80F2000F006F892
:100F500000F024F8002010BD0020024070B50D4DB7
:100F600004464FF47A712878B1FBF0F00A49096819
:100F7000B1FBF0F000F0DEFA48B9102C07D20022E5
:100F80002146501E00F036F800206C6070BD012034
:100F900070BD0000AC000020B80000200C4808B56F
:100FA000816941F001018161816901F001010091D4
:100FB000C16941F08051C161C06900F0805000906A
:100FC0000448416821F0E06141F00071416008BDD2
:100FD0000010024000000140002809DB00F01F0261
:100FE000012191404009800000F1E020C0F800118B
:100FF00070470000F0B40E4B1B680C46C3F302238D
:10100000C3F10705042D00D90425191D072901D2B4
:10101000002300E0DB1E012606FA05F1491E2140EF
:1010200099409E40761E16403143F0BC01F093BBC0
:101030000CED00E0064900F0070208684FF6FF03D8
:10104000184040EA0220034A10430860704700003D
:101050000CED00E00000FA05BFF34F8F0548016872
:10106000054A01F4E06111430160BFF34F8F00BFF7
:10107000FDE700000CED00E00400FA052DE9F04763
:101080000F46050061D0434E306800F00700B842BB
:1010900009D2306820F0070038433060306800F033
:1010A0000700B84251D128683B4C810712D5400750
:1010B00003D5606840F4E06060602878000703D5DD
:1010C000606840F4605060606068A96820F0F000DB
:1010D000084360602878C00728D06868012810D0CD
:1010E0002168022810D0890700292EDA616821F0D2
:1010F000030101436160FFF7DDFE804641F288395C
:101100000DE021688903EFE78901EDE7FFF7D2FEE3
:10111000A0EB0801494502D90320BDE8F0876068CB
:10112000696800F00C00B0EB810FEFD1306800F07F
:101130000700B8420BD9306820F007003843306010
:10114000306800F00700B84201D00120E5E72878B8
:10115000400705D56068E96820F4E06008436060F6
:101160002878000706D56068296920F4605040EAB5
:10117000C100606000F018F86168084AC1F303110B
:10118000515CC8400649086006480068FFF7E6FE63
:101190000020C2E700200240001002406842000820
:1011A000B8000020B000002012A185B00FC98DE862
:1011B0000F0014A0144A006804905168134801F00D
:1011C0000C03042B10D0082B0ED1C1F38343C903A9
:1011D0001DF803000AD5516804AAC1F34041515CCF
:1011E0000A4A5043B0FBF1F005B070470849484344
:1011F000FAE7000002030405060708090A0B0C0DB4
:101200000E0F1010010200000010024000127A00C0
:1012100000093D002DE9F84F040070D02078C04D42
:10122000C00749D06868C0F38100012807D068680A
:10123000C0F38100022809D16868C00306D5286878
:10124000800339D560680028E7D035E06068B0F5E4
:10125000803F0BD010B1B0F5A02F11D0286820F43A
:1012600080302860286820F4802002E0286840F45C
:1012700080302860606890B1FFF71CFE06460AE0E7
:10128000286840F480202860F0E700BFFFF712FED6
:10129000801B642873D828688003F7D50CE0FFF71B
:1012A00009FE064605E000BFFFF704FE801B642828
:1012B000F0D828688003F7D420789A4E80074FF042
:1012C00001094FF0000839D5686810F00C0F07D0FD
:1012D0006868C0F38100022809D16868C00306D499
:1012E0002868800714D52069012808D110E02069FA
:1012F000B0B1C6F80090FFF7DDFD074605E00AE152
:10130000FFF7D8FDC01B0228C4D828688007F7D58E
:101310002868616920F0F80040EAC10028600DE00B
:10132000C6F80080FFF7C6FD074604E0FFF7C2FDE0
:10133000C01B022823D828688007F7D4207800072C
:101340002CD57948A169D9B1C0F80090FFF7B2FD5A
:10135000074604E0FFF7AEFDC01B02280FD8686AFD
:101360008007F7D571484FF4FA510068B0FBF1F0EF
:10137000009000BF0098411E0091FAD20EE080E07C
:10138000C0F80080FFF796FD074604E0FFF792FDE6
:10139000C01B022875D8686A8007F7D420784007F8
:1013A00060D5E8690027C00008D4E86940F08050A3
:1013B000E861E869012700F0805000905C4801680E
:1013C000C90513D40168834641F480710160FFF7B9
:1013D00071FD824606E000BFFFF76CFDA0EB0A003E
:1013E00064284ED8DBF80000C005F5D5E068012878
:1013F0000AD008B1052813D0286A20F0010028621D
:10140000286A20F0040002E0286A40F00100286207
:10141000E06841F2883B98B1FFF74CFD82460BE053
:10142000286A40F004002862EEE700BFFFF742FDA3
:10143000A0EB0A0159455AD8286A8007F6D50CE076
:10144000FFF738FD824605E0FFF734FDA0EB0A0107
:1014500059454CD8286A8007F6D41FB1E86920F0B6
:101460008050E861E06988B36968C1F381010229AD
:1014700044D00228C6F8608004D0FFF71BFD044664
:1014800038E034E0FFF716FD074604E0FFF712FDF1
:10149000C01B02282BD828688001F7D4206AB0F539
:1014A000803F05D16868A16820F400300843686077
:1014B000D4E908010843696821F47411084368609D
:1014C000C6F86090FFF7F6FC044606E025E000BF92
:1014D000FFF7F0FC001B022809D828688001F7D527
:1014E0001BE000BFFFF7E6FC001B022802D9032027
:1014F000BDE8F88F28688001F4D40EE00128F7D009
:101500006868226A00F48031914204D1616A00F473
:101510007010884201D00120EAE70020E8E70000CF
:10152000001002400000424280044242B800002005
:101530000070004010B5401EB0F1807F01D3012043
:1015400010BD4FF0E02460610F21601701F003F936
:101550000020A06107202061002010BD7047704767
:1015600070B590F83C20012A26D0012480F83C4038
:10157000022280F83D2003685A689D6822F07006B8
:101580000A6832435A600D4B02689A4208D0B2F1A1
:10159000804F05D00A4B9A4202D00A4B9A4204D19E
:1015A000496825F080031943916080F83D4000218F
:1015B00080F83C10084670BD022070BD002C014030
:1015C000000400400008004010B5040003D094F867
:1015D0003D0010B107E0012010BD002084F83C0060
:1015E000204600F01FF8022084F83D00211D2068ED
:1015F00000F08CFF012084F8460084F83E0084F857
:101600003F0084F8400084F8410084F8420084F8E8
:10161000430084F8440084F8450084F83D0000202D
:1016200010BD000008B501681D48B1F1804F11D010
:101630001C4A91421DD1C16941F00201C161C069DA
:10164000002200F00200009011461D20FFF7D2FC9E
:101650001D201FE0C16941F00101C161C069002284
:1016600000F00100009011461C20FFF7C3FC1C2075
:1016700010E00D4A914211D1C16941F00401C161EC
:10168000C069002200F00400009011461E20FFF700
:10169000B1FC1E20BDE80840FFF79EBC08BD00005D
:1016A00000100240000400400008004090F83D1087
:1016B000012901D001207047022180F83D10016806
:1016C000CA6842F00102CA6000680B49884208D02B
:1016D000B0F1804F05D00949884202D008498842BC
:1016E00004D1816801F00701062903D0016841F0A7
:1016F0000101016000207047002C014000040040FF
:101700000008004070B5044690F83C00012817D04E
:10171000012584F83C50022084F83D00206882684E
:1017200022F0770222F47F4282600868502830D08D
:101730000DDC20284DD005DC98B310283BD148E0C3
:10174000022070BD302844D0402834D139E06028D0
:1017500028D0702806D0B0F5805F2CD0B0F5005F9F
:1017600029D10AE0CB68D1E90121206800F004FF0B
:101770002068816841F0770109E0CB68D1E9012157
:10178000206800F0F9FE2068816841F480418160A2
:1017900011E0CA684968206800F000FF5021206805
:1017A00007E016E0CA684968206800F008FF602179
:1017B000206800F0EBFE84F83D50002084F83C00E7
:1017C00070BDCA684968206800F0E8FE40212068C2
:1017D000EFE7226801461046EBE7704770B5044614
:1017E000006801694FF00005C943890715D4C16835
:1017F000C943890711D4E91E0161012020772068BF
:1018000080698007204602D0FFF7E7FF04E000F080
:1018100098F8204600F096F8257720680169C943BA
:10182000490717D4C168C943490713D46FF00401AD
:101830000161022020772068806910F4407F2046F3
:1018400002D0FFF7CAFF04E000F07BF8204600F06A
:1018500079F8257720680169C943090716D4C1685A
:10186000C943090712D46FF00801016104202077F1
:101870002068C0698007204602D0FFF7AEFF04E071
:1018800000F05FF8204600F05DF8257720680169D8
:10189000C943C90617D4C168C943C90613D46FF038
:1018A00010010161082020772068C06910F4407F92
:1018B000204602D0FFF791FF04E000F042F82046F6
:1018C00000F040F8257720680169C943C90708D1AD
:1018D000C168C943C90704D1891E0161204600F0CF
:1018E00033F820680169C943090609D4C168C943AE
:1018F000090605D46FF0800101612046FFF72EFE36
:1019000020680169C943490609D4C168C943490629
:1019100005D46FF040010161204600F033FA2068E1
:101920000169C94389060BD4C168C943890607D434
:101930006FF0200101612046BDE87040FFF70FBE47
:1019400070BD7047704700002DE9F05FE2498046A6
:1019500000680968DFF884930126DFF884A3002576
:1019600088427DD1DF48017841F004010170DE49F1
:10197000087808B1401E0870DC48017811B1017880
:10198000491E0170007808B9D9480670D948017815
:1019900011B10178491E0170D749087808B1401E7D
:1019A0000870D649087808B1401E0870D4490878F4
:1019B00008B1401E0870D349087808B1401E08706D
:1019C000D149087808B1401E0870D0480178491CF8
:1019D00001709AF80210491C8AF80210CC49087864
:1019E000CC4ACD4B552808D015801D70CB4A00201D
:1019F00012F83030442B0DD020E01088471C17809F
:101A0000C74A12889042F1D9C64800780028EDD024
:101A10001E70EBE702EBC00C9CF8073073B15B1E45
:101A200013F0FF038CF8073008D199F8007006FA1C
:101A300000F39F4389F800708CF80550401CC0B239
:101A40000828D5D3B8480278D30712D0B74B1F78EF
:101A5000B74B1B7867B1170607D522F0800200E06C
:101A600007E002705520087003E042F08002027027
:101A70000B70B048D8F800100068814260D1AE48C1
:101A8000007828B9AD48018811B10188491E01804C
:101A9000DFF8ACB29BF80030ABBBAA48417881704C
:101AA00001784170A8490968C1F3C3210170027827
:101AB0000F219143017000224FEA000E06FA02F056
:101AC000C1B29EF8027070469EF801C00F400CEA49
:101AD000010C674513D1477890F800C00F400CEA1D
:101AE000010C67450BD1994F97F800C02CEA010C07
:101AF00087F800C080780840397808433870521C55
:101B0000D2B2082ADAD35B1CD9B28BF800100729AD
:101B100001D18BF8005099F800708D48DFF82892B9
:101B200020210078A9F10809474007F00102484642
:101B3000FFF7BBF9C7F3400210214846FFF7B5F99C
:101B40008449D8F80000096888427DD19AF80100DC
:101B50008149401CC0B28AF8010009785746002923
:101B600073D13221B0FBF1F201FB120010B97B48B6
:101B700006703E707A480178042902D2491C01702F
:101B800002E0784905700D7061494B78764A0D2B5B
:101B900004D20378134493F898301BE04B780C2B55
:101BA00007D94B78102B04D20378134493F8A43050
:101BB00010E04B78102B09D065F307048B780D2BC0
:101BC0000BD20378134493F89C3066E003781344F7
:101BD00093F8A03063F30704F0E78B780C2B07D958
:101BE0008B78102B04D20378134493F8AC3054E074
:101BF0008B78102B4DD064F307040B78E4B202EB22
:101C0000830C037881461CF803000443887802EBB8
:101C10008000C05C44EAD0004C78897802EB8404F0
:101C2000E45C02EB8101C95C490744EA11684F4C4E
:101C3000C4F8845104F5C27400F078FB404600F00B
:101C400075FB99F8000001E043E016E006FA00F0A9
:101C5000C1B23D48001D02684FF6F0731A400260A1
:101C6000266000BF00BF00BF00BF256000BF00BFEF
:101C700000BF00BF02680A4302603878002828D0FD
:101C80003B49087890B1401E10F0FF00087008D062
:101C90000CE00378134493F8A830234363F307045C
:101CA000ABE73448017841F008010170324801780F
:101CB00071B1491E11F0FF01017009D12F490D705A
:101CC0002F490A7818490A7005701B487F21017056
:101CD0003D70BDE8F09F0000F80300205F00002089
:101CE0003E000020AB0000204700002065000020DF
:101CF0004F000020510000206400002091000020CF
:101D000049000020570000209000002054000020CF
:101D1000040000209A000020950000208403002089
:101D2000980000209C0000204C0000208B00002028
:101D30004D000020400400205A0000206A000020CE
:101D40008D0000206C000020080C01405D00002088
:101D5000630000208804002053000020520000206F
:101D60008A0000208C0000209A3F000800002142D9
:101D700093000020AA000020550000205B000020F6
:101D80008F0000207047FEE7F0B557488BB0002465
:101D90000471C4718471447144720472534A2146BF
:101DA00001EB8103002002EB43031C54401CC0B232
:101DB0000A28FAD3491CC9B21E29F1D34C4B002181
:101DC00001EB8102002003EB42021454401CC0B21C
:101DD0000A28FAD3491CC9B21E29F1D30125E80308
:101DE0004FF470468DE851000394CDE905540E2759
:101DF000CDE90857079569463E480495FEF79EFBD6
:101E000008B1FEF718FB0220CDE904503A48C02182
:101E1000007841EAD001090201EB40108DE8510041
:101E20000394CDE90857CDE9064569463148FEF7E8
:101E300085FB08B1FEF7FFFA0094CDE9014605A93C
:101E40000320CDE9034581E83100CDE90857694613
:101E50002848FEF773FB08B1FEF7EDFA0420059061
:101E60004AF260108DE851000394CDE90857CDE99E
:101E7000064569461F480495FEF760FB08B1FEF76A
:101E8000DAFACDE90064029605A90520CDE90345FB
:101E900081E83100CDE9085769461648FEF74EFB48
:101EA00008B1FEF7C8FA05A90A2081E831004EF210
:101EB0002000CDE90204CDE900040494CDE90857DF
:101EC00069460C48FEF73AFB13210A48FEF7B5FABB
:101ED0000848FEF797FE13210648FEF7AEFA0548BC
:101EE000FEF790FE0BB0F0BD0C000020BC000020FF
:101EF000E8010020C4030020440000202DE9F05F29
:101F00003C4C94F800805FEA887171D53D4ADFF857
:101F1000F8A000231178DFF8E0E0DFF8E0C0384FE8
:101F20009AF800504FF0030B4FF01009A1F1100682
:101F3000012821D0022835D0032855D15FEA087046
:101F400052D528F0080020703248304E304F0178CA
:101F50000DB151B148E071BB037001208AF8000057
:101F60002D48337003703B703EE003702B488AF8B5
:101F70000030337000782FE0EDB18EF800B0012D05
:101F800001D0042D15D132208CF800006E2E04D221
:101F9000491CC8B210707E2802D3484682F80090CF
:101FA000C0B219E03DB18EF800B0012D04D0042D6F
:101FB00002D0022D12D017E032208CF800006E2ED5
:101FC00007D2102902D0491E117004E07D20107044
:101FD00001E082F800901078387005E08CF800304D
:101FE0003970112000F060FD207820F00200207090
:101FF000BDE8F09FAA0000209100002055000020BD
:1020000046000020440000205B0000205C0000200F
:102010004C0000204E0000208B0000208F0000208C
:10202000F0B52E4800260068132101EAD02000F008
:10203000030151EA90022C49294D2A4B0F7810D008
:10204000104600245FEAC07C01D0761CF6B2641C06
:102050004008E4B2032CF5D3032E13D927F0020075
:1020600039E0AA20187027F01000020962F3C300BB
:10207000C20862F38610820962F3451008700020DE
:102080002870F0BD194C0020AA2AFAD0265C96428E
:1020900003D0401CC0B20628F6D3154C401C227851
:1020A000824201D02070F0BD187882420AD01A70A6
:1020B0001E20287027F0400040F00200830963F3DF
:1020C00045100870032AEED108780207EBD520F0FE
:1020D000040040F002000870F0BD0000080C014050
:1020E0009300002092000020AA0000206442000813
:1020F000560000200E4810B50C4901602D214160AA
:1021000000214FF440228160C0E903124FF4801295
:102110004261017641768176C17601774177FEF79B
:1021200009FC002801D072B6FEE710BD0064004033
:10213000C40300202DE9F04186B000242848009413
:10214000019402940394816941F0200181618169C5
:1021500001F020010491816941F0040181618169EC
:1021600001F004010491816941F0080181618069F5
:102170001C4F00F00800049001224FF48171384692
:10218000FEF793FE00224FF43F713846FEF78DFEB6
:10219000DFF8548000223F214046FEF786FE40F2E1
:1021A000FE3001250226CDE90005CDE9024669464B
:1021B0003846FEF785FD3F20CDE90005CDE9024612
:1021C00069464046FEF77CFD4FF47840CDE90004B7
:1021D000694640460294FEF773FD06B0BDE8F08103
:1021E0000010024000080140000C014010B586B00C
:1021F00000241748009401940294039404944FF02F
:1022000080410594016041F61F41C0E9011441F28B
:102210008731C0E903148461FFF7D6F908B172B6BB
:10222000FEE74FF48050009069460948FFF76AFACC
:1022300008B172B6FEE7049404A905480594FFF7B7
:102240008FF9002801D072B6FEE706B010BD00007D
:10225000F803002010B586B00024174800940194BC
:1022600002940394049413490594016041F61F41BC
:10227000C0E901141D21C0E903148461FFF7A4F92A
:1022800008B172B6FEE74FF48050009069460A48E4
:10229000FFF738FA08B172B6FEE7049404A90648BD
:1022A0000594FFF75DF9002801D072B6FEE706B08D
:1022B00010BD0000000400404004002010B586B0AE
:1022C0000024174800940194029403940494134941
:1022D0000594016041F61F41C0E901141321C0E9D2
:1022E00003148461FFF770F908B172B6FEE74FF48A
:1022F0008050009069460A48FFF704FA08B172B6A8
:10230000FEE7049404A906480594FFF729F900287C
:1023100001D072B6FEE706B010BD00000008004014
:1023200088040020FEE7FEE77047000030B50D4945
:102330000023C1F8943100BF0722012420FA02F5DE
:1023400005F00105C1F89C5100BFC1F8944100BFE0
:1023500000BFC1F8943100BF00BF00BF521EEDD5D1
:1023600030BD000000002142704700002DE9F04719
:102370003B48DFF8E890DFF8F48001783A4899F8B4
:102380000030384E027800244FF0550A08F103005F
:102390008B4202D1337893421AD0012A22D0042AE8
:1023A00020D0334B1B780370304BDB1D5D784570BC
:1023B0009B78837080F8034089F8001032700178B0
:1023C00088F80010417888F80110817888F80210A8
:1023D00028490A78002A3FD103220A70017855293A
:1023E0002AD123E080F800A0C470A1F110036E2B65
:1023F00017D25B1C0A2593FBF5F797FBF5FC05FB51
:102400001C77477093FBF5F705FB17358570642B38
:10241000D2DB194B1B7813B101230370CCE7562391
:10242000FBE72623437027238370C5E741785529AE
:1024300002D18178552905D0514680F800A080F856
:1024400001A007E098F80010017098F801104170A1
:1024500098F802108170C470BDE8F08788000020F1
:10246000440000205C0000205B00002001000020F0
:102470009E0000209100002053000020FEF754BD74
:1024800030B58FB028216846FDF7E3FE14210AA875
:10249000FDF7DFFE0920012100904FF48030002479
:1024A00004910691CDE901040225CDE907504FF4CE
:1024B000E01009906846FEF7ADFE08B172B6FEE77F
:1024C0000F20CDE90A054FF48060CDE90C400221D0
:1024D0000AA80E94FEF7D2FD002801D072B6FEE7DE
:1024E0000FB030BD704700000148FFF777B900001A
:1024F000F80300200148FFF771B9000040040020F4
:102500000148FFF76BB9000088040020F0B50268AD
:10251000164B174C174D4FF08047984205D0B842E4
:1025200003D0A04201D0A84203D122F070064A682D
:102530003243984205D0B84203D0A04201D0A8420D
:1025400003D122F44074CA6822434C6922F080020D
:10255000224302608A68C2620A688262984201D19C
:102560000969016301214161F0BD0000002C0140B7
:10257000000400400008004010B5846842EA0322CD
:1025800024F47F440A432243826010BD826822F013
:1025900070020A4342F007018160704710B5036A78
:1025A000046A24F001040462846924F0F00444EA1B
:1025B000021423F00A020A438461026210BD10B5BE
:1025C000036A23F0100303628369046A23F47043EF
:1025D00043EA023224F0A00343EA0111826101625E
:1025E00010BD00002DE9F05FDFF828A19AF8000087
:1025F000002871D04FF400414748FEF751FC47488E
:1026000001784748B9B347494A78303A4270C978A7
:10261000303981704FF0550E834680F800E0DFF8C6
:1026200008C10025414F424B8CF800500A263E70ED
:102630001978DFF8EC90A9F1040999F800008142BB
:1026400064D01878C04300075DD0002039490122CA
:1026500093F8008002FA00F414EA080F3DD08CF8D9
:1026600000503E700C7048B1012813D002281FD0D2
:10267000032843D126E0FFE72F49C5E74FF056086E
:102680005C468BF800804FF01E088BF801804FF0FD
:1026900019080AE04FF057085C468BF800804FF0AD
:1026A0000D088BF801804FF0170884F8028025E0B0
:1026B0008BF800E04FF00F088BF801808BF8028058
:1026C00008241AE08BF800E04FF015088BF8018021
:1026D0008BF80280042410E01AE0022806D291F858
:1026E000008028EA040881F8008007E00C7802D115
:1026F00024F0080401E024F004040C7000F101004F
:10270000C0B20428A4D3197889F800108AF80050C0
:10271000BDE8F09F94000020000C01405300002011
:1027200004000020004100088B000020570000201A
:102730005D0000205F000020FA4000080148FDF71E
:10274000FBBF0000C40300200148FDF7F5BF0000F7
:10275000C4030020FEE70907090E002804DB00F18E
:10276000E02080F80014704700F00F0000F1E02036
:1027700080F8141D7047000030B428494A791E2A99
:10278000FCD04A7AB82302EB8204254A02F81430BE
:10279000244B4C7A1B7804EB840402EB44046370F2
:1027A0004C7A802304EB840402EB4404A3701E4B98
:1027B0001C884D7A05EB850502EB4505EC701B88FE
:1027C0004C7A1B0A04EB840402EB44042371174B7C
:1027D0001B784C7A04EB840402EB440463714B7A5B
:1027E00003EB830302EB430398714C7A030A04EB77
:1027F000840402EB4404E3714C7A030C04EB84047C
:1028000002EB44042372497A000E01EB810102EBD2
:102810004101487230BC00F00BB800000C000020F1
:10282000E80100204400002066000020890000200C
:1028300030B52F4C87B0A089401CA0812D4800786E
:10284000002844D02C480078552840D0607A0025D4
:102850001D283ED0607A401C607201212748FDF798
:10286000E4FE207A00EB8001254800EB4101497825
:10287000227A02EB820210F8122002F0F00201EB41
:10288000C2010091217A01EB810110F8111002952B
:1028900001F00F01CDE90351217A154A01EB8101C5
:1028A00000EB410006AB50F8021FC4F82A10406844
:1028B000C4F82E002A3269461048FDF7D0FD50B109
:1028C0006079401C607101210C48FDF7B6FD07B02E
:1028D00030BD6572C1E76089401C6081207A1D2887
:1028E00003D0207A401C2072EDE72572EBE7000050
:1028F0000C0000205000002059000020C4030020DC
:10290000E80100208F280BD004DC022808D005281D
:1029100004D105E0902803D0912801D00020704711
:10292000012070472DE9F047284D95F82110002926
:1029300041D10127322185F82110E97DAA7AB846D4
:1029400011434FF000020BD1214955230B701A237C
:102950004B7014238B70EB7BABB12A7209786972D0
:1029600091462A73002826D01A4E002416F8340007
:10297000FFF7C8FF002806EBC40007D0C179B943B0
:10298000C1710DD013E085F80880E7E781783942FE
:102990000DD016F834100E2902D1417810290CD030
:1029A000EA7E08FA04F18A43EA7680F80590641C0E
:1029B000E4B2082CDAD3BDE8F087EB7E08FA04F223
:1029C0001A43EA7680F80580F1E700004400002011
:1029D000040000208403002070B52F4855220270A7
:1029E0000E2141700F2181700021C1702B480423FA
:1029F00080F82030C1744174322380F82130C184C2
:102A0000C172C1750176C171C47B0123F4B3017237
:102A10004272437040F2A112C262204A4FF4007326
:102A2000303213804FF440735380017741771C4B51
:102A30000175002203F13804C2EBC205EE18717172
:102A400004EBC2067171595504F83210521CD2B20F
:102A5000F171082AF0D3114C00223634E31DA15441
:102A60009954521CD2B2072AF9D38177C177C17623
:102A70000C4A1268C2F3C3224276437E074A2832C8
:102A80001370437E5370437E937000E001E08176C3
:102A900070BD0372BCE70000040000204400002069
:102AA0004C030020080C014030B4164A53791E2B09
:102AB000FCD0537AF82403EB8305134B03F815403D
:102AC000557A642405EB850503EB45056C70547A53
:102AD00004EB840403EB4404A070507A00EB800004
:102AE00003EB4000C17004200021547A04EB8404FD
:102AF00003EB44042154401CC0B20928F5D930BC72
:102B0000FFF796BE0C000020E8010020FEF714FA43
:102B1000FFF7B6FCFFF70EFBFFF7ECFAFFF766FBDB
:102B2000FFF798FBFFF7CAFBBF48BE490426C0E980
:102B3000001640F6FF718160FEF7C2F908B172B667
:102B4000FEE7B948FEF7E9F9B84C0022012120461A
:102B5000FEF7ABF9002202212046FEF7A6F900227B
:102B600004212046FEF7A1F9002208212046FEF7A5
:102B70009CF9AF4C012211022046FEF796F9012282
:102B800051022046FEF791F9A7480C30FEF78EFD62
:102B9000A5485430FEF78AFDA3489C30FEF786FD19
:102BA000A44D687D5A2823D0552821D0AA206875C5
:102BB0009D48FEF7B2F90024EC7310202870012024
:102BC00068709948FEF7A9F9AC752878E884A87070
:102BD000E98C4FF47A7201EB810102EB810103224F
:102BE000B1FBF2F101F51671E984102805D007E078
:102BF000287940F010002871D8E740F2A530E88429
:102C0000FFF7EAFE8848FEF788F9E88C0028F9D13A
:102C1000FFF7BAF80520FEF741F8B34685F82060C3
:102C20007F20854EA8758048FEF777F9307808B187
:102C300000F056F9688C28B1E87818B96C847F48A0
:102C4000FFF79AFDE87A18B1EC720020FFF76AFEF0
:102C500095F8200038B9287B28B1687B18B985F829
:102C600020B000F093FDA88C18B101F08FF82C7102
:102C7000AC84687D55280BD1687B48B9FFF784F890
:102C8000287940F01000287148F24010A8846C7533
:102C9000A87D7F28C7D0322085F82100A046EC729D
:102CA0006148FEF73AF9AC7600F096FDDFF87891CE
:102CB000B246A9F1A0095C48FEF72FF99AF8000086
:102CC00008B100F00DF9A87BB0B1FFF7A9F9A87C15
:102CD000FFF714F9E87D10B1FFF748FB0AE0A87D83
:102CE000F02805D0A87A012804D1287C0A2801D927
:102CF000FFF778FC85F80E80688C30B1E87820B951
:102D0000A5F822804D48FFF737FD95F8200048B917
:102D1000287B38B1687B28B9E87D18B985F820B0E0
:102D200000F034FDA88C28B101F030F885F804805B
:102D3000A5F82480E87A20B185F80B800120FFF700
:102D4000F1FD687D552801D1687B10B1287C2828C9
:102D50000AD985F8158085F81080287940F0100090
:102D6000287148F24110A884AB7D7F2B10D1697E79
:102D7000A87F4A464140002021FA00F4C0EBC0067B
:102D80001644401C04F00104C0B274710828F3D347
:102D9000052B90D16E7EA87F4640A87E86428AD0C1
:102DA0005FF0000426FA04F000F00101A87EE04084
:102DB00000F0010088421DD0C4EBC40202EB0907F9
:102DC000797119F802C0BCF1000F13D0194A002024
:102DD00036323B5C1354401CC0B20728F9D3BCF117
:102DE000020F0DD0BCF1050F00D119B111483630DA
:102DF00001F010F8641CE4B2082CD3D3AE765AE785
:102E0000E87D0028F6D1687918B1F878A979884268
:102E100003D00848363000F0FDFF02206871F878D2
:102E2000A871E7E700300040EC030020000C0140EF
:102E300000080140440000201000002000000405AC
:102E400078B5264D00EB400605EB8602481E147946
:102E500003D300FB04F3DBB200E0002335F8265077
:102E6000B5F5C34F1FD00ADC05F6EA75B5F5005578
:102E700026D005F6B665B5F5C04F07D10DE005F5CE
:102E8000ED55B5F5004508D0202D12D0002000905A
:102E90009168002906D06A461CE091680978C14013
:102EA000C807000C78BD9268C1EBC100C01F105C60
:102EB00078BD90686FF0070202EBC101405C78BDFD
:102EC00046F2A81000EB014078BD1D184D5D155469
:102ED000401CC0B2A042F8D3009878BD2041000841
:102EE0002DE9F04FFB4C87B0A079FB4900EB800047
:102EF00011F81080FA48FC4EF84A90F800C05523AB
:102F0000DFF8E0E30025F94F3078B8F1A00F70D07A
:102F100006DCB8F1000F6DD0B8F1800F2BD108E0BE
:102F20004FF00A0BB8F1C00F26D0B8F1F00FF5D171
:102F300049E2A07900EB800001EB40008078A379A2
:102F400003EB830301EB4303DB78002813D01078F5
:102F50000528E3D1E64A0020A37903EB830301EBC4
:102F6000430303449B781354401CC0B20728F3D397
:102F7000DF4800F06BFCECE2A07900EB800001EB95
:102F800040008778DFF86CA307F0E008DA48DB4AF6
:102F9000DB4BDFF87093DC4EB8F1400F7CD006DCE1
:102FA000B8F1000F62D0B8F1200F06D107E0B8F1F8
:102FB000600F72D0B8F1800F70D0D44816E0A079BD
:102FC00000EB8002C44800EB4201B1F80380A17914
:102FD00001EB810100EB41004079BE4B01460190BD
:102FE000DB1C3A46404600F08BFB20B1FFF7C4FBE8
:102FF000AFE27EE2A4E1B8072ED5A079B64E00EB91
:10300000800006EB40000199D0F80620E07800F03F
:103010002DFF0028EAD1A079414600EB800006EBA5
:103020004000019AD0F80630602000F0D7FAA8F5E9
:103030001051CA399FD1B64801220178B54811B163
:10304000012907D002E0A649097819B10570007876
:10305000B149B0E10270FAE7002341466020019ACD
:1030600000F0BCFAA9F800800198ACE0B9F800C003
:10307000BCF1000F14D0F80671D4F8070FD0B9F8DE
:1030800000001138B0F5C0400DD0EF281DD0A0F5DC
:103090008070EF385FD13CE062E0A5E013E19F482B
:1030A000FFF76AFB0FE1924A0020A37903EB830349
:1030B00001EB43030344DB781354401CC0B20728E0
:1030C000F3D38B4800F0C2FB45E000203378A779AA
:1030D000C3EBC3031344034413F8073C07EB870710
:1030E00001EB47070744FF78BB420DD0A37903EB00
:1030F000830301EB43030344DB783778C7EBC7074F
:103100001744074407F8073C401CC0B20528DDD32C
:1031100021E03278A77903EBC202024412F8082CAE
:1031200007EB870701EB47070744FF78BA420CD04B
:10313000A27902EB820201EB42020244D278377894
:1031400003EBC707074407F8082C401CC0B205284A
:10315000DFD300F041FB002211462020B1E04AE01D
:10316000A07900EB800001EB4000B0F80300039071
:10317000A07900EB800001EB40004079554B804680
:103180000146DB1C3A46039800F0BAFA00287FF4A7
:1031900015AFE078624900EB400201EB8202117941
:1031A0009378042913D9B8F1000002D10BB102467B
:1031B00015E00B4602464020039900F00FFA0398F1
:1031C000A9F80000404630708AF800B0C1E1B8F1BB
:1031D000000100D113B9FFF733FE034642464220F7
:1031E000039900F0FBF9B4E1B9F8001000293FF4AD
:1031F00057AFF80601D54B4852E7B9F8000046F240
:103200001007C11BB84249D00ADC00F6F87004A9C7
:10321000B0F500500CD001281CD0022853D12BE06F
:1032200001293DD0F0293ED0B1F5F87F4BD142E0E5
:103230003D4B3E4A002000BFBCF1000F08D0175C98
:103240000F54401CC0B20628F6D30A46062111E0EE
:103250001F5CF5E7364B374A002000BFBCF1000F7A
:1032600006D0175C0F54401CC0B20628F6D310E0FD
:103270001F5CF7E7012024E02F4A00204FEA0E03ED
:10328000BCF1000F08D01F5C0F54401CC0B20628D0
:10329000F6D30A460521EDE7175CF5E7274A00E07B
:1032A000134A0721E6E730780721C0EBC00002444B
:1032B0000120D21F05E03078072103EBC002012076
:1032C000083A00F0DDF9A9F8005035708AF800508E
:1032D0003FE100000C000020BC0000205A0000204C
:1032E000530000200041000844000020040000209A
:1032F0008100002047000020000001064C03002050
:1033000084030020660000208900002001000405DD
:103310004B0000204C0000208F0000201200070608
:1033200020410008000003050C4100081841000876
:103330000641000812410008FA4000087A00002007
:10334000A67906EB860601EB4606F6780EB18642B4
:1033500016D1A07900EB800001EB40008078822834
:103360000ED006DC012809D0802809D0812807D199
:1033700007E0F0280AD0F22802D10CE005201070F6
:10338000E7E088480570FDF767FEE2E0F020107086
:10339000062085490FE0BCF1000F0ED09EF8011009
:1033A000303979709EF803003038B8703B707F4830
:1033B0007F49057004200870CBE07E4841783039A1
:1033C0007970C078F0E7A77907EB870701EB47072B
:1033D0007F78652F4CD1A779894607EB870701EBEA
:1033E000470191F80280744FDFF8D0A17449B8F119
:1033F000110F09D0B8F1120F3BD0B8F1130F6AD0FA
:10340000B8F1140F34D163E0022008703D70A07948
:1034100000EB800009EB4000C0783070A07900EB31
:10342000800009EB400082798AF80020A27950469A
:1034300002EB820209EB420212798AF80120A2799A
:1034400002EB820209EB420149798AF80210BCF1D1
:10345000000F02D00178202900D80370427885211E
:10346000202A00D841708278202A72D88AF8021067
:103470006FE003220A705349A0F110026E2A0D700A
:1034800051468AF800301DD20F385A4690FBF2F3AD
:1034900090FBFBF630330BFB16003030DBB2C2B2D0
:1034A0004B70494F494E8AF802200020395C8B420C
:1034B00000D170708A4200D1B070401CC0B2242884
:1034C000F4D346E05620487057208AF8020040E0C6
:1034D000042008700BE03348A52303700878022805
:1034E00004D17F2010703A48007830700D703D7024
:1034F0002FE0A07900EB800001EB40004078A2793A
:1035000002EB820201EB420292780B2821D102BB2E
:10351000304A0020A37903EB830301EB4303034408
:103520009B781354401CC0B20828F3D3D07901060D
:10353000F97802D541F0020101E021F00201F970B1
:10354000C007F87802D040F0010001E020F001004F
:10355000F87012212048FDF768F8A0791D281FD0C7
:10356000A079401CA0712079401E2071E579267950
:1035700012211948FCF761FFA079854201D21E355E
:10358000EDB21E20B6FBF0F100FB1160A179691AC3
:10359000884202D003485A21017007B0BDE8F08F7D
:1035A000A571E0E759000020570000208B000020A3
:1035B00064000020FA4000085C0000209E0000200B
:1035C0005B00002088000020743F000808000020F5
:1035D00046000020A2000020C4030020F0B4254CC7
:1035E00065791E2DFCD0657AB82605EB8507224D3E
:1035F00005F81760214E677A367807EB870705EBE9
:1036000047077E70667A06EB860605EB4606B070C5
:10361000607A00EB800005EB4000C170080A617A17
:1036200001EB810105EB41010871607A00EB80003C
:1036300005EB40004271607A00EB800005EB400032
:103640008371617A180A01EB810105EB4101C871B0
:10365000617A180C01EB810105EB41010872617A76
:10366000180E01EB810105EB41014872F0BCFFF738
:10367000DFB800000C000020E8010020440000201A
:10368000F0B41C4C63791E2BFCD0637AB82503EB95
:103690008306194B03F81650184D667A2D7806EB01
:1036A000860603EB46067570657A05EB850503EB28
:1036B0004505A87000200AE012F8015B667A06EB67
:1036C000860603EB46060644F570401CC0B28842ED
:1036D000F2D3002008E0627A02EB820203EB42029E
:1036E0000A44D070491CC9B20729F4D3F0BCFFF7D3
:1036F0009FB800000C000020E801002044000020DA
:10370000F0B5002426461D4D4FF6FF7E2BE0874284
:1037100027D105EB8C06B6788E4221D30120B0EB81
:10372000521F1AD104EB440005EB800514482E7992
:10373000920707D5042E07D9002910D1AA78002AAC
:103740000DD001E0042E0AD90D48EA78801C002A29
:1037500005D011B9A978002901D11C700020F0BD55
:103760000126641CE4B204EB440C35F82C70774558
:10377000CDD10EB10348F0BD0348F0BD2041000893
:103780000000010611000906000002060E484179FA
:103790001E29FCD0417AE12201EB81030B4901F89B
:1037A00013200B4A437A127803EB830301EB4303A4
:1037B0005A70084A407A127800EB800001EB400012
:1037C0008270FFF735B800000C000020E8010020EF
:1037D000440000205A00002030B51A49002008702B
:1037E000194B012213F830408F2C25D006DC022C17
:1037F00022D0052C20D00E2C14D104E0902C1BD00C
:10380000912C0FD118E003EBC00464780A2C13D07C
:1038100004DC012C10D0092C04D10DE09A2C0BD023
:10382000A12C09D00D7802FA00F4A5430D70401CBC
:10383000C0B20828D6D330BD0D7802FA00F42C436C
:103840000C70F4E761000020840300202DE9F047AC
:103850000678014600253046FFF754F8FC4CFD4B36
:103860000122E8B3022E05D04878FF284FF000006F
:1038700002D024E0C878F8E714F83070B74218D1C5
:1038800004EBC00797F806C0BCF1010F11D197F8FF
:1038900007C091F802803CEA080C87F807C008D1FD
:1038A00093F8008002FA00FC28EA0C0883F80080F4
:1038B0007D71401CC0B20828DED3BDE8F0870E78C9
:1038C00014F83070BE4240D104EBC0064F7896F831
:1038D00001C0674539D1CF7896F803C0674500E04D
:1038E00038E032D18F7896F802C017EA0C0F2CD04E
:1038F00096F804C091F804802CEA080C5FEA0C7C6E
:1039000023D196F806C0BCF1010F1ED191F805C075
:103910005FEACC7C0FD093F8008002FA00FC4CEAFE
:10392000080C83F800C096F807C04CEA070C86F82C
:1039300007C0727109E0F57193F800C002FA00F750
:103940002CEA070C83F800C07571401CC0B208282F
:10395000B5D3B2E7C04FDFF804C3C148402E10D042
:10396000422E41D0412E75D0492E73D0442E6BD0BB
:103970000E2E6AD0142EFCD0152EFAD0452E7CD0F7
:1039800039E08A783B789A4297D19CF80020002A47
:1039900093D10C794B790021B24A5525565CB4423B
:1039A00001D1417007E064B1202C0AD01EB1491C3E
:1039B000C9B25F29F2D30021545CA34203D18170C4
:1039C00009E04570F7E76CB163B1202B0AD0491CC0
:1039D000C9B25F29F0D381785529BAD12621417027
:1039E000272174E18570F6E78E783F78BE4202D1D8
:1039F0009CF800607EB100200E7814F83070BE4252
:103A000008D104EBC0064F7896F801C067457DD019
:103A1000002FFCD0A9E14A79C2B14A7802F0030232
:103A200002700278022A00D9057003788E4A7BB1B1
:103A30004978C1F301111170017855310170007896
:103A40008A49087039E705E0C2E0F2E00570E8E76E
:103A50001570F1E74878864F412E19D0492EF1D1E3
:103A60000007EFD000200E7814F830C066450ED164
:103A700091F802C004EBC00600E035E196F8028040
:103A8000C44504D196F806C0BCF1010F5FD099E09F
:103A900000200E7814F830C0664553D104EBC00600
:103AA00091F802C096F80280C4454BD196F806C042
:103AB000BCF1010F46D191F801C096F80180E146B2
:103AC0000CEA080C5FEA8C7C02D1B8F1000F30D10F
:103AD00091F803C096F80380C44505D0BCF1FF0FF0
:103AE00002D0B8F1000F24D191F8048096F804C0F8
:103AF00018EA0C0F02D1BCF1000F1AD197F800C0E0
:103B0000BCF1000F10D05FEA191C00E006E110D1F3
:103B10000AE000BF93F8008002FA00FC4CEA080CAF
:103B200083F800C072710DE091F805C05FEACC7CAB
:103B3000F0D193F800C002FA00F82CEA080C83F8E0
:103B400000C07571401CC0B20828A2D3B5E691F838
:103B500001C096F80180E1460CEA080C5FEA0C7C93
:103B600027D091F803C096F80380C44502D0BCF179
:103B7000FF0F1ED191F804C096F804801CEA080FCC
:103B800017D097F800C0BCF1000F0DD05FEA191CE8
:103B90000FD109E093F8008002FA00FC4CEA080C0F
:103BA00083F800C072710DE091F805C05FEACC7C2B
:103BB000F0D193F8008002FA00FC28EA0C0883F8A0
:103BC00000807571401CC0B20828FFF44CAF74E649
:103BD00000200D7814F83060B54225D104EBC00503
:103BE0004F786E783740BF0700D1EEB9CE78EF78C6
:103BF000BE4202D0FF2E00D0B7B98E78AF78BE4259
:103C000012D10F792E79374200D16EB9AE79012EDB
:103C10000AD14E79F60707D01F7802FA00F63E4324
:103C20001E701426EE716A71401CC0B20828D0D3F1
:103C300043E64A788B2A3BD01EDC0E4B102A48D034
:103C4000812A35D0862A24D0882AC0D118E00000E5
:103C5000840300205F000020450000205B0000205E
:103C600004000020743F00088B0000204D0000205D
:103C70008E000020000801408F2A01D0902AA6D192
:103C80003D48882A22D08F2A1DD0902A9FD1497979
:103C900042E049790029C17804D041F00201C170A5
:103CA000012203E021F00201C1700022042116E08C
:103CB00049790029C17802D041F0010101E021F0E9
:103CC0000101C170F9E549794170F6E549798170E2
:103CD000F3E5487908B1012200E000221021BDE897
:103CE000F0471846FDF7E1B8C8784B7840EA032062
:103CF000A0F514530D3B9BD14879204BC0F3011123
:103D0000197000F00F01C1EB0111CB001C490B80B1
:103D10001C490A7081091C480170CEE5CF7896F8DD
:103D200003C0674521D18F7896F802C067451CD142
:103D300091F804C037791CEA070F00D1AFB9B77901
:103D4000012F12D14F79FF0708D093F800C002FA73
:103D500000F747EA0C071F70727106E01F7802FA3D
:103D600000FC27EA0C071F707571401CC0B20828C0
:103D7000FFF442AEA1E500000C00002096000020F8
:103D8000980000209C0000209D00002030B41C4AB8
:103D900050791E28FCD0507A182100EB8003194876
:103DA00000F813101849537A097803EB830300EBEA
:103DB000430359701549537A098803EB830300EBD9
:103DC00043039970537A090A03EB830300EB43031F
:103DD000D9700F49537A097803EB830300EB43034F
:103DE000197105210023547A04EB840400EB440488
:103DF0006354491CC9B20929F5D930BCFEF718BD76
:103E00000C000020E8010020440000206800002091
:103E10004800002030B4124A51791E29FCD0537A50
:103E2000972103EB83040F4B03F814100E49547AC7
:103E3000097804EB840403EB440461705FF0000133
:103E400010F8014B557A05EB850503EB45050D444C
:103E5000AC70491CC9B20729F2D330BCFEF7E8BCEC
:103E60000C000020E8010020440000202DE9F74369
:103E70003A4A00EB400502EB85064B1E347903D32A
:103E800003FB04F7FFB200E00027DFF8D08000EB6F
:103E9000400032F825C008EB80000CF5F55C806826
:103EA0004FF00109BCF5004C10D0DDF80880BCF1E2
:103EB000200F08F0FF081DD0BCF5807F06D0BCF5B0
:103EC000907F1CD070B3002002A929E00278029CE8
:103ED00022FA03F3C4F3C03403F00103A34207D072
:103EE0000123491E8B4014B11343DAB200E09A4318
:103EF000027030E078B3C1EBC101C91F04E050B3D8
:103F00006FF0070202EBC10100F8018023E00B5CB7
:103F100007EB0008D6F808C0401CC0B20CF8083007
:103F2000A042F4D332F82510A1F514500D3812D167
:103F30000B480C4A0078C0F30111117000F00F011A
:103F4000094AC1EB0111C9001180084A08498009DA
:103F500082F8009008700020BDE8FE832041000830
:103F60005800002096000020980000209C000020AF
:103F70009D000020323334353638394145464850AB
:103F8000524247534B3031374344494A4C4D4E4FD0
:103F9000545155565758595A2B2D0B01101A1A10B7
:103FA000101A101011111A10010B1B11010B1B110B
:103FB000111B1A10111B1111111B0B01010B010117
:103FC000010B111111110101111B0109111B1E140B
:103FD000141E1B11010B1A10020A010909011B1101
:103FE000111B101018100404080A0B01010B1E14F9
:103FF000141E0E04040E1B1110100B0101011111EF
:104000001B11111913111B11111B0404040E1B1990
:10401000111B1B11111101030901111B1111000AC0
:104020000A0004040A000A02080A00000000000056
:10403000000000000404040400000000000400006C
:104040000400000400000400000004000000000060
:104050000000000000000000000000000000000060
:104060000000000000000000000000000000000050
:104070000000000000000000000000000000000040
:104080000000000000000000000000000000000030
:104090000000000000000000000000000000000020
:1040A0000000000000000000000000000000000010
:1040B0000000000000000000000000000000000000
:1040C00000000000000000000000000000000000F0
:1040D00000000000000000000000000000000000E0
:1040E00000000000000000000000000000000000D0
:1040F0000000C8C8C8C83838383856312E3041009A
:1041000056312E34420056312E3300005647533577
:10411000303256312E310000472D37343200000046
:1041200000100000040000007000002001100000DA
:1041300001000000480000200810000006000000F8
:104140000C410008091000000500000006410008AD
:104150000A10000005000000FA40000816100800D0
:10416000040000000000000018100401040000001A
:104170000000000000600300020000007400002046
:1041800001600001010000004500002020610801DD
:10419000040000000000000040610801040000006D
:1041A00000000000606108010400000062000020BF
:1041B0008061080104000000520300202062080111
:1041C000040000000000000040620801040000003C
:1041D000000000006062080104000000630000208D
:1041E00080620801040000008A03002010600000C3
:1041F000070000000000000011600001070000003F
:10420000000000000061080107000000000000003D
:10421000006208010700000000000000FD2F000000
:10422000010000005D000020FE2F000101000000E1
:104230005F000020CA240001010000004B000020A4
:10424000EE240001010000008E0000200D25000179
:104250000100000058000020FFFF000000000000E7
:1042600000000000010204AA00000000000000009D
:104270000102030406070809984200080000002014
:10428000BC0000002801000854430008BC000020C6
:10429000740A000044010008000000000000000053
:1042A000000000000000000000000000000000000E
:1042B00000000000000000000000000000000000FE
:1042C00000000000000000000000000000000000EE
:1042D00000000000000000000000000000000000DE
:1042E00000000000000000000000000000000000CE
:1042F00000000000000000000000000000000000BE
:1043000000000000000000000000000000000000AD
:10431000000000000000000000000000000000009D
:10432000000000000000000000000000000000008D
:10433000000000000000000000000000000000007D
:10434000000000000100000010000000000000005C
:044350000024F40051
:04000005080000ED02
:00000001FF
