:020000040800F2
:10000000180B00208901000847200008DF1C0008A9
:10001000452000087F0300080522000800000000BA
:10002000000000000000000000000000892000081F
:100030003504000800000000492000088B2000085B
:10004000A3010008A3010008A3010008A301000800
:10005000A3010008A3010008A3010008A3010008F0
:10006000A3010008A3010008A3010008A3010008E0
:10007000A3010008A3010008A3010008A3010008D0
:10008000A3010008A3010008A3010008ED21000856
:10009000F9210008810300088D030008A30100086E
:1000A000A3010008A3010008A3010008A3010008A0
:1000B000F1200008FD20000809210008A301000824
:1000C000A3010008A3010008A3010008A301000880
:1000D000A3010008A3010008A3010008A301000870
:1000E000A3010008A3010008A301000800F002F822
:1000F00000F03AF80AA090E8000C82448344AAF188
:100100000107DA4501D100F02FF8AFF2090EBAE885
:100110000F0013F0010F18BFFB1A43F0010318473B
:100120005C3500007C350000103A24BF78C878C1E7
:10013000FAD8520724BF30C830C144BF04680C60ED
:10014000704700000023002400250026103A28BF35
:1001500078C1FBD8520728BF30C148BF0B60704739
:100160001FB51FBD10B510BD00F0CFF81146FFF749
:10017000F7FF02F02BF900F0EDF803B4FFF7F2FF00
:1001800003BC00F0F5F80000094880470948004723
:10019000FEE7FEE7FEE7FEE7FEE7FEE7FEE7FEE737
:1001A000FEE7FEE704480549054A064B7047000094
:1001B000ED200008ED00000818050020180B0020B5
:1001C0001807002018070020032A40F2308010F0A2
:1001D000030C00F0158011F8013BBCF1020F6244E2
:1001E00098BF11F801CB00F8013B38BF11F8013B73
:1001F000A2F1040298BF00F801CB38BF00F8013B20
:1002000011F0030300F04F80083AC0F0088051F865
:10021000043B083A51F804CBA0E80810F5E7121D9A
:100220005CBF51F8043B40F8043BAFF30080D207B9
:1002300024BF11F8013B11F801CB48BF11F8012B85
:1002400024BF00F8013B00F801CB48BF00F8012BA8
:1002500070474FF0000200B5134694469646203989
:1002600022BFA0E80C50A0E80C50B1F12001BFF46F
:10027000F7AF090728BFA0E80C5048BF0CC05DF8D5
:1002800004EB890028BF40F8042B08BF704748BF23
:1002900020F8022B11F0804F18BF00F8012B704797
:1002A00070477047704710B5203AC0F00B80B1E836
:1002B0001850203AA0E81850B1E81850A0E818509B
:1002C000BFF4F5AF5FEA027C24BFB1E81850A0E8A4
:1002D000185044BF18C918C0BDE810405FEA827CBE
:1002E00024BF51F8043B40F8043B08BF7047D207D5
:1002F00028BF31F8023B48BF11F8012B28BF20F876
:10030000023B48BF00F8012B7047754600F02CF8FF
:10031000AE4605006946534620F00700854618B0F2
:1003200020B5FFF73FFFBDE820404FF000064FF03B
:1003300000074FF000084FF0000B21F00701AC461A
:10034000ACE8C009ACE8C009ACE8C009ACE8C00939
:100350008D46704710B50446AFF300802046BDE8D7
:100360001040FFF70ABF000000487047B4040020A7
:1003700001491820ABBEFEE7260002007047FEE7E9
:10038000014800F0D9B90000B4030020014800F092
:10039000D3B90000B403002030B5234C89B0607994
:1003A000002838D0207A002500EB80011F4800EBA0
:1003B00041014978227A02EB820210F8122002F001
:1003C000F00201EBC2010091217A01EB810110F8EA
:1003D0001110029501F00F01CDE90351217A04F1CA
:1003E000100301EB810100EB410006AA50F8021F47
:1003F00006914068079069460D4800F030F860B1FA
:1004000000F019F86079401E6071207A1D2808D02C
:10041000207A401C207209B030BD6089401C608188
:10042000F0E72572F7E7000004000020CC0100206F
:10043000B4030020704772B6FEE790F82020012A2E
:1004400007D0022A05D0416A41F48021416201208F
:100450007047006842690A43426100207047F0B566
:1004600090F820500468A468012D05D0022D03D017
:10047000416A41F480215DE014F0406F01D1E50054
:1004800055D5C4F30164022C03D9416A41F400013B
:1004900050E00125A5401D608D684FF4C0739DB1EB
:1004A000CE6835434E6845EAC605066803EB041777
:1004B000F5514FF4C275076805EB04150E697E51BE
:1004C000097D012905D009E00E88CD6845EA465529
:1004D000EBE701684E5946F480764E511179D57993
:1004E000567941EA056195792D0445EA06252943A7
:1004F0004FF4C676056806EB0416A9511178D57835
:1005000041EA0561957852782D0445EA02221143AB
:100510004FF4C475026805EB04155151006803EBF4
:100520000411425842F0010242500020F0BD416ADD
:1005300041F4001141620120F0BD000010B590F8B7
:1005400020300268012B07D0022B05D0416A41F40C
:1005500080214162012010BDD2F8000240F001006C
:10056000C2F80002087D00F01F0301209840D2F875
:100570001C328343C2F81C32CB69B3B9D2F80C32B7
:100580008343C2F80C328C894B6864F31F434C6977
:1005900002EBC404C4F840320C890B6864F31F43B7
:1005A0004C6902EBC404C4F84432CB69012B16D168
:1005B000D2F80C320343C2F80C320C884B6864F357
:1005C0001F434C6902EBC404C4F840320C89CB6869
:1005D00064F31F434C6902EBC404C4F844328B69D2
:1005E000002BD2F804320FD053EA0003C2F80432D1
:1005F0000B69002BD2F8143208D00343C2F814322E
:10060000096A012904D008E08343EFE78343F5E753
:10061000D2F81C120143C2F81C12D2F8000220F0DA
:100620000100C2F80002002010BD90F82020012A2D
:1006300007D0022A05D0416A41F48021416201209D
:100640007047006842698A434261002070477047E2
:1006500030B590F82040012C05D0022C03D0416A1F
:1006600041F480215DE00468002955D02469A40785
:1006700054D04FF4D874056804EB01142D5915F0CB
:100680000405956005682D594ED0ED085560056844
:100690002C5904F00204D4604FF4DA74056804EBBA
:1006A00001142D5905F00F05156105682D59C5F385
:1006B0000725956105682C59240C54614FF4DC72B0
:1006C000046802EB0112A4581C700468A458240AA0
:1006D0005C700468A458240C9C700468A258120E24
:1006E000DA704FF4DE72046802EB0112A4581C7138
:1006F0000468A458240A5C710468A458240C9C71F2
:100700000468A258120EDA71006881B1016941F0E3
:1007100020010161002030BDE468A8E7416A41F48E
:1007200000114162012030BD6D0D1560AFE7C16859
:1007300041F02001C160EDE72DE9F05F054600685A
:1007400000244669D0F804908768D0F80CB0D0F83F
:1007500010A0D0F81880F10748D0F90714D0012173
:100760008160B80703D5284600F07BFA0CE07807D3
:1007700002D54FF4006407E0380702D54FF48054E7
:1007800002E0284600F06CFAF80516D529684FF407
:1007900080708860B80503D5284600F065FA0CE043
:1007A000780502D544F4005407E0380502D544F436
:1007B000804402E0284600F056FAF80316D529686E
:1007C0004FF480308860B80303D5284600F04FFA14
:1007D0000CE0780302D544F4004407E0380302D566
:1007E00044F4803402E0284600F040FA300707D590
:1007F0005FEACB6004D52968102044F40074C86017
:1008000070074FF0080707D55FEA0B7004D528681A
:10081000C760284600F072F9B00706D52868C0689E
:10082000800702D0284600F06BF9700607D55FEA12
:10083000CA6004D52968102044F480640861B006B9
:1008400007D55FEA0A7004D528680761284600F0DA
:100850007BF9F00606D528680069800702D0284693
:1008600000F074F9B00308D55FEAC96005D52968BE
:1008700010204860284600F0C5F9F00307D55FEA6C
:10088000097004D528684760284600F0F2F9300462
:1008900046D55FEA497040D5F00504D55FEAC870D7
:1008A00001D044F00104B00504D55FEA887001D599
:1008B00044F00204700504D55FEA487001D544F0A5
:1008C0000404300529D518F0700F26D008F0700008
:1008D000402815D006DC102809D020280AD030285E
:1008E00016D10AE050280ED0602811D10EE044F055
:1008F00008040DE044F010040AE044F0200407E08E
:1009000044F0400404E044F0800401E044F48074C6
:100910002868816921F0700181612968042048609C
:10092000002C05D0686A204368622846FFF78FFED6
:10093000BDE8F09F70B5040003D094F8200010B11A
:1009400004E0012070BD204600F082F820680168B4
:1009500041F00101016000F083FA0546052604E03C
:1009600000F07EFA401B0A2811D820684068C007B2
:10097000F6D02068016821F00201016000F070FAF1
:1009800005460BE000F06CFA401B0A2806D9606AA5
:1009900040F40030606284F82060D2E7206840684C
:1009A0008007EFD4207E0128206801683DD021F027
:1009B00080010160607E01282068016838D021F044
:1009C00040010160A07E01282068016833D021F039
:1009D00020010160E07E0128206801682ED041F0EE
:1009E00010010160207F01282068016829D021F0D2
:1009F00008010160607F01282068016824D021F08F
:100A000004010160D4E902010843D4E9041211434E
:100A100008436168491E08432168C861002060627C
:100A2000012084F82000002070BD41F08001C0E763
:100A300041F04001C5E741F02001CAE721F0100173
:100A4000CFE741F00801D4E741F00401D9E7000005
:100A500010B586B0002100910191029103910068C8
:100A60002349884242D12348C16941F00071C161E4
:100A7000C16901F000710491816941F00401816153
:100A800080691D4C00F0040004904FF40060009059
:100A90006946204600F0EEF8A01400900220019074
:100AA000032003906946204600F0E4F80022114636
:100AB000132000F041FA132000F030FA0022114612
:100AC000142000F039FA142000F028FA0022114610
:100AD000152000F031FA152000F020FA002211460E
:100AE000162000F029FA162000F018FA06B010BD02
:100AF0000064004000100240000801407047000000
:100B000010B50D4B0D4A0021FFF7A2FD0B484FF029
:100B1000320201680A4811F4F06F00D1027001F04E
:100B20007F01491E082901D2027001E028210170CD
:100B300004490120087010BD20000020140300208B
:100B40007F0000203F0000207047000070B5284B58
:100B5000284A0121FFF77CFD254C143C20791E28F2
:100B600002D125480178D9B1224AF020118800EA43
:100B7000D103E07900EB8005A2F5167000F815307E
:100B8000E37901F07F0103EB830300EB430359702A
:100B9000E17901EB810110F81110C02912D107E0B1
:100BA00016490A7842F010020A701421017070BDD3
:100BB000E17901EB810100EB41014978104B1B7891
:100BC0009942F4D11269E17901EB810100EB410016
:100BD0000749801CFFF7F8FAE0791D2806D0E07974
:100BE000401CE0712079401C207170BD0020F8E7A6
:100BF00018000020F80200204100002032000020F0
:100C0000280000207047000070B5044690F82000CE
:100C1000012804D0606A40F40020606218E00220DD
:100C200084F820002068016821F00101016000F0D3
:100C300017F905460EE000BF00F012F9401B0A2824
:100C400008D9606A40F400306062052084F8200012
:100C5000012070BD20684068C007EDD1606270BDA2
:100C60007047FFF799BB7047FFF796BB7047FFF7D8
:100C700093BB70472DE9F84FDFF8B891002409F1D4
:100C8000040A0AF1040B23460F270BF1040EC9E0F6
:100C90000125A5402A40AA427DD1674ED1F804C063
:100CA000ACEB0608B44532D014DCBCF1030F3AD0EB
:100CB00009DCBCF1000F2AD0BCF1010F1CD0BCF143
:100CC000020F31D11DE0BCF1110F17D0BCF1120F92
:100CD0002AD119E0B8F5881F19D006DCB8F5803F95
:100CE00015D0B8F5801F1FD111E0B8F5001F0ED048
:100CF000B8F5041F18D10AE0CB6815E0CB681B1DBE
:100D000012E0CB6808330FE0CB680C330CE08B6843
:100D10002BB1012B4FF0080303D0456104E00423FD
:100D200002E0056100E00023FF2A01D8064601E049
:100D300000F104064FEA840501D9A5F12005D6F893
:100D4000008007FA05FC28EA0C0803FA05F548EAD2
:100D50000508C6F800804D68ED0062D5374DAE69D4
:100D600046F00106AE61AD6924F0030605F0010509
:100D70000095334D06EB050CDCF80850A607360F3E
:100D800007FA06F825EA0805DFF8B880404503D1E0
:100D90004FF0000817E044E0DFF8AC80404502D196
:100DA0004FF001080FE0DFF8A480404502D14FF07A
:100DB000020808E0DFF89880404502D14FF00308B0
:100DC00001E04FF0040808FA06F848EA0508CCF8F4
:100DD00008804D68D9F80060ED034D4601D51643F3
:100DE00000E096432E604D68DAF80060AD0355468A
:100DF00001D5164300E096432E604D68DBF8006095
:100E0000ED025D4601D5164300E096432E604D6825
:100E1000DEF80060AD02754601D5164300E096434A
:100E20002E60641C0D682A46E5407FF431AFBDE8B2
:100E3000F88F000000040140000011100010024073
:100E40000000014000080140000C0140001001407A
:100E5000001401400AB1016170470904FBE700007A
:100E600001488068704700009000002002488168B7
:100E7000027811448160704790000020074810B547
:100E8000016841F010010160032000F075F80F20A7
:100E900000F006F800F024F8002010BD0020024009
:100EA00070B50D4D04464FF47A712878B1FBF0F01F
:100EB0000A490968B1FBF0F000F0CCFA48B9102CEF
:100EC00007D200222146501E00F036F800206C6048
:100ED00070BD012070BD0000900000209C0000202B
:100EE0000C4808B5816941F001018161816901F017
:100EF00001010091C16941F08051C161C06900F0F8
:100F0000805000900448416821F0E06141F0007198
:100F1000416008BD0010024000000140002809DBCC
:100F200000F01F02012191404009800000F1E02003
:100F3000C0F8001170470000F0B40E4B1B680C465F
:100F4000C3F30223C3F10705042D00D90425191D9D
:100F5000072901D2002300E0DB1E012606FA05F175
:100F6000491E214099409E40761E16403143F0BCF8
:100F700001F049B90CED00E0064900F007020868ED
:100F80004FF6FF03184040EA0220034A104308606E
:100F9000704700000CED00E00000FA052DE9F04775
:100FA0000F46050061D0434E306800F00700B8429C
:100FB00009D2306820F0070038433060306800F014
:100FC0000700B84251D128683B4C810712D5400731
:100FD00003D5606840F4E06060602878000703D5BE
:100FE000606840F4605060606068A96820F0F000BC
:100FF000084360602878C00728D06868012810D0AE
:101000002168022810D0890700292EDA616821F0B2
:10101000030101436160FFF723FF804641F28839F5
:101020000DE021688903EFE78901EDE7FFF718FF7D
:10103000A0EB0801494502D90320BDE8F0876068AC
:10104000696800F00C00B0EB810FEFD1306800F060
:101050000700B8420BD9306820F0070038433060F1
:10106000306800F00700B84201D00120E5E7287899
:10107000400705D56068E96820F4E06008436060D7
:101080002878000706D56068296920F4605040EA96
:10109000C100606000F018F86168084AC1F30311EC
:1010A000515CC8400649086006480068FFF7F8FE32
:1010B0000020C2E700200240001002406C36000809
:1010C0009C0000209400002012A185B00FC98DE87B
:1010D0000F0014A0144A006804905168134801F0EE
:1010E0000C03042B10D0082B0ED1C1F38343C9038A
:1010F0001DF803000AD5516804AAC1F34041515CB0
:101100000A4A5043B0FBF1F005B070470849484324
:10111000FAE7000002030405060708090A0B0C0D94
:101120000E0F1010010200000010024000127A00A1
:1011300000093D002DE9F84F040070D02078C04D23
:10114000C00749D06868C0F38100012807D06868EB
:10115000C0F38100022809D16868C00306D5286859
:10116000800339D560680028E7D035E06068B0F5C5
:10117000803F0BD010B1B0F5A02F11D0286820F41B
:1011800080302860286820F4802002E0286840F43D
:1011900080302860606890B1FFF762FE06460AE082
:1011A000286840F480202860F0E700BFFFF758FE71
:1011B000801B642873D828688003F7D50CE0FFF7FC
:1011C0004FFE064605E000BFFFF74AFE801B64287D
:1011D000F0D828688003F7D420789A4E80074FF023
:1011E00001094FF0000839D5686810F00C0F07D0DE
:1011F0006868C0F38100022809D16868C00306D47A
:101200002868800714D52069012808D110E02069DA
:10121000B0B1C6F80090FFF723FE074605E00AE1EB
:10122000FFF71EFEC01B0228C4D828688007F7D528
:101230002868616920F0F80040EAC10028600DE0EC
:10124000C6F80080FFF70CFE074604E0FFF708FE33
:10125000C01B022823D828688007F7D4207800070D
:101260002CD57948A169D9B1C0F80090FFF7F8FDF5
:10127000074604E0FFF7F4FDC01B02280FD8686A98
:101280008007F7D571484FF4FA510068B0FBF1F0D0
:10129000009000BF0098411E0091FAD20EE080E05D
:1012A000C0F80080FFF7DCFD074604E0FFF7D8FD3B
:1012B000C01B022875D8686A8007F7D420784007D9
:1012C00060D5E8690027C00008D4E86940F0805084
:1012D000E861E869012700F0805000905C480168EF
:1012E000C90513D40168834641F480710160FFF79A
:1012F000B7FD824606E000BFFFF7B2FDA0EB0A0093
:1013000064284ED8DBF80000C005F5D5E068012858
:101310000AD008B1052813D0286A20F001002862FD
:10132000286A20F0040002E0286A40F001002862E8
:10133000E06841F2883B98B1FFF792FD82460BE0EE
:10134000286A40F004002862EEE700BFFFF788FD3E
:10135000A0EB0A0159455AD8286A8007F6D50CE057
:10136000FFF77EFD824605E0FFF77AFDA0EB0A015C
:1013700059454CD8286A8007F6D41FB1E86920F097
:101380008050E861E06988B36968C1F3810102298E
:1013900044D00228C6F8608004D0FFF761FD0446FF
:1013A00038E034E0FFF75CFD074604E0FFF758FD46
:1013B000C01B02282BD828688001F7D4206AB0F51A
:1013C000803F05D16868A16820F400300843686058
:1013D000D4E908010843696821F47411084368607E
:1013E000C6F86090FFF73CFD044606E025E000BF2C
:1013F000FFF736FD001B022809D828688001F7D5C1
:101400001BE000BFFFF72CFD001B022802D90320C0
:10141000BDE8F88F28688001F4D40EE00128F7D0E9
:101420006868226A00F48031914204D1616A00F454
:101430007010884201D00120EAE70020E8E70000B0
:101440000010024000004242800442429C00002002
:101450000070004010B5401EB0F1807F01D3012024
:1014600010BD4FF0E02460610F21601700F0CBFE4B
:101470000020A06107202061002010BD7047704748
:1014800070B590F83C20012A26D0012480F83C4019
:10149000022280F83D2003685A689D6822F0700699
:1014A0000A6832435A600D4B02689A4208D0B2F182
:1014B000804F05D00A4B9A4202D00A4B9A4204D17F
:1014C000496825F080031943916080F83D40002170
:1014D00080F83C10084670BD022070BD002C014011
:1014E000000400400008004010B5040003D094F848
:1014F0003D0010B107E0012010BD002084F83C0041
:10150000204600F01FF8022084F83D00211D2068CD
:1015100000F000FE012084F8460084F83E0084F8C4
:101520003F0084F8400084F8410084F8420084F8C9
:10153000430084F8440084F8450084F83D0000200E
:1015400010BD000008B501681D48B1F1804F11D0F1
:101550001C4A91421DD1C16941F00201C161C069BB
:10156000002200F00200009011461D20FFF7E4FC6D
:101570001D201FE0C16941F00101C161C069002265
:1015800000F00100009011461C20FFF7D5FC1C2044
:1015900010E00D4A914211D1C16941F00401C161CD
:1015A000C069002200F00400009011461E20FFF7E1
:1015B000C3FC1E20BDE80840FFF7B0BC08BD00001A
:1015C00000100240000400400008004090F83D1068
:1015D000012901D001207047022180F83D100168E7
:1015E000CA6842F00102CA6000680B49884208D00C
:1015F000B0F1804F05D00949884202D0084988429D
:1016000004D1816801F00701062903D0016841F087
:101610000101016000207047002C014000040040DF
:101620000008004070B5044690F83C00012817D02F
:10163000012584F83C50022084F83D00206882682F
:1016400022F0770222F47F4282600868502830D06E
:101650000DDC20284DD005DC98B310283BD148E0A4
:10166000022070BD302844D0402834D139E06028B1
:1016700028D0702806D0B0F5805F2CD0B0F5005F80
:1016800029D10AE0CB68D1E90121206800F078FD7A
:101690002068816841F0770109E0CB68D1E9012138
:1016A000206800F06DFD2068816841F48041816010
:1016B00011E0CA684968206800F074FD5021206874
:1016C00007E016E0CA684968206800F07CFD6021E8
:1016D000206800F05FFD84F83D50002084F83C0055
:1016E00070BDCA684968206800F05CFD4021206830
:1016F000EFE7226801461046EBE7704770B50446F5
:10170000006801694FF00005C943890715D4C16815
:10171000C943890711D4E91E01610120207720689F
:1017200080698007204602D0FFF7E7FF04E000F061
:1017300098F8204600F096F8257720680169C9439B
:10174000490717D4C168C943490713D46FF004018E
:101750000161022020772068806910F4407F2046D4
:1017600002D0FFF7CAFF04E000F07BF8204600F04B
:1017700079F8257720680169C943090716D4C1683B
:10178000C943090712D46FF00801016104202077D2
:101790002068C0698007204602D0FFF7AEFF04E052
:1017A00000F05FF8204600F05DF8257720680169B9
:1017B000C943C90617D4C168C943C90613D46FF019
:1017C00010010161082020772068C06910F4407F73
:1017D000204602D0FFF791FF04E000F042F82046D7
:1017E00000F040F8257720680169C943C90708D18E
:1017F000C168C943C90704D1891E0161204600F0B0
:1018000033F820680169C943090609D4C168C9438E
:10181000090605D46FF0800101612046FFF72EFE16
:1018200020680169C943490609D4C168C94349060A
:1018300005D46FF040010161204600F04FFA2068A6
:101840000169C94389060BD4C168C943890607D415
:101850006FF0200101612046BDE87040FFF70FBE28
:1018600070BD7047704700002DE9F05FEE4980467B
:1018700000680968DFF8B4930126DFF8B4A30024F8
:1018800088427DD1EB48017841F004010170EA49BA
:10189000087808B1401E0870E848017811B1017855
:1018A000491E0170007808B9E5480670E5480178DE
:1018B00011B10178491E0170E349087808B1401E52
:1018C0000870E249087808B1401E0870E0490878BD
:1018D00008B1401E0870DF49087808B1401E087042
:1018E000DD49087808B1401E0870DC490878401CC2
:1018F0000870DB488178491C8170DA490A78DA4837
:10190000DA4B552A09D004601C70D94A002000BF68
:1019100012F83030442B0DD020E00268571C0760CD
:10192000D44800688242F0D9D34800780028ECD02F
:101930001E70EAE702EBC00C9CF8073073B15B1E27
:1019400013F0FF038CF8073008D199F8007006FAFD
:1019500000F39F4389F800708CF80540401CC0B22A
:101960000828D5D3C5480278D30712D0C44B9AF8BB
:1019700000701B7867B1170607D522F0800200E0DF
:1019800007E002705520087003E042F08002027008
:101990000B70BC48D8F800100068814260D1BA488A
:1019A000007828B9B948016811B10168491E016081
:1019B000DFF8DCB29BF80030ABBBB64841788170F1
:1019C00001784170B4490968C1F3C32101700278FC
:1019D0000F219143017000224FEA000E06FA02F037
:1019E000C1B29EF8027070469EF801C00F400CEA2A
:1019F000010C674513D1477890F800C00F400CEAFE
:101A0000010C67450BD1A54F97F800C02CEA010CDB
:101A100087F800C080780840397808433870521C35
:101A2000D2B2082ADAD35B1CD9B28BF8001007298E
:101A300001D18BF8004099F800709948DFF858926E
:101A400020210078A9F10809474007F00102484623
:101A5000FFF700FAC7F3400210214846FFF7FAF9F2
:101A60009048D8F80010006881426ED17C4F8E49B2
:101A70007878401CC0B27870097801297DD1322174
:101A8000B0FBF1F201FB120010B9884806703E70FD
:101A9000DFF81CC287489CF80010042903D2491CB7
:101AA0008CF8001018E084498CF80040097891B94E
:101AB00082490A78082A05D2521C12F0FF020A70E5
:101AC00001D009E00C709AF800206FF00701012A9C
:101AD0002AD0022A30D0047062498A78E246C2EBEA
:101AE000C2039CF800C0764A00781344E14613F81C
:101AF0000C804FF0070B0BEBC8034844DBB240B23D
:101B000063F30705072821D291F800C04FF0F808C9
:101B1000CCEBCC0C94441CF800C00CF0180C48EA38
:101B20009C0C03EA0C0313E090F90020082A01DA68
:101B3000521C06E00170CFE790F900208A4202DDD6
:101B4000521E0270C8E70821F4E76BE003F0F803C7
:101B500063F307054B78C3EBC30303EB020C1CF8DC
:101B600009C00BEBCC03DBB263F30F250CD2097871
:101B7000C1EBC1011144085C00E030E040F0F80026
:101B8000034063F30F2503E003F0F80060F30F2533
:101B9000DFF83081C8F88441E8B200F057FAC5F3A5
:101BA000072000F053FA9AF8000006FA00F0C1B2DC
:101BB0003948001D02684FF6F0731A400260424631
:101BC000C8F8846100BF00BF00BF00BFC2F88441F5
:101BD00000BF00BF00BF00BF02680A430260387840
:101BE00000281FD03849087848B1401E10F0FF0087
:101BF000087004D13548017841F00801017034487B
:101C0000017871B1491E11F0FF01017009D131490C
:101C10000C7031490A7819490A7004701A487F21FA
:101C200001703C70BDE8F09FDC0300206C000020D8
:101C30003400002089000020310000207F000020B7
:101C40003E000020400000207000002046000020E0
:101C500038000020480000204100002044000020FF
:101C60008A000020000000205000002049000020D1
:101C7000740300204C000020540000203B00002092
:101C80003D000020240400205700002060000020B8
:101C90003700002068000020080C01406B00002085
:101CA0006F0000206C040020430000204200002050
:101CB00033000020350000203A00002036000020CC
:101CC0005234000800002142470000208800002014
:101CD00045000020580000203C0000207047FEE72F
:101CE000F0B548488BB000240471C471847144710C
:101CF00044720472444A214601EB8103002002EB46
:101D000043031C54401CC0B20A28FAD3491CC9B270
:101D10001E29F1D33D4B002000EB8002002103EB94
:101D200042025454491CC9B20A29FAD3401CC0B219
:101D30001E28F1D30126F0034FF470458DE83100E1
:101D40000394CDE905640E27CDE908670796694637
:101D50002F480496FEF7F2FB08B1FEF76CFB062055
:101D60000590CDE90054CDE9025469462848FEF7B4
:101D7000E5FB08B1FEF75FFB022005904AF2601018
:101D80008DE83100694622480394FEF7D7FB08B17D
:101D9000FEF751FB0320059080038DE83100694672
:101DA0001B480394FEF7CAFB08B1FEF744FB04206E
:101DB00000940590CDE90145694615480394FEF766
:101DC000BDFB08B1FEF737FB05A90A2081E85100E9
:101DD0004EF22000CDE90204CDE9000404946946E6
:101DE0000B48CDE90867FEF7A9FB08B1FEF723FB16
:101DF00013210748FEF721FB0548FEF705FF0BB04E
:101E0000F0BD000004000020A0000020CC01002054
:101E1000B40300200E4810B50C4901602D2141602B
:101E200000214FF440228160C0E903124FF4801278
:101E30004261017641768176C17601774177FEF77E
:101E400079FD002801D072B6FEE710BD00640040A5
:101E5000B40300202DE9F04186B000242848009406
:101E6000019402940394816941F0200181618169A8
:101E700001F020010491816941F0040181618169CF
:101E800001F004010491816941F0080181618069D8
:101E90001C4F00F00800049001224FF48171384675
:101EA000FEF7D8FF00224FF43F713846FEF7D2FF0D
:101EB000DFF8548000223F214046FEF7CBFF40F27E
:101EC000FE3001250226CDE90005CDE9024669462E
:101ED0003846FEF7CFFE3F20CDE90005CDE90246AA
:101EE00069464046FEF7C6FE4FF47840CDE900044F
:101EF000694640460294FEF7BDFE06B0BDE8F0819B
:101F00000010024000080140000C014010B586B0EE
:101F100000241748009401940294039404944FF011
:101F200080410594016041F61F41C0E9011441F26E
:101F30008731C0E903148461FFF7D6FA08B172B69D
:101F4000FEE74FF48050009069460948FFF76AFBAE
:101F500008B172B6FEE7049404A905480594FFF79A
:101F60008FFA002801D072B6FEE706B010BD00005F
:101F7000DC03002010B586B00024174800940194BB
:101F800002940394049413490594016041F61F419F
:101F9000C0E901141D21C0E903148461FFF7A4FA0C
:101FA00008B172B6FEE74FF48050009069460A48C7
:101FB000FFF738FB08B172B6FEE7049404A906489F
:101FC0000594FFF75DFA002801D072B6FEE706B06F
:101FD00010BD0000000400402404002010B586B0AD
:101FE0000024174800940194029403940494134924
:101FF0000594016041F61F41C0E901141321C0E9B5
:1020000003148461FFF770FA08B172B6FEE74FF46B
:102010008050009069460A48FFF704FB08B172B689
:10202000FEE7049404A906480594FFF729FA00285E
:1020300001D072B6FEE706B010BD000000080040F7
:102040006C040020FEE7FEE77047000030B50D4944
:102050000023C1F8943100BF0722012420FA02F5C1
:1020600005F00105C1F89C5100BFC1F8944100BFC3
:1020700000BFC1F8943100BF00BF00BF521EEDD5B4
:1020800030BD0000000021427047FEF7EFBE30B5C2
:102090008FB028216846FEF7DCF814210AA8FEF765
:1020A000D8F801210804CDE900100024029402258B
:1020B0000491CDE907504FF4E01009906846FFF70E
:1020C00039F808B172B6FEE70F20CDE90A054FF4E2
:1020D0008060CDE90C4002210AA80E94FEF75EFF55
:1020E000002801D072B6FEE70FB030BD7047000087
:1020F0000148FFF703BB0000DC0300200148FFF7A5
:10210000FDBA0000240400200148FFF7F7BA0000E0
:102110006C040020F0B50268164B174C174D4FF0B9
:102120008047984205D0B84203D0A04201D0A842CF
:1021300003D122F070064A683243984205D0B84273
:1021400003D0A04201D0A84203D122F44074CA684F
:1021500022434C6922F08002224302608A68C262F4
:102160000A688262984201D10969016301214161D3
:10217000F0BD0000002C01400004004000080040B9
:1021800010B5846842EA032224F47F440A432243C0
:10219000826010BD826822F070020A4342F007019B
:1021A0008160704710B5036A046A24F00104046278
:1021B000846924F0F00444EA021423F00A020A437A
:1021C0008461026210BD10B5036A23F0100303623C
:1021D0008369046A23F4704343EA023224F0A003C3
:1021E00043EA01118261016210BD00000148FEF75F
:1021F000A3BA0000B40300200148FEF79DBA000016
:10220000B4030020FEE70907090E002804DB00F1F3
:10221000E02080F80014704700F00F0000F1E0208B
:1022200080F8141D7047000030B428494A791E2AEE
:10223000FCD04A7AB82302EB8204254A02F8143013
:10224000244B4C7A1B7804EB840402EB4404637047
:102250004C7A802304EB840402EB4404A3701E4BED
:102260001C684D7A05EB850502EB4505EC701B6893
:102270004C7A1B0A04EB840402EB44042371174BD1
:102280001B784C7A04EB840402EB440463714B7AB0
:1022900003EB830302EB430398714C7A030A04EBCC
:1022A000840402EB4404E3714C7A030C04EB8404D1
:1022B00002EB44042372497A000E01EB810102EB28
:1022C0004101487230BC00F00BB80000040000204F
:1022D000CC010020280000202C000020300000202D
:1022E00030B52D4C89B0A089401CA0812B480078C6
:1022F000002841D02A48007855283DD0607A002532
:102300001D283BD0607A401C607201212548FEF7F1
:102310008CF9207A00EB8001234800EB41014978D9
:10232000227A02EB820210F8122002F0F00201EB96
:10233000C2010091217A01EB810110F81110029580
:1023400001F00F01CDE90351217A08AB01EB8101C6
:1023500000EB410006AA50F8021F06914068079062
:1023600069461048FEF77BF850B16079401C6071F7
:1023700001210C48FEF761F809B030BD6572C4E771
:102380006089401C6081207A1D2803D0207A401C7F
:102390002072EDE72572EBE7040000203F000020EB
:1023A00056000020B4030020CC0100208F280BD061
:1023B00004DC022808D0052804D105E0902803D0C9
:1023C000912801D00020704701207047FEF756FD8C
:1023D000FFF75DFEFFF73EFDFFF71CFDFFF796FDE3
:1023E000FFF7C8FDFFF7FAFDFFF77AFC1848FFF783
:1023F000EDF817484830FFF7E9F815489030FFF737
:10240000E5F8144C002201212046FEF723FD0022AE
:1024100002212046FEF71EFD002204212046FEF781
:1024200019FD002208212046FEF714FD0A4C012266
:1024300011022046FEF70EFD012251022046FEF752
:1024400009FD064C20780028FCD000F059F8F9E787
:10245000DC030020000C01400008014008000020BF
:1024600078B5264D00EB400605EB8602481E9479B0
:1024700003D300FB04F3DBB200E0002355F8265041
:10248000B5F5C34F1FD00ADC05F6EA75B5F5005562
:1024900026D005F6B665B5F5C04F07D10DE005F5B8
:1024A000ED55B5F5004508D0202D12D00020009044
:1024B0009168002906D06A461CE091680978C140FD
:1024C000C807000C78BD9268C1EBC100C01F105C4A
:1024D00078BD90686FF0070202EBC101405C78BDE7
:1024E00046F2A81000EB014078BD1D184D5D155453
:1024F000401CC0B2A042F8D3009878BD283500082F
:102500002DE9F04FDFF8F09387B099F80600FB490A
:1025100000EB800011F810C0FA48FC4FF84E02782A
:10252000DFF8E4E355230024F9483D784FF0040B2D
:10253000BCF1A00F74D006DCBCF1000F71D0BCF16F
:10254000800F2CD106E0BCF1C00F29D0BCF1F00FF8
:10255000F7D14CE299F806004A4600EB800001EB07
:102560004000807899F8063003EB830301EB4303C6
:10257000DB78002813D030780528E2D1E54B002025
:10258000957905EB850501EB45050544AD781D54AE
:10259000401CC0B20728F3D3DE4800F03BFCE4E265
:1025A00099F806004B4600EB800001EB400090F8E4
:1025B0000280DFF864B308F0E00CD848D84ED94F59
:1025C000DFF864A3D94DBCF1400F7DD006DCBCF12F
:1025D000000F65D0BCF1200F06D107E0BCF1600F01
:1025E00073D0BCF1800F71D0D14816E09A799879F8
:1025F00002EB820201EB42020F46D2F8036000EBCD
:10260000800001EB40004079BB4B01460190DB1C90
:102610004246304600F07EFB20B1FFF705FEA4E203
:1026200070E29FE15FEA887030D599F806004D4668
:1026300000EB800007EB40000199D0F8062099F8E4
:10264000030000F06FFE0028E7D1A879B1B200EBDB
:10265000800007EB4000019AD0F80630602000F0BF
:10266000C7FAA6F51050CA3899D1B24801220178AC
:10267000B14811B1012907D002E0A249097819B186
:1026800004700078AD499AE10270FAE7B1B2002314
:102690006020019A00F0ACFACAF800600198AEE040
:1026A000DAF80020BAB15FEAC86073D45FEAC87094
:1026B00010D0DAF800001138B0F5C0400ED0EF2885
:1026C0001ED0A0F5807002E065E0A7E00DE1EF38D4
:1026D0005CD139E09A48FFF7A7FD06E18D4A00205A
:1026E0009E7906EB860601EB46060644F6781654FC
:1026F000401CC0B20728F3D3864800F08BFB45E0AE
:1027000000202A789F79C2EBC2023244024412F8B8
:10271000072C07EB870701EB47070744FF78BA420E
:102720000DD09A7902EB820201EB42020244D27888
:102730002F78C7EBC7073744074407F8072C401C1E
:10274000C0B20528DDD321E02A789E7907EBC202CA
:10275000024412F8082C06EB860601EB46060644F6
:10276000F678B2420CD09A7902EB820201EB420277
:102770000244D2782E7807EBC606064406F8082CE9
:10278000401CC0B20528DFD300F00AFB002211462E
:102790002020A8E04AE09A79987902EB820201EBC6
:1027A0004202D2F8036000EB800001EB4000407968
:1027B000514B07460146DB1C4246304600F0AAFA60
:1027C00000287FF412AF99F803205E4802EB420123
:1027D00000EB810188790B79042815D937B92BB121
:1027E000B1B23A46422000F003FABEE10346B1B26C
:1027F0003A46402000F0FCF9CAF8006038462870DC
:102800000A208BF80000B0E1381E01D1002BE7D17F
:1028100001461046FFF724FE0346E1E7DAF8001010
:1028200000293FF458AF5FEAC86001D5464852E737
:10283000DAF8000046F21003C11A984240D00ADCD0
:1028400000F6F87005A9B0F500500CD0012819D099
:1028500002284AD125E0012934D0F02935D0B1F53C
:10286000F87F42D139E0394B394E002042B1375C14
:102870000F54401CC0B20628F8D30A4606210EE0C9
:102880001F5CF5E7334B344E002032B1375C0F54F8
:10289000401CC0B20628F8D30DE01F5CF7E701200A
:1028A00021E02E4E0020734642B1375C0F54401C8D
:1028B000C0B20628F8D30A460521F0E71F5CF5E709
:1028C000274A00E0134A0721E9E728780721C0EBEF
:1028D000C00082190120D21F05E02878072107EBEC
:1028E000C0020120083A00F0D5F9CAF800402C7067
:1028F0008BF8004039E1000004000020A000002017
:102900005700002043000020023500082800002066
:1029100000000020780000203100002000000106A7
:102920003C030020740300202C0000203000002015
:10293000010004053A0000203B0000203C0000207C
:1029400012000706283500080000030514350008AA
:10295000203500080E3500081A3500080835000833
:102960007100002099F806C04F460CEB8C0C01EB6F
:102970004C0C9CF803C0BCF1000F01D0AC4516D143
:10298000BD7905EB850501EB4501897882290ED0DB
:1029900006DC012909D0802909D0812907D107E067
:1029A000F02908D0F22902D10BE005203070DCE0DC
:1029B00083480470D9E0F020307082490620087006
:1029C000D3E06AB180494A78303A4270C9783039E8
:1029D000817003707D487E49047081F800B0C4E0C6
:1029E0009EF80120303A42709EF80310EFE799F804
:1029F00006C048460CEB8C0C01EB4C0C9CF801C05B
:102A0000BCF1650F50D1807900EB800001EB4000F4
:102A100090F80280DFF8BCC1DFF8BCA16F48B8F1C4
:102A2000110F09D0B8F1120F3FD0B8F1130F5AD0DF
:102A3000B8F1140F38D153E0022505708CF800402E
:102A400099F806004D4600EB800001EB4000C0788D
:102A5000387099F8060000EB800001EB40008679A1
:102A60008AF8006099F80660504606EB860601EB8E
:102A7000460636798AF80160AD7905EB850501EBEC
:102A8000450149798AF8021012B10178202900D84D
:102A9000037042788521202A00D841708278202A4C
:102AA00063D800BF8AF802105FE0032101704C4830
:102AB000A5F110016E29047050468AF800300BD23F
:102AC0000A210F3D95FBF1F23032427095FBF1F295
:102AD00001FB12513031E5E743708AF8023044E0DF
:102AE00080F800B00BE03649A5220A70017802296F
:102AF00004D17F2131703B490978397004708CF81A
:102B0000004032E099F806204B4602EB820201EBCE
:102B10004202527899F8065005EB850501EB450510
:102B2000AD780B2A21D105BB2F4D00229E7906EBF3
:102B3000860601EB46061644B678AE54521CD2B255
:102B4000082AF3D3E9790A06C27802D542F00202D4
:102B500001E022F00202C270C907C17802D041F040
:102B6000010101E021F00101C17012211F48FDF7B0
:102B70005CFD99F806004D461D281FD0A879401C21
:102B8000A8712879401E2871EC792E7912211748F6
:102B9000FDF753FCA879844201D21E34E4B21E2012
:102BA000B6FBF0F100FB1160A979611A884202D0EE
:102BB00003485A21017007B0BDE8F08FAC71E0E71F
:102BC000560000204800002008350008340000208E
:102BD00070000020590000205A00002058000020FA
:102BE000290000202B00002080000020B4030020DA
:102BF000F0B4254C65791E2DFCD0657AB82605EB1E
:102C00008507224D05F81760214E677A367807EB65
:102C1000870705EB47077E70667A06EB860605EBAD
:102C20004606B070607A00EB800005EB4000C17092
:102C3000080A617A01EB810105EB41010871607AB4
:102C400000EB800005EB40004271607A00EB8000F1
:102C500005EB40008371617A180A01EB810105EBF5
:102C60004101C871617A180C01EB810105EB41014A
:102C70000872617A180E01EB810105EB410148727F
:102C8000F0BCFFF72DBB000004000020CC010020A9
:102C900028000020F0B41C4C63791E2BFCD0637A12
:102CA000B82503EB8306194B03F81650184D667AC6
:102CB0002D7806EB860603EB46067570657A05EB04
:102CC000850503EB4505A87000200AE012F8015BBA
:102CD000667A06EB860603EB46060644F570401C52
:102CE000C0B28842F2D3002008E0627A02EB82028E
:102CF00003EB42020A44D070491CC9B20729F4D33D
:102D0000F0BCFFF7EDBA000004000020CC01002069
:102D100028000020F0B5002426461D4D4FF6FF7E0A
:102D20002BE0874227D105EB8C0636798E4221D3E2
:102D30000120B0EB521F1AD104EB440005EB8005D3
:102D40001448AE79920707D5042E07D9002910D16F
:102D50002A79002A0DD001E0042E0AD90D486A799B
:102D6000801C002A05D011B92979002901D11C70D5
:102D70000020F0BD0126641CE4B204EB440C55F8BD
:102D80002C707745CDD10EB10348F0BD0348F0BD9E
:102D9000283500080000010611000906000002069F
:102DA00030B51A4900200870194B012213F8304041
:102DB0008F2C25D006DC022C22D0052C20D00E2C06
:102DC00014D104E0902C1BD0912C0FD118E003EB10
:102DD000C00464780A2C13D004DC012C10D0092C18
:102DE00004D10DE09A2C0BD0A12C09D00D7802FA59
:102DF00000F4A5430D70401CC0B20828D6D330BDE6
:102E00000D7802FA00F42C430C70F4E76D000020FA
:102E1000740300202DE9F043067801460025304672
:102E2000FFF7C4FAFA4CFB4B0122E8B3022E05D09F
:102E30004878FF284FF0000002D024E0C878F8E777
:102E400014F83070B74218D104EBC00797F806C0E9
:102E5000BCF1010F11D197F807C091F802803CEA4C
:102E6000080C87F807C008D193F8008002FA00FC2C
:102E700028EA0C0883F800807D71401CC0B2082845
:102E8000DED3BDE8F0830E7814F83070BE4240D136
:102E900004EBC0064F7896F801C0674539D1CF786A
:102EA00096F803C0674500E038E032D18F7896F895
:102EB00002C017EA0C0F2CD096F804C091F80480D9
:102EC0002CEA080C5FEA0C7C23D196F806C0BCF112
:102ED000010F1ED191F805C05FEACC7C0FD093F8AA
:102EE000008002FA00FC4CEA080C83F800C096F857
:102EF00007C04CEA070C86F807C0727109E0F5714B
:102F000093F800C002FA00F72CEA070C83F800C01F
:102F10007571401CC0B20828B5D3B2E7BE4FDFF8C8
:102F2000FCC2BF48402E10D0422E40D0412E74D05B
:102F3000492E72D0442E6CD00E2E6BD0142EFCD0A5
:102F4000152EFAD0452E7DD038E08A783B789A420B
:102F500097D19CF80020002A93D10A794B7900215F
:102F6000B04C5525665CB24201D1417007E062B1B8
:102F7000202A0AD01EB1491CC9B25F29F2D3002110
:102F8000625C934203D1817009E04570F7E762B15A
:102F90005BB1202B09D0491CC9B25F29F0D38178DD
:102FA0005529BAD1252141706AE18570F7E78E78FD
:102FB0003F78BE4202D19CF800607EB100200E78BE
:102FC00014F83070BE4208D104EBC0064F7896F872
:102FD00001C067457ED0002FFCD092E14A79AAB1AA
:102FE0004A7802F0030202700278022A00D90570C2
:102FF00003788D4A7BB14978C1F3011111700178D2
:10300000553101700078894908703AE70570EBE79F
:1030100003E0BFE0EFE01570F1E74878844F412E00
:1030200019D0492EF1D10007EFD000200E7814F806
:1030300030C066450ED104EBC00691F802C096F888
:10304000028000E01EE1C44504D196F806C0BCF140
:10305000010F5ED098E000200E7814F830C066456D
:1030600052D104EBC00691F802C096F80280C44524
:103070004AD196F806C0BCF1010F45D191F8018004
:1030800096F801C0C14608EA0C085FEA887802D1C8
:10309000BCF1000F2FD191F803C096F80380C4450E
:1030A00005D0BCF1FF0F02D0B8F1000F23D191F889
:1030B000048096F804C018EA0C0F02D1BCF1000F8E
:1030C00019D197F800C0BCF1000F0FD05FEA191CAE
:1030D00011D10BE0F0E000BF93F8008002FA00FC91
:1030E0004CEA080C83F800C072710DE091F805C03D
:1030F0005FEACC7CF0D193F8008002FA00FC28EA69
:103100000C0883F800807571401CC0B20828A3D356
:10311000B7E691F801C096F80180E1460CEA080C88
:103120005FEA0C7C27D091F803C096F80380C44571
:1031300002D0BCF1FF0F1ED191F804C096F80480B4
:103140001CEA080F17D097F800C0BCF1000F0DD093
:103150005FEA191C0FD109E093F8008002FA00FC25
:103160004CEA080C83F800C072710DE091F805C0BC
:103170005FEACC7CF0D193F8008002FA00FC28EAE8
:103180000C0883F800807571401CC0B20828FFF459
:103190004DAF76E600200E7814F83050AE4225D1BF
:1031A00004EBC0054E786F783E40B60700D1EFB90A
:1031B000CE78EF78BE4202D0FF2E00D0B7B98E781D
:1031C000AF78BE4212D10F792E79374200D16EB955
:1031D000AE79012E0AD14E79F60707D01F7802FA90
:1031E00000F63E431E701426EE716A71401CC0B298
:1031F0000828D0D345E64A788B2A33D01ADC102A27
:1032000086D0812A2ED0862A21D0882AC1D115E0E5
:10321000740300206C0000202A00002058000020C9
:10322000000000202C340008340000203D00002065
:10323000390000208F2A01D0902AAAD13448882A48
:103240001DD08F2A18D0902AA3D1497932E049792C
:103250000029C17802D041F0020101E021F0020111
:10326000C1700EE649790029C17802D041F0010110
:10327000F6E721F00101F3E74979417001E6497968
:103280008170FEE5C8784B7840EA0320A0F514531E
:103290000D3BAFD148791F4BC0F30111197000F0FD
:1032A0000F011D4BC1EB0111C90019601B490A70C8
:1032B00081091B480170E4E5CF7896F803C06745A3
:1032C0001FD18F7896F802C067451AD191F804C0D3
:1032D00037791CEA070F00D19FB9B779012F10D1B8
:1032E0004F7993F800C0FF0702FA00F704D047EACD
:1032F0000C071F70727104E02CEA070C83F800C001
:103300007571401CC0B20828FFF459AEB9E5000041
:10331000040000204B0000204C000020540000203E
:10332000550000202DE9F7433A4A00EB400502EB37
:1033300085064B1EB47903D303FB04F7FFB200E00C
:103340000027DFF8D08000EB400052F825C008EBE2
:1033500080000CF5F55C80684FF00109BCF5004C6D
:1033600010D0DDF80880BCF1200F08F0FF081DD058
:10337000BCF5807F06D0BCF5907F1CD070B30020D8
:1033800002A929E00278029C22FA03F3C4F3C034B4
:1033900003F00103A34207D00123491E8B4014B15F
:1033A0001343DAB200E09A43027030E078B3C1EB25
:1033B000C101C91F04E050B36FF0070202EBC10165
:1033C00000F8018023E00B5C07EB0008D6F808C08A
:1033D000401CC0B20CF80830A042F4D352F82510BB
:1033E000A1F514500D3812D10B480C4A0078C0F3E7
:1033F0000111117000F00F01094AC1EB0111C90060
:103400001160084A0849800982F80090087000207D
:10341000BDE8FE83283500084A0000204B0000204C
:103420004C00002054000020550000203233343579
:103430003638394145464850524247534B30313770
:103440004344494A4C4D4E4F545155565758595A7A
:103450002B2D0B01101A1A10101A101011111A101E
:10346000010B1B11010B1B11111B1010111B111152
:10347000111B0B01010B0101010B111111110101B4
:10348000111B0109111B1E14141E1B11010B1A1014
:10349000020A010909011B11111B10101810040464
:1034A000080A0B01010B1E14141E0E04040E1B113E
:1034B00010100B01010111111B11111913111B1116
:1034C000111B0404040E1B19111B1B111111010304
:1034D0000901111B1111000A0A0004040A000A0262
:1034E000080AC8C8C8C838383838000004040404BA
:1034F00000000000000400000400000400000400BC
:10350000000056322E30430056312E3442005631E0
:103510002E330000472D3734310056312E31000054
:10352000472D373432000000001000000000040076
:1035300064000020011000000000010032000020A3
:1035400008100000000006001435000809100000F3
:10355000000005000E3500080A10000000000500FC
:1035600002350008161000000800040000000000EA
:1035700018100000040104000000000000600000BA
:103580000300020030030020016000000001010080
:103590002A00002020610000080104000000000053
:1035A00040610000080104000000000060610000AC
:1035B000080104006E000020806100000801040082
:1035C0004203002020620000080104000000000007
:1035D000406200000801040000000000606200007A
:1035E000080104006F000020806200000801040050
:1035F0007A030020106000000000070000000000B7
:1036000011600000000107000000000000610000E0
:103610000801070000000000006200000801070028
:1036200000000000FD2F0000000001006B000020E2
:10363000FE2F0000000101006C000020CA240000E1
:10364000000101003A000020EE240000000101000A
:10365000390000200D250000000101004A00002073
:10366000FFFF00000000000000000000000000005C
:103670000000000001020304060708099C36000848
:1036800000000020A0000000280100083C370008CE
:10369000A0000020780A000044010008000000009B
:1036A000000000000000000000000000000000001A
:1036B000000000000000000000000000000000000A
:1036C00000000000000000000000000000000000FA
:1036D00000000000000000000000000000000000EA
:1036E00000000000000000000000000000000000DA
:1036F00000000000000000000000000000000000CA
:1037000000000000000000000000000000000000B9
:1037100000000000000000000000000000000000A9
:103720000000000000000000000000000100000098
:0C37300010000000000000000024F40065
:04000005080000ED02
:00000001FF
