:020000040800F2
:10000000380B002089010008B7220008231D0008D2
:10001000B52200087F030008BD260008000000008C
:10002000000000000000000000000000F9220008AD
:100030003504000800000000B92200080D24000863
:10004000A3010008A3010008A3010008A301000800
:10005000A3010008A3010008A3010008A3010008F0
:10006000A3010008A3010008A3010008A3010008E0
:10007000A3010008A3010008A3010008A3010008D0
:10008000A3010008A3010008A3010008A526000899
:10009000B1260008810300088D030008A3010008B1
:1000A000A3010008A3010008A3010008A3010008A0
:1000B000712400087D24000889240008A301000899
:1000C000A3010008A3010008A3010008A301000880
:1000D000A3010008A3010008A3010008A301000870
:1000E000A3010008A3010008A301000800F002F822
:1000F00000F03AF80AA090E8000C82448344AAF188
:100100000107DA4501D100F02FF8AFF2090EBAE885
:100110000F0013F0010F18BFFB1A43F0010318473B
:100120004C4000006C400000103A24BF78C878C1F1
:10013000FAD8520724BF30C830C144BF04680C60ED
:10014000704700000023002400250026103A28BF35
:1001500078C1FBD8520728BF30C148BF0B60704739
:100160001FB51FBD10B510BD00F0CFF81146FFF749
:10017000F7FF02F07FFC00F0EDF803B4FFF7F2FFA9
:1001800003BC00F0F5F80000094880470948004723
:10019000FEE7FEE7FEE7FEE7FEE7FEE7FEE7FEE737
:1001A000FEE7FEE704480549054A064B7047000094
:1001B0006F240008ED00000838050020380B0020EF
:1001C0003807002038070020032A40F2308010F062
:1001D000030C00F0158011F8013BBCF1020F6244E2
:1001E00098BF11F801CB00F8013B38BF11F8013B73
:1001F000A2F1040298BF00F801CB38BF00F8013B20
:1002000011F0030300F04F80083AC0F0088051F865
:10021000043B083A51F804CBA0E80810F5E7121D9A
:100220005CBF51F8043B40F8043BAFF30080D207B9
:1002300024BF11F8013B11F801CB48BF11F8012B85
:1002400024BF00F8013B00F801CB48BF00F8012BA8
:1002500070474FF0000200B5134694469646203989
:1002600022BFA0E80C50A0E80C50B1F12001BFF46F
:10027000F7AF090728BFA0E80C5048BF0CC05DF8D5
:1002800004EB890028BF40F8042B08BF704748BF23
:1002900020F8022B11F0804F18BF00F8012B704797
:1002A00070477047704710B5203AC0F00B80B1E836
:1002B0001850203AA0E81850B1E81850A0E818509B
:1002C000BFF4F5AF5FEA027C24BFB1E81850A0E8A4
:1002D000185044BF18C918C0BDE810405FEA827CBE
:1002E00024BF51F8043B40F8043B08BF7047D207D5
:1002F00028BF31F8023B48BF11F8012B28BF20F876
:10030000023B48BF00F8012B7047754600F02CF8FF
:10031000AE4605006946534620F00700854618B0F2
:1003200020B5FFF73FFFBDE820404FF000064FF03B
:1003300000074FF000084FF0000B21F00701AC461A
:10034000ACE8C009ACE8C009ACE8C009ACE8C00939
:100350008D46704710B50446AFF300802046BDE8D7
:100360001040FFF70ABF000000487047D404002087
:1003700001491820ABBEFEE7260002007047FEE7E9
:10038000014800F0D9B90000D4030020014800F072
:10039000D3B90000D403002030B5234C89B0607974
:1003A000002838D0207A002500EB80011F4800EBA0
:1003B00041014978227A02EB820210F8122002F001
:1003C000F00201EBC2010091217A01EB810110F8EA
:1003D0001110029501F00F01CDE90351217A04F1CA
:1003E000100301EB810100EB410006AA50F8021F47
:1003F00006914068079069460D4800F030F860B1FA
:1004000000F019F86079401E6071207A1D2808D02C
:10041000207A401C207209B030BD6089401C608188
:10042000F0E72572F7E7000008000020EC0100204B
:10043000D4030020704772B6FEE790F82020012A0E
:1004400007D0022A05D0416A41F48021416201208F
:100450007047006842690A43426100207047F0B566
:1004600090F820500468A468012D05D0022D03D017
:10047000416A41F480215DE014F0406F01D1E50054
:1004800055D5C4F30164022C03D9416A41F400013B
:1004900050E00125A5401D608D684FF4C0739DB1EB
:1004A000CE6835434E6845EAC605066803EB041777
:1004B000F5514FF4C275076805EB04150E697E51BE
:1004C000097D012905D009E00E88CD6845EA465529
:1004D000EBE701684E5946F480764E511179D57993
:1004E000567941EA056195792D0445EA06252943A7
:1004F0004FF4C676056806EB0416A9511178D57835
:1005000041EA0561957852782D0445EA02221143AB
:100510004FF4C475026805EB04155151006803EBF4
:100520000411425842F0010242500020F0BD416ADD
:1005300041F4001141620120F0BD000010B590F8B7
:1005400020300268012B07D0022B05D0416A41F40C
:1005500080214162012010BDD2F8000240F001006C
:10056000C2F80002087D00F01F0301209840D2F875
:100570001C328343C2F81C32CB69B3B9D2F80C32B7
:100580008343C2F80C328C894B6864F31F434C6977
:1005900002EBC404C4F840320C890B6864F31F43B7
:1005A0004C6902EBC404C4F84432CB69012B16D168
:1005B000D2F80C320343C2F80C320C884B6864F357
:1005C0001F434C6902EBC404C4F840320C89CB6869
:1005D00064F31F434C6902EBC404C4F844328B69D2
:1005E000002BD2F804320FD053EA0003C2F80432D1
:1005F0000B69002BD2F8143208D00343C2F814322E
:10060000096A012904D008E08343EFE78343F5E753
:10061000D2F81C120143C2F81C12D2F8000220F0DA
:100620000100C2F80002002010BD90F82020012A2D
:1006300007D0022A05D0416A41F48021416201209D
:100640007047006842698A434261002070477047E2
:1006500030B590F82040012C05D0022C03D0416A1F
:1006600041F480215DE00468002955D02469A40785
:1006700054D04FF4D874056804EB01142D5915F0CB
:100680000405956005682D594ED0ED085560056844
:100690002C5904F00204D4604FF4DA74056804EBBA
:1006A00001142D5905F00F05156105682D59C5F385
:1006B0000725956105682C59240C54614FF4DC72B0
:1006C000046802EB0112A4581C700468A458240AA0
:1006D0005C700468A458240C9C700468A258120E24
:1006E000DA704FF4DE72046802EB0112A4581C7138
:1006F0000468A458240A5C710468A458240C9C71F2
:100700000468A258120EDA71006881B1016941F0E3
:1007100020010161002030BDE468A8E7416A41F48E
:1007200000114162012030BD6D0D1560AFE7C16859
:1007300041F02001C160EDE72DE9F05F054600685A
:1007400000244669D0F804908768D0F80CB0D0F83F
:1007500010A0D0F81880F10748D0F90714D0012173
:100760008160B80703D5284600F07AFA0CE07807D4
:1007700002D54FF4006407E0380702D54FF48054E7
:1007800002E0284600F06AFAF80516D529684FF409
:1007900080708860B80503D5284600F06BFA0CE03D
:1007A000780502D544F4005407E0380502D544F436
:1007B000804402E0284600F05BFAF80316D5296869
:1007C0004FF480308860B80303D5284600F05CFA07
:1007D0000CE0780302D544F4004407E0380302D566
:1007E00044F4803402E0284600F04CFA300707D584
:1007F0005FEACB6004D52968102044F40074C86017
:1008000070074FF0080707D55FEA0B7004D528681A
:10081000C760284600F072F9B00706D52868C0689E
:10082000800702D0284600F06BF9700607D55FEA12
:10083000CA6004D52968102044F480640861B006B9
:1008400007D55FEA0A7004D528680761284600F0DA
:1008500079F9F00606D528680069800702D0284695
:1008600000F072F9B00308D55FEAC96005D52968C0
:1008700010204860284600F0C3F9F00307D55FEA6E
:10088000097004D528684760284600F005FA30044E
:1008900046D55FEA497040D5F00504D55FEAC870D7
:1008A00001D044F00104B00504D55FEA887001D599
:1008B00044F00204700504D55FEA487001D544F0A5
:1008C0000404300529D518F0700F26D008F0700008
:1008D000402815D006DC102809D020280AD030285E
:1008E00016D10AE050280ED0602811D10EE044F055
:1008F00008040DE044F010040AE044F0200407E08E
:1009000044F0400404E044F0800401E044F48074C6
:100910002868816921F0700181612968042048609C
:10092000002C05D0686A204368622846FFF78FFED6
:10093000BDE8F09F70B5040003D094F8200010B11A
:1009400004E0012070BD204600F082F820680168B4
:1009500041F00101016000F0ADFA0546052604E012
:1009600000F0A8FA401B0A2811D820684068C00788
:10097000F6D02068016821F00201016000F09AFAC7
:1009800005460BE000F096FA401B0A2806D9606A7B
:1009900040F40030606284F82060D2E7206840684C
:1009A0008007EFD4207E0128206801683DD021F027
:1009B00080010160607E01282068016838D021F044
:1009C00040010160A07E01282068016833D021F039
:1009D00020010160E07E0128206801682ED041F0EE
:1009E00010010160207F01282068016829D021F0D2
:1009F00008010160607F01282068016824D021F08F
:100A000004010160D4E902010843D4E9041211434E
:100A100008436168491E08432168C861002060627C
:100A2000012084F82000002070BD41F08001C0E763
:100A300041F04001C5E741F02001CAE721F0100173
:100A4000CFE741F00801D4E741F00401D9E7000005
:100A500010B586B0002100910191029103910068C8
:100A60002349884242D12348C16941F00071C161E4
:100A7000C16901F000710491816941F00401816153
:100A800080691D4C00F0040004904FF40060009059
:100A90006946204600F014F9A0140090022001904D
:100AA000032003906946204600F00AF9002211460F
:100AB000132000F06BFA132000F05AFA00221146BE
:100AC000142000F063FA142000F052FA00221146BC
:100AD000152000F05BFA152000F04AFA00221146BA
:100AE000162000F053FA162000F042FA06B010BDAE
:100AF0000064004000100240000801407047000000
:100B000010B50C4B0C4A0021FFF7A2FD0A48006803
:100B1000C0F3C3110E2909D100F07F010748491E17
:100B2000082901D2322100E0282101700449012066
:100B3000087010BD2A00002034030020610000204E
:100B40004C0000207047000070B5284B284A012156
:100B5000FFF77EFD254C1A3C20791E2802D125483E
:100B60000178D9B1224AF020118800EAD103E07956
:100B700000EB8005A2F5167000F81530E37901F05E
:100B80007F0103EB830300EB43035970E17901EB31
:100B9000810110F81110C02912D107E016490A7816
:100BA00042F010020A701421017070BDE17901EB6E
:100BB000810100EB41014978104B1B789942F4D137
:100BC0001269E17901EB810100EB41000749801CCA
:100BD000FFF7FAFAE0791D2806D0E079401CE071B1
:100BE0002079401C207170BD0020F8E72200002011
:100BF000180300208E000020440000204000002048
:100C00007047000070B5044690F82000012804D019
:100C1000606A40F40020606218E0022084F820003E
:100C20002068016821F00101016000F043F90546E8
:100C30000EE000BF00F03EF9401B0A2808D9606AA8
:100C400040F400306062052084F82000012070BD6F
:100C500020684068C007EDD1606270BD7047000039
:100C600002480188491C0180FFF796BB1C00002048
:100C70007047000002484188491C4180FFF78CBB47
:100C80001C0000207047000002488188491C8180B8
:100C9000FFF782BB1C0000207047000070B50446BF
:100CA00000F008F90546601C02D0044800780444AE
:100CB00000F000F9401BA042FAD370BDB000002044
:100CC0002DE9F84FDFF8B891002409F1040A0AF180
:100CD000040B23460F270BF1040EC9E00125A540A4
:100CE0002A40AA427DD1674ED1F804C0ACEB060879
:100CF000B44532D014DCBCF1030F3AD009DCBCF1AE
:100D0000000F2AD0BCF1010F1CD0BCF1020F31D171
:100D10001DE0BCF1110F17D0BCF1120F2AD119E060
:100D2000B8F5881F19D006DCB8F5803F15D0B8F5A6
:100D3000801F1FD111E0B8F5001F0ED0B8F5041FB9
:100D400018D10AE0CB6815E0CB681B1D12E0CB6818
:100D500008330FE0CB680C330CE08B682BB1012B10
:100D60004FF0080303D0456104E0042302E005616D
:100D700000E00023FF2A01D8064601E000F1040646
:100D80004FEA840501D9A5F12005D6F8008007FABD
:100D900005FC28EA0C0803FA05F548EA0508C6F838
:100DA00000804D68ED0062D5374DAE6946F0010612
:100DB000AE61AD6924F0030605F001050095334DE1
:100DC00006EB050CDCF80850A607360F07FA06F804
:100DD00025EA0805DFF8B880404503D14FF0000848
:100DE00017E044E0DFF8AC80404502D14FF0010845
:100DF0000FE0DFF8A480404502D14FF0020808E080
:100E0000DFF89880404502D14FF0030801E04FF031
:100E1000040808FA06F848EA0508CCF808804D6886
:100E2000D9F80060ED034D4601D5164300E0964326
:100E30002E604D68DAF80060AD03554601D51643C3
:100E400000E096432E604D68DBF80060ED025D46E1
:100E500001D5164300E096432E604D68DEF8006031
:100E6000AD02754601D5164300E096432E60641C22
:100E70000D682A46E5407FF431AFBDE8F88F0000E9
:100E80000004014000001110001002400000014069
:100E900000080140000C0140001001400014014016
:100EA0008068084000D0012070470AB10161704796
:100EB0000904FBE70148806870470000B00000208B
:100EC000024881680278114481607047B0000020B8
:100ED000074810B5016841F010010160032000F0DF
:100EE00075F80F2000F006F800F024F8002010BD7F
:100EF0000020024070B50D4D04464FF47A712878F9
:100F0000B1FBF0F00A490968B1FBF0F000F0DEFA3D
:100F100048B9102C07D200222146501E00F036F8A6
:100F200000206C6070BD012070BD0000B00000208A
:100F3000BC0000200C4808B5816941F001018161C5
:100F4000816901F001010091C16941F08051C161E5
:100F5000C06900F0805000900448416821F0E061D1
:100F600041F00071416008BD0010024000000140E6
:100F7000002809DB00F01F02012191404009800098
:100F800000F1E020C0F8001170470000F0B40E4BF3
:100F90001B680C46C3F30223C3F10705042D00D9D7
:100FA0000425191D072901D2002300E0DB1E0126BC
:100FB00006FA05F1491E214099409E40761E1640D2
:100FC0003143F0BC01F07BBB0CED00E0064900F0C2
:100FD000070208684FF6FF03184040EA0220034A60
:100FE00010430860704700000CED00E00000FA05B7
:100FF000BFF34F8F05480168054A01F4E0611143D2
:101000000160BFF34F8F00BFFDE700000CED00E073
:101010000400FA052DE9F0470F46050061D0434E64
:10102000306800F00700B84209D2306820F00700AD
:1010300038433060306800F00700B84251D128686A
:101040003B4C810712D5400703D5606840F4E0604F
:1010500060602878000703D5606840F460506060E5
:101060006068A96820F0F000084360602878C00735
:1010700028D06868012810D02168022810D089077C
:1010800000292EDA616821F0030101436160FFF756
:1010900011FF804641F288390DE021688903EFE7AE
:1010A0008901EDE7FFF706FFA0EB0801494502D9EA
:1010B0000320BDE8F0876068696800F00C00B0EBC1
:1010C000810FEFD1306800F00700B8420BD93068CB
:1010D00020F0070038433060306800F00700B84265
:1010E00001D00120E5E72878400705D56068E96868
:1010F00020F4E060084360602878000706D5606847
:10110000296920F4605040EAC100606000F018F8DE
:101110006168084AC1F30311515CC8400649086080
:1011200006480068FFF7E6FE0020C2E70020024004
:10113000001002405C410008BC000020B400002008
:1011400012A185B00FC98DE80F0014A0144A0068E1
:1011500004905168134801F00C03042B10D0082BA5
:101160000ED1C1F38343C9031DF803000AD55168AA
:1011700004AAC1F34041515C0A4A5043B0FBF1F06C
:1011800005B0704708494843FAE700000203040528
:10119000060708090A0B0C0D0E0F101001020000C3
:1011A0000010024000127A0000093D002DE9F84FBE
:1011B000040070D02078C04DC00749D06868C0F3E3
:1011C0008100012807D06868C0F38100022809D196
:1011D0006868C00306D52868800339D56068002890
:1011E000E7D035E06068B0F5803F0BD010B1B0F5C6
:1011F000A02F11D0286820F480302860286820F4BF
:10120000802002E0286840F480302860606890B157
:10121000FFF750FE06460AE0286840F48020286068
:10122000F0E700BFFFF746FE801B642873D82868EC
:101230008003F7D50CE0FFF73DFE064605E000BF52
:10124000FFF738FE801B6428F0D828688003F7D4A5
:1012500020789A4E80074FF001094FF0000839D5E9
:10126000686810F00C0F07D06868C0F3810002288E
:1012700009D16868C00306D42868800714D520699E
:10128000012808D110E02069B0B1C6F80090FFF73E
:1012900011FE074605E00AE1FFF70CFEC01B02281D
:1012A000C4D828688007F7D52868616920F0F8005D
:1012B00040EAC10028600DE0C6F80080FFF7FAFDA3
:1012C000074604E0FFF7F6FDC01B022823D8286874
:1012D0008007F7D4207800072CD57948A169D9B1C7
:1012E000C0F80090FFF7E6FD074604E0FFF7E2FDD7
:1012F000C01B02280FD8686A8007F7D571484FF4E1
:10130000FA510068B0FBF1F0009000BF0098411E58
:101310000091FAD20EE080E0C0F80080FFF7CAFD2D
:10132000074604E0FFF7C6FDC01B022875D8686AAF
:101330008007F7D42078400760D5E8690027C0000F
:1013400008D4E86940F08050E861E869012700F0BE
:10135000805000905C480168C90513D40168834639
:1013600041F480710160FFF7A5FD824606E000BFF1
:10137000FFF7A0FDA0EB0A0064284ED8DBF80000C0
:10138000C005F5D5E06801280AD008B1052813D0BA
:10139000286A20F001002862286A20F0040002E098
:1013A000286A40F001002862E06841F2883B98B169
:1013B000FFF780FD82460BE0286A40F004002862B7
:1013C000EEE700BFFFF776FDA0EB0A0159455AD8BA
:1013D000286A8007F6D50CE0FFF76CFD824605E031
:1013E000FFF768FDA0EB0A0159454CD8286A800731
:1013F000F6D41FB1E86920F08050E861E06988B355
:101400006968C1F38101022944D00228C6F86080CE
:1014100004D0FFF74FFD044638E034E0FFF74AFD03
:10142000074604E0FFF746FDC01B02282BD82868BA
:101430008001F7D4206AB0F5803F05D16868A168C3
:1014400020F4003008436860D4E908010843696863
:1014500021F4741108436860C6F86090FFF72AFD14
:10146000044606E025E000BFFFF724FD001B02282C
:1014700009D828688001F7D51BE000BFFFF71AFDE7
:10148000001B022802D90320BDE8F88F28688001DC
:10149000F4D40EE00128F7D06868226A00F48031A5
:1014A000914204D1616A00F47010884201D0012099
:1014B000EAE70020E8E70000001002400000424296
:1014C00080044242BC0000200070004010B5401E65
:1014D000B0F1807F01D3012010BD4FF0E0246061A6
:1014E0000F21601701F0EBF80020A06107202061B8
:1014F000002010BD7047704770B590F83C20012A5D
:1015000026D0012480F83C40022280F83D20036868
:101510005A689D6822F070060A6832435A600D4B83
:1015200002689A4208D0B2F1804F05D00A4B9A4225
:1015300002D00A4B9A4204D1496825F0800319432E
:10154000916080F83D40002180F83C10084670BD55
:10155000022070BD002C0140000400400008004043
:1015600010B5040003D094F83D0010B107E001204D
:1015700010BD002084F83C00204600F01FF8022037
:1015800084F83D00211D206800F084FF012084F8CC
:10159000460084F83E0084F83F0084F8400084F858
:1015A000410084F8420084F8430084F8440084F841
:1015B000450084F83D00002010BD000008B501681A
:1015C0001D48B1F1804F11D01C4A91421DD1C16913
:1015D00041F00201C161C069002200F002000090E8
:1015E00011461D20FFF7D2FC1D201FE0C16941F00C
:1015F0000101C161C069002200F0010000901146A4
:101600001C20FFF7C3FC1C2010E00D4A914211D1B1
:10161000C16941F00401C161C069002200F0040009
:10162000009011461E20FFF7B1FC1E20BDE80840C7
:10163000FFF79EBC08BD00000010024000040040FF
:101640000008004090F83D10012901D001207047AA
:10165000022180F83D100168CA6842F00102CA60A8
:1016600000680B49884208D0B0F1804F05D0094985
:10167000884202D00849884204D1816801F00701FC
:10168000062903D0016841F0010101600020704784
:10169000002C0140000400400008004070B50446E2
:1016A00090F83C00012817D0012584F83C50022016
:1016B00084F83D002068826822F0770222F47F429D
:1016C00082600868502830D00DDC20284DD005DC21
:1016D00098B310283BD148E0022070BD302844D098
:1016E000402834D139E0602828D0702806D0B0F5E1
:1016F000805F2CD0B0F5005F29D10AE0CB68D1E93A
:101700000121206800F0FCFE2068816841F077012B
:1017100009E0CB68D1E90121206800F0F1FE2068E2
:10172000816841F48041816011E0CA68496820689D
:1017300000F0F8FE5021206807E016E0CA6849680A
:10174000206800F000FF6021206800F0E3FE84F8CC
:101750003D50002084F83C0070BDCA68496820688C
:1017600000F0E0FE40212068EFE7226801461046C5
:10177000EBE7704770B50446006801694FF000055B
:10178000C943890715D4C168C943890711D4E91E23
:10179000016101202077206880698007204602D0FF
:1017A000FFF7E7FF04E000F098F8204600F096F815
:1017B000257720680169C943490717D4C168C9431F
:1017C000490713D46FF004010161022020772068DB
:1017D000806910F4407F204602D0FFF7CAFF04E082
:1017E00000F07BF8204600F079F825772068016941
:1017F000C943090716D4C168C943090712D46FF059
:1018000008010161042020772068C0698007204614
:1018100002D0FFF7AEFF04E000F05FF8204600F0D2
:101820005DF8257720680169C943C90617D4C168E6
:10183000C943C90613D46FF0100101610820207755
:101840002068C06910F4407F204602D0FFF791FF66
:1018500004E000F042F8204600F040F825772068C8
:101860000169C943C90708D1C168C943C90704D17F
:10187000891E0161204600F033F820680169C943E0
:10188000090609D4C168C943090605D46FF080016F
:1018900001612046FFF72EFE20680169C943490611
:1018A00009D4C168C943490605D46FF040010161FC
:1018B000204600F035FA20680169C94389060BD437
:1018C000C168C943890607D46FF020010161204631
:1018D000BDE87040FFF70FBE70BD70477047000055
:1018E0002DE9F05FE349804600680968DFF88893D6
:1018F0000126DFF888A3002588427DD1E0480178E1
:1019000041F004010170DF49087808B1401E0870F9
:10191000DD48017811B10178491E0170007808B9DD
:10192000DA480670DA48017811B10178491E017071
:10193000D849087808B1401E0870D749087808B11E
:10194000401E0870D549087808B1401E0870D44977
:10195000087808B1401E0870D248017809B1491EC4
:101960000170D1490878401C08709AF80210491C8F
:101970008AF80210CD490A78CD48CE4B552A08D0B6
:1019800005601D70CC4A002012F83030442B0DD079
:1019900020E00268571C0760C84800688242F1D9FD
:1019A000C74800780028EDD01E70EBE702EBC00CB2
:1019B0009CF8073073B15B1E13F0FF038CF80730FF
:1019C00008D199F8007006FA00F39F4389F8007077
:1019D0008CF80550401CC0B20828D5D3B94802780D
:1019E000D30712D0B84B1F78B84B1B7867B11706D6
:1019F00007D522F0800200E007E002705520087051
:101A000003E042F0800202700B70B148D8F8001079
:101A10000068814260D1AF48007828B9AE480168BB
:101A200011B10168491E0160DFF8B0B29BF80030C7
:101A3000ABBBAB484178817001784170A949096816
:101A4000C1F3C321017002780F219143017000227C
:101A50004FEA000E06FA02F0C1B29EF8027070461C
:101A60009EF801C00F400CEA010C674513D147787E
:101A700090F800C00F400CEA010C67450BD19A4F5B
:101A800097F800C02CEA010C87F800C08078084065
:101A9000397808433870521CD2B2082ADAD35B1C5A
:101AA000D9B28BF80010072901D18BF8005099F8B2
:101AB00000708E48DFF82C9220210078A9F10809E7
:101AC000474007F001024846FFF7EFF9C7F340022D
:101AD00010214846FFF7E9F98549D8F80000096860
:101AE00088427DD19AF801008249401CC0B28AF830
:101AF000010009785746002973D13221B0FBF1F279
:101B000001FB120010B97C4806703E707B480178DA
:101B1000042902D2491C017002E0794905700D7058
:101B200062494B78774A0D2B04D20378134493F81B
:101B300098301BE04B780C2B07D94B78102B04D234
:101B40000378134493F8A43010E04B78102B09D09D
:101B500065F307048B780D2B0BD20378134493F8AD
:101B60009C3068E00378134493F8A03063F30704D3
:101B7000F0E78B780C2B07D98B78102B04D20378E5
:101B8000134493F8AC3056E08B78102B4FD023469B
:101B900064F307031C460B78E4B202EB830C037872
:101BA00081461CF803000443887802EB8000C05C87
:101BB00044EAD0004C78897802EB8404E45C02EBC0
:101BC0008101C95C490744EA11684F4CC4F884514B
:101BD00004F5C27400F072FB404600F06FFB01E0B8
:101BE00045E018E099F8000006FA00F0C1B23D485F
:101BF000001D02684FF6F0731A400260266000BFB5
:101C000000BF00BF00BF256000BF00BF00BF00BF16
:101C100002680A4302603878002828D03B490878D7
:101C200090B1401E10F0FF00087008D00CE003785F
:101C3000134493F8A830234363F30704ABE7344815
:101C4000017841F0080101703248017871B1491EF4
:101C500011F0FF01017009D12F490D702F490A7849
:101C600018490A7005701B487F2101703D70BDE85E
:101C7000F09F0000FC0300205B0000203A000020E1
:101C8000AF00002043000020610000204B00002036
:101C90004D000020600000208F0000204500002043
:101CA000530000208E00002050000020040000207F
:101CB0009C00002093000020940300209800002046
:101CC000A0000020480000208900002049000020DA
:101CD0004404002056000020700000208B000020EB
:101CE00062000020080C0140590000205F00002025
:101CF0008C0400204F0000204E00002088000020AF
:101D00008A0000208E3E0008000021429100002041
:101D1000AE00002051000020570000208D00002060
:101D20007047FEE7F0B554488BB000240471C471CD
:101D30008471447144720472504A214601EB81035C
:101D4000002002EB43031C54401CC0B20A28FAD303
:101D5000491CC9B21E29F1D3494B002101EB810274
:101D6000002003EB42021454401CC0B20A28FAD3EC
:101D7000491CC9B21E29F1D30125E8034FF470466E
:101D80008DE851000394CDE905540E27CDE908579D
:101D9000079569463B480495FEF7D0FB08B1FEF76E
:101DA0004AFB0220CDE904503748C021007841EABF
:101DB000D001090201EB40108DE851000394CDE9F8
:101DC0000857CDE9064569462E48FEF7B7FB08B12E
:101DD000FEF731FB0094CDE9014605A90320CDE9CA
:101DE000034581E83100CDE9085769462548FEF7EB
:101DF000A5FB08B1FEF71FFB042005904AF2601016
:101E00008DE851000394CDE90857CDE906456946B0
:101E10001C480495FEF792FB08B1FEF70CFBCDE9D8
:101E20000064029605A90520CDE9034581E831004B
:101E3000CDE9085769461348FEF780FB08B1FEF765
:101E4000FAFA05A90A2081E831004EF22000CDE916
:101E50000204CDE900040494CDE908576946094815
:101E6000FEF76CFB13210748FEF7E7FA0548FEF77B
:101E7000C9FE0BB0F0BD000008000020C00000202B
:101E8000EC010020D4030020400000202DE9F05F89
:101E90003C4C94F800805FEA887171D53D4ADFF8C8
:101EA000F8A000231178DFF8E0E0DFF8E0C0384F59
:101EB0009AF800504FF0030B4FF01009A1F11006F3
:101EC000012821D0022835D0032855D15FEA0870B7
:101ED00052D528F0080020703248304E304F01783B
:101EE0000DB151B148E071BB037001208AF80000C8
:101EF0002D48337003703B703EE003702B488AF826
:101F00000030337000782FE0EDB18EF800B0012D75
:101F100001D0042D15D132208CF800006E2E04D291
:101F2000491CC8B210707E2802D3484682F800903F
:101F3000C0B219E03DB18EF800B0012D04D0042DDF
:101F400002D0022D12D017E032208CF800006E2E45
:101F500007D2102902D0491E117004E07D201070B4
:101F600001E082F800901078387005E08CF80030BD
:101F70003970112000F04CFD207820F00200207014
:101F8000BDE8F09FAE0000208F000020510000202F
:101F90004200002040000020570000205800002090
:101FA000480000204A000020890000208D00002009
:101FB000F0B52E4800260068132101EAD02000F079
:101FC000030151EA90022C49294D2A4B0F7810D079
:101FD000104600245FEAC07C01D0761CF6B2641C77
:101FE0004008E4B2032CF5D3032E13D927F00200E6
:101FF00039E0AA20187027F01000020962F3C3002C
:10200000C20862F38610820962F34510087000204E
:102010002870F0BD194C0020AA2AFAD0265C9642FE
:1020200003D0401CC0B20628F6D3154C401C2278C1
:10203000824201D02070F0BD187882420AD01A7016
:102040001E20287027F0400040F00200830963F34F
:1020500045100870032AEED108780207EBD520F06E
:10206000040040F002000870F0BD0000080C0140C0
:102070009100002090000020AE0000205841000890
:10208000520000200E4810B50C4901602D2141601E
:1020900000214FF440228160C0E903124FF4801206
:1020A0004261017641768176C17601774177FEF70C
:1020B00041FC002801D072B6FEE710BD006400406C
:1020C000D40300202DE9F04186B000242848009474
:1020D000019402940394816941F020018161816936
:1020E00001F020010491816941F00401816181695D
:1020F00001F004010491816941F008018161806966
:102100001C4F00F00800049001224FF48171384602
:10211000FEF7CBFE00224FF43F713846FEF7C5FEB6
:10212000DFF8548000223F214046FEF7BEFE40F219
:10213000FE3001250226CDE90005CDE902466946BB
:102140003846FEF7BDFD3F20CDE90005CDE902464A
:1021500069464046FEF7B4FD4FF47840CDE90004EF
:10216000694640460294FEF7ABFD06B0BDE8F0813B
:102170000010024000080140000C014010B586B07C
:1021800000241748009401940294039404944FF09F
:1021900080410594016041F61F41C0E9011441F2FC
:1021A0008731C0E903148461FFF7DAF908B172B628
:1021B000FEE74FF48050009069460948FFF76EFA39
:1021C00008B172B6FEE7049404A905480594FFF728
:1021D00093F9002801D072B6FEE706B010BD0000EA
:1021E000FC03002010B586B0002417480094019429
:1021F00002940394049413490594016041F61F412D
:10220000C0E901141D21C0E903148461FFF7A8F996
:1022100008B172B6FEE74FF48050009069460A4854
:10222000FFF73CFA08B172B6FEE7049404A9064829
:102230000594FFF761F9002801D072B6FEE706B0F9
:1022400010BD0000000400404404002010B586B01A
:1022500000241748009401940294039404941349B1
:102260000594016041F61F41C0E901141321C0E942
:1022700003148461FFF774F908B172B6FEE74FF4F6
:102280008050009069460A48FFF708FA08B172B614
:10229000FEE7049404A906480594FFF72DF90028E9
:1022A00001D072B6FEE706B010BD00000008004085
:1022B0008C040020FEE7FEE77047000030B50D49B2
:1022C0000023C1F8943100BF0722012420FA02F54F
:1022D00005F00105C1F89C5100BFC1F8944100BF51
:1022E00000BFC1F8943100BF00BF00BF521EEDD542
:1022F00030BD000000002142704700002DE9F0478A
:102300003B48DFF8E890DFF8F48001783A4899F824
:102310000030384E027800244FF0550A08F10300CF
:102320008B4202D1337893421AD0012A22D0042A58
:1023300020D0334B1D7805705D78303D45709B781B
:10234000303B837080F8034089F8001032700178C8
:1023500088F80010417888F80110817888F8021018
:1023600028490A78002A3FD103220A7001785529AA
:102370002AD123E080F800A0C470A1F110036E2BD5
:1023800017D25B1C0A2593FBF5F797FBF5FC05FBC1
:102390001C77477093FBF5F705FB17358570642BA9
:1023A000D2DB194B1B7813B101230370CCE7562302
:1023B000FBE72623437027238370C5E7417855291F
:1023C00002D18178552905D0514680F800A080F8C7
:1023D00001A007E098F80010017098F80110417012
:1023E00098F802108170C470BDE8F0878600002064
:1023F000400000205800002057000020010000206D
:10240000A20000208F0000204F000020FEF758BDE2
:1024100030B58FB028216846FDF71BFF14210AA8AC
:10242000FDF717FF01210804CDE9001000240294F4
:1024300002250491CDE907504FF4E0100990684659
:10244000FEF7B4FE08B172B6FEE70F20CDE90A052B
:102450004FF48060CDE90C4002210AA80E94FEF7EB
:10246000D9FD002801D072B6FEE70FB030BD70472D
:102470000148FFF77FB90000FC0300200148FFF787
:1024800079B90000440400200148FFF773B9000047
:102490008C040020F0B50268164B174C174D4FF016
:1024A0008047984205D0B84203D0A04201D0A8424C
:1024B00003D122F070064A683243984205D0B842F0
:1024C00003D0A04201D0A84203D122F44074CA68CC
:1024D00022434C6922F08002224302608A68C26271
:1024E0000A688262984201D1096901630121416150
:1024F000F0BD0000002C0140000400400008004036
:1025000010B5846842EA032224F47F440A4322433C
:10251000826010BD826822F070020A4342F0070117
:102520008160704710B5036A046A24F001040462F4
:10253000846924F0F00444EA021423F00A020A43F6
:102540008461026210BD10B5036A23F010030362B8
:102550008369046A23F4704343EA023224F0A0033F
:1025600043EA01118261016210BD00002DE9F05FB4
:10257000DFF804B19BF8000000287BD04FF4004145
:102580003E48FEF78DFC3E4801783E4891B33E49F7
:102590004A78303A4270C9783039817039485521CB
:1025A0000170DFF8E8A0DFF8E8900027394E8AF8DC
:1025B00000704FF00A0889F800803178001F007819
:1025C000814255D03078C04300074DD0324D0024B1
:1025D00001203178A040084232D08AF8007089F892
:1025E000008028704CB1012C0ED0022C14D0032C8A
:1025F00022D119E0FFE72949CAE722485621017094
:102600001E214170192105E01E48572101700D213E
:102610004170172181700FE01A48552101700F2178
:1026200041708170082006E016485521017015217F
:1026300041708170042028701948FFF703F80EE0FC
:10264000022C04D2297821EA0001297007E02878B9
:1026500002D120F0080001E020F00400287004F10D
:102660000104E4B2042CB3D331780648001F017092
:102670008BF80070BDE8F09F92000020000C014034
:102680004F00002004000020F43F000889000020D3
:1026900053000020590000205B000020EE3F00089E
:1026A0008C0400200148FEF747B80000D403002046
:1026B0000148FEF741B80000D4030020FEE70907F7
:1026C000090E002804DB00F1E02080F800147047B8
:1026D00000F00F0000F1E02080F8141D70470000AA
:1026E00030B428494A791E2AFCD04A7AB82302EB32
:1026F0008204254A02F81430244B4C7A1B7804EBF0
:10270000840402EB440463704C7A802304EB840459
:1027100002EB4404A3701E4B1C684D7A05EB850543
:1027200002EB4505EC701B684C7A1B0A04EB840431
:1027300002EB44042371174B1B784C7A04EB84049E
:1027400002EB440463714B7A03EB830302EB430314
:1027500098714C7A030A04EB840402EB4404E3719D
:102760004C7A030C04EB840402EB44042372497A90
:10277000000E01EB810102EB4101487230BC00F018
:102780000BB8000008000020EC01002040000020F1
:10279000680000208700002030B52F4C87B0A0894A
:1027A000401CA0812D480078002844D02C48007897
:1027B000552840D0607A00251D283ED0607A401C04
:1027C000607201212748FDF730FF207A00EB80017D
:1027D000254800EB41014978227A02EB820210F889
:1027E000122002F0F00201EBC2010091217A01EB0C
:1027F000810110F81110029501F00F01CDE903518C
:10280000217A154A01EB810100EB410006AB50F83B
:10281000021FC4F82A104068C4F82E002A32694604
:102820001048FDF71CFE50B16079401C6071012119
:102830000C48FDF702FE07B030BD6572C1E7608944
:10284000401C6081207A1D2803D0207A401C207211
:10285000EDE72572EBE70000080000204C000020A7
:1028600055000020D4030020EC0100208F280BD05D
:1028700004DC022808D0052804D105E0902803D004
:10288000912801D000207047012070472DE9F047C2
:10289000284D95F82110002941D10127322185F8D2
:1028A0002110E97DAA7AB84611434FF000020BD1FE
:1028B000214955230B701A234B7014238B70EB7B2B
:1028C000ABB12A720978697291462A73002826D022
:1028D0001A4E002416F83400FFF7C8FF002806EB54
:1028E000C40007D0C179B943C1710DD013E085F898
:1028F0000880E7E7817839420DD016F834100E29A8
:1029000002D1417810290CD0EA7E08FA04F18A43FA
:10291000EA7680F80590641CE4B2082CDAD3BDE8AE
:10292000F087EB7E08FA04F21A43EA7680F8058015
:10293000F1E7000040000020040000209403002084
:1029400070B52F48552202700E2141700F21817001
:102950000021C1702B48042380F82030C1744174D9
:10296000322380F821300163C172C1750176C171D3
:10297000C47B0123F4B301724272437040F2A1128E
:102980004263214A4FF4007313604FF44073536065
:10299000017741771C4B00220C33017503F1380499
:1029A000C2EBC205EE18717104EBC2067171595584
:1029B00004F83210521CD2B2F171082AF0D3114C33
:1029C00000223834E31DA1549954521CD2B2072A74
:1029D000F9D38177C177C1760C4A1268C2F3C3225A
:1029E0004276437E074A22321370437E5370437E01
:1029F000937000E001E0817670BD0372BCE70000D7
:102A0000040000204000002050030020080C01407A
:102A100030B4164A53791E2BFCD0537AF82403EBBA
:102A20008305134B03F81540557A642405EB85059F
:102A300003EB45056C70547A04EB840403EB440407
:102A4000A070507A00EB800003EB4000C1700420BE
:102A50000021547A04EB840403EB44042154401C09
:102A6000C0B20928F5D930BCFFF796BE0800002097
:102A7000EC010020FEF72CFAFFF7CAFCFFF722FB5F
:102A8000FFF700FBFFF77AFBFFF7ACFBFFF7DEFB7E
:102A9000A84C002201212046FEF707FA002202215D
:102AA0002046FEF702FA002204212046FEF7FDF937
:102AB000002208212046FEF7F8F99F4C012211025E
:102AC0002046FEF7F2F9012251022046FEF7EDF909
:102AD0009A48FEF7B7FD99484830FEF7B3FD97488E
:102AE0009030FEF7AFFD964D687D5A2836D05528B8
:102AF00034D0AA20687500241020EC7328700121BE
:102B00006970AC752863A870286B4FF47A7100EB7C
:102B1000800001EB80000321B0FBF1F000F516709E
:102B2000286340F2A5302863FFF70AFF286B0028CE
:102B3000FCD1FFF7F7F80520FEF7B0F84FF0040BD3
:102B400085F820B07F207F4EA875307808B100F05E
:102B50004DF9A86A58B1E87828B108E0287940F022
:102B600010002871C5E7AC627748FFF7B9FDE87A35
:102B700018B1EC720020FFF789FE95F8200038B9F3
:102B8000287B28B1687B18B985F820B000F078FD63
:102B9000E86A18B101F074F82C71EC62687D552870
:102BA0000BD1687B48B9FFF7BDF8287940F01000D9
:102BB000287148F24010E8626C75A87D7F28C4D067
:102BC000322085F82100A046EC72AC7600F07EFD44
:102BD000DFF86891B246A9F1A00900BF9AF8000099
:102BE00008B100F003F9A87BB0B1FFF7E1F9A87CC8
:102BF000FFF74CF9E87D10B1FFF780FB0AE0A87DF4
:102C0000F02805D0A87A012804D1287C0A2801D907
:102C1000FFF7ACFC85F80E8095F8200048B9287BBA
:102C200038B1687B28B9E87D18B985F820B000F084
:102C300027FDE86A28B101F023F885F80480C5F87B
:102C40002C80E87A20B185F80B800120FFF71EFE6A
:102C5000687D552801D1687B10B1287C28280AD9C5
:102C600085F8158085F81080287940F010002871CB
:102C700048F24110E862AA7D7F2A11D1697EA87FBF
:102C80004FEA09034140002021FA00F404F0010654
:102C9000C0EBC0041C44401CC0B266710828F3D3CA
:102CA000052A9BD16E7EA87F4640A87E864295D09D
:102CB0005FF0000426FA04F000F00101A87EE04075
:102CC00000F0010088421DD0C4EBC40202EB0907EA
:102CD000797119F802C0BCF1000F13D0184A002016
:102CE00038323B5C1354401CC0B20728F9D3BCF106
:102CF000020F0DD0BCF1050F00D119B110483830CA
:102D000001F002F8641CE4B2082CD3D3AE7665E778
:102D1000E87D0028F6D1687918B1F878A979884259
:102D200003D00748383000F0EFFF02206871F878D0
:102D3000A871E7E7000C014000080140FC030020F7
:102D4000400000200C0000200000040578B5264D4E
:102D500000EB400605EB8602481E947903D300FB86
:102D600004F3DBB200E0002355F82650B5F5C34F5D
:102D70001FD00ADC05F6EA75B5F5005526D005F634
:102D8000B665B5F5C04F07D10DE005F5ED55B5F5C4
:102D9000004508D0202D12D0002000909168002915
:102DA00006D06A461CE091680978C140C807000C4B
:102DB00078BD9268C1EBC100C01F105C78BD9068FF
:102DC0006FF0070202EBC101405C78BD46F2A8102B
:102DD00000EB014078BD1D184D5D1554401CC0B27C
:102DE000A042F8D3009878BD144000082DE9F04FB8
:102DF000DFF8F09387B099F80600FB4900EB8000FC
:102E000011F810C0FA48FC4FF84E02785525DFF84B
:102E1000E4E30024F9483B784FF0040BBCF1A00F29
:102E200074D006DCBCF1000F71D0BCF1800F2CD146
:102E300006E0BCF1C00F29D0BCF1F00FF7D14EE293
:102E400099F806004A4600EB800001EB40008078CC
:102E500099F8063003EB830301EB4303DB7800288A
:102E600013D030780528E2D1E54B0020957905EBA9
:102E7000850501EB45050544AD781D54401CC0B2E5
:102E80000728F3D3DE4800F05BFCDEE299F8060089
:102E90004B4600EB800001EB400090F80280DFF829
:102EA00064B308F0E00CD848D84ED94FDFF864A3DB
:102EB000D94DBCF1400F7DD006DCBCF1000F65D0D0
:102EC000BCF1200F06D107E0BCF1600F73D0BCF15C
:102ED000800F71D0D14816E09A79987902EB82027E
:102EE00001EB42020F46D2F8036000EB800001EBD9
:102EF00040004079BB4B01460190DB1C4246304606
:102F000000F078FB20B1FFF7EBFB9EE26AE29FE165
:102F10005FEA887030D599F806004D4600EB8000D6
:102F200007EB40000199D0F8062099F8030000F063
:102F300017FF0028E7D1A879B1B200EB800007EBBA
:102F40004000019AD0F80630602000F0C1FAA6F5E2
:102F50001050CA3899D1B24801210278B14812B153
:102F6000012A07D002E0A24A12781AB10470007850
:102F7000AD499CE10170FAE7B1B200236020019AEB
:102F800000F0A6FACAF800600198AEE0DAF8002076
:102F9000BAB15FEAC86073D45FEAC87010D0DAF8DB
:102FA00000001138B0F5C0400ED0EF281ED0A0F5BB
:102FB000807002E065E0A7E00DE1EF385CD139E018
:102FC0009A48FFF78DFB06E18D4A00209E7906EBBB
:102FD000860601EB46060644F6781654401CC0B23D
:102FE0000728F3D3864800F0ABFB45E000202A78A1
:102FF0009F79C2EBC2023244024412F8072C07EB5D
:10300000870701EB47070744FF78BA420DD09A794A
:1030100002EB820201EB42020244D2782F78C7EB26
:10302000C7073744074407F8072C401CC0B20528DF
:10303000DDD321E02A789E7907EBC202024412F820
:10304000082C06EB860601EB46060644F678B242EB
:103050000CD09A7902EB820201EB42020244D27850
:103060002E7807EBC606064406F8082C401CC0B2B2
:103070000528DFD300F02AFB002211462020A8E01B
:103080004AE09A79987902EB820201EB4202D2F887
:10309000036000EB800001EB40004079514B074694
:1030A0000146DB1C4246304600F0A4FA00287FF4BB
:1030B00012AF99F803205E4802EB420100EB810158
:1030C00088790B79042815D937B92BB1B1B23A46B2
:1030D000422000F0FDF9B8E10346B1B23A46402083
:1030E00000F0F6F9CAF80060384628700A208BF81C
:1030F0000000AAE1381E01D1002BE7D1014610469D
:10310000FFF724FE0346E1E7DAF8001000293FF458
:1031100058AF5FEAC86001D5464852E7DAF80000C8
:1031200046F21003C11A984240D00ADC00F6F8704B
:1031300005A9B0F500500CD0012819D002284AD1B9
:1031400025E0012934D0F02935D0B1F5F87F42D1FE
:1031500039E0394E394F002042B13B5C0B54401CE2
:10316000C0B20628F8D30A4606210EE0335CF5E724
:10317000334E344F002032B13B5C0B54401CC0B284
:103180000628F8D30DE0335CF7E7012021E02E4E4E
:103190000020734642B11F5C0F54401CC0B2062889
:1031A000F8D30A460521F0E7375CF5E7274A00E047
:1031B000134A0721E9E728780721C0EBC0008219EC
:1031C0000120D21F05E02878072107EBC00201206B
:1031D000083A00F0CFF9CAF800402C708BF8004094
:1031E00033E1000008000020C0000020560000204D
:1031F0004F000020F43F00084000002004000020A1
:103200007F00002043000020000001065C03002036
:1032100094030020680000208700002001000405BE
:1032200047000020480000208D0000201200070603
:103230001440000800000305004000080C4000088E
:10324000FA3F000806400008EE3F00087800002022
:1032500099F806C04F460CEB8C0C01EB4C0C9CF81B
:1032600003C0BCF1000F01D09C4516D1BB7903EB24
:10327000830301EB4301897882290ED006DC012902
:1032800009D0802909D0812907D107E0F0290AD087
:10329000F22902D10DE005203070D6E0804804709C
:1032A000FDF7A6FED1E0F02030707E4906200870C0
:1032B000CBE072B19EF80120303A42709EF80310C4
:1032C00030398170057078487849047081F800B011
:1032D000BBE077494A78303A4270C978F0E799F80C
:1032E00006C048460CEB8C0C01EB4C0C9CF801C062
:1032F000BCF1650F4AD180798A4600EB800C01EB66
:103300004C0090F80280DFF8ACC16B486B49B8F113
:10331000110F09D0B8F1120F39D0B8F1130F52D0F4
:10332000B8F1140F32D14BE002230B708CF800403F
:1033300099F80630494603EB83060AEB4606F67811
:103340003E7099F8066006EB86060AEB4606B679EB
:10335000067099F8066006EB86060AEB4606367993
:103360004670897901EB81010AEB4101497981704D
:1033700012B10178202900D8057042788521202AD1
:1033800000D841708278202A5FD881705DE00322E6
:103390000A704B490C70A3F1100105706E290BD215
:1033A0000A210F3B93FBF1F23032427093FBF1F2B2
:1033B00001FB12313031E8E7562141705721E4E733
:1033C00081F800B00BE03648A52202700878022888
:1033D00004D17F2030703B48007838700C708CF836
:1033E000004032E099F806204B4602EB820201EBE6
:1033F0004202527899F8065005EB850501EB450528
:10340000AD780B2A21D105BB2F4D00229E7906EB0A
:10341000860601EB46061644B678AE54521CD2B26C
:10342000082AF3D3E9790A06C27802D542F00202EB
:1034300001E022F00202C270C907C17802D041F057
:10344000010101E021F00101C17012211F48FDF7C7
:10345000ECF899F806004D461D281FD0A879401CAD
:10346000A8712879401E2871EC792E79122117480D
:10347000FCF7E3FFA879844201D21E34E4B21E2097
:10348000B6FBF0F100FB1160A979611A884202D005
:1034900003485A21017007B0BDE8F08FAC71E0E736
:1034A000550000205300002089000020600000200B
:1034B000EE3F000858000020A20000205700002026
:1034C0008600002042000020A6000020D403002037
:1034D000F0B4254C65791E2DFCD0657AB82605EB35
:1034E0008507224D05F81760214E677A367807EB7D
:1034F000870705EB47077E70667A06EB860605EBC5
:103500004606B070607A00EB800005EB4000C170A9
:10351000080A617A01EB810105EB41010871607ACB
:1035200000EB800005EB40004271607A00EB800008
:1035300005EB40008371617A180A01EB810105EB0C
:103540004101C871617A180C01EB810105EB410161
:103550000872617A180E01EB810105EB4101487296
:10356000F0BCFFF719B9000008000020EC010020B2
:1035700040000020F0B41C4C63791E2BFCD0637A11
:10358000B82503EB8306194B03F81650184D667ADD
:103590002D7806EB860603EB46067570657A05EB1B
:1035A000850503EB4505A87000200AE012F8015BD1
:1035B000667A06EB860603EB46060644F570401C69
:1035C000C0B28842F2D3002008E0627A02EB8202A5
:1035D00003EB42020A44D070491CC9B20729F4D354
:1035E000F0BCFFF7D9B8000008000020EC01002073
:1035F00040000020F0B5002426461D4D4FF6FF7E0A
:103600002BE0874227D105EB8C0636798E4221D3F9
:103610000120B0EB521F1AD104EB440005EB8005EA
:103620001448AE79920707D5042E07D9002910D186
:103630002A79002A0DD001E0042E0AD90D486A79B2
:10364000801C002A05D011B92979002901D11C70EC
:103650000020F0BD0126641CE4B204EB440C55F8D4
:103660002C707745CDD10EB10348F0BD0348F0BDB5
:1036700014400008000001061100090600000206BF
:103680000E4841791E29FCD0417AE12201EB8103E9
:103690000B4901F813200B4A437A127803EB83039A
:1036A00001EB43035A70084A407A127800EB80001D
:1036B00001EB40008270FFF76FB8000008000020A7
:1036C000EC010020400000205600002030B51A49CF
:1036D00000200870194B012213F830408F2C25D0A0
:1036E00006DC022C22D0052C20D00E2C14D104E0B4
:1036F000902C1BD0912C0FD118E003EBC004647800
:103700000A2C13D004DC012C10D0092C04D10DE0BC
:103710009A2C0BD0A12C09D00D7802FA00F4A54305
:103720000D70401CC0B20828D6D330BD0D7802FA07
:1037300000F42C430C70F4E75D000020940300209B
:103740002DE9F0470678014600253046FFF78EF850
:10375000FC4CFD4B0122E8B3022E05D04878FF282F
:103760004FF0000002D024E0C878F8E714F8307079
:10377000B74218D104EBC00797F806C0BCF1010F9F
:1037800011D197F807C091F802803CEA080C87F83D
:1037900007C008D193F8008002FA00FC28EA0C0860
:1037A00083F800807D71401CC0B20828DED3BDE8DC
:1037B000F0870E7814F83070BE4240D104EBC0069A
:1037C0004F7896F801C0674539D1CF7896F803C095
:1037D000674500E038E032D18F7896F802C017EAEA
:1037E0000C0F2CD096F804C091F804802CEA080C39
:1037F0005FEA0C7C23D196F806C0BCF1010F1ED104
:1038000091F805C05FEACC7C0FD093F8008002FAF3
:1038100000FC4CEA080C83F800C096F807C04CEA9C
:10382000070C86F807C0727109E0F57193F800C0C3
:1038300002FA00F72CEA070C83F800C07571401CEF
:10384000C0B20828B5D3B2E7C04FDFF804C3C148FF
:10385000402E10D0422E41D0412E75D0492E73D02B
:10386000442E6BD00E2E6AD0142EFCD0152EFAD01A
:10387000452E7CD039E08A783B789A4297D19CF8E3
:103880000020002A93D10C794B790021B24A5525AA
:10389000565CB44201D1417007E064B1202C0AD0DB
:1038A0001EB1491CC9B25F29F2D30021545CA34266
:1038B00003D1817009E04570F7E76CB163B1202B4B
:1038C0000AD0491CC9B25F29F0D381785529BAD1F1
:1038D00026214170272174E18570F6E78E783F78C4
:1038E000BE4202D19CF800607EB100200E7814F830
:1038F0003070BE4208D104EBC0064F7896F801C084
:1039000067457DD0002FFCD0A9E14A79C2B14A7841
:1039100002F0030202700278022A00D905700378CF
:103920008E4A7BB14978C1F301111170017855318C
:10393000017000788A49087039E705E0C2E0F2E0DA
:103940000570E8E71570F1E74878864F412E19D0E9
:10395000492EF1D10007EFD000200E7814F830C0C6
:1039600066450ED191F802C004EBC00600E035E1D7
:1039700096F80280C44504D196F806C0BCF1010F48
:103980005FD099E000200E7814F830C0664553D11E
:1039900004EBC00691F802C096F80280C4454BD1F2
:1039A00096F806C0BCF1010F46D191F801C096F817
:1039B0000180E1460CEA080C5FEA8C7C02D1B8F188
:1039C000000F30D191F803C096F80380C44505D0AC
:1039D000BCF1FF0F02D0B8F1000F24D191F80480A0
:1039E00096F804C018EA0C0F02D1BCF1000F1AD1EE
:1039F00097F800C0BCF1000F10D05FEA191C00E07E
:103A000006E110D10AE000BF93F8008002FA00FC42
:103A10004CEA080C83F800C072710DE091F805C003
:103A20005FEACC7CF0D193F800C002FA00F82CEAEF
:103A3000080C83F800C07571401CC0B20828A2D3DE
:103A4000B5E691F801C096F80180E1460CEA080C51
:103A50005FEA0C7C27D091F803C096F80380C44538
:103A600002D0BCF1FF0F1ED191F804C096F804807B
:103A70001CEA080F17D097F800C0BCF1000F0DD05A
:103A80005FEA191C0FD109E093F8008002FA00FCEC
:103A90004CEA080C83F800C072710DE091F805C083
:103AA0005FEACC7CF0D193F8008002FA00FC28EAAF
:103AB0000C0883F800807571401CC0B20828FFF420
:103AC0004CAF74E600200D7814F83060B54225D173
:103AD00004EBC0054F786E783740BF0700D1EEB9D0
:103AE000CE78EF78BE4202D0FF2E00D0B7B98E78E4
:103AF000AF78BE4212D10F792E79374200D16EB91C
:103B0000AE79012E0AD14E79F60707D01F7802FA56
:103B100000F63E431E701426EE716A71401CC0B25E
:103B20000828D0D343E64A788B2A3BD01EDC0E4BC4
:103B3000102A48D0812A35D0862A24D0882AC0D19C
:103B400018E00000940300205B00002041000020EA
:103B50005700002004000020683E00088900002073
:103B6000490000208C000020000801408F2A01D06D
:103B7000902AA6D13D48882A22D08F2A1DD0902A8B
:103B80009FD1497942E049790029C17804D041F0B8
:103B90000201C170012203E021F00201C170002284
:103BA000042116E049790029C17802D041F00101D1
:103BB00001E021F00101C170F9E549794170F6E5B4
:103BC00049798170F3E5487908B1012200E00022CB
:103BD0001021BDE8F0471846FDF767B9C8784B7863
:103BE00040EA0320A0F514530D3B9BD14879204BAC
:103BF000C0F30111197000F00F01C1EB0111CB00EE
:103C00001C490B601C490A7081091C480170CEE5F3
:103C1000CF7896F803C0674521D18F7896F802C017
:103C200067451CD191F804C037791CEA070F00D111
:103C3000AFB9B779012F12D14F79FF0708D093F8A8
:103C400000C002FA00F747EA0C071F70727106E025
:103C50001F7802FA00FC27EA0C071F707571401CE0
:103C6000C0B20828FFF442AEA1E500000800002021
:103C70009400002098000020A0000020A100002057
:103C800030B41C4A50791E28FCD0507A182100EB21
:103C90008003194800F813101849537A097803EB88
:103CA000830300EB430359701549537A098803EBEA
:103CB000830300EB43039970537A090A03EB8303F0
:103CC00000EB4303D9700F49537A097803EB830360
:103CD00000EB4303197105210023547A04EB84049B
:103CE00000EB44046354491CC9B20929F5D930BC1E
:103CF000FEF752BD08000020EC010020400000202B
:103D00006C0000204400002030B4124A51791E2972
:103D1000FCD0537A972103EB83040F4B03F8141064
:103D20000E49547A097804EB840403EB440461706F
:103D30005FF0000110F8014B557A05EB850503EBA8
:103D400045050D44AC70491CC9B20729F2D330BCFB
:103D5000FEF722BD08000020EC01002040000020FA
:103D60002DE9F7433A4A00EB400502EB85064B1E6E
:103D7000B47903D303FB04F7FFB200E00027DFF8B8
:103D8000D08000EB400052F825C008EB80000CF515
:103D9000F55C80684FF00109BCF5004C10D0DDF8EF
:103DA0000880BCF1200F08F0FF081DD0BCF5807F13
:103DB00006D0BCF5907F1CD070B3002002A929E08A
:103DC0000278029C22FA03F3C4F3C03403F0010327
:103DD000A34207D00123491E8B4014B11343DAB22A
:103DE00000E09A43027030E078B3C1EBC101C91F13
:103DF00004E050B36FF0070202EBC10100F801804C
:103E000023E00B5C07EB0008D6F808C0401CC0B2EA
:103E10000CF80830A042F4D352F82510A1F5145044
:103E20000D3812D10B480C4A0078C0F30111117003
:103E300000F00F01094AC1EB0111C9001160084AE5
:103E40000849800982F8009008700020BDE8FE83D0
:103E50001440000854000020940000209800002026
:103E6000A0000020A100002032333435363839411B
:103E700045464850524247534B3031374344494AF4
:103E80004C4D4E4F545155565758595A2B2D0B01E6
:103E9000101A1A10101A101011111A10010B1B1100
:103EA000010B1B11111B1A10111B1111111B0B01FE
:103EB000010B0101010B111111110101111B01096C
:103EC000111B1E14141E1B11010B1A10020A0109EA
:103ED00009011B11111B101018100404080A0B0112
:103EE000010B1E14141E0E04040E1B1110100B01E6
:103EF000010111111B11111913111B11111B0404C4
:103F0000040E1B19111B1B11111101030901111BB7
:103F10001111000A0A0004040A000A02080A00003B
:103F20000000000000000000040404040000000081
:103F3000000400000400000400000400000004006D
:103F40000000000000000000000000000000000071
:103F50000000000000000000000000000000000061
:103F60000000000000000000000000000000000051
:103F70000000000000000000000000000000000041
:103F80000000000000000000000000000000000031
:103F90000000000000000000000000000000000021
:103FA0000000000000000000000000000000000011
:103FB0000000000000000000000000000000000001
:103FC00000000000000000000000000000000000F1
:103FD00000000000000000000000000000000000E1
:103FE000000000000000C8C8C8C83838383856314A
:103FF0002E30410056312E34420056312E3300000F
:1040000056475335303256312E310000472D373464
:1040100032000000001000000000040074000020C6
:104020000110000000000100440000200810000002
:104030000000060000400008091000000000050014
:10404000FA3F00080A10000000000500EE3F0008DB
:104050001610000008000400000000001810000006
:1040600004010400000000000060000003000200E2
:104070005003002001600000000101004100002009
:104080002061000008010400000000004061000001
:104090000801040000000000606100000801040045
:1040A0005E0000208061000008010400620300201F
:1040B00020620000080104000000000040620000CF
:1040C0000801040000000000606200000801040014
:1040D0005F00002080620000080104009A030020B5
:1040E00010600000000007000000000011600000E8
:1040F0000001070000000000006100000801070047
:10410000000000000062000008010700000000003D
:10411000FD2F00000000010059000020FE2F0000CC
:10412000000101005B000020CA2400000001010022
:1041300047000020EE240000000101008C00002058
:104140000D2500000001010054000020FFFF0000C9
:104150000000000000000000010204AA00000000AE
:104160000000000001020304060708098C41000852
:1041700000000020C0000000280100084C42000898
:10418000C0000020780A0000440100080000000080
:10419000000000000000000000000000000000001F
:1041A000000000000000000000000000000000000F
:1041B00000000000000000000000000000000000FF
:1041C00000000000000000000000000000000000EF
:1041D00000000000000000000000000000000000DF
:1041E00000000000000000000000000000000000CF
:1041F00000000000000000000000000000000000BF
:1042000000000000000000000000000000000000AE
:10421000000000000000000000000000000000009E
:10422000000000000000000000000000000000008E
:10423000000000000000000000000000010000007D
:0C42400010000000000000000024F4004A
:04000005080000ED02
:00000001FF
