:020000040800F2
:10000000E80A0020890100087F1C0008D7180008B2
:100010007D1C00087F030008FD1D00080000000093
:10002000000000000000000000000000831C000829
:100030003504000800000000811C0008851C000831
:10004000A3010008A3010008A3010008A301000800
:10005000A3010008A3010008A3010008A3010008F0
:10006000A3010008A3010008A3010008A3010008E0
:10007000A3010008A3010008A3010008A3010008D0
:10008000A3010008A3010008A3010008E51D000862
:10009000F11D0008810300088D030008A30100087A
:1000A000A3010008A3010008A3010008A3010008A0
:1000B000E91C0008F51C0008011D0008A301000848
:1000C000A3010008A3010008A3010008A301000880
:1000D000A3010008A3010008A3010008A301000870
:1000E000A3010008A3010008A301000800F002F822
:1000F00000F03AF80AA090E8000C82448344AAF188
:100100000107DA4501D100F02FF8AFF2090EBAE885
:100110000F0013F0010F18BFFB1A43F0010318473B
:10012000DC300000FC300000103A24BF78C878C1F1
:10013000FAD8520724BF30C830C144BF04680C60ED
:10014000704700000023002400250026103A28BF35
:1001500078C1FBD8520728BF30C148BF0B60704739
:100160001FB51FBD10B510BD00F0CFF81146FFF749
:10017000F7FF01F027FF00F0EDF803B4FFF7F2FFFF
:1001800003BC00F0F5F80000094880470948004723
:10019000FEE7FEE7FEE7FEE7FEE7FEE7FEE7FEE737
:1001A000FEE7FEE704480549054A064B7047000094
:1001B000E71C0008ED000008E8040020E80A002021
:1001C000E8060020E8060020032A40F2308010F004
:1001D000030C00F0158011F8013BBCF1020F6244E2
:1001E00098BF11F801CB00F8013B38BF11F8013B73
:1001F000A2F1040298BF00F801CB38BF00F8013B20
:1002000011F0030300F04F80083AC0F0088051F865
:10021000043B083A51F804CBA0E80810F5E7121D9A
:100220005CBF51F8043B40F8043BAFF30080D207B9
:1002300024BF11F8013B11F801CB48BF11F8012B85
:1002400024BF00F8013B00F801CB48BF00F8012BA8
:1002500070474FF0000200B5134694469646203989
:1002600022BFA0E80C50A0E80C50B1F12001BFF46F
:10027000F7AF090728BFA0E80C5048BF0CC05DF8D5
:1002800004EB890028BF40F8042B08BF704748BF23
:1002900020F8022B11F0804F18BF00F8012B704797
:1002A00070477047704710B5203AC0F00B80B1E836
:1002B0001850203AA0E81850B1E81850A0E818509B
:1002C000BFF4F5AF5FEA027C24BFB1E81850A0E8A4
:1002D000185044BF18C918C0BDE810405FEA827CBE
:1002E00024BF51F8043B40F8043B08BF7047D207D5
:1002F00028BF31F8023B48BF11F8012B28BF20F876
:10030000023B48BF00F8012B7047754600F02CF8FF
:10031000AE4605006946534620F00700854618B0F2
:1003200020B5FFF73FFFBDE820404FF000064FF03B
:1003300000074FF000084FF0000B21F00701AC461A
:10034000ACE8C009ACE8C009ACE8C009ACE8C00939
:100350008D46704710B50446AFF300802046BDE8D7
:100360001040FFF70ABF00000048704784040020D7
:1003700001491820ABBEFEE7260002007047FEE7E9
:10038000014800F0D9B9000084030020014800F0C2
:10039000D3B900008403002030B5234C89B06079C4
:1003A000002838D0207A002500EB80011F4800EBA0
:1003B00041014978227A02EB820210F8122002F001
:1003C000F00201EBC2010091217A01EB810110F8EA
:1003D0001110029501F00F01CDE90351217A04F1CA
:1003E000180301EB810100EB410006AA50F8021F3F
:1003F00006914068079069460D4800F030F860B1FA
:1004000000F019F86079401E6071207A1D2808D02C
:10041000207A401C207209B030BD6089401C608188
:10042000F0E72572F7E7000004000020B801002083
:1004300084030020704772B6FEE790F82020012A5E
:1004400007D0022A05D0416A41F48021416201208F
:100450007047006842690A43426100207047F0B566
:1004600090F820500468A468012D05D0022D03D017
:10047000416A41F480215DE014F0406F01D1E50054
:1004800055D5C4F30164022C03D9416A41F400013B
:1004900050E00125A5401D608D684FF4C0739DB1EB
:1004A000CE6835434E6845EAC605066803EB041777
:1004B000F5514FF4C275076805EB04150E697E51BE
:1004C000097D012905D009E00E88CD6845EA465529
:1004D000EBE701684E5946F480764E511179D57993
:1004E000567941EA056195792D0445EA06252943A7
:1004F0004FF4C676056806EB0416A9511178D57835
:1005000041EA0561957852782D0445EA02221143AB
:100510004FF4C475026805EB04155151006803EBF4
:100520000411425842F0010242500020F0BD416ADD
:1005300041F4001141620120F0BD000010B590F8B7
:1005400020300268012B07D0022B05D0416A41F40C
:1005500080214162012010BDD2F8000240F001006C
:10056000C2F80002087D00F01F0301209840D2F875
:100570001C328343C2F81C32CB69B3B9D2F80C32B7
:100580008343C2F80C328C894B6864F31F434C6977
:1005900002EBC404C4F840320C890B6864F31F43B7
:1005A0004C6902EBC404C4F84432CB69012B16D168
:1005B000D2F80C320343C2F80C320C884B6864F357
:1005C0001F434C6902EBC404C4F840320C89CB6869
:1005D00064F31F434C6902EBC404C4F844328B69D2
:1005E000002BD2F804320FD053EA0003C2F80432D1
:1005F0000B69002BD2F8143208D00343C2F814322E
:10060000096A012904D008E08343EFE78343F5E753
:10061000D2F81C120143C2F81C12D2F8000220F0DA
:100620000100C2F80002002010BD90F82020012A2D
:1006300007D0022A05D0416A41F48021416201209D
:100640007047006842698A434261002070477047E2
:1006500030B590F82040012C05D0022C03D0416A1F
:1006600041F480215DE00468002955D02469A40785
:1006700054D04FF4D874056804EB01142D5915F0CB
:100680000405956005682D594ED0ED085560056844
:100690002C5904F00204D4604FF4DA74056804EBBA
:1006A00001142D5905F00F05156105682D59C5F385
:1006B0000725956105682C59240C54614FF4DC72B0
:1006C000046802EB0112A4581C700468A458240AA0
:1006D0005C700468A458240C9C700468A258120E24
:1006E000DA704FF4DE72046802EB0112A4581C7138
:1006F0000468A458240A5C710468A458240C9C71F2
:100700000468A258120EDA71006881B1016941F0E3
:1007100020010161002030BDE468A8E7416A41F48E
:1007200000114162012030BD6D0D1560AFE7C16859
:1007300041F02001C160EDE72DE9F05F054600685A
:1007400000244669D0F804908768D0F80CB0D0F83F
:1007500010A0D0F81880F10748D0F90714D0012173
:100760008160B80703D5284600F08AFA0CE07807C4
:1007700002D54FF4006407E0380702D54FF48054E7
:1007800002E0284600F07AFAF80516D529684FF4F9
:1007900080708860B80503D5284600F07BFA0CE02D
:1007A000780502D544F4005407E0380502D544F436
:1007B000804402E0284600F06BFAF80316D5296859
:1007C0004FF480308860B80303D5284600F06CFAF7
:1007D0000CE0780302D544F4004407E0380302D566
:1007E00044F4803402E0284600F05CFA300707D574
:1007F0005FEACB6004D52968102044F40074C86017
:1008000070074FF0080707D55FEA0B7004D528681A
:10081000C760284600F072F9B00706D52868C0689E
:10082000800702D0284600F06BF9700607D55FEA12
:10083000CA6004D52968102044F480640861B006B9
:1008400007D55FEA0A7004D528680761284600F0DA
:1008500089F9F00606D528680069800702D0284685
:1008600000F082F9B00308D55FEAC96005D52968B0
:1008700010204860284600F0D3F9F00307D55FEA5E
:10088000097004D528684760284600F015FA30043E
:1008900046D55FEA497040D5F00504D55FEAC870D7
:1008A00001D044F00104B00504D55FEA887001D599
:1008B00044F00204700504D55FEA487001D544F0A5
:1008C0000404300529D518F0700F26D008F0700008
:1008D000402815D006DC102809D020280AD030285E
:1008E00016D10AE050280ED0602811D10EE044F055
:1008F00008040DE044F010040AE044F0200407E08E
:1009000044F0400404E044F0800401E044F48074C6
:100910002868816921F0700181612968042048609C
:10092000002C05D0686A204368622846FFF78FFED6
:10093000BDE8F09F70B5040003D094F8200010B11A
:1009400004E0012070BD204600F082F820680168B4
:1009500041F00101016000F0A7FA0546052604E018
:1009600000F0A2FA401B0A2811D820684068C0078E
:10097000F6D02068016821F00201016000F094FACD
:1009800005460BE000F090FA401B0A2806D9606A81
:1009900040F40030606284F82060D2E7206840684C
:1009A0008007EFD4207E0128206801683DD021F027
:1009B00080010160607E01282068016838D021F044
:1009C00040010160A07E01282068016833D021F039
:1009D00020010160E07E0128206801682ED041F0EE
:1009E00010010160207F01282068016829D021F0D2
:1009F00008010160607F01282068016824D021F08F
:100A000004010160D4E902010843D4E9041211434E
:100A100008436168491E08432168C861002060627C
:100A2000012084F82000002070BD41F08001C0E763
:100A300041F04001C5E741F02001CAE721F0100173
:100A4000CFE741F00801D4E741F00401D9E7000005
:100A500010B586B0002100910191029103910068C8
:100A60002349884242D12348C16941F00071C161E4
:100A7000C16901F000710491816941F00401816153
:100A800080691D4C00F0040004904FF40060009059
:100A90006946204600F012F9A0140090022001904F
:100AA000032003906946204600F008F90022114611
:100AB000132000F065FA132000F054FA00221146CA
:100AC000142000F05DFA142000F04CFA00221146C8
:100AD000152000F055FA152000F044FA00221146C6
:100AE000162000F04DFA162000F03CFA06B010BDBA
:100AF0000064004000100240000801407047000000
:100B000010B5144B144A0021FFF7A2FD10B1FFF7F6
:100B100092FC14E010484FF0320201680F4811F4C3
:100B2000F06F00D1027001F03F01491E082901D287
:100B3000027001E02821017009490120087000F0CD
:100B4000B3F9044C223C6169401A206100F0ACF911
:100B5000606110BD26000020E4020020700000202B
:100B6000410000207047000030B58BB0002507958C
:100B700007AB6A4601210895FFF76AFD18B1FFF738
:100B80005AFC0BB030BD224C20791E2819D0009998
:100B9000F02000EAD102E07900EB80031D4800F864
:100BA0001320E27901F03F0102EB820200EB4202E6
:100BB0005170E17901EB810110F81110C02910D1B9
:100BC00005E01548017841F010010170D9E7E1799D
:100BD00001EB810100EB41014978104A1278914202
:100BE000CFD1E179049A01EB810100EB410007A923
:100BF000801CFFF7E9FAE0791D2806D0E079401C57
:100C0000E0712079401C2071BBE7E571F9E7000035
:100C1000040000208C0000203A0000202E0000205C
:100C20007047000070B5044690F82000012804D0F9
:100C3000606A40F40020606218E0022084F820001E
:100C40002068016821F00101016000F02DF90546DE
:100C50000EE000BF00F028F9401B0A2808D9606A9E
:100C600040F400306062052084F82000012070BD4F
:100C700020684068C007EDD1606270BD7047000019
:100C800002480188491C0180FFF786BB2000002034
:100C90007047000002484188491C4180FFF77CBB37
:100CA000200000207047000002488188491C818094
:100CB000FFF772BB20000020704700002DE9F84FBD
:100CC000DFF8B891002409F1040A0AF1040B234665
:100CD0000F270BF1040EC9E00125A5402A40AA42C6
:100CE0007DD1674ED1F804C0ACEB0608B44532D0D4
:100CF00014DCBCF1030F3AD009DCBCF1000F2AD0A0
:100D0000BCF1010F1CD0BCF1020F31D11DE0BCF1D0
:100D1000110F17D0BCF1120F2AD119E0B8F5881FB6
:100D200019D006DCB8F5803F15D0B8F5801F1FD16B
:100D300011E0B8F5001F0ED0B8F5041F18D10AE075
:100D4000CB6815E0CB681B1D12E0CB6808330FE0C1
:100D5000CB680C330CE08B682BB1012B4FF00803F0
:100D600003D0456104E0042302E0056100E00023B4
:100D7000FF2A01D8064601E000F104064FEA840587
:100D800001D9A5F12005D6F8008007FA05FC28EA6C
:100D90000C0803FA05F548EA0508C6F800804D6816
:100DA000ED0062D5374DAE6946F00106AE61AD6922
:100DB00024F0030605F001050095334D06EB050C04
:100DC000DCF80850A607360F07FA06F825EA0805EA
:100DD000DFF8B880404503D14FF0000817E044E049
:100DE000DFF8AC80404502D14FF001080FE0DFF89A
:100DF000A480404502D14FF0020808E0DFF8988057
:100E0000404502D14FF0030801E04FF0040808FA12
:100E100006F848EA0508CCF808804D68D9F8006063
:100E2000ED034D4601D5164300E096432E604D6814
:100E3000DAF80060AD03554601D5164300E096434D
:100E40002E604D68DBF80060ED025D4601D516436B
:100E500000E096432E604D68DEF80060AD027546F6
:100E600001D5164300E096432E60641C0D682A46A7
:100E7000E5407FF431AFBDE8F88F00000004014089
:100E80000000111000100240000001400008014065
:100E9000000C014000100140001401400AB1016142
:100EA00070470904FBE700000148806870470000B4
:100EB0007C000020024881680278114481607047FC
:100EC0007C000020074810B5016841F01001016066
:100ED000032000F075F80F2000F006F800F024F869
:100EE000002010BD0020024070B50D4D04464FF4A7
:100EF0007A712878B1FBF0F00A490968B1FBF0F08B
:100F000000F0DEFA48B9102C07D200222146501E0C
:100F100000F036F800206C6070BD012070BD00004C
:100F20007C000020880000200C4808B5816941F051
:100F300001018161816901F001010091C16941F004
:100F40008051C161C06900F0805000900448416840
:100F500021F0E06141F00071416008BD00100240E5
:100F600000000140002809DB00F01F020121914030
:100F70004009800000F1E020C0F800117047000037
:100F8000F0B40E4B1B680C46C3F30223C3F10705F4
:100F9000042D00D90425191D072901D2002300E0E2
:100FA000DB1E012606FA05F1491E214099409E40AC
:100FB000761E16403143F0BC00F021BF0CED00E07E
:100FC000064900F0070208684FF6FF03184040EAA0
:100FD0000220034A10430860704700000CED00E057
:100FE0000000FA05BFF34F8F05480168054A01F478
:100FF000E06111430160BFF34F8F00BFFDE70000C8
:101000000CED00E00400FA052DE9F0470F4605005D
:1010100061D0434E306800F00700B84209D2306812
:1010200020F0070038433060306800F00700B84215
:1010300051D128683B4C810712D5400703D5606821
:1010400040F4E06060602878000703D5606840F4F1
:10105000605060606068A96820F0F000084360603C
:101060002878C00728D06868012810D02168022895
:1010700010D0890700292EDA616821F003010143AD
:101080006160FFF711FF804641F288390DE0216869
:101090008903EFE78901EDE7FFF706FFA0EB080101
:1010A000494502D90320BDE8F0876068696800F00F
:1010B0000C00B0EB810FEFD1306800F00700B842B0
:1010C0000BD9306820F0070038433060306800F0FA
:1010D0000700B84201D00120E5E72878400705D590
:1010E0006068E96820F4E0600843606028780007E1
:1010F00006D56068296920F4605040EAC10060604C
:1011000000F018F86168084AC1F30311515CC84047
:101110000649086006480068FFF7E6FE0020C2E7BF
:101120000020024000100240EC310008880000203E
:101130008000002012A185B00FC98DE80F0014A017
:10114000144A006804905168134801F00C03042B02
:1011500010D0082B0ED1C1F38343C9031DF803003F
:101160000AD5516804AAC1F34041515C0A4A504370
:10117000B0FBF1F005B0704708494843FAE70000BA
:1011800002030405060708090A0B0C0D0E0F1010C8
:10119000010200000010024000127A0000093D0028
:1011A0002DE9F84F040070D02078C04DC00749D019
:1011B0006868C0F38100012807D06868C0F3810027
:1011C000022809D16868C00306D52868800339D58C
:1011D00060680028E7D035E06068B0F5803F0BD04C
:1011E00010B1B0F5A02F11D0286820F4803028600D
:1011F000286820F4802002E0286840F480302860CD
:10120000606890B1FFF750FE06460AE0286840F497
:1012100080202860F0E700BFFFF746FE801B6428AF
:1012200073D828688003F7D50CE0FFF73DFE06462B
:1012300005E000BFFFF738FE801B6428F0D828685F
:101240008003F7D420789A4E80074FF001094FF0C1
:10125000000839D5686810F00C0F07D06868C0F333
:101260008100022809D16868C00306D42868800775
:1012700014D52069012808D110E02069B0B1C6F862
:101280000090FFF711FE074605E00AE1FFF70CFEAC
:10129000C01B0228C4D828688007F7D52868616970
:1012A00020F0F80040EAC10028600DE0C6F8008098
:1012B000FFF7FAFD074604E0FFF7F6FDC01B022822
:1012C00023D828688007F7D4207800072CD57948E0
:1012D000A169D9B1C0F80090FFF7E6FD074604E028
:1012E000FFF7E2FDC01B02280FD8686A8007F7D518
:1012F00071484FF4FA510068B0FBF1F0009000BF64
:101300000098411E0091FAD20EE080E0C0F8008003
:10131000FFF7CAFD074604E0FFF7C6FDC01B022821
:1013200075D8686A8007F7D42078400760D5E869E7
:101330000027C00008D4E86940F08050E861E869FF
:10134000012700F0805000905C480168C90513D463
:101350000168834641F480710160FFF7A5FD824674
:1013600006E000BFFFF7A0FDA0EB0A0064284ED8FE
:10137000DBF80000C005F5D5E06801280AD008B107
:10138000052813D0286A20F001002862286A20F07E
:10139000040002E0286A40F001002862E06841F29F
:1013A000883B98B1FFF780FD82460BE0286A40F049
:1013B00004002862EEE700BFFFF776FDA0EB0A010C
:1013C00059455AD8286A8007F6D50CE0FFF76CFD1E
:1013D000824605E0FFF768FDA0EB0A0159454CD8AD
:1013E000286A8007F6D41FB1E86920F08050E861D0
:1013F000E06988B36968C1F38101022944D00228F9
:10140000C6F8608004D0FFF74FFD044638E034E0B2
:10141000FFF74AFD074604E0FFF746FDC01B022820
:101420002BD828688001F7D4206AB0F5803F05D119
:101430006868A16820F4003008436860D4E90801B6
:101440000843696821F4741108436860C6F8609025
:10145000FFF72AFD044606E025E000BFFFF724FD64
:10146000001B022809D828688001F7D51BE000BFBF
:10147000FFF71AFD001B022802D90320BDE8F88FF0
:1014800028688001F4D40EE00128F7D06868226A49
:1014900000F48031914204D1616A00F470108842F6
:1014A00001D00120EAE70020E8E700000010024038
:1014B0000000424280044242880000200070004048
:1014C00010B5401EB0F1807F01D3012010BD4FF058
:1014D000E02460610F21601700F091FC0020A06102
:1014E00007202061002010BD7047704770B590F84C
:1014F0003C20012A26D0012480F83C40022280F8BA
:101500003D2003685A689D6822F070060A683243DD
:101510005A600D4B02689A4208D0B2F1804F05D054
:101520000A4B9A4202D00A4B9A4204D1496825F0EC
:1015300080031943916080F83D40002180F83C1001
:10154000084670BD022070BD002C01400004004020
:101550000008004010B5040003D094F83D0010B11D
:1015600007E0012010BD002084F83C00204600F078
:101570001FF8022084F83D00211D206800F0C6FB02
:10158000012084F8460084F83E0084F83F0084F887
:10159000400084F8410084F8420084F8430084F855
:1015A000440084F8450084F83D00002010BD000090
:1015B00008B501681D48B1F1804F11D01C4A914215
:1015C0001DD1C16941F00201C161C069002200F072
:1015D0000200009011461D20FFF7D2FC1D201FE0E5
:1015E000C16941F00101C161C069002200F0010040
:1015F000009011461C20FFF7C3FC1C2010E00D4A90
:10160000914211D1C16941F00401C161C069002258
:1016100000F00400009011461E20FFF7B1FC1E20D0
:10162000BDE80840FFF79EBC08BD00000010024066
:10163000000400400008004090F83D10012901D04E
:1016400001207047022180F83D100168CA6842F00D
:101650000102CA6000680B49884208D0B0F1804F8F
:1016600005D00949884202D00849884204D18168DE
:1016700001F00701062903D0016841F00101016072
:1016800000207047002C014000040040000800408A
:1016900070B5044690F83C00012817D0012584F865
:1016A0003C50022084F83D002068826822F07702D6
:1016B00022F47F4282600868502830D00DDC202858
:1016C0004DD005DC98B310283BD148E0022070BD16
:1016D000302844D0402834D139E0602828D0702800
:1016E00006D0B0F5805F2CD0B0F5005F29D10AE0BC
:1016F000CB68D1E90121206800F03EFB20688168B9
:1017000041F0770109E0CB68D1E90121206800F0C0
:1017100033FB2068816841F48041816011E0CA6830
:101720004968206800F03AFB5021206807E016E085
:10173000CA684968206800F042FB6021206800F018
:1017400025FB84F83D50002084F83C0070BDCA6839
:101750004968206800F022FB40212068EFE72268FA
:1017600001461046EBE7704770B504460068016912
:101770004FF00005C943890715D4C168C9438907DB
:1017800011D4E91E0161012020772068806980075B
:10179000204602D0FFF7E7FF04E000F098F820466B
:1017A00000F096F8257720680169C943490717D4E6
:1017B000C168C943490713D46FF0040101610220D5
:1017C00020772068806910F4407F204602D0FFF720
:1017D000CAFF04E000F07BF8204600F079F8257796
:1017E00020680169C943090716D4C168C9430907BC
:1017F00012D46FF008010161042020772068C069CD
:101800008007204602D0FFF7AEFF04E000F05FF84B
:10181000204600F05DF8257720680169C943C906B4
:1018200017D4C168C943C90613D46FF01001016110
:10183000082020772068C06910F4407F204602D03D
:10184000FFF791FF04E000F042F8204600F040F876
:10185000257720680169C943C90708D1C168C94310
:10186000C90704D1891E0161204600F032F82068C2
:101870000169C943090609D4C168C943090605D4E9
:101880006FF0800101612046FFF72EFE206801699C
:10189000C943490609D4C168C943490605D46FF054
:1018A00040010161204600F015F820680169C94334
:1018B00089060BD4C168C943890607D46FF020019B
:1018C00001612046BDE87040FFF70FBE70BD704754
:1018D000704770477047FEE770B557488AB00024DC
:1018E0000471C4718471447144720472534A214674
:1018F00001EB8103002002EB43031C54401CC0B2E7
:101900000A28FAD3491CC9B21E29F1D34C4B002135
:1019100001EB8102002003EB42021454401CC0B2D0
:101920000A28FAD3491CC9B21E29F1D30126CDE9F0
:1019300006464EF220000594CDE90004CDE90204EC
:101940000E200494CDE9086069463E48FEF7F6FD96
:1019500008B1FEF770FD4FF400404FF47045059656
:101960008DE83100CDE9034669463648FEF7E6FDCD
:1019700008B1FEF760FD022005903348C0210078D1
:1019800041EAD001090201EB40108DE831006946BF
:101990002C480394FEF7D2FD08B1FEF74CFD03205E
:1019A00000940590CDE90145694626480394FEF769
:1019B000C5FD08B1FEF73FFD042005904AF2601016
:1019C0008DE8310069461F480394FEF7B7FD08B162
:1019D000FEF731FD052005904FF450408DE83100B1
:1019E000694618480394FEF7A9FD08B1FEF723FDE8
:1019F000062005904FF446508DE8310069461148A5
:101A00000394FEF79BFD08B1FEF715FD0720059036
:101A1000CDE90054CDE9025469460A48FEF78EFD2F
:101A200008B1FEF708FD13210648FEF706FD05483C
:101A3000FFF7F8F80AB070BD040000208C00002009
:101A4000B8010020840300202E0000200E4810B5AD
:101A50000C4901602D21416000214FF4402281603A
:101A6000C0E903124FF4801242610176417681761B
:101A7000C17601774177FEF75DFF002801D072B68D
:101A8000FEE710BD00640040840300202DE9F04112
:101A900086B000242848009401940294039481693C
:101AA00041F020018161816901F020010491816987
:101AB00041F004018161816901F0040104918169AF
:101AC00041F00801816180691C4F00F0080004901A
:101AD00001224FF481713846FFF7E0F900224FF4FC
:101AE0003F713846FFF7DAF9DFF8548000223F21D2
:101AF0004046FFF7D3F940F2FE3001250226CDE93A
:101B00000005CDE9024669463846FFF7D7F83F2081
:101B1000CDE90005CDE9024669464046FFF7CEF81B
:101B20004FF47840CDE90004694640460294FFF73F
:101B3000C5F806B0BDE8F081001002400008014081
:101B4000000C014010B586B00024174800940194A1
:101B50000294039404944FF080410594016041F68F
:101B60001F41C0E9011441F28731C0E903148461C7
:101B7000FFF7F0FC08B172B6FEE74FF4805000901A
:101B800069460948FFF784FD08B172B6FEE7049480
:101B900004A905480594FFF7A9FC002801D072B6F6
:101BA000FEE706B010BD0000AC03002010B586B003
:101BB0000024174800940194029403940494134958
:101BC0000594016041F61F41C0E901141D21C0E9DF
:101BD00003148461FFF7BEFC08B172B6FEE74FF450
:101BE0008050009069460A48FFF752FD08B172B66E
:101BF000FEE7049404A906480594FFF777FC002843
:101C000001D072B6FEE706B010BD0000000400402F
:101C1000F403002010B586B0002417480094019406
:101C200002940394049413490594016041F61F4102
:101C3000C0E901141321C0E903148461FFF78AFC91
:101C400008B172B6FEE74FF48050009069460A482A
:101C5000FFF71EFD08B172B6FEE7049404A906481A
:101C60000594FFF743FC002801D072B6FEE706B0EA
:101C700010BD0000000800403C040020FEE7FEE725
:101C800070477047FFF716B930B58FB02821684606
:101C9000FEF7DFFA14210AA8FEF7DBFA0121080497
:101CA000CDE900100024029402250491CDE90750EB
:101CB0004FF4E01009906846FFF772FA08B172B667
:101CC000FEE70F20CDE90A054FF48060CDE90C4016
:101CD00002210AA80E94FFF797F9002801D072B6E6
:101CE000FEE70FB030BD70470148FFF73DBD000073
:101CF000AC0300200148FFF737BD0000F4030020CB
:101D00000148FFF731BD00003C040020F0B5026837
:101D1000164B174C174D4FF08047984205D0B842EC
:101D200003D0A04201D0A84203D122F070064A6835
:101D30003243984205D0B84203D0A04201D0A84215
:101D400003D122F44074CA6822434C6922F0800215
:101D5000224302608A68C2620A688262984201D1A4
:101D60000969016301214161F0BD0000002C0140BF
:101D7000000400400008004010B5846842EA0322D5
:101D800024F47F440A432243826010BD826822F01B
:101D900070020A4342F007018160704710B5036A80
:101DA000046A24F001040462846924F0F00444EA23
:101DB000021423F00A020A438461026210BD10B5C6
:101DC000036A23F0100303628369046A23F47043F7
:101DD00043EA023224F0A00343EA01118261016266
:101DE00010BD00000148FEF7A7BC000084030020DE
:101DF0000148FEF7A1BC000084030020FEE70907AC
:101E0000090E002804DB00F1E02080F80014704780
:101E100000F00F0000F1E02080F8141D7047000072
:101E200030B428494A791E2AFCD04A7AB82302EBFA
:101E30008204254A02F81430244B4C7A1B7804EBB8
:101E4000840402EB440463704C7A802304EB840422
:101E500002EB4404A3701E4B1C684D7A05EB85050C
:101E600002EB4505EC701B684C7A1B0A04EB8404FA
:101E700002EB44042371174B1B784C7A04EB840467
:101E800002EB440463714B7A03EB830302EB4303DD
:101E900098714C7A030A04EB840402EB4404E37166
:101EA0004C7A030C04EB840402EB44042372497A59
:101EB000000E01EB810102EB4101487230BC00F0E1
:101EC0000BB8000004000020B80100202E00002004
:101ED000340000203800002030B52D4C89B0A08996
:101EE000401CA0812B480078002841D02A48007867
:101EF00055283DD0607A00251D283BD0607A401CD3
:101F0000607201212548FEF790FB207A00EB8001EA
:101F1000234800EB41014978227A02EB820210F853
:101F2000122002F0F00201EBC2010091217A01EBD4
:101F3000810110F81110029501F00F01CDE9035154
:101F4000217A08AB01EB810100EB410006AA50F8B1
:101F5000021F06914068079069461048FEF77FFA15
:101F600050B16079401C607101210C48FEF765FAA0
:101F700009B030BD6572C4E76089401C6081207A79
:101F80001D2803D0207A401C2072EDE72572EBE774
:101F900004000020410000204E00002084030020A7
:101FA000B80100208F280BD004DC022808D00528B7
:101FB00004D105E0902803D0912801D0002070477B
:101FC00001207047FEF77EFFFFF75EFEFFF75EFD24
:101FD000FFF73CFDFFF7B6FDFFF7E8FDFFF71AFE40
:101FE000FFF77AFC1948FFF727FB194C012204215F
:101FF0002046FEF753FF012210212046FEF74EFF38
:10200000144D002201212846FEF748FF002202213C
:102010002846FEF743FF002204212846FEF73EFF34
:10202000002208212846FEF739FF0122110220462E
:10203000FEF734FF012251022046FEF72FFF064C27
:1020400020780028FCD000F059F8F9E7AC03002014
:1020500000080140000C01400800002078B5264D22
:1020600000EB400605EB8602481E947903D300FB83
:1020700004F3DBB200E0002355F82650B5F5C34F5A
:102080001FD00ADC05F6EA75B5F5005526D005F631
:10209000B665B5F5C04F07D10DE005F5ED55B5F5C1
:1020A000004508D0202D12D0002000909168002912
:1020B00006D06A461CE091680978C140C807000C48
:1020C00078BD9268C1EBC100C01F105C78BD9068FC
:1020D0006FF0070202EBC101405C78BD46F2A81028
:1020E00000EB014078BD1D184D5D1554401CC0B279
:1020F000A042F8D3009878BDA83000082DE9F04F31
:10210000DFF8F09387B099F80600FB4900EB8000F8
:1021100011F810C0FA48FC4FF84E0278DFF8E4E3FB
:1021200055230024F9483D784FF0040BBCF1A00F73
:1021300074D006DCBCF1000F71D0BCF1800F2CD143
:1021400006E0BCF1C00F29D0BCF1F00FF7D14EE290
:1021500099F806004A4600EB800001EB40008078C9
:1021600099F8063003EB830301EB4303DB78002887
:1021700013D030780528E2D1E54B0020957905EBA6
:10218000850501EB45050544AD781D54401CC0B2E2
:102190000728F3D3DE4800F03DFCE6E299F806009C
:1021A0004B4600EB800001EB400090F80280DFF826
:1021B00064B308F0E00CD848D84ED94FDFF864A3D8
:1021C000D94DBCF1400F7DD006DCBCF1000F65D0CD
:1021D000BCF1200F06D107E0BCF1600F73D0BCF159
:1021E000800F71D0D14816E09A79987902EB82027B
:1021F00001EB42020F46D2F8036000EB800001EBD6
:1022000040004079BB4B01460190DB1C4246304602
:1022100000F080FB20B1FFF703FEA6E272E29FE12F
:102220005FEA887030D599F806004D4600EB8000D3
:1022300007EB40000199D0F8062099F8030000F060
:1022400071FE0028E7D1A879B1B200EB800007EB5E
:102250004000019AD0F80630602000F0C9FAA6F5D7
:102260001050CA3899D1B24801220178B14811B151
:10227000012907D002E0A249097819B10470007859
:10228000AD499CE10270FAE7B1B200236020019AE7
:1022900000F0AEFACAF800600198AEE0DAF800206B
:1022A000BAB15FEAC86073D45FEAC87010D0DAF8D8
:1022B00000001138B0F5C0400ED0EF281ED0A0F5B8
:1022C000807002E065E0A7E00DE1EF385CD139E015
:1022D0009A48FFF7A5FD06E18D4A00209E7906EB9E
:1022E000860601EB46060644F6781654401CC0B23A
:1022F0000728F3D3864800F08DFB45E000202A78BC
:102300009F79C2EBC2023244024412F8072C07EB59
:10231000870701EB47070744FF78BA420DD09A7947
:1023200002EB820201EB42020244D2782F78C7EB23
:10233000C7073744074407F8072C401CC0B20528DC
:10234000DDD321E02A789E7907EBC202024412F81D
:10235000082C06EB860601EB46060644F678B242E8
:102360000CD09A7902EB820201EB42020244D2784D
:102370002E7807EBC606064406F8082C401CC0B2AF
:102380000528DFD300F00CFB002211462020A8E036
:102390004AE09A79987902EB820201EB4202D2F884
:1023A000036000EB800001EB40004079514B074691
:1023B0000146DB1C4246304600F0ACFA00287FF4B0
:1023C00012AF99F803205E4802EB420100EB810155
:1023D00088790B79042815D937B92BB1B1B23A46AF
:1023E000422000F005FAC0E10346B1B23A4640206F
:1023F00000F0FEF9CAF80060384628700A208BF811
:102400000000B2E1381E01D1002BE7D10146104691
:10241000FFF724FE0346E1E7DAF8001000293FF455
:1024200058AF5FEAC86001D5464852E7DAF80000C5
:1024300046F21003C11A984240D00ADC00F6F87048
:1024400005A9B0F500500CD0012819D002284AD1B6
:1024500025E0012934D0F02935D0B1F5F87F42D1FB
:1024600039E0394B394E002042B1375C0F54401CE3
:10247000C0B20628F8D30A4606210EE01F5CF5E735
:10248000334B344E002032B1375C0F54401CC0B285
:102490000628F8D30DE01F5CF7E7012021E02E4E5F
:1024A0000020734642B1375C0F54401CC0B206286E
:1024B000F8D30A460521F0E71F5CF5E7274A00E05C
:1024C000134A0721E9E728780721C0EBC0008219E9
:1024D0000120D21F05E02878072107EBC002012068
:1024E000083A00F0D7F9CAF800402C708BF8004089
:1024F0003BE10000040000208C0000204F00002081
:1025000042000020823000082E0000200000002041
:102510006900002039000020000001060C030020A3
:10252000440300203400002038000020010004058E
:102530003D0000203E0000203F0000201200070662
:10254000A83000080000030594300008A0300008FF
:102550008E3000089A3000088830000862000020A1
:1025600099F806C04F460CEB8C0C01EB4C0C9CF818
:1025700003C0BCF1000F01D0AC4516D1BD7905EB0D
:10258000850501EB4501897882290ED006DC0129F9
:1025900009D0802909D0812907D107E0F0290AD084
:1025A000F22902D10DE005203070DEE0844804708D
:1025B000FEF718FDD9E0F02030708249062008703F
:1025C000D3E06AB180494A78303A4270C9783039EC
:1025D000817003707D487E49047081F800B0C4E0CA
:1025E0009EF80120303A42709EF80310EFE799F808
:1025F00006C048460CEB8C0C01EB4C0C9CF801C05F
:10260000BCF1650F50D1807900EB800001EB4000F8
:1026100090F80280DFF8BCC1DFF8BCA16F48B8F1C8
:10262000110F09D0B8F1120F3FD0B8F1130F5AD0E3
:10263000B8F1140F38D153E0022505708CF8004032
:1026400099F806004D4600EB800001EB4000C07891
:10265000387099F8060000EB800001EB40008679A5
:102660008AF8006099F80660504606EB860601EB92
:10267000460636798AF80160AD7905EB850501EBF0
:10268000450149798AF8021012B10178202900D851
:10269000037042788521202A00D841708278202A50
:1026A00063D800BF8AF802105FE0032101704C4834
:1026B000A5F110016E29047050468AF800300BD243
:1026C0000A210F3D95FBF1F23032427095FBF1F299
:1026D00001FB12513031E5E743708AF8023044E0E3
:1026E00080F800B00BE03649A5220A700178022973
:1026F00004D17F2131703B490978397004708CF81E
:10270000004032E099F806204B4602EB820201EBD2
:102710004202527899F8065005EB850501EB450514
:10272000AD780B2A21D105BB2F4D00229E7906EBF7
:10273000860601EB46061644B678AE54521CD2B259
:10274000082AF3D3E9790A06C27802D542F00202D8
:1027500001E022F00202C270C907C17802D041F044
:10276000010101E021F00101C17012211F48FDF7B4
:102770005CFF99F806004D461D281FD0A879401C23
:10278000A8712879401E2871EC792E7912211748FA
:10279000FDF753FEA879844201D21E34E4B21E2014
:1027A000B6FBF0F100FB1160A979611A884202D0F2
:1027B00003485A21017007B0BDE8F08FAC71E0E723
:1027C0004E00002043000020883000083B0000201D
:1027D0006100002051000020520000205000002025
:1027E0002F00002031000020710000208403002011
:1027F000F0B4254C65791E2DFCD0657AB82605EB22
:102800008507224D05F81760214E677A367807EB69
:10281000870705EB47077E70667A06EB860605EBB1
:102820004606B070607A00EB800005EB4000C17096
:10283000080A617A01EB810105EB41010871607AB8
:1028400000EB800005EB40004271607A00EB8000F5
:1028500005EB40008371617A180A01EB810105EBF9
:102860004101C871617A180C01EB810105EB41014E
:102870000872617A180E01EB810105EB4101487283
:10288000F0BCFFF729BB000004000020B8010020C5
:102890002E000020F0B41C4C63791E2BFCD0637A10
:1028A000B82503EB8306194B03F81650184D667ACA
:1028B0002D7806EB860603EB46067570657A05EB08
:1028C000850503EB4505A87000200AE012F8015BBE
:1028D000667A06EB860603EB46060644F570401C56
:1028E000C0B28842F2D3002008E0627A02EB820292
:1028F00003EB42020A44D070491CC9B20729F4D341
:10290000F0BCFFF7E9BA000004000020B801002085
:102910002E000020F0B5002426461D4D4FF6FF7E08
:102920002BE0874227D105EB8C0636798E4221D3E6
:102930000120B0EB521F1AD104EB440005EB8005D7
:102940001448AE79920707D5042E07D9002910D173
:102950002A79002A0DD001E0042E0AD90D486A799F
:10296000801C002A05D011B92979002901D11C70D9
:102970000020F0BD0126641CE4B204EB440C55F8C1
:102980002C707745CDD10EB10348F0BD0348F0BDA2
:10299000A830000800000106110009060000020628
:1029A00030B51A4900200870194B012213F8304045
:1029B0008F2C25D006DC022C22D0052C20D00E2C0A
:1029C00014D104E0902C1BD0912C0FD118E003EB14
:1029D000C00464780A2C13D004DC012C10D0092C1C
:1029E00004D10DE09A2C0BD0A12C09D00D7802FA5D
:1029F00000F4A5430D70401CC0B20828D6D330BDEA
:102A00000D7802FA00F42C430C70F4E75E0000200D
:102A1000440300202DE9F0430678014600253046A6
:102A2000FFF7C0FAFA4CFB4B0122E8B3022E05D0A7
:102A30004878FF284FF0000002D024E0C878F8E77B
:102A400014F83070B74218D104EBC00797F806C0ED
:102A5000BCF1010F11D197F807C091F802803CEA50
:102A6000080C87F807C008D193F8008002FA00FC30
:102A700028EA0C0883F800807D71401CC0B2082849
:102A8000DED3BDE8F0830E7814F83070BE4240D13A
:102A900004EBC0064F7896F801C0674539D1CF786E
:102AA00096F803C0674500E038E032D18F7896F899
:102AB00002C017EA0C0F2CD096F804C091F80480DD
:102AC0002CEA080C5FEA0C7C23D196F806C0BCF116
:102AD000010F1ED191F805C05FEACC7C0FD093F8AE
:102AE000008002FA00FC4CEA080C83F800C096F85B
:102AF00007C04CEA070C86F807C0727109E0F5714F
:102B000093F800C002FA00F72CEA070C83F800C023
:102B10007571401CC0B20828B5D3B2E7BE4FDFF8CC
:102B2000FCC2BF48402E10D0422E40D0412E74D05F
:102B3000492E72D0442E6CD00E2E6BD0142EFCD0A9
:102B4000152EFAD0452E7DD038E08A783B789A420F
:102B500097D19CF80020002A93D10A794B79002163
:102B6000B04C5525665CB24201D1417007E062B1BC
:102B7000202A0AD01EB1491CC9B25F29F2D3002114
:102B8000625C934203D1817009E04570F7E762B15E
:102B90005BB1202B09D0491CC9B25F29F0D38178E1
:102BA0005529BAD1252141706AE18570F7E78E7801
:102BB0003F78BE4202D19CF800607EB100200E78C2
:102BC00014F83070BE4208D104EBC0064F7896F876
:102BD00001C067457ED0002FFCD092E14A79AAB1AE
:102BE0004A7802F0030202700278022A00D90570C6
:102BF00003788D4A7BB14978C1F3011111700178D6
:102C0000553101700078894908703AE70570EBE7A3
:102C100003E0BFE0EFE01570F1E74878844F412E04
:102C200019D0492EF1D10007EFD000200E7814F80A
:102C300030C066450ED104EBC00691F802C096F88C
:102C4000028000E01EE1C44504D196F806C0BCF144
:102C5000010F5ED098E000200E7814F830C0664571
:102C600052D104EBC00691F802C096F80280C44528
:102C70004AD196F806C0BCF1010F45D191F8018008
:102C800096F801C0C14608EA0C085FEA887802D1CC
:102C9000BCF1000F2FD191F803C096F80380C44512
:102CA00005D0BCF1FF0F02D0B8F1000F23D191F88D
:102CB000048096F804C018EA0C0F02D1BCF1000F92
:102CC00019D197F800C0BCF1000F0FD05FEA191CB2
:102CD00011D10BE0F0E000BF93F8008002FA00FC95
:102CE0004CEA080C83F800C072710DE091F805C041
:102CF0005FEACC7CF0D193F8008002FA00FC28EA6D
:102D00000C0883F800807571401CC0B20828A3D35A
:102D1000B7E691F801C096F80180E1460CEA080C8C
:102D20005FEA0C7C27D091F803C096F80380C44575
:102D300002D0BCF1FF0F1ED191F804C096F80480B8
:102D40001CEA080F17D097F800C0BCF1000F0DD097
:102D50005FEA191C0FD109E093F8008002FA00FC29
:102D60004CEA080C83F800C072710DE091F805C0C0
:102D70005FEACC7CF0D193F8008002FA00FC28EAEC
:102D80000C0883F800807571401CC0B20828FFF45D
:102D90004DAF76E600200E7814F83050AE4225D1C3
:102DA00004EBC0054E786F783E40B60700D1EFB90E
:102DB000CE78EF78BE4202D0FF2E00D0B7B98E7821
:102DC000AF78BE4212D10F792E79374200D16EB959
:102DD000AE79012E0AD14E79F60707D01F7802FA94
:102DE00000F63E431E701426EE716A71401CC0B29C
:102DF0000828D0D345E64A788B2A33D01ADC102A2B
:102E000086D0812A2ED0862A21D0882AC1D115E0E9
:102E1000440300205D00002030000020500000200E
:102E2000000000202C3000083B0000204000002063
:102E30003C0000208F2A01D0902AAAD13448882A49
:102E40001DD08F2A18D0902AA3D1497932E0497930
:102E50000029C17802D041F0020101E021F0020115
:102E6000C1700EE649790029C17802D041F0010114
:102E7000F6E721F00101F3E74979417001E649796C
:102E80008170FEE5C8784B7840EA0320A0F5145322
:102E90000D3BAFD148791F4BC0F30111197000F001
:102EA0000F011D4BC1EB0111C90019601B490A70CC
:102EB00081091B480170E4E5CF7896F803C06745A7
:102EC0001FD18F7896F802C067451AD191F804C0D7
:102ED00037791CEA070F00D19FB9B779012F10D1BC
:102EE0004F7993F800C0FF0702FA00F704D047EAD1
:102EF0000C071F70727104E02CEA070C83F800C005
:102F00007571401CC0B20828FFF459AEB9E5000045
:102F10000400002045000020480000204C00002054
:102F20004D0000202DE9F7433A4A00EB400502EB43
:102F300085064B1EB47903D303FB04F7FFB200E010
:102F40000027DFF8D08000EB400052F825C008EBE6
:102F500080000CF5F55C80684FF00109BCF5004C71
:102F600010D0DDF80880BCF1200F08F0FF081DD05C
:102F7000BCF5807F06D0BCF5907F1CD070B30020DC
:102F800002A929E00278029C22FA03F3C4F3C034B8
:102F900003F00103A34207D00123491E8B4014B163
:102FA0001343DAB200E09A43027030E078B3C1EB29
:102FB000C101C91F04E050B36FF0070202EBC10169
:102FC00000F8018023E00B5C07EB0008D6F808C08E
:102FD000401CC0B20CF80830A042F4D352F82510BF
:102FE000A1F514500D3812D10B480C4A0078C0F3EB
:102FF0000111117000F00F01094AC1EB0111C90064
:103000001160084A0849800982F800900870002081
:10301000BDE8FE83A83000084400002045000020E1
:10302000480000204C0000204D0000203031323399
:103030003435363738394142434445464748494A92
:103040004B4C4D4E4F505152535455565758595A58
:103050002B2D6162636465666768696A6B6C6D6E6F
:103060006F707172737475767778797A212324255D
:103070002628292A272C3A3B3C3E3D405B5D7B7D40
:103080007C0056322E30430056312E3442005631E9
:103090002E330000472D3734310056312E310000D9
:1030A000472D3734320000000010000000000400FB
:1030B0005800002001100000000001003A0000202C
:1030C00008100000000006009430000809100000FD
:1030D000000005008E3000080A1000000000050006
:1030E00082300008161000000800040000000000F4
:1030F000181000000401040000000000006000003F
:103100000300020000030020016000000001010034
:1031100030000020206100000801040000000000D1
:103120004061000008010400000000006061000030
:10313000080104005F000020806100000801040015
:1031400012030020206200000801040000000000BB
:1031500040620000080104000000000060620000FE
:1031600008010400600000208062000008010400E3
:103170004A0300201060000000000700000000006B
:103180001160000000010700000000000061000065
:1031900008010700000000000062000008010700AD
:1031A00000000000FD2F0000000001005C00002076
:1031B000FE2F0000000101005D000020CA24000075
:1031C000000101003D000020EE240000000101008C
:1031D0003C0000200D2500000001010044000020FB
:1031E000FFFF0000000000000000000000000000E1
:1031F0000000000001020304060708091C32000851
:10320000000000208C00000028010008A8320008FF
:103210008C0000205C0A000044010008000000004F
:10322000000000000000000000000000000000009E
:10323000000000000000000000000000000000008E
:10324000000000000000000000000000000000007E
:10325000000000000000000000000000000000006E
:10326000000000000000000000000000000000005E
:10327000000000000000000000000000000000004E
:10328000000000000000000000000000000000003E
:10329000000000000000000001000000100000001D
:0832A000000000000024F4000E
:04000005080000ED02
:00000001FF
