:020000040800F2
:10000000C00B0020890100082F2A00086324000883
:100010002D2A0008A3030008F52F000800000000A7
:10002000000000000000000000000000712A00082D
:100030009D05000800000000312A0008012C00087E
:10004000A3010008A3010008A3010008A301000800
:10005000A3010008A3010008A3010008A3010008F0
:10006000A3010008A3010008A3010008A3010008E0
:10007000A3010008A3010008A3010008A3010008D0
:10008000A3010008A3010008A3010008DD2F000858
:10009000E92F0008A5030008B1030008A301000828
:1000A000A3010008A3010008A3010008A3010008A0
:1000B0006D2C0008792C0008852C0008A30100088D
:1000C000A3010008A3010008A3010008A301000880
:1000D000A3010008A3010008A3010008A301000870
:1000E000A3010008A3010008A301000800F002F822
:1000F00000F03AF80AA090E8000C82448344AAF188
:100100000107DA4501D100F02FF8AFF2090EBAE885
:100110000F0013F0010F18BFFB1A43F0010318473B
:10012000E04D0000004E0000103A24BF78C878C1AE
:10013000FAD8520724BF30C830C144BF04680C60ED
:10014000704700000023002400250026103A28BF35
:1001500078C1FBD8520728BF30C148BF0B60704739
:100160001FB51FBD10B510BD00F0E2F81146FFF736
:10017000F7FF03F059F900F000F903B4FFF7F2FFBD
:1001800003BC00F007F90000094880470948004710
:10019000FEE7FEE7FEE7FEE7FEE7FEE7FEE7FEE737
:1001A000FEE7FEE704480549054A064B7047000094
:1001B000692C0008ED000008C0050020C00B0020DD
:1001C000C0070020C0070020B2F120030AD5C2F109
:1001D000200320FA02F001FA03F321FA02F140EAC7
:1001E0000300704721FA03F04FF000017047032A23
:1001F00040F2308010F0030C00F0158011F8013B44
:10020000BCF1020F624498BF11F801CB00F8013B2A
:1002100038BF11F8013BA2F1040298BF00F801CBEE
:1002200038BF00F8013B11F0030300F04F80083A9B
:10023000C0F0088051F8043B083A51F804CBA0E81C
:100240000810F5E7121D5CBF51F8043B40F8043B71
:10025000AFF30080D20724BF11F8013B11F801CBA6
:1002600048BF11F8012B24BF00F8013B00F801CB77
:1002700048BF00F8012B70474FF0000200B513464D
:1002800094469646203922BFA0E80C50A0E80C50B6
:10029000B1F12001BFF4F7AF090728BFA0E80C5067
:1002A00048BF0CC05DF804EB890028BF40F8042B60
:1002B00008BF704748BF20F8022B11F0804F18BFCD
:1002C00000F8012B704770477047704710B5203A0F
:1002D000C0F00B80B1E81850203AA0E81850B1E8FF
:1002E0001850A0E81850BFF4F5AF5FEA027C24BFB5
:1002F000B1E81850A0E8185044BF18C918C0BDE8AC
:1003000010405FEA827C24BF51F8043B40F8043B74
:1003100008BF7047D20728BF31F8023B48BF11F829
:10032000012B28BF20F8023B48BF00F8012B704783
:10033000754600F02BF8AE4605006946534620F09E
:100340000700854618B020B5FFF72CFFBDE8204018
:100350004FF000064FF000074FF000084FF0000B81
:1003600021F00701AC46ACE8C009ACE8C009ACE834
:10037000C009ACE8C0098D46704710B50446AFF31C
:1003800000802046BDE81040FFF7F7BE00487047E8
:100390006005002001491820ABBEFEE726000200E0
:1003A0007047FEE7014800F0DBBB0000EC030020D3
:1003B000014800F0D5BB0000EC03002030B5234C11
:1003C00089B06079002838D0207A002500EB8001C0
:1003D0001F4800EB41014978227A02EB820210F8B3
:1003E000122002F0F00201EBC2010091217A01EB30
:1003F000810110F81110029501F00F01CDE90351B0
:10040000217A04F1140301EB810100EB410006AAFB
:1004100050F8021F06914068079069460D4800F0A9
:1004200033FA60B100F064F96079401E6071207A9F
:100430001D2808D0207A401C207209B030BD608988
:10044000401C6081F0E72572F7E7000014000020EF
:1004500010020020EC03002000B599B0642168462A
:10046000FFF70AFF1F4802781F4801788A422FD001
:10047000027000208DF8000027218DF802008DF811
:100480000400602A26D003DC3AB1402A1AD10AE0DF
:10049000802A03D0A02A15D10CE050208DF801004D
:1004A0008DF803000CE08DF801108DF803108DF825
:1004B000051007E04E218DF801108DF8030026206D
:1004C0008DF805000322694645F2060000F0A0F809
:1004D00019B000BD4F208DF801008DF803104D209C
:1004E000EEE7000022000020C800002010B59AB0FE
:1004F00064216846FFF7C0FE274CA08861888842C7
:1005000042D0618888423FD06188A18040F2B62203
:1005100045F22100D1B3B92102F044FEA088400584
:1005200002D5072004F0BAF9A088800402D508207B
:1005300004F0B4F92079000602D5062004F0AEF9E3
:100540002079400602D5022004F0A8F9207940075E
:1005500002D5012004F0A2F92079000702D503207A
:1005600004F09CF92079800602D5042004F096F965
:100570002079800702D5052004F090F92079C00782
:1005800002D0002004F08AF91AB010BDFFE71E2146
:1005900002F008FE0A20F5E7C800002070470000BE
:1005A00030B585B014216846FFF766FE174D00246C
:1005B0008DF8004068788DF8010002226946D0026B
:1005C00002F06AFE8DF80240A8788DF8030002223E
:1005D00041F201000DF1020102F05EFE9DF8010002
:1005E0004FF4967245F2212520280DD060B11446B3
:1005F0001E2145F2012002F0D5FD2246D2212846D7
:1006000002F0D0FD05B030BD7D21F8E722000020CA
:1006100030B599B05A238DF80030A5238DF80130FC
:10062000032303EB42038DF8023082238DF803305D
:10063000030A8DF804308DF8050000206B4609E0B0
:1006400003EB400411F81050A57101EB4005401C6C
:100650006D78E5719042F3DB062000EB420082B238
:1006600019466423024801F0A3FE19B0012030BDF1
:10067000F804002030B585B014216846FFF7FCFD72
:100680001A4D00248DF80040A8788DF801000C2840
:1006900002D30C388DF801000222694641F20200B3
:1006A00002F0FAFD8DF8004068788DF80100022212
:1006B000694641F2030002F0EFFD8DF80040E87852
:1006C0008DF80100022269464FF4945002F0E4FDD7
:1006D0008DF8004028790222C0088DF80100694693
:1006E0004FF4995002F0D8FD05B030BD4A0000200B
:1006F00072B6FEE7044B0022DA61044A136943F044
:100700000103136101807047400500200020024072
:1007100014480022C168CB06134904D5CA6942F0C7
:100720000202CA611022C3685B0705D5CB6943F09A
:100730000103CB6142F00402C369DB0707D0CB6938
:1007400043F00403CB61C16921F00101C161A2F54D
:100750008071013901D0C2607047C16921F0010187
:10076000C1617047002002404005002070B5054679
:1007700000F006FE0646114C09E0681C07D025B1C2
:1007800000F0FEFD801BA84201D9032070BDE06887
:10079000C007F2D1E068800601D52020E060E06863
:1007A000C00605D4E069C00702D1E068400703D560
:1007B000FFF7AEFF012070BD002070BD0020024099
:1007C0000C49CA68D207FCD10A6942F002020A61E8
:1007D0004861086940F040000861C868C007FCD162
:1007E000086920F001000861086920F00200086132
:1007F000704700000020024010B5002304E000BF55
:1008000011F81340C4545B1C9342F9DB10BD000087
:100810002DE9F04116460F46804600F0A3FC404605
:10082000FFF7CEFF0E4C206940F00100206100254B
:1008300007E07A5D08EB45010023012000F052FC3F
:100840006D1CB542F5DBE068C007FCD1206920F0E3
:1008500001002061206940F080002061BDE8F08146
:100860000020024090F82020012A07D0022A05D05B
:10087000416A41F480214162012070470068426969
:100880000A43426100207047F0B590F82050046898
:10089000A468012D05D0022D03D0416A41F48021C6
:1008A0005DE014F0406F01D1E50055D5C4F301645B
:1008B000022C03D9416A41F4000150E00125A54012
:1008C0001D608D684FF4C0739DB1CE6835434E688E
:1008D00045EAC605066803EB0417F5514FF4C275E7
:1008E000076805EB04150E697E51097D012905D0C5
:1008F00009E00E88CD6845EA4655EBE701684E5998
:1009000046F480764E511179D579567941EA0561E0
:1009100095792D0445EA062529434FF4C6760568E6
:1009200006EB0416A9511178D57841EA056195784E
:1009300052782D0445EA022211434FF4C47502682F
:1009400005EB04155151006803EB0411425842F0C5
:10095000010242500020F0BD416A41F400114162A1
:100960000120F0BD10B590F820300268012B07D0AF
:10097000022B05D0416A41F480214162012010BD63
:10098000D2F8000240F00100C2F80002087D00F039
:100990001F0301209840D2F81C328343C2F81C3256
:1009A000CB69B3B9D2F80C328343C2F80C328C89CC
:1009B0004B6864F31F434C6902EBC404C4F8403233
:1009C0000C890B6864F31F434C6902EBC404C4F840
:1009D0004432CB69012B16D1D2F80C320343C2F852
:1009E0000C320C884B6864F31F434C6902EBC4045F
:1009F000C4F840320C89CB6864F31F434C6902EBA6
:100A0000C404C4F844328B69002BD2F804320FD0EE
:100A100053EA0003C2F804320B69002BD2F81432F7
:100A200008D00343C2F81432096A012904D008E04F
:100A30008343EFE78343F5E7D2F81C120143C2F882
:100A40001C12D2F8000220F00100C2F800020020BF
:100A500010BD90F82020012A07D0022A05D0416A53
:100A600041F48021416201207047006842698A4355
:100A7000426100207047704730B590F82040012C4B
:100A800005D0022C03D0416A41F480215DE0046866
:100A9000002955D02469A40754D04FF4D8740568B0
:100AA00004EB01142D5915F00405956005682D59C6
:100AB0004ED0ED08556005682C5904F00204D4604E
:100AC0004FF4DA74056804EB01142D5905F00F0595
:100AD000156105682D59C5F30725956105682C59E1
:100AE000240C54614FF4DC72046802EB0112A45828
:100AF0001C700468A458240A5C700468A458240C70
:100B00009C700468A258120EDA704FF4DE7204680A
:100B100002EB0112A4581C710468A458240A5C71E9
:100B20000468A458240C9C710468A258120EDA714F
:100B3000006881B1016941F020010161002030BDF0
:100B4000E468A8E7416A41F400114162012030BD28
:100B50006D0D1560AFE7C16841F02001C160EDE7A0
:100B60002DE9F05F0546006800244669D0F804903E
:100B70008768D0F80CB0D0F810A0D0F81880F10732
:100B800048D0F90714D001218160B80703D5284661
:100B900000F078FA0CE0780702D54FF4006407E023
:100BA000380702D54FF4805402E0284600F068FA76
:100BB000F80516D529684FF480708860B80503D50C
:100BC000284600F069FA0CE0780502D544F4005498
:100BD00007E0380502D544F4804402E0284600F0DE
:100BE00059FAF80316D529684FF480308860B803A5
:100BF00003D5284600F05AFA0CE0780302D544F4F5
:100C0000004407E0380302D544F4803402E028466B
:100C100000F04AFA300707D55FEACB6004D52968AF
:100C2000102044F40074C86070074FF0080707D51F
:100C30005FEA0B7004D52868C760284600F072F997
:100C4000B00706D52868C068800702D0284600F0A3
:100C50006BF9700607D55FEACA6004D529681020D1
:100C600044F480640861B00607D55FEA0A7004D5D1
:100C700028680761284600F077F9F00606D528684D
:100C80000069800702D0284600F070F9B00308D54B
:100C90005FEAC96005D5296810204860284600F041
:100CA000C1F9F00307D55FEA097004D528684760E9
:100CB000284600F003FA300446D55FEA497040D573
:100CC000F00504D55FEAC87001D044F00104B00516
:100CD00004D55FEA887001D544F00204700504D59C
:100CE0005FEA487001D544F00404300529D518F0B6
:100CF000700F26D008F07000402815D006DC1028B0
:100D000009D020280AD0302816D10AE050280ED069
:100D1000602811D10EE044F008040DE044F0100406
:100D20000AE044F0200407E044F0400404E044F00A
:100D3000800401E044F480742868816921F0700126
:100D40008161296804204860002C05D0686A20432E
:100D500068622846FFF78FFEBDE8F09F70B504007B
:100D600003D094F8200010B104E0012070BD2046AB
:100D700000F082F82068016841F00101016000F094
:100D8000FFFA0546052604E000F0FAFA401B0A289F
:100D900011D820684068C007F6D02068016821F0AB
:100DA0000201016000F0ECFA05460BE000F0E8FA01
:100DB000401B0A2806D9606A40F40030606284F85B
:100DC0002060D2E7206840688007EFD4207E0128A9
:100DD000206801683DD021F080010160607E01281B
:100DE0002068016838D021F040010160A07E012810
:100DF0002068016833D021F020010160E07E0128E5
:100E0000206801682ED041F010010160207F012888
:100E10002068016829D021F008010160607F012865
:100E20002068016824D021F004010160D4E90201A6
:100E30000843D4E90412114308436168491E08437A
:100E40002168C86100206062012084F82000002031
:100E500070BD41F08001C0E741F04001C5E741F0BD
:100E60002001CAE721F01001CFE741F00801D4E7E3
:100E700041F00401D9E7000010B586B000210091CF
:100E800001910291039100682349884242D123488D
:100E9000C16941F00071C161C16901F00071049143
:100EA000816941F00401816180691D4C00F00400FA
:100EB00004904FF4006000906946204600F066F907
:100EC000A014009002200190032003906946204660
:100ED00000F05CF900221146132000F0F1FA132013
:100EE00000F0E0FA00221146142000F0E9FA142084
:100EF00000F0D8FA00221146152000F0E1FA152082
:100F000000F0D0FA00221146162000F0D9FA16207F
:100F100000F0C8FA06B010BD0064004000100240A6
:100F2000000801407047000010B50B4B0B4A002130
:100F3000FFF7A2FD09480068C0F3C3110E2907D1CD
:100F400000F07F00401E082802D2054932200870B8
:100F500004490120087010BD3A0000205803002009
:100F600078000020630000207047000070B5284B17
:100F7000284A0121FFF780FD254C1E3C20791E28C0
:100F800002D125480178D9B1224AF020118800EA1F
:100F9000D103E07900EB8005A2F5167000F815305A
:100FA000E37901F07F0103EB830300EB4303597006
:100FB000E17901EB810110F81110C02912D107E08D
:100FC00016490A7842F010020A701421017070BDAF
:100FD000E17901EB810100EB41014978104B1B786D
:100FE0009942F4D11269E17901EB810100EB4100F2
:100FF0000749801CFFF7FBF8E0791D2806D0E0794F
:10100000401CE0712079401C207170BD0020F8E781
:10101000320000203C030020A90000205C000020DA
:10102000580000207047000070B5044690F820007A
:10103000012804D0606A40F40020606218E00220B9
:1010400084F820002068016821F00101016000F0AF
:1010500097F905460EE000BF00F092F9401B0A2800
:1010600008D9606A40F400306062052084F82000EE
:10107000012070BD20684068C007EDD1606270BD7E
:101080007047000002480188491C0180FFF796B9AB
:101090002C0000207047000002484188491C418014
:1010A000FFF78CB92C0000207047000002488188AF
:1010B000491C8180FFF782B92C0000207047000096
:1010C00070B5044600F05CF90546601C02D0044887
:1010D0000078044400F054F9401BA042FAD370BDDC
:1010E000D40000202DE9F05F07461C488846002404
:1010F000017E15461E46012909D00121814601764F
:101100004CF2503A5046FFF731FB18B122E0022072
:10111000BDE8F09F012F02D0022F00D00427D34654
:10112000DFF83CA0220128463146FFF74DF881B296
:1011300008EB4400FFF7DEFA5846FFF717FBDAF832
:10114000102022F00102CAF8102018B9641CE4B281
:10115000BC42E7D3002289F81820D9E740050020D7
:1011600000200240064900200A69120607D5054AF8
:101170004A60054A4A600969090600D5012070479E
:101180000020024023016745AB89EFCD2DE9F84FE0
:10119000DFF8B891002409F1040A0AF1040B234690
:1011A0000F270BF1040EC9E00125A5402A40AA42F1
:1011B0007DD1674ED1F804C0ACEB0608B44532D0FF
:1011C00014DCBCF1030F3AD009DCBCF1000F2AD0CB
:1011D000BCF1010F1CD0BCF1020F31D11DE0BCF1FC
:1011E000110F17D0BCF1120F2AD119E0B8F5881FE2
:1011F00019D006DCB8F5803F15D0B8F5801F1FD197
:1012000011E0B8F5001F0ED0B8F5041F18D10AE0A0
:10121000CB6815E0CB681B1D12E0CB6808330FE0EC
:10122000CB680C330CE08B682BB1012B4FF008031B
:1012300003D0456104E0042302E0056100E00023DF
:10124000FF2A01D8064601E000F104064FEA8405B2
:1012500001D9A5F12005D6F8008007FA05FC28EA97
:101260000C0803FA05F548EA0508C6F800804D6841
:10127000ED0062D5374DAE6946F00106AE61AD694D
:1012800024F0030605F001050095334D06EB050C2F
:10129000DCF80850A607360F07FA06F825EA080515
:1012A000DFF8B880404503D14FF0000817E044E074
:1012B000DFF8AC80404502D14FF001080FE0DFF8C5
:1012C000A480404502D14FF0020808E0DFF8988082
:1012D000404502D14FF0030801E04FF0040808FA3E
:1012E00006F848EA0508CCF808804D68D9F800608F
:1012F000ED034D4601D5164300E096432E604D6840
:10130000DAF80060AD03554601D5164300E0964378
:101310002E604D68DBF80060ED025D4601D5164396
:1013200000E096432E604D68DEF80060AD02754621
:1013300001D5164300E096432E60641C0D682A46D2
:10134000E5407FF431AFBDE8F88F000000040140B4
:101350000000111000100240000001400008014090
:10136000000C01400010014000140140806808405A
:1013700000D0012070470AB1016170470904FBE702
:101380000148806870470000D400002070B5040058
:1013900011D021684CF6CC400860216845F25550C8
:1013A0000860D4E9000141602168A0688860FFF707
:1013B000E7FF05460DE0012070BD00BFFFF7E0FF2D
:1013C000401B272805D92068C068800701D003206A
:1013D00070BD2068C0688007F0D121684AF6AA2055
:1013E0000860002070BD00684AF6AA210160002054
:1013F000704700000248816802781144816070479C
:10140000D4000020074810B5016841F010010160C8
:10141000032000F075F80F2000F006F800F024F823
:10142000002010BD0020024070B50D4D04464FF461
:101430007A712878B1FBF0F00A490968B1FBF0F045
:1014400000F0FEFA48B9102C07D200222146501EA7
:1014500000F036F800206C6070BD012070BD000007
:10146000D4000020E00000200C4808B5816941F05C
:1014700001018161816901F001010091C16941F0BF
:101480008051C161C06900F08050009004484168FB
:1014900021F0E06141F00071416008BD00100240A0
:1014A00000000140002809DB00F01F0201219140EB
:1014B0004009800000F1E020C0F8001170470000F2
:1014C000F0B40E4B1B680C46C3F30223C3F10705AF
:1014D000042D00D90425191D072901D2002300E09D
:1014E000DB1E012606FA05F1491E214099409E4067
:1014F000761E16403143F0BC01F07DBD0CED00E0DE
:10150000064900F0070208684FF6FF03184040EA5A
:101510000220034A10430860704700000CED00E011
:101520000000FA05BFF34F8F05480168054A01F432
:10153000E06111430160BFF34F8F00BFFDE7000082
:101540000CED00E00400FA052DE9F0470F46050018
:1015500061D0434E306800F00700B84209D23068CD
:1015600020F0070038433060306800F00700B842D0
:1015700051D128683B4C810712D5400703D56068DC
:1015800040F4E06060602878000703D5606840F4AC
:10159000605060606068A96820F0F00008436060F7
:1015A0002878C00728D06868012810D02168022850
:1015B00010D0890700292EDA616821F00301014368
:1015C0006160FFF7DDFE804641F288390DE0216859
:1015D0008903EFE78901EDE7FFF7D2FEA0EB0801F1
:1015E000494502D90320BDE8F0876068696800F0CA
:1015F0000C00B0EB810FEFD1306800F00700B8426B
:101600000BD9306820F0070038433060306800F0B4
:101610000700B84201D00120E5E72878400705D54A
:101620006068E96820F4E06008436060287800079B
:1016300006D56068296920F4605040EAC100606006
:1016400000F038F86168084AC1F30311515CC840E2
:101650000649086006480068FFF7E6FE0020C2E77A
:101660000020024000100240E84E0008E000002088
:10167000D80000200448054900684968044AC1F3BD
:101680000221515CC8407047E00000200010024079
:10169000F84E00080448054900684968044AC1F347
:1016A000C221515CC8407047E00000200010024099
:1016B000F84E000812A185B00FC98DE80F0014A0E4
:1016C000144A006804905168134801F00C03042B7D
:1016D00010D0082B0ED1C1F38343C9031DF80300BA
:1016E0000AD5516804AAC1F34041515C0A4A5043EB
:1016F000B0FBF1F005B0704708494843FAE7000035
:1017000002030405060708090A0B0C0D0E0F101042
:10171000010200000010024000127A0000093D00A2
:101720002DE9F84F040070D02078C04DC00749D093
:101730006868C0F38100012807D06868C0F38100A1
:10174000022809D16868C00306D52868800339D506
:1017500060680028E7D035E06068B0F5803F0BD0C6
:1017600010B1B0F5A02F11D0286820F48030286087
:10177000286820F4802002E0286840F48030286047
:10178000606890B1FFF7FCFD06460AE0286840F467
:1017900080202860F0E700BFFFF7F2FD801B64287F
:1017A00073D828688003F7D50CE0FFF7E9FD0646FB
:1017B00005E000BFFFF7E4FD801B6428F0D828682F
:1017C0008003F7D420789A4E80074FF001094FF03C
:1017D000000839D5686810F00C0F07D06868C0F3AE
:1017E0008100022809D16868C00306D428688007F0
:1017F00014D52069012808D110E02069B0B1C6F8DD
:101800000090FFF7BDFD074605E00AE1FFF7B8FDD0
:10181000C01B0228C4D828688007F7D528686169EA
:1018200020F0F80040EAC10028600DE0C6F8008012
:10183000FFF7A6FD074604E0FFF7A2FDC01B022844
:1018400023D828688007F7D4207800072CD579485A
:10185000A169D9B1C0F80090FFF792FD074604E0F6
:10186000FFF78EFDC01B02280FD8686A8007F7D5E6
:1018700071484FF4FA510068B0FBF1F0009000BFDE
:101880000098411E0091FAD20EE080E0C0F800807E
:10189000FFF776FD074604E0FFF772FDC01B022844
:1018A00075D8686A8007F7D42078400760D5E86962
:1018B0000027C00008D4E86940F08050E861E8697A
:1018C000012700F0805000905C480168C90513D4DE
:1018D0000168834641F480710160FFF751FD824643
:1018E00006E000BFFFF74CFDA0EB0A0064284ED8CD
:1018F000DBF80000C005F5D5E06801280AD008B182
:10190000052813D0286A20F001002862286A20F0F8
:10191000040002E0286A40F001002862E06841F219
:10192000883B98B1FFF72CFD82460BE0286A40F017
:1019300004002862EEE700BFFFF722FDA0EB0A01DA
:1019400059455AD8286A8007F6D50CE0FFF718FDEC
:10195000824605E0FFF714FDA0EB0A0159454CD87B
:10196000286A8007F6D41FB1E86920F08050E8614A
:10197000E06988B36968C1F38101022944D0022873
:10198000C6F8608004D0FFF7FBFC044638E034E082
:10199000FFF7F6FC074604E0FFF7F2FCC01B022845
:1019A0002BD828688001F7D4206AB0F5803F05D194
:1019B0006868A16820F4003008436860D4E9080131
:1019C0000843696821F4741108436860C6F86090A0
:1019D000FFF7D6FC044606E025E000BFFFF7D0FC89
:1019E000001B022809D828688001F7D51BE000BF3A
:1019F000FFF7C6FC001B022802D90320BDE8F88FC0
:101A000028688001F4D40EE00128F7D06868226AC3
:101A100000F48031914204D1616A00F47010884270
:101A200001D00120EAE70020E8E7000000100240B2
:101A30000000424280044242E0000020007000406A
:101A400010B5401EB0F1807F01D3012010BD4FF0D2
:101A5000E02460610F21601701F0CDFA0020A06141
:101A600007202061002010BD7047704770B590F8C6
:101A70003C20012A26D0012480F83C40022280F834
:101A80003D2003685A689D6822F070060A68324358
:101A90005A600D4B02689A4208D0B2F1804F05D0CF
:101AA0000A4B9A4202D00A4B9A4204D1496825F067
:101AB00080031943916080F83D40002180F83C107C
:101AC000084670BD022070BD002C0140000400409B
:101AD0000008004010B5040003D094F83D0010B198
:101AE00007E0012010BD002084F83C00204600F0F3
:101AF0001FF8022084F83D00211D206801F0C8F87D
:101B0000012084F8460084F83E0084F83F0084F801
:101B1000400084F8410084F8420084F8430084F8CF
:101B2000440084F8450084F83D00002010BD00000A
:101B300008B501681D48B1F1804F11D01C4A91428F
:101B40001DD1C16941F00201C161C069002200F0EC
:101B50000200009011461D20FFF7B2FC1D201FE07F
:101B6000C16941F00101C161C069002200F00100BA
:101B7000009011461C20FFF7A3FC1C2010E00D4A2A
:101B8000914211D1C16941F00401C161C0690022D3
:101B900000F00400009011461E20FFF791FC1E206B
:101BA000BDE80840FFF77EBC08BD00000010024001
:101BB000000400400008004090F83D10012901D0C9
:101BC00001207047022180F83D100168CA6842F088
:101BD0000102CA6000680B49884208D0B0F1804F0A
:101BE00005D00949884202D00849884204D1816859
:101BF00001F00701062903D0016841F001010160ED
:101C000000207047002C0140000400400008004004
:101C100070B5044690F83C00012817D0012584F8DF
:101C20003C50022084F83D002068826822F0770250
:101C300022F47F4282600868502830D00DDC2028D2
:101C40004DD005DC98B310283BD148E0022070BD90
:101C5000302844D0402834D139E0602828D070287A
:101C600006D0B0F5805F2CD0B0F5005F29D10AE036
:101C7000CB68D1E90121206801F040F82068816833
:101C800041F0770109E0CB68D1E90121206801F03A
:101C900035F82068816841F48041816011E0CA68AC
:101CA0004968206801F03CF85021206807E016E000
:101CB000CA684968206801F044F86021206801F092
:101CC00027F884F83D50002084F83C0070BDCA68B5
:101CD0004968206801F024F840212068EFE7226875
:101CE00001461046EBE7704770B50446006801698D
:101CF0004FF00005C943890715D4C168C943890756
:101D000011D4E91E016101202077206880698007D5
:101D1000204602D0FFF7E7FF04E000F098F82046E5
:101D200000F096F8257720680169C943490717D460
:101D3000C168C943490713D46FF00401016102204F
:101D400020772068806910F4407F204602D0FFF79A
:101D5000CAFF04E000F07BF8204600F079F8257710
:101D600020680169C943090716D4C168C943090736
:101D700012D46FF008010161042020772068C06947
:101D80008007204602D0FFF7AEFF04E000F05FF8C6
:101D9000204600F05DF8257720680169C943C9062F
:101DA00017D4C168C943C90613D46FF0100101618B
:101DB000082020772068C06910F4407F204602D0B8
:101DC000FFF791FF04E000F042F8204600F040F8F1
:101DD000257720680169C943C90708D1C168C9438B
:101DE000C90704D1891E0161204600F033F820683C
:101DF0000169C943090609D4C168C943090605D464
:101E00006FF0800101612046FFF72EFE2068016916
:101E1000C943490609D4C168C943490605D46FF0CE
:101E200040010161204600F059FA20680169C94368
:101E300089060BD4C168C943890607D46FF0200115
:101E400001612046BDE87040FFF70FBE70BD7047CE
:101E5000704700002DE9F05FF4498046006809688A
:101E6000DFF8CCB3DFF8CCA30125002688426FD180
:101E70009AF80010F04A41F004038AF80030117813
:101E8000504609B1491E1170EC490A7812B10A781E
:101E9000521E0A70097809B9E9490D70E9490A78B2
:101EA00012B10A78521E0A70E74A117809B1491E28
:101EB0001170E64A117809B1491E1170E44A11788F
:101EC00009B1491E1170E3490A780AB1521E0A701D
:101ED000E14A117809B1491E1170E0490A78521C93
:101EE0000A70DF4A9178491CC9B29170CA0704D1BF
:101EF000DC4A157043F0080202700A22B1FBF2F3CB
:101F000002FB131119B9017841F020010170017829
:101F100041F080018AF80010D3490A78D348D44BA5
:101F2000552A08D006801E70D24A002012F83030A0
:101F3000442B0ED01FE00288571C0780CE48008833
:101F40008242F1D9CD4800780028EDD01D70EBE732
:101F500025E002EBC003DF796FB17F1E17F0FF07AA
:101F6000DF7108D19BF800C005FA00F72CEA070CD6
:101F70008BF800C05E71401CC0B20828D6D3C048A0
:101F80000278D30710D0BF4B1F78BF4B1B7857B1D7
:101F9000170605D522F0800202705520087003E074
:101FA00042F0800202700B70B849D8F8000009684E
:101FB000884263D1B648007828B9B648018811B183
:101FC0000188491E0180DFF8D09299F80030C3BB28
:101FD000B2484178817001784170B1490968C1F314
:101FE000C321017002780F2191430170DFF8B4E240
:101FF000002200BF05FA02F18778C9B290F801C04B
:102000000F400CEA010C674517D1477890F800C0E3
:102010000F400CEA010C67450FD19EF800C02CEA76
:10202000010C8EF800C090F802C00CEA010C9EF87A
:1020300000104CEA010C8EF800C0521CD2B2082AE3
:10204000D8D35B1CD9B289F80010072901D189F8CF
:1020500000609BF800709448DFF8449220210078DB
:10206000A9F10809474007F001024846FFF783F944
:10207000C7F3400210214846FFF77DF98B48D8F896
:102080000010006881427DD1754F89497878401CE5
:10209000C0B278700978002975D13221B0FBF1F215
:1020A00001FB12020AB98AF80150B0FBF1F201FB00
:1020B000120040B97F4805703D709AF8001041F059
:1020C00002018AF800107C480178042902D2491CD8
:1020D000017002E0794906700E7063494B78784AC6
:1020E0000D2B04D20378134493F898301BE04B78FF
:1020F0000C2B07D94B78102B04D20378134493F898
:10210000A43010E04B78102B09D066F307048B78CD
:102110000D2B0BD20378134493F89C3067E00378BF
:10212000134493F8A03063F30704F0E78B780C2B8B
:1021300007D98B78102B04D20378134493F8AC3072
:1021400055E08B78102B4ED064F307040B78E4B283
:1021500002EB830C037881461CF803000443887863
:1021600002EB8000C05C44EAD0004C78897802EB36
:102170008404E45C02EB8101C95C490744EA11680C
:10218000504C01E04FE022E0C4F8846104F5C274D1
:1021900000F050FC404600F04DFC99F8001005FAA4
:1021A00001F03F49091D0A684FF6F0731A400A60B2
:1021B000256000BF00BF00BF00BF266000BF00BF9A
:1021C00000BF00BF0A6800F00F0002430A603878C1
:1021D000002828D03C49087890B1401E10F0FF003C
:1021E000087008D00CE00378134493F8A830234318
:1021F00063F30704AAE73548017841F0080101704C
:102200003348017871B1491E11F0FF01017009D105
:1022100030490E7030490A7819490A7006701C4816
:102220007F2101703E70BDE8F09F00002004002077
:1022300072000020800000205B0000207800002059
:10224000620000206400002077000020AA00002027
:10225000A60000206A000020A900002067000020DE
:1022600052000020AD0000200B000020B200002032
:10227000AE000020AC030020B0000020B40000201D
:102280005F000020A3000020600000206804002000
:102290006D0000207E000020A500002082000020AC
:1022A000080C01407000002076000020B0040020DF
:1022B0006600002065000020A2000020A40000208D
:1022C0001A4C000800002142AC000020C20000208F
:1022D000680000206E000020A8000020704770B544
:1022E000040004D094F83D00002510B106E0012060
:1022F00070BD84F83C50204600F022F8242084F879
:102300003D002068C16821F40051C160204600F002
:10231000D7FD2068016921F490410161206841697D
:1023200021F02A0141612068C16841F40051C16077
:102330002564202084F83D0084F83E00002070BD14
:1023400030B585B000240094019402940394006891
:102350001449884224D11448816941F48041816143
:10236000816901F480410491816941F00401816136
:1023700080690E4D00F0040004904FF4007000904E
:10238000022001900320039069462846FEF7FEFED6
:102390002815CDE90004694628460294FEF7F6FEAA
:1023A00005B030BD00380140001002400008014077
:1023B0002DE9F843044690F83D001F4616460D46A9
:1023C00020284CD1C5B1BEB194F83C00012846D0BC
:1023D000012084F83C004FF00008C4F84080212020
:1023E00084F83D00FEF7CCFFA6848146E684A06811
:1023F000B0F5805F03D004E00120BDE8F8832069D8
:1024000028B12E465FF0000584F83C800EE00026DF
:10241000FAE78021204600F0AFFDA0B9AEB116F872
:10242000010B21684860E08C401EE084E08C4B4644
:102430004FF0000200970028EBD14FF040012046FA
:1024400000F09AFD30B10320D7E735F8020BC0F356
:102450000800E6E7202084F83D000020CDE70220B8
:10246000CBE7FEE7F0B55B488BB000240471C47184
:102470008471447144720472574A214601EB81030E
:10248000002002EB43031C54401CC0B20A28FAD3BC
:10249000491CC9B21E29F1D3504A002101EB810326
:1024A000002002EB43031C54401CC0B20A28FAD39C
:1024B000491CC9B21E29F1D30125E8034FF4704627
:1024C0008DE851000394CDE905540E27CDE9085756
:1024D0000795694642480495FEF744FA08B1FEF7AD
:1024E00007F90220CDE904503E48C021007841EAB6
:1024F000D001090201EB40108DE851000394CDE9B1
:102500000857CDE9064569463548FEF72BFA08B16C
:10251000FEF7EEF80094CDE9014605A90320CDE9C8
:10252000034581E83100CDE9085769462C48FEF79C
:1025300019FA08B1FEF7DCF8042005904AF26010A1
:102540008DE851000394CDE90857CDE90645694669
:1025500023480495FEF706FA08B1FEF7C9F8CDE95D
:102560000064029605A90520CDE9034581E8310004
:10257000CDE9085769461A48FEF7F4F908B1FEF7A5
:10258000B7F8062005904FF450408DE85100694699
:1025900013480394FEF7E6F908B1FEF7A9F805A978
:1025A0000A2081E831004EF22000CDE90204CDE995
:1025B00000040494CDE9085769460948FEF7D2F9AA
:1025C00013210748FEF74EF90548FEF72DFD0BB025
:1025D000F0BD000014000020E400002010020020E4
:1025E000EC030020580000202DE9F05FDFF808918F
:1025F00099F800C05FEA8C717BD5434CDFF80CB1D1
:102600008046217800223D4F3D4E3E489BF80030E9
:102610004FF0030E4FF0100AA1F11005B8F1010FB1
:1026200025D0B8F1020F38D0B8F1030F5BD15FEAC3
:102630000C7158D538482CF0080189F80010344E38
:10264000344C05780BB155B14DE08DBB02700120C3
:102650008BF80000314832700270227043E0027043
:102660002F488BF800203270007820703BE0FBB1DF
:10267000DFF8B080012B88F800E001D0042B15D1E1
:1026800032223A706E2D04D2491CC9B221707E29C3
:1026900017D3514684F800A013E04BB1DFF88480D3
:1026A000012B88F800E004D0042B02D0022B10D0BC
:1026B00019E032223A706E2DEBD2102907D0491E54
:1026C0002170317001221049FEF7A2F80BE07D2144
:1026D000F6E73A70317001220B49FEF799F821783C
:1026E000112000F06FFE99F8001021F0020189F826
:1026F0000010BDE8F09F0000C2000020680000202C
:102700005A00002000FC0108580000206E00002044
:102710006F0000205F00002061000020A300002067
:10272000A8000020AA000020F0B52E48002600686E
:10273000132101EAD02000F0030151EA90022C4954
:10274000294D2A4B0F7810D0104600245FEAC07C38
:1027500001D0761CF6B2641C4008E4B2032CF5D319
:10276000032E13D927F0020039E0AA20187027F0B1
:102770001000020962F3C300C20862F386108209E6
:1027800062F34510087000202870F0BD194C00203D
:10279000AA2AFAD0265C964203D0401CC0B2062872
:1027A000F6D3154C401C2278824201D02070F0BD37
:1027B000187882420AD01A701E20287027F0400034
:1027C00040F00200830963F345100870032AEED13C
:1027D00008780207EBD520F0040040F002000870F2
:1027E000F0BD0000080C0140AC000020AB00002050
:1027F000C2000020E44E0008690000200E4810B519
:102800000C4901602D21416000214FF4402281607C
:10281000C0E903124FF4801242610176417681765D
:10282000C17601774177FEF799FA002801D072B698
:10283000FEE710BD00640040EC0300202DE9F041EC
:1028400086B000242848009401940294039481697E
:1028500041F020018161816901F0200104918169C9
:1028600041F004018161816901F0040104918169F1
:1028700041F00801816180691C4F00F0080004905C
:1028800001224FF481713846FEF775FD0022FC21CC
:102890003846FEF770FDDFF8588000223F214046A1
:1028A000FEF769FD4FF4FF7001250226CDE9000512
:1028B000CDE9024669463846FEF768FC3F20CDE97F
:1028C0000005CDE9024669464046FEF75FFC4FF43D
:1028D0007840CDE90004694640460294FEF756FC74
:1028E00006B0BDE8F0810000001002400008014081
:1028F000000C014010B586B00024174800940194E4
:102900000294039404944FF080410594016041F6D1
:102910001F41C0E9011441F28731C0E90314846109
:10292000FFF7D8F808B172B6FEE74FF48050009078
:1029300069460948FFF76CF908B172B6FEE70494DE
:1029400004A905480594FFF791F8002801D072B654
:10295000FEE706B010BD00002004002010B586B0D0
:10296000002417480094019402940394049413499A
:102970000594016041F61F41C0E901141D21C0E921
:1029800003148461FFF7A6F808B172B6FEE74FF4AE
:102990008050009069460A48FFF73AF908B172B6CC
:1029A000FEE7049404A906480594FFF75FF80028A1
:1029B00001D072B6FEE706B010BD00000004004072
:1029C0006804002010B586B00024174800940194D4
:1029D00002940394049413490594016041F61F4145
:1029E000C0E901141321C0E903148461FFF772F8F0
:1029F00008B172B6FEE74FF48050009069460A486D
:102A0000FFF706F908B172B6FEE7049404A9064878
:102A10000594FFF72BF8002801D072B6FEE706B048
:102A200010BD000000080040B0040020FEE7FEE7F3
:102A30007047000030B50D490023C1F8943100BF44
:102A40000722012420FA02F505F00105C1F89C5186
:102A500000BFC1F8944100BF00BFC1F8943100BF6E
:102A600000BF00BF521EEDD530BD00000000214266
:102A7000704700002DE9F04F5848DFF85CA1DFF8FF
:102A800068B1027856489AF80030564904784FF0F9
:102A900000090BF1030E0BF10A00934203D1534BD3
:102AA0001B78A34225D0012C2DD0042C2BD0504BC9
:102AB0001D7805704C4D0E356E784670AD7885707A
:102AC0005D784D709B788B7080F803908AF80020B9
:102AD000464A147003788BF8003043788BF8013045
:102AE00083788BF802304B788EF801308B788EF833
:102AF0000230404A1378002B59D103231370027817
:102B0000552A4AD143E05523037080F80390A2F17F
:102B100010036E2B37D25D1C0A2395FBF3F696FB50
:102B2000F3F703FB17663036F7B295FBF3F6DFF8E1
:102B3000B8C003FB16530CF1060C3033DEB28CF830
:102B400001708CF802604F70DFF8AC808E7000234B
:102B500018F803C0674500D14370664500D1837003
:102B60005B1CDBB2242BF3D3642DAFDB234B1B7830
:102B700023B10123037081F80090A7E75623037067
:102B80004E230B70A2E72123437083709EE74278A7
:102B9000552A02D18278552A0BD081F8019081F80C
:102BA0000290552101704170817080F80390BDE85A
:102BB000F08F9EF801304B709EF802208A709BF8CF
:102BC000002002709BF8012042709BF80210817077
:102BD00080F80390EBE70000A000002058000020E0
:102BE0006E00002022000020010000206F00002065
:102BF000B6000020AA000020F44A00086600002069
:102C0000FEF7F8BB30B58FB028216846FDF734FBDE
:102C100014210AA8FDF730FB0920012100904FF490
:102C20008030002404910691CDE901040225CDE90C
:102C300007504FF4E01009906846FEF771FD08B1A7
:102C400072B6FEE70F20CDE90A054FF48060CDE9AA
:102C50000C4002210AA80E94FEF776FC002801D051
:102C600072B6FEE70FB030BD704700000148FFF7B5
:102C70003BB80000200400200148FFF735B80000F1
:102C8000680400200148FFF72FB80000B0040020BE
:102C9000F0B50268164B174C174D4FF0804798421D
:102CA00005D0B84203D0A04201D0A84203D122F0FF
:102CB00070064A683243984205D0B84203D0A04219
:102CC00001D0A84203D122F44074CA6822434C695F
:102CD00022F08002224302608A68C2620A6882622D
:102CE000984201D10969016301214161F0BD0000F1
:102CF000002C0140000400400008004010B584682A
:102D000042EA032224F47F440A432243826010BD36
:102D1000826822F070020A4342F007018160704726
:102D200010B5036A046A24F001040462846924F083
:102D3000F00444EA021423F00A020A4384610262A6
:102D400010BD10B5036A23F0100303628369046A9F
:102D500023F4704343EA023224F0A00343EA011152
:102D60008261016210BD00002DE9F05FDFF828A14B
:102D70009AF80000002871D04FF400414748FEF750
:102D8000F5FA474801784748B9B347494A78303A95
:102D90004270C978303981704FF0550E834680F803
:102DA00000E0DFF808C10025414F424B8CF800508D
:102DB0000A263E701978DFF8EC90A9F10B0999F812
:102DC0000000814264D01878C04300075DD0002025
:102DD0003949012293F8008002FA00F414EA080F3E
:102DE0003DD08CF800503E700C7048B1012813D0D3
:102DF00002281FD0032843D126E0FFE72F49C5E76B
:102E00004FF056085C468BF800804FF01E088BF898
:102E100001804FF019080AE04FF057085C468BF824
:102E200000804FF00D088BF801804FF0170884F8F0
:102E3000028025E08BF800E04FF00F088BF801804E
:102E40008BF8028008241AE08BF800E04FF0150898
:102E50008BF801808BF80280042410E01AE002282D
:102E600006D291F8008028EA040881F8008007E083
:102E70000C7802D124F0080401E024F004040C7062
:102E800000F10100C0B20428A4D3197889F8001019
:102E90008AF80050BDE8F09FAD000020000C014012
:102EA000660000200B000020804D0008A3000020D9
:102EB0006A00002070000020720000207A4D000897
:102EC00070B5044600680169E26821F4405111437D
:102ED00001612169A0680843616908432168CA68E3
:102EE00041F20C639A430243CA6020684169A269B7
:102EF00021F44071114341611E492068884202D18A
:102F0000FEF7C8FB01E0FEF7B5FB00EBC00101EBEB
:102F10000012606864218000B2FBF0F3B3FBF1F3B0
:102F20006FF018067343B2FBF0F5B2FBF0F605EB59
:102F30008305322303EB0515B5FBF1F5B6FBF1F67E
:102F400005F0F00505EB0615B2FBF0F6B2FBF0F06C
:102F5000B0FBF1F06FF01802504306EB800003EB7A
:102F60000010B0FBF1F0216800F00F0028448860E9
:102F700070BD0000003801402DE9F0419846174629
:102F80000E460446069D1DE0681C1BD02DB1FEF7C1
:102F9000F7F9A0EB0800A84214D92068C16821F411
:102FA000D071C1602068416921F001014161202098
:102FB00084F83D0084F83E00002084F83C000320A3
:102FC000BDE8F0812068006836EA000004D00020E7
:102FD000B842D9D00020F3E70120F9E70148FDF716
:102FE000BFBD0000EC0300200148FDF7B9BD0000A3
:102FF000EC030020FEE70907090E002804DB00F1BE
:10300000E02080F80014704700F00F0000F1E0208D
:1030100080F8141D7047000030B428494A791E2AF0
:10302000FCD04A7AB82302EB8204254A02F8143015
:10303000244B4C7A1B7804EB840402EB4404637049
:103040004C7A802304EB840402EB4404A3701E4BEF
:103050001C884D7A05EB850502EB4505EC701B8855
:103060004C7A1B0A04EB840402EB44042371174BD3
:103070001B784C7A04EB840402EB440463714B7AB2
:1030800003EB830302EB430398714C7A030A04EBCE
:10309000840402EB4404E3714C7A030C04EB8404D3
:1030A00002EB44042372497A000E01EB810102EB2A
:1030B0004101487230BC00F00BB800001400002041
:1030C00010020020580000207A000020A1000020FB
:1030D00030B52F4C87B0A089401CA0812D480078C6
:1030E000002844D02C480078552840D0607A00252C
:1030F0001D283ED0607A401C607201212748FDF7F0
:10310000A8FC207A00EB8001254800EB41014978BA
:10311000227A02EB820210F8122002F0F00201EB98
:10312000C2010091217A01EB810110F81110029582
:1031300001F00F01CDE90351217A154A01EB81011C
:1031400000EB410006AB50F8021FC4F82E10406897
:10315000C4F832002E3269461048FDF795FB50B195
:103160006079401C607101210C48FDF77BFB07B0C2
:1031700030BD6572C1E76089401C6081207A1D28DE
:1031800003D0207A401C2072EDE72572EBE70000A7
:1031900014000020630000206C000020EC030020DD
:1031A0001002002008B50B0A8DF800308DF80110D0
:1031B000110A8DF802108DF803200422694600F0F0
:1031C0006BF808BD8F280BD004DC022808D0052836
:1031D00004D105E0902803D0912801D00020704749
:1031E000012070472DE9F047284D95F8201000295F
:1031F00041D10127322185F82010A97D6A7AB8468D
:1032000011434FF000020BD1214955230B701A23B3
:103210004B7014238B70AB7BABB1EA7109782972C8
:103220009146EA72002826D01A4E002416F834007F
:10323000FFF7C8FF002806EBC40007D0C179B943E7
:10324000C1710DD013E085F80780E7E78178394236
:103250000DD016F834100E2902D1417810290CD067
:10326000AA7E08FA04F18A43AA7680F80590641CC5
:10327000E4B2082CDAD3BDE8F087AB7E08FA04F29A
:103280001A43AA7680F80580F1E700005800002074
:103290000B000020AC03002030B599B05A238DF804
:1032A0000030A5238DF80130D31C8DF80230822325
:1032B0008DF80330030A8DF804308DF805000020E6
:1032C0006B4603E00C5C1D18401CAC719042F9DBAE
:1032D000921D92B2642369460248FFF769F819B05B
:1032E000012030BDF804002070B53148552202702D
:1032F0000E2141700F2181700021C1702D4B2D20B6
:10330000587098702C480423C37781740174322359
:1033100080F82030C18481728175C1758171847B90
:103320000123ECB3C1710272437040F2A112026337
:10333000214A4FF40073343213804FF440735380AA
:10334000C17601771D4BC174002203F1380400BF20
:10335000C2EBC205EE18717104EBC20671715955CA
:1033600004F83210521CD2B2F171082AF0D3124B79
:1033700000223A33DC1D9954A154521CD2B2072AC0
:10338000F9D34177817781760D4A1268C2F3C3225F
:103390000276037E084A2A321370037E537000E0DF
:1033A00003E0037E9370417670BDC371BBE70000FC
:1033B0000B00002022000020580000207403002091
:1033C000080C014030B4164A53791E2BFCD0537AB6
:1033D000F82403EB8305134B03F81540557A642456
:1033E00005EB850503EB45056C70547A04EB84040A
:1033F00003EB4404A070507A00EB800003EB400024
:10340000C17004200021547A04EB840403EB4404CB
:103410002154401CC0B20928F5D930BCFFF758BE72
:103420001400002010020020FDF7ECFFFFF7EAFB7C
:10343000FFF704FAFFF7E2F9FFF75CFAFFF78EFAFD
:10344000FFF7C0FAC148C0490426C0E9001640F69B
:10345000FF718160FDF79AFF08B172B6FEE7BB48C5
:10346000BB49E430002401604FF4E131C0E90114AC
:103470000C21C460C0E904418461C461FEF72FFFE0
:1034800008B172B6FEE7B148FDF7ADFFB14D0022BD
:1034900001212846FDF76FFF002202212846FDF793
:1034A0006AFF002204212846FDF765FF002208215B
:1034B0002846FDF760FF01221102A748FDF75BFFD8
:1034C000A2480C30FEF778FBA0485430FEF774FB9E
:1034D0009E489C30FEF770FBA04D287D5A2813D0E3
:1034E000552811D0AA2028759848FDF77CFFAC73A9
:1034F00001229B499948FDF77FF9012068702878DF
:103500007F2806D828B106E0287940F010002871FD
:10351000E8E7102028708D48FDF765FF6C75287866
:10352000A870FFF7E1FE8948FDF75DFFFEF79AFFFF
:103530000520FDF7C5FD0420E8777F20894E6875DA
:103540008248FDF750FF307808B100F061F9688CCF
:1035500028B1E87818B96C848348FFF75DFDA87A34
:1035600018B1AC720020FFF73DFEE87F38B9E87A69
:1035700028B1287B18B90420E87700F077FEA88CE2
:1035800018B101F0C3F92C71AC84287D55280BD1FA
:10359000287B48B9FEF766FF287940F010002871B3
:1035A00048F24010A8842C75687D7F28C8D032204E
:1035B00085F82000A146AC726448FDF714FF6C76D4
:1035C00000F07AFEDFF89481DFF880A1B34608F1BD
:1035D0002808AAF1A00A5D48FDF705FF9BF8000046
:1035E00008B100F015F998F801004446C00703D06F
:1035F000FCF732FF84F801902078000705D5FDF72D
:1036000039F8207820F0080020702078A0460006C5
:103610000AD5FCF76BFF5548FCF7C2FF98F800107D
:1036200021F0800188F80010687BB0B1FFF77CF8CA
:10363000687CFEF7D9FFA87D10B1FFF71BFA0AE0FE
:10364000687DF02805D0687A012804D1E87B0A2833
:1036500001D9FFF789FB85F80D90E87F48B9E87A32
:1036600038B1287B28B9A87D18B90420E87700F084
:10367000FDFDA87A20B185F80A900120FFF7B2FD80
:103680006B7D7F2B10D1297E687F52464140002000
:1036900021FA00F4C0EBC0061644401C04F00104FB
:1036A000C0B274710828F3D3052B94D12E7E687FA5
:1036B0004640687E86428ED05FF0000426FA04F011
:1036C00000F00101687EE04000F0010088421DD05A
:1036D000C4EBC40202EB0A0779711AF802C0BCF10C
:1036E000000F13D01D4A00203A323B5C1354401C9B
:1036F000C0B20728F9D3BCF1020F0DD0BCF1050F01
:1037000000D119B115483A3001F044F9641CE4B213
:10371000082CD3D36E765EE7A87D0028F6D198F802
:103720000000800703D4F8786979884203D00B48F9
:103730003A3001F02FF998F8001021F0020188F8D2
:103740000010F8786871E1E70030004014040020B0
:1037500000380140000C01400008014058000020E2
:1037600000FC0108180000200000040522000020D1
:1037700078B5264D00EB400605EB8602481E14790D
:1037800003D300FB04F3DBB200E0002335F826503E
:10379000B5F5C34F1FD00ADC05F6EA75B5F500553F
:1037A00026D005F6B665B5F5C04F07D10DE005F595
:1037B000ED55B5F5004508D0202D12D00020009021
:1037C0009168002906D06A461CE091680978C140DA
:1037D000C807000C78BD9268C1EBC100C01F105C27
:1037E00078BD90686FF0070202EBC101405C78BDC4
:1037F00046F2A81000EB014078BD1D184D5D155430
:10380000401CC0B2A042F8D3009878BDA04D00087B
:103810002DE9F04FFB4C87B0A07900EB8001FA480E
:1038200010F811C0FA49DFF8F4B3F84E55270A78BA
:10383000DFF8E083DFF8E0E300259BF800304FF08D
:103840000A0ABCF1C00F35D00ADCF549BCF1000F03
:103850007DD0BCF1800F0AD0BCF1A00F29D127E3A5
:10386000BCF1D00F75D0BCF1F00FF7D146E2A179D1
:1038700001EB810100EB41018978A27902EB820220
:1038800000EB4202D278002913D031780529E5D126
:10389000E44A0021A37903EB830300EB43030B44C9
:1038A0009B785354491CC9B20729F3D3DD4800F073
:1038B0003DFDB6E3A17901EB810100EB41018F7879
:1038C000DFF864B307F0E003D849DFF864C3DFF83A
:1038D0006493D94E402B78D003DCCBB3202B04D19A
:1038E00005E0602B72D0802B71D0D44816E0A1790E
:1038F000C54801EB810100EB4101B1F80380A179DA
:1039000001EB810100EB41004079BE4B0146009084
:10391000DB1C3A46404600F063FC10B1FFF77CFB2D
:103920007FE3B80732D5A079B74E00EB800006EBF5
:1039300040000099D0F80620E07801F057F8002800
:10394000ECD1A07900EB800006EB400002E08FE1B3
:1039500026E047E3D0F8063041466020009A00F0A8
:10396000ADFBA8F51051CA39A3D1B54801220178A1
:10397000B44811B1012907D002E0A549097819B16D
:1039800005700078B049B0E10270FAE700234146C3
:103990006020009A00F092FBA9F800800098AEE049
:1039A000B9F80020002A75D0FA0674D4FA070FD0AF
:1039B000B9F80020113AB2F5C0420ED0EF2A1ED05D
:1039C000A2F58072EF3A61D13DE065E0A8E013E135
:1039D0009E4800BFFFF720FB0EE1924A0021A37929
:1039E00003EB830300EB43030B44DB785354491C84
:1039F000C9B20729F3D38B4800F098FC46E00022B7
:103A00003378A779C3EBC3030B44134413F8073C83
:103A100007EB870700EB47071744FF78BB420DD041
:103A2000A37903EB830300EB43031344DB7837787C
:103A3000C7EBC7070F44174407F8073C521CD2B224
:103A4000052ADDD322E000213278A3790CEBC202F3
:103A50000A4412F8082C03EB830300EB43030B44E6
:103A6000DB789A420CD0A27902EB820200EB420290
:103A70000A44D27833780CEBC3030B4403F8082CC8
:103A8000491CC9B20529DFD300F016FC00221146FB
:103A90002020AFE04BE048E0A17901EB810100EB91
:103AA0004101B1F803100191A17901EB810100EB13
:103AB00041004079534B80460146DB1C3A46019851
:103AC00000F08EFB00287FF411AFE078604900EB36
:103AD000400201EB820211799378042913D9B8F1DD
:103AE000000002D10BB1024615E00B460246402011
:103AF000019900F0E3FA0198A9F8000040463070FF
:103B00008BF800A08DE2B8F1000100D113B9FFF7E6
:103B10002FFE034642464220019900F0CFFA80E290
:103B2000B9F8000018B1F80603D54A4852E74A48E8
:103B300050E7B9F8000046F21007C31BB84246D060
:103B40000ADC00F6F87005A9B0F500500CD0012889
:103B50001CD0022850D12BE0012B3AD0F02B3BD0C7
:103B6000B3F5F87F48D13FE03C4B3D4F002052B1C8
:103B700017F800C001F800C0401CC0B20628F6D3F8
:103B80000A46062112E013F800C0F3E7354B364F22
:103B9000002042B117F800C001F800C0401CC0B2BC
:103BA0000628F6D30DE013F800C0F5E7012021E068
:103BB0000020734642B11F5C0F54401CC0B206285F
:103BC000F8D30A460521F1E718F80070F4E7274A10
:103BD00000E0144A0721E9E73078C0EBC000421842
:103BE00007210120D21F05E0307807210CEBC0022D
:103BF0000120083A00F0B4FAA9F8005035708BF8AB
:103C000000500EE214000020E40000206D000020AF
:103C1000660000207A4D0008804D00085800002002
:103C20000B000020990000205B000020740300209E
:103C3000AC0300207A000020A10000200100040550
:103C40005E0000205F000020A80000201200070690
:103C5000A04D000800000305000001068C4D00087F
:103C6000984D0008864D0008924D000892000020F3
:103C700094F806C00CEB8C0C00EB4C0C9CF803C0C9
:103C8000BCF1000F01D09C45BBD1A37903EB8303AA
:103C900000EB430080788228B3D006DC012809D0ED
:103CA0008028AED08128ACD107E0F0280AD0F228D5
:103CB000A7D10CE005203070B3E1EE480570FDF7A8
:103CC00031FCAEE1F02030700620EB490DE072B11E
:103CD0009EF80120303A4A709EF803003038887010
:103CE0000F70E648E64905700420087099E198F8DD
:103CF00001003038487098F80300EFE7A17901EB34
:103D0000810100EB410149786529D5D1A179864629
:103D100001EB810100EB410090F80280DFF8649331
:103D2000DFF864C3D949DA48B8F1110F09D0B8F106
:103D3000120F47D0B8F1130F7ED0B8F1140FBBD1DA
:103D4000A3E00223037089F80050A07900EB800003
:103D50000EEB4000C6788BF80060A07900EB800085
:103D60000EEB40008679CB480670A67906EB8606F6
:103D70000EEB460636794670A67906EB86060EEB04
:103D800046035B798370E146467890F802C00023D1
:103D900019F80380464500D14B70C44500D18B70A3
:103DA0005B1CDBB2262BF3D312B10178202900D89B
:103DB00007702421202E00D84170BCF1200F00D8BC
:103DC00081702EE103220270B348A3F110026E2A23
:103DD0000570B048077054D2B04A12780F3A7D2B64
:103DE00017D392FBFAF70AFB1722422330324370B3
:103DF000D2B282705FF000001CF80060B34200D1C4
:103E00004870B24200D18870401CC0B22428F3D35D
:103E100007E1732B19D392FBFAF70AFB1722412310
:103E200030324370D2B282705FF000001CF8006044
:103E3000B34200D1487000E02AE0B24200D188705D
:103E4000401CC0B22428F1D3EBE0534692FBF3F6BA
:103E500092FBFAF730360AFB1722F6B23032467080
:103E6000D2B282705FF000001CF800309E4200D198
:103E700048709A4200D18870401CC0B22428F3D305
:103E8000CFE05621417057219AE7042101700CE0E0
:103E90007849A5220A700178022905D17F21317065
:103EA0007F490A788BF80020057089F80050B8E047
:103EB000A27902EB820200EB42025278A37903EB73
:103EC000830300EB43039B780B2A31D183BBA27998
:103ED00002EB820200EB42029279724B02F0F00296
:103EE000714E1A700022A37903EB830300EB4303A6
:103EF00013449B78B354521CD2B2082AF3D36B48B4
:103F0000B37903706A48F27902706A4812F0600F60
:103F1000068802D046F0010601E026F00106068080
:103F20001E0706D5960704D5068846F0020603E06C
:103F300077E0068826F002060680DE06068802D5AF
:103F400046F0040601E026F0040606801E070688F7
:103F500008D546F008060680560706D5068846F0BE
:103F6000200605E026F008060680068826F02006D2
:103F700006801606068802D546F0400601E026F0C7
:103F800040060680D607068802D046F4806601E027
:103F900026F4806606801E06068802D546F4005682
:103FA00001E026F4005606809B0600D54AB103883E
:103FB00023F0800303801006C87806D540F0020085
:103FC00005E0038843F08003F4E720F00200C870A6
:103FD000D007C87802D040F0010001E020F00100D5
:103FE000C8701EE0A17901EB810100EB4101497825
:103FF0000B2916D12B4A00212832A37903EB830326
:1040000000EB43030B449B785354A37903EB8303E6
:1040100000EB43030B449B795618491C3371042968
:10402000EBDB12212448FCF714FDA0791D281FD0DA
:10403000A079401CA0712079401E2071E579267975
:1040400012211D48FCF70EFCA079854201D21E35D5
:10405000EDB21E20B6FBF0F100FB1160A179691AE8
:10406000884202D003485A21017007B0BDE8F08FA2
:10407000A571E0E76C0000206A000020A30000208A
:10408000770000206F000020F44A00080F00002095
:104090006E000020B6000020A00000205800002084
:1040A0005A00002022000020BA000020C300002097
:1040B000C4000020CA000020EC030020F0B4254C0E
:1040C00065791E2DFCD0657AB82605EB8507224D53
:1040D00005F81760214E677A367807EB870705EBFE
:1040E00047077E70667A06EB860605EB4606B070DB
:1040F000607A00EB800005EB4000C170080A617A2D
:1041000001EB810105EB41010871607A00EB800051
:1041100005EB40004271607A00EB800005EB400047
:104120008371617A180A01EB810105EB4101C871C5
:10413000617A180C01EB810105EB41010872617A8B
:10414000180E01EB810105EB41014872F0BCFEF74E
:10415000BFBF000014000020100200205800002003
:10416000F0B41C4C63791E2BFCD0637AB82503EBAA
:104170008306194B03F81650184D667A2D7806EB16
:10418000860603EB46067570657A05EB850503EB3D
:104190004505A87000200AE012F8015B667A06EB7C
:1041A000860603EB46060644F570401CC0B2884202
:1041B000F2D3002008E0627A02EB820203EB4202B3
:1041C0000A44D070491CC9B20729F4D3F0BCFEF7E9
:1041D0007FBF0000140000201002002058000020C3
:1041E000F0B5002426461D4D4FF6FF7E2BE087429A
:1041F00027D105EB8C06B6788E4221D30120B0EB97
:10420000521F1AD104EB440005EB800514482E79A7
:10421000920707D5042E07D9002910D1AA78002AC1
:104220000DD001E0042E0AD90D48EA78801C002A3E
:1042300005D011B9A978002901D11C700020F0BD6A
:104240000126641CE4B204EB440C35F82C7077456D
:10425000CDD10EB10348F0BD0348F0BDA04D00081C
:104260000000010611000906000002060E4841790F
:104270001E29FCD0417AE12201EB81030B4901F8B0
:1042800013200B4A437A127803EB830301EB4303B9
:104290005A70084A407A127800EB800001EB400027
:1042A0008270FEF715BF00001400002010020020ED
:1042B000580000206D00002030B51A490020087019
:1042C000194B012213F830408F2C25D006DC022C2C
:1042D00022D0052C20D00E2C14D104E0902C1BD021
:1042E000912C0FD118E003EBC00464780A2C13D092
:1042F00004DC012C10D0092C04D10DE09A2C0BD039
:10430000A12C09D00D7802FA00F4A5430D70401CD1
:10431000C0B20828D6D330BD0D7802FA00F42C4381
:104320000C70F4E774000020AC0300202DE9F04786
:104330000678014600253046FEF744FFFE4CFF4B51
:104340000122E8B3022E05D04878FF284FF0000084
:1043500002D024E0C878F8E714F83070B74218D1DA
:1043600004EBC00797F806C0BCF1010F11D197F814
:1043700007C091F802803CEA080C87F807C008D112
:1043800093F8008002FA00FC28EA0C0883F8008009
:104390007D71401CC0B20828DED3BDE8F0870E78DE
:1043A00014F83070BE4240D104EBC0064F7896F846
:1043B00001C0674539D1CF7896F803C0674500E062
:1043C00038E032D18F7896F802C017EA0C0F2CD063
:1043D00096F804C091F804802CEA080C5FEA0C7C83
:1043E00023D196F806C0BCF1010F1ED191F805C08B
:1043F0005FEACC7C0FD093F8008002FA00FC4CEA14
:10440000080C83F800C096F807C04CEA070C86F841
:1044100007C0727109E0F57193F800C002FA00F765
:104420002CEA070C83F800C07571401CC0B2082844
:10443000B5D3B2E7C24FDFF80CC3C348402E10D04B
:10444000422E4AD0412E7ED0492E7CD0442E73D0AD
:104450000E2E72D0142EFCD0152EFAD0452E6DD013
:1044600042E08A783B789A4297D19CF80020002A53
:1044700093D1B64B0A7949795A70997022B90C00D8
:1044800002D12D245C709C700023B14C5525E65C54
:10449000B24201D1437007E062B1202A0AD01EB1B6
:1044A0005B1CDBB25F2BF2D30022A35C994203D1E9
:1044B000827009E04570F7E76BB161B120290AD03D
:1044C000521CD2B25F2AF0D381785529B1D126216E
:1044D0004170272181E18570F6E78E783F78BE42F2
:1044E00002D19CF800607EB100200E7814F8307084
:1044F000BE4208D104EBC0064F7896F801C067456C
:104500007DD0002FFCD0B6E14A79C2B14A7802F0E2
:10451000030202700278022A00D9057003788D4ADE
:104520007BB14978C1F301111170017855310170E7
:104530000078894976E106E0CFE014E15AE10570A0
:10454000E8E71570F1E74878844F412E18D0492EDE
:104550008AD100073FF46DAF00200E7814F830C008
:1045600066450CD104EBC00691F802C096F80280B3
:10457000C44504D196F806C0BCF1010F5DD09DE0A2
:1045800000200E7814F830C0664551D104EBC00607
:1045900091F802C096F80280C44549D196F806C049
:1045A000BCF1010F44D191F801C096F80180E146B9
:1045B0000CEA080C5FEA8C7C02D1B8F1000F2ED116
:1045C00091F803C096F80380C44505D0BCF1FF0FF5
:1045D00002D0B8F1000F22D191F8048096F804C0FF
:1045E00018EA0C0F02D1BCF1000F18D197F800C0E7
:1045F000BCF1000F0ED05FEA191C10D10AE013E1E4
:1046000093F8008002FA00FC4CEA080C83F800C022
:1046100072710DE091F805C05FEACC7CF0D193F89F
:10462000008002FA00FC28EA0C0883F8008075710B
:10463000401CC0B20828A4D3AFE691F801C096F898
:104640000180E1460CEA080C5FEA0C7C3CD091F852
:1046500003C096F80380C44502D0BCF1FF0F33D1EC
:1046600091F804C096F804801CEA080F2CD097F843
:1046700000C0BCF1000F03D05FEA191C24D10FE089
:1046800091F805C05FEACC7C1ED000BF93F8008093
:1046900002FA00FC4CEA080C83F800C072710DE0CD
:1046A00091F805C05FEACC7CF0D193F800C002FA23
:1046B00000F82CEA080C83F800C07571401CC0B2E9
:1046C0000828FFF44AAF68E693F8008002FA00FC7D
:1046D00028EA0C0883F80080EFE700200D7814F832
:1046E0003060B54225D104EBC0054F786E78374075
:1046F000BF0700D1EEB9CF78EE78B74202D0FF2FD6
:1047000000D0B6B98E78AF78BE4212D10F792E792B
:10471000374200D16EB9AE79012E0AD14E79F60733
:1047200007D01F7802FA00F63E431E701426EE7181
:104730006A71401CC0B213E0AC030020720000207C
:10474000590000206E0000200B00002022000020F5
:10475000F44A0008A300002060000020A700002009
:104760000828BBD319E64A788B2A27D009DC454BA9
:10477000102A34D0812A21D0862A10D0882AA2D1AA
:1047800003E08F2A01D0902A9DD13F48882A23D068
:104790008F2A1ED0902A96D149790170FDE549797A
:1047A0000029C17804D041F00201C170012203E068
:1047B00021F00201C1700022042116E0497900298C
:1047C000C17802D041F0010101E021F00101C17086
:1047D000E3E549794170E0E549798170DDE54879A3
:1047E00008B1012200E000221021BDE8F047184680
:1047F000FCF7C1BDC8784B7840EA0320A0F51453FC
:104800000D3BAFD14879214BC0F30111197000F075
:104810000F011F4BC1EB0111C90019801D4980090F
:104820000A701D490870B8E5CF7896F803C067454F
:1048300021D18F7896F802C067451CD191F804C049
:1048400037791CEA070F00D1AFB9B779012F12D120
:104850004F79FF0708D093F800C002FA00F747EA43
:104860000C071F70727106E01F7802FA00FC27EA3D
:104870000C071F707571401CC0B20828FFF435AEDC
:104880008BE500000008014014000020AF0000206C
:10489000B0000020B4000020B500002008B50021C1
:1048A00000918DF800108DF8010002280DD0032230
:1048B000042812D003280CD005280ED0062811D0C9
:1048C000072813D0082815D019E08DF80010012012
:1048D00013E08DF8001002200FE08DF800108DF825
:1048E00001200CE08DF80010042006E08DF8001087
:1048F000052002E08DF8001006208DF8010002224C
:10490000694641F20500FEF7C7FC08BD30B41C4AF9
:1049100050791E28FCD0507A182100EB80031948EA
:1049200000F813101849537A097803EB830300EB5E
:10493000430359701549537A098803EB830300EB4D
:1049400043039970537A090A03EB830300EB430393
:10495000D9700F49537A097803EB830300EB4303C3
:10496000197105210023547A04EB840400EB4404FC
:104970006354491CC9B20929F5D930BCFEF7A8BB5C
:104980001400002010020020580000207C000020AD
:104990005C00002030B4124A51791E29FCD0537AB1
:1049A000972103EB83040F4B03F814100E49547A3C
:1049B000097804EB840403EB440461705FF00001A8
:1049C00010F8014B557A05EB850503EB45050D44C1
:1049D000AC70491CC9B20729F2D330BCFEF778BBD2
:1049E0001400002010020020580000202DE9F74399
:1049F0003A4A00EB400502EB85064B1E347903D39F
:104A000003FB04F7FFB200E00027DFF8D08000EBE3
:104A1000400032F825C008EB80000CF5F55C80689A
:104A20004FF00109BCF5004C10D0DDF80880BCF156
:104A3000200F08F0FF081DD0BCF5807F06D0BCF524
:104A4000907F1CD070B3002002A929E00278029C5C
:104A500022FA03F3C4F3C03403F00103A34207D0E6
:104A60000123491E8B4014B11343DAB200E09A438C
:104A7000027030E078B3C1EBC101C91F04E050B34C
:104A80006FF0070202EBC10100F8018023E00B5C2C
:104A900007EB0008D6F808C0401CC0B20CF808307C
:104AA000A042F4D332F82510A1F514500D3812D1DC
:104AB0000B480C4A0078C0F30111117000F00F018F
:104AC000094AC1EB0111C9001180084A084980094F
:104AD00082F8009008700020BDE8FE83A04D000819
:104AE0006B000020AF000020B0000020B4000020C8
:104AF000B500002032333435363839414546485008
:104B0000524247534B3031374344494A4C4D4E4F44
:104B1000545155565758595A200055554001D4D430
:104B2000D495C181959595D55401D5D5D595D5C147
:104B3000DC1D15545C1D95D495C09555C1C11C1C38
:104B40001C18280A0154634143435555D5C0D581EB
:104B500035C216161C0841554155495D22222208CE
:104B6000343488888080594D4141D14CD145C94168
:104B70009945994D5141D94DD94500004CD100007E
:104B80000000000000000000000000000000000025
:104B90004C99000000000000000000000000000030
:104BA0000000000049890000000000000000000033
:104BB0000000000000000000459900000000000017
:104BC0000000000000006000C000100008000400A9
:104BD00010004000000100040010004001000080AF
:104BE00080000200080020000002000800200400ED
:104BF000100040000001000400100040010000808F
:104C00008000020008002000000200080020600070
:104C1000C00010000800E000FFFF0B01101A1A107E
:104C2000101A101011111A10010B1B11010B1B117E
:104C3000111B1A10111B1111111B0B01010B01018A
:104C4000010B111111110101111B0109111B1E147E
:104C5000141E1B11010B1A10020A010909011B1174
:104C6000111B101018100404080A0B01010B1E146C
:104C7000141E0E04040E1B1110100B010101111162
:104C80001B11111913111B11111B0404040E1B1904
:104C9000111B1B11111101030901111B1111000A34
:104CA0000A0004040A000A02080A000000000000CA
:104CB00000000000040404040000000000040000E0
:104CC00004000004000004000000040000000000D4
:104CD00000000000000000000000000000000000D4
:104CE00000000000000000000000000000000000C4
:104CF00000000000000000000000000000000000B4
:104D000000000000000000000000000000000000A3
:104D10000000000000000000000000000000000093
:104D20000000000000000000000000000000000083
:104D30000000000000000000000000000000000073
:104D40000000000000000000000000000000000063
:104D50000000000000000000000000000000000053
:104D60000000000000000000000000000000000043
:104D70000000C8C8C8C83838383856312E3041000D
:104D800056312E34420056312E33000056475335EB
:104D9000303256312E310000472D373432000000BA
:104DA0000010000004000000880000200110000036
:104DB000010000005C000020081000000600000058
:104DC0008C4D00080910000005000000864D000809
:104DD0000A100000050000007A4D000816100800B7
:104DE000040000000000000018100401040000008E
:104DF0000000000000600300020000008C000020A2
:104E0000016000010100000059000020206108013C
:104E100004000000000000004061080104000000E0
:104E2000000000006061080104000000750000201F
:104E300080610801040000007A030020206208015C
:104E400004000000000000004062080104000000AF
:104E500000000000606208010400000076000020ED
:104E60008062080104000000B2030020106000000E
:104E700007000000000000001160000107000000B2
:104E800000000000006108010700000000000000B1
:104E9000006208010700000000000000FD2F000074
:104EA0000100000070000020FE2F00010100000042
:104EB00072000020CA240001010000005E000020F2
:104EC000EE24000101000000A70000200D250001D4
:104ED000010000006B000020FFFF00000000000048
:104EE00000000000010204AA000000000000000011
:104EF0000102030406070809000000000102030480
:104F0000204F000800000020E400000028010008F5
:104F100004500008E4000020DC0A000044010008FE
:104F20000000000000000000000000000000000081
:104F30000000000000000000000000000000000071
:104F40000000000000000000000000000000000061
:104F50000000000000000000000000000000000051
:104F60000000000000000000000000000000000041
:104F70000000000000000000000000000000000031
:104F80000000000000000000000000000000000021
:104F90000000000000000000000000000000000011
:104FA0000000000000000000000000000000000001
:104FB00000000000000000000000000000000000F1
:104FC00000000000000000000000000000000000E1
:104FD00000000000000000000000000000000000D1
:104FE00000000000000000000100000001000000BF
:104FF00000000000010000001000000000000000A0
:045000000024F40094
:04000005080000ED02
:00000001FF
