:020000040800F2
:10000000500B0020890100088F250008DF1F000821
:100010008D250008A3030008F12900080000000056
:10002000000000000000000000000000D1250008D2
:100030005904000800000000912500081927000855
:10004000A3010008A3010008A3010008A301000800
:10005000A3010008A3010008A3010008A3010008F0
:10006000A3010008A3010008A3010008A3010008E0
:10007000A3010008A3010008A3010008A3010008D0
:10008000A3010008A3010008A3010008D929000862
:10009000E5290008A5030008B1030008A301000832
:1000A000A3010008A3010008A3010008A3010008A0
:1000B00085270008912700089D270008A301000854
:1000C000A3010008A3010008A3010008A301000880
:1000D000A3010008A3010008A3010008A301000870
:1000E000A3010008A3010008A301000800F002F822
:1000F00000F03AF80AA090E8000C82448344AAF188
:100100000107DA4501D100F02FF8AFF2090EBAE885
:100110000F0013F0010F18BFFB1A43F0010318473B
:100120002845000048450000103A24BF78C878C12F
:10013000FAD8520724BF30C830C144BF04680C60ED
:10014000704700000023002400250026103A28BF35
:1001500078C1FBD8520728BF30C148BF0B60704739
:100160001FB51FBD10B510BD00F0E2F81146FFF736
:10017000F7FF02F019FE00F000F903B4FFF7F2FFF9
:1001800003BC00F007F90000094880470948004710
:10019000FEE7FEE7FEE7FEE7FEE7FEE7FEE7FEE737
:1001A000FEE7FEE704480549054A064B7047000094
:1001B00081270008ED00000850050020500B0020AA
:1001C0005007002050070020B2F120030AD5C2F1E9
:1001D000200320FA02F001FA03F321FA02F140EAC7
:1001E0000300704721FA03F04FF000017047032A23
:1001F00040F2308010F0030C00F0158011F8013B44
:10020000BCF1020F624498BF11F801CB00F8013B2A
:1002100038BF11F8013BA2F1040298BF00F801CBEE
:1002200038BF00F8013B11F0030300F04F80083A9B
:10023000C0F0088051F8043B083A51F804CBA0E81C
:100240000810F5E7121D5CBF51F8043B40F8043B71
:10025000AFF30080D20724BF11F8013B11F801CBA6
:1002600048BF11F8012B24BF00F8013B00F801CB77
:1002700048BF00F8012B70474FF0000200B513464D
:1002800094469646203922BFA0E80C50A0E80C50B6
:10029000B1F12001BFF4F7AF090728BFA0E80C5067
:1002A00048BF0CC05DF804EB890028BF40F8042B60
:1002B00008BF704748BF20F8022B11F0804F18BFCD
:1002C00000F8012B704770477047704710B5203A0F
:1002D000C0F00B80B1E81850203AA0E81850B1E8FF
:1002E0001850A0E81850BFF4F5AF5FEA027C24BFB5
:1002F000B1E81850A0E8185044BF18C918C0BDE8AC
:1003000010405FEA827C24BF51F8043B40F8043B74
:1003100008BF7047D20728BF31F8023B48BF11F829
:10032000012B28BF20F8023B48BF00F8012B704783
:10033000754600F02BF8AE4605006946534620F09E
:100340000700854618B020B5FFF72CFFBDE8204018
:100350004FF000064FF000074FF000084FF0000B81
:1003600021F00701AC46ACE8C009ACE8C009ACE834
:10037000C009ACE8C0098D46704710B50446AFF31C
:1003800000802046BDE81040FFF7F7BE00487047E8
:10039000F004002001491820ABBEFEE72600020051
:1003A0007047FEE7014800F091BA0000C403002046
:1003B000014800F08BBA0000C403002030B5234C84
:1003C00089B06079002838D0207A002500EB8001C0
:1003D0001F4800EB41014978227A02EB820210F8B3
:1003E000122002F0F00201EBC2010091217A01EB30
:1003F000810110F81110029501F00F01CDE90351B0
:10040000217A04F1100301EB810100EB410006AAFF
:1004100050F8021F06914068079069460D4800F0A9
:10042000E9F860B100F019F86079401E6071207A37
:100430001D2808D0207A401C207209B030BD608988
:10044000401C6081F0E72572F7E700000C000020F7
:10045000E8010020C4030020704772B6FEE70000E8
:10046000044B0022DA61044A136943F0010313616B
:1004700001807047D0040020002002401448002270
:10048000C168CB06134904D5CA6942F00202CA61A9
:100490001022C3685B0705D5CB6943F00103CB612C
:1004A00042F00402C369DB0707D0CB6943F00403C1
:1004B000CB61C16921F00101C161A2F580710139EF
:1004C00001D0C2607047C16921F00101C16170476C
:1004D00000200240D004002070B5054600F006FE62
:1004E0000646114C09E0681C07D025B100F0FEFD5E
:1004F000801BA84201D9032070BDE068C007F2D17B
:10050000E068800601D52020E060E068C00605D4E0
:10051000E069C00702D1E068400703D5FFF7AEFFEE
:10052000012070BD002070BD002002400C49CA6847
:10053000D207FCD10A6942F002020A6148610869E7
:1005400040F040000861C868C007FCD1086920F08D
:1005500001000861086920F002000861704700008E
:100560000020024010B5002304E000BF11F8134042
:10057000C4545B1C9342F9DB10BD00002DE9F0412F
:1005800016460F46804600F0A3FC4046FFF7CEFF1C
:100590000E4C206940F001002061002507E07A5DE3
:1005A00008EB45010023012000F052FC6D1CB54210
:1005B000F5DBE068C007FCD1206920F00100206174
:1005C000206940F080002061BDE8F08100200240F9
:1005D00090F82020012A07D0022A05D0416A41F470
:1005E0008021416201207047006842690A434261EC
:1005F00000207047F0B590F820500468A468012DE1
:1006000005D0022D03D0416A41F480215DE014F051
:10061000406F01D1E50055D5C4F30164022C03D924
:10062000416A41F4000150E00125A5401D608D683C
:100630004FF4C0739DB1CE6835434E6845EAC60598
:10064000066803EB0417F5514FF4C275076805EB14
:1006500004150E697E51097D012905D009E00E8837
:10066000CD6845EA4655EBE701684E5946F4807679
:100670004E511179D579567941EA056195792D0464
:1006800045EA062529434FF4C676056806EB0416AD
:10069000A9511178D57841EA0561957852782D04F1
:1006A00045EA022211434FF4C475026805EB0415B4
:1006B0005151006803EB0411425842F001024250CC
:1006C0000020F0BD416A41F4001141620120F0BDFB
:1006D00010B590F820300268012B07D0022B05D00E
:1006E000416A41F480214162012010BDD2F800022C
:1006F00040F00100C2F80002087D00F01F03012055
:100700009840D2F81C328343C2F81C32CB69B3B98B
:10071000D2F80C328343C2F80C328C894B6864F3F4
:100720001F434C6902EBC404C4F840320C890B68C7
:1007300064F31F434C6902EBC404C4F84432CB6930
:10074000012B16D1D2F80C320343C2F80C320C88BC
:100750004B6864F31F434C6902EBC404C4F8403295
:100760000C89CB6864F31F434C6902EBC404C4F8E2
:1007700044328B69002BD2F804320FD053EA0003C5
:10078000C2F804320B69002BD2F8143208D00343AC
:10079000C2F81432096A012904D008E08343EFE764
:1007A0008343F5E7D2F81C120143C2F81C12D2F8B9
:1007B000000220F00100C2F80002002010BD90F8F5
:1007C0002020012A07D0022A05D0416A41F4802165
:1007D000416201207047006842698A4342610020FB
:1007E0007047704730B590F82040012C05D0022C9E
:1007F00003D0416A41F480215DE00468002955D0AE
:100800002469A40754D04FF4D874056804EB01148C
:100810002D5915F00405956005682D594ED0ED0849
:10082000556005682C5904F00204D4604FF4DA7462
:10083000056804EB01142D5905F00F0515610568D5
:100840002D59C5F30725956105682C59240C546171
:100850004FF4DC72046802EB0112A4581C700468A7
:10086000A458240A5C700468A458240C9C70046882
:10087000A258120EDA704FF4DE72046802EB011215
:10088000A4581C710468A458240A5C710468A45814
:10089000240C9C710468A258120EDA71006881B1B0
:1008A000016941F020010161002030BDE468A8E742
:1008B000416A41F400114162012030BD6D0D1560A7
:1008C000AFE7C16841F02001C160EDE72DE9F05FBD
:1008D0000546006800244669D0F804908768D0F87F
:1008E0000CB0D0F810A0D0F81880F10748D0F90764
:1008F00014D001218160B80703D5284600F078FAAA
:100900000CE0780702D54FF4006407E0380702D501
:100910004FF4805402E0284600F068FAF80516D536
:1009200029684FF480708860B80503D5284600F028
:1009300069FA0CE0780502D544F4005407E0380564
:1009400002D544F4804402E0284600F059FAF80346
:1009500016D529684FF480308860B80303D528463F
:1009600000F05AFA0CE0780302D544F4004407E0A2
:10097000380302D544F4803402E0284600F04AFAF5
:10098000300707D55FEACB6004D52968102044F40E
:100990000074C86070074FF0080707D55FEA0B7056
:1009A00004D52868C760284600F072F9B00706D55C
:1009B0002868C068800702D0284600F06BF97006EE
:1009C00007D55FEACA6004D52968102044F4806422
:1009D0000861B00607D55FEA0A7004D52868076188
:1009E000284600F077F9F00606D5286800698007E8
:1009F00002D0284600F070F9B00308D55FEAC9605C
:100A000005D5296810204860284600F0C1F9F00398
:100A100007D55FEA097004D528684760284600F0CA
:100A200003FA300446D55FEA497040D5F00504D595
:100A30005FEAC87001D044F00104B00504D55FEA54
:100A4000887001D544F00204700504D55FEA48704F
:100A500001D544F00404300529D518F0700F26D0D4
:100A600008F07000402815D006DC102809D0202896
:100A70000AD0302816D10AE050280ED0602811D1B3
:100A80000EE044F008040DE044F010040AE044F0E5
:100A9000200407E044F0400404E044F0800401E056
:100AA00044F480742868816921F0700181612968AB
:100AB00004204860002C05D0686A204368622846FC
:100AC000FFF78FFEBDE8F09F70B5040003D094F8E7
:100AD000200010B104E0012070BD204600F082F833
:100AE0002068016841F00101016000F0FFFA05464D
:100AF000052604E000F0FAFA401B0A2811D8206805
:100B00004068C007F6D02068016821F0020101604A
:100B100000F0ECFA05460BE000F0E8FA401B0A286A
:100B200006D9606A40F40030606284F82060D2E741
:100B3000206840688007EFD4207E01282068016883
:100B40003DD021F080010160607E012820680168AD
:100B500038D021F040010160A07E012820680168A2
:100B600033D021F020010160E07E01282068016877
:100B70002ED041F010010160207F0128206801681B
:100B800029D021F008010160607F012820680168F8
:100B900024D021F004010160D4E902010843D4E922
:100BA0000412114308436168491E08432168C86163
:100BB00000206062012084F82000002070BD41F018
:100BC0008001C0E741F04001C5E741F02001CAE7DC
:100BD00021F01001CFE741F00801D4E741F0040112
:100BE000D9E7000010B586B0002100910191029173
:100BF000039100682349884242D12348C16941F0EA
:100C00000071C161C16901F000710491816941F015
:100C10000401816180691D4C00F0040004904FF4D0
:100C2000006000906946204600F066F9A01400902C
:100C300002200190032003906946204600F05CF9F1
:100C400000221146132000F0F1FA132000F0E0FA20
:100C500000221146142000F0E9FA142000F0D8FA1E
:100C600000221146152000F0E1FA152000F0D0FA1C
:100C700000221146162000F0D9FA162000F0C8FA1A
:100C800006B010BD006400400010024000080140A2
:100C90007047000010B50B4B0B4A0021FFF7A2FD77
:100CA00009480068C0F3C3110E2907D100F07F0086
:100CB000401E082802D2054932200870044901204C
:100CC000087010BD2E0000203003002064000020BA
:100CD0004F0000207047000070B5284B284A0121C2
:100CE000FFF780FD254C1A3C20791E2802D12548AB
:100CF0000178D9B1224AF020118800EAD103E079C5
:100D000000EB8005A2F5167000F81530E37901F0CC
:100D10007F0103EB830300EB43035970E17901EB9F
:100D2000810110F81110C02912D107E016490A7884
:100D300042F010020A701421017070BDE17901EBDC
:100D4000810100EB41014978104B1B789942F4D1A5
:100D50001269E17901EB810100EB41000749801C38
:100D6000FFF745FAE0791D2806D0E079401CE071D4
:100D70002079401C207170BD0020F8E7260000207B
:100D800014030020910000204800002044000020AF
:100D90007047000070B5044690F82000012804D088
:100DA000606A40F40020606218E0022084F82000AD
:100DB0002068016821F00101016000F097F9054603
:100DC0000EE000BF00F092F9401B0A2808D9606AC3
:100DD00040F400306062052084F82000012070BDDE
:100DE00020684068C007EDD1606270BD70470000A8
:100DF00002480188491C0180FFF7E0BA200000206A
:100E00007047000002484188491C4180FFF7D6BA6C
:100E1000200000207047000002488188491C818022
:100E2000FFF7CCBA200000207047000070B50446E0
:100E300000F05CF90546601C02D0044800780444C8
:100E400000F054F9401BA042FAD370BDAC00002062
:100E50002DE9F05F07461C4888460024017E1546B0
:100E60001E46012909D00121814601764CF2503AF3
:100E70005046FFF731FB18B122E00220BDE8F09F99
:100E8000012F02D0022F00D00427D346DFF83CA068
:100E9000220128463146FFF797F981B208EB44005A
:100EA000FFF7DEFA5846FFF717FBDAF8102022F0BA
:100EB0000102CAF8102018B9641CE4B2BC42E7D39E
:100EC000002289F81820D9E7D00400200020024031
:100ED000064900200A69120607D5054A4A60054AF4
:100EE0004A600969090600D50120704700200240C8
:100EF00023016745AB89EFCD2DE9F84FDFF8B891B5
:100F0000002409F1040A0AF1040B23460F270BF110
:100F1000040EC9E00125A5402A40AA427DD1674EB2
:100F2000D1F804C0ACEB0608B44532D014DCBCF1F7
:100F3000030F3AD009DCBCF1000F2AD0BCF1010F3D
:100F40001CD0BCF1020F31D11DE0BCF1110F17D044
:100F5000BCF1120F2AD119E0B8F5881F19D006DCB0
:100F6000B8F5803F15D0B8F5801F1FD111E0B8F556
:100F7000001F0ED0B8F5041F18D10AE0CB6815E0A9
:100F8000CB681B1D12E0CB6808330FE0CB680C3335
:100F90000CE08B682BB1012B4FF0080303D04561A7
:100FA00004E0042302E0056100E00023FF2A01D8E9
:100FB000064601E000F104064FEA840501D9A5F1D7
:100FC0002005D6F8008007FA05FC28EA0C0803FA89
:100FD00005F548EA0508C6F800804D68ED0062D5C1
:100FE000374DAE6946F00106AE61AD6924F00306E7
:100FF00005F001050095334D06EB050CDCF80850B3
:10100000A607360F07FA06F825EA0805DFF8B880C4
:10101000404503D14FF0000817E044E0DFF8AC8012
:10102000404502D14FF001080FE0DFF8A4804045B1
:1010300002D14FF0020808E0DFF89880404502D165
:101040004FF0030801E04FF0040808FA06F848EAF8
:101050000508CCF808804D68D9F80060ED034D46CE
:1010600001D5164300E096432E604D68DAF8006023
:10107000AD03554601D5164300E096432E604D68FA
:10108000DBF80060ED025D4601D5164300E09643B3
:101090002E604D68DEF80060AD02754601D516433E
:1010A00000E096432E60641C0D682A46E5407FF4FC
:1010B00031AFBDE8F88F00000004014000001110BE
:1010C000001002400000014000080140000C0140F7
:1010D00000100140001401408068084000D0012049
:1010E00070470AB1016170470904FBE70148806855
:1010F00070470000AC00002070B5040011D02168DA
:101100004CF6CC400860216845F255500860D4E99F
:10111000000141602168A0688860FFF7E7FF05468D
:101120000DE0012070BD00BFFFF7E0FF401B272846
:1011300005D92068C068800701D0032070BD2068F1
:10114000C0688007F0D121684AF6AA200860002014
:1011500070BD00684AF6AA210160002070470000B7
:10116000024881680278114481607047AC00002019
:10117000074810B5016841F010010160032000F03C
:1011800075F80F2000F006F800F024F8002010BDDC
:101190000020024070B50D4D04464FF47A71287856
:1011A000B1FBF0F00A490968B1FBF0F000F0DEFA9B
:1011B00048B9102C07D200222146501E00F036F804
:1011C00000206C6070BD012070BD0000AC000020EC
:1011D000B80000200C4808B5816941F00101816127
:1011E000816901F001010091C16941F08051C16143
:1011F000C06900F0805000900448416821F0E0612F
:1012000041F00071416008BD001002400000014043
:10121000002809DB00F01F020121914040098000F5
:1012200000F1E020C0F8001170470000F0B40E4B50
:101230001B680C46C3F30223C3F10705042D00D934
:101240000425191D072901D2002300E0DB1E012619
:1012500006FA05F1491E214099409E40761E16402F
:101260003143F0BC01F0C5BB0CED00E0064900F0D5
:10127000070208684FF6FF03184040EA0220034ABD
:1012800010430860704700000CED00E00000FA0514
:10129000BFF34F8F05480168054A01F4E06111432F
:1012A0000160BFF34F8F00BFFDE700000CED00E0D1
:1012B0000400FA052DE9F0470F46050061D0434EC2
:1012C000306800F00700B84209D2306820F007000B
:1012D00038433060306800F00700B84251D12868C8
:1012E0003B4C810712D5400703D5606840F4E060AD
:1012F00060602878000703D5606840F46050606043
:101300006068A96820F0F000084360602878C00792
:1013100028D06868012810D02168022810D08907D9
:1013200000292EDA616821F0030101436160FFF7B3
:10133000DDFE804641F288390DE021688903EFE740
:101340008901EDE7FFF7D2FEA0EB0801494502D97C
:101350000320BDE8F0876068696800F00C00B0EB1E
:10136000810FEFD1306800F00700B8420BD9306828
:1013700020F0070038433060306800F00700B842C2
:1013800001D00120E5E72878400705D56068E968C5
:1013900020F4E060084360602878000706D56068A4
:1013A000296920F4605040EAC100606000F018F83C
:1013B0006168084AC1F30311515CC84006490860DE
:1013C00006480068FFF7E6FE0020C2E70020024062
:1013D0000010024038460008B8000020B00000208D
:1013E00012A185B00FC98DE80F0014A0144A00683F
:1013F00004905168134801F00C03042B10D0082B03
:101400000ED1C1F38343C9031DF803000AD5516807
:1014100004AAC1F34041515C0A4A5043B0FBF1F0C9
:1014200005B0704708494843FAE700000203040585
:10143000060708090A0B0C0D0E0F10100102000020
:101440000010024000127A0000093D002DE9F84F1B
:10145000040070D02078C04DC00749D06868C0F340
:101460008100012807D06868C0F38100022809D1F3
:101470006868C00306D52868800339D560680028ED
:10148000E7D035E06068B0F5803F0BD010B1B0F523
:10149000A02F11D0286820F480302860286820F41C
:1014A000802002E0286840F480302860606890B1B5
:1014B000FFF71CFE06460AE0286840F480202860FA
:1014C000F0E700BFFFF712FE801B642873D828687E
:1014D0008003F7D50CE0FFF709FE064605E000BFE4
:1014E000FFF704FE801B6428F0D828688003F7D437
:1014F00020789A4E80074FF001094FF0000839D547
:10150000686810F00C0F07D06868C0F381000228EB
:1015100009D16868C00306D42868800714D52069FB
:10152000012808D110E02069B0B1C6F80090FFF79B
:10153000DDFD074605E00AE1FFF7D8FDC01B0228E4
:10154000C4D828688007F7D52868616920F0F800BA
:1015500040EAC10028600DE0C6F80080FFF7C6FD34
:10156000074604E0FFF7C2FDC01B022823D8286805
:101570008007F7D4207800072CD57948A169D9B124
:10158000C0F80090FFF7B2FD074604E0FFF7AEFD9C
:10159000C01B02280FD8686A8007F7D571484FF43E
:1015A000FA510068B0FBF1F0009000BF0098411EB6
:1015B0000091FAD20EE080E0C0F80080FFF796FDBF
:1015C000074604E0FFF792FDC01B022875D8686A41
:1015D0008007F7D42078400760D5E8690027C0006D
:1015E00008D4E86940F08050E861E869012700F01C
:1015F000805000905C480168C90513D40168834697
:1016000041F480710160FFF771FD824606E000BF82
:10161000FFF76CFDA0EB0A0064284ED8DBF8000051
:10162000C005F5D5E06801280AD008B1052813D017
:10163000286A20F001002862286A20F0040002E0F5
:10164000286A40F001002862E06841F2883B98B1C6
:10165000FFF74CFD82460BE0286A40F00400286248
:10166000EEE700BFFFF742FDA0EB0A0159455AD84B
:10167000286A8007F6D50CE0FFF738FD824605E0C2
:10168000FFF734FDA0EB0A0159454CD8286A8007C2
:10169000F6D41FB1E86920F08050E861E06988B3B2
:1016A0006968C1F38101022944D00228C6F860802C
:1016B00004D0FFF71BFD044638E034E0FFF716FDC9
:1016C000074604E0FFF712FDC01B02282BD828684C
:1016D0008001F7D4206AB0F5803F05D16868A16821
:1016E00020F4003008436860D4E9080108436968C1
:1016F00021F4741108436860C6F86090FFF7F6FCA7
:10170000044606E025E000BFFFF7F0FC001B0228BE
:1017100009D828688001F7D51BE000BFFFF7E6FC79
:10172000001B022802D90320BDE8F88F2868800139
:10173000F4D40EE00128F7D06868226A00F4803102
:10174000914204D1616A00F47010884201D00120F6
:10175000EAE70020E8E700000010024000004242F3
:1017600080044242B80000200070004010B5401EC6
:10177000B0F1807F01D3012010BD4FF0E024606103
:101780000F21601701F035F90020A06107202061CA
:10179000002010BD7047704770B590F83C20012ABA
:1017A00026D0012480F83C40022280F83D200368C6
:1017B0005A689D6822F070060A6832435A600D4BE1
:1017C00002689A4208D0B2F1804F05D00A4B9A4283
:1017D00002D00A4B9A4204D1496825F0800319438C
:1017E000916080F83D40002180F83C10084670BDB3
:1017F000022070BD002C01400004004000080040A1
:1018000010B5040003D094F83D0010B107E00120AA
:1018100010BD002084F83C00204600F01FF8022094
:1018200084F83D00211D206800F0BEFF012084F8EF
:10183000460084F83E0084F83F0084F8400084F8B5
:10184000410084F8420084F8430084F8440084F89E
:10185000450084F83D00002010BD000008B5016877
:101860001D48B1F1804F11D01C4A91421DD1C16970
:1018700041F00201C161C069002200F00200009045
:1018800011461D20FFF7D2FC1D201FE0C16941F069
:101890000101C161C069002200F001000090114601
:1018A0001C20FFF7C3FC1C2010E00D4A914211D10F
:1018B000C16941F00401C161C069002200F0040067
:1018C000009011461E20FFF7B1FC1E20BDE8084025
:1018D000FFF79EBC08BD000000100240000400405D
:1018E0000008004090F83D10012901D00120704708
:1018F000022180F83D100168CA6842F00102CA6006
:1019000000680B49884208D0B0F1804F05D00949E2
:10191000884202D00849884204D1816801F0070159
:10192000062903D0016841F00101016000207047E1
:10193000002C0140000400400008004070B504463F
:1019400090F83C00012817D0012584F83C50022073
:1019500084F83D002068826822F0770222F47F42FA
:1019600082600868502830D00DDC20284DD005DC7E
:1019700098B310283BD148E0022070BD302844D0F5
:10198000402834D139E0602828D0702806D0B0F53E
:10199000805F2CD0B0F5005F29D10AE0CB68D1E997
:1019A0000121206800F036FF2068816841F077014E
:1019B00009E0CB68D1E90121206800F02BFF206805
:1019C000816841F48041816011E0CA6849682068FB
:1019D00000F032FF5021206807E016E0CA6849682D
:1019E000206800F03AFF6021206800F01DFF84F8B5
:1019F0003D50002084F83C0070BDCA6849682068EA
:101A000000F01AFF40212068EFE7226801461046E7
:101A1000EBE7704770B50446006801694FF00005B8
:101A2000C943890715D4C168C943890711D4E91E80
:101A3000016101202077206880698007204602D05C
:101A4000FFF7E7FF04E000F098F8204600F096F872
:101A5000257720680169C943490717D4C168C9437C
:101A6000490713D46FF00401016102202077206838
:101A7000806910F4407F204602D0FFF7CAFF04E0DF
:101A800000F07BF8204600F079F82577206801699E
:101A9000C943090716D4C168C943090712D46FF0B6
:101AA00008010161042020772068C0698007204672
:101AB00002D0FFF7AEFF04E000F05FF8204600F030
:101AC0005DF8257720680169C943C90617D4C16844
:101AD000C943C90613D46FF01001016108202077B3
:101AE0002068C06910F4407F204602D0FFF791FFC4
:101AF00004E000F042F8204600F040F82577206826
:101B00000169C943C90708D1C168C943C90704D1DC
:101B1000891E0161204600F033F820680169C9433D
:101B2000090609D4C168C943090605D46FF08001CC
:101B300001612046FFF72EFE20680169C94349066E
:101B400009D4C168C943490605D46FF04001016159
:101B5000204600F043FA20680169C94389060BD486
:101B6000C168C943890607D46FF02001016120468E
:101B7000BDE87040FFF70FBE70BD704770470000B2
:101B80002DE9F05F80460168E948DFF8A8B3DFF887
:101B9000A8E300680125DFF8A4A3002681427DD1D7
:101BA0009BF8001041F004018BF80010E44908781C
:101BB00008B1401E0870E348017811B10178491E50
:101BC0000170007808B9E0480570E048017811B16B
:101BD0000178491E0170DE49087808B1401E08707E
:101BE000DC48017809B1491E0170DB49087808B169
:101BF000401E0870D949087808B1401E0870D849BD
:101C0000087808B1401E0870D6490878401C087052
:101C10009AF80210491C8AF80210D3490878D34A6E
:101C2000D34B552809D016801E70D24A0020F146A9
:101C300012F83030442B0DD023E01088471C178059
:101C4000CD4A12889042F0D9CC4800780028ECD0D8
:101C50001D70EAE702EBC00393F807C0BCF1000F68
:101C60000FD0ACF1010C1CF0FF0C83F807C008D1B9
:101C700099F800C005FA00F72CEA070C89F800C0B3
:101C80005E71401CC0B20828D2D3BD480278D30789
:101C900012D0BC4B1F78BC4B1B7800E00CE057B156
:101CA000170605D522F0800202705520087003E067
:101CB00042F0800202700B70B449D8F80000096845
:101CC00088425CD1B248007828B9B248018811B185
:101CD0000188491E0180B0480378A3BBAF48417812
:101CE000817001784170AE490968C1F3C321017068
:101CF00002780F2191430170DFF8A892002200BF03
:101D000005FA02F18778C9B290F801C00F400CEAD9
:101D1000010C674513D1477890F800C00F400CEADA
:101D2000010C67450BD199F800708F4389F800705A
:101D300087780F4099F800100F4389F80070521C03
:101D4000D2B2082ADCD394485B1CD9B201700729AF
:101D500000D106709EF800709348DFF8449220216D
:101D60000078A9F10809474007F001024846FFF74B
:101D7000B8F9C7F3400210214846FFF7B2F98B4883
:101D8000D8F80010006881427ED19AF80100884995
:101D9000401CC0B28AF8010009785746002974D166
:101DA0003222B0FBF2F102FB110129B99BF800309D
:101DB00043F002038BF80030B0FBF2F102FB11009C
:101DC00010B97C4805703D707B480178042902D227
:101DD000491C017002E0794906700E7062494B7827
:101DE000774A0D2B04D20378134493F898301BE004
:101DF0004B780C2B07D94B78102B04D20378134463
:101E000093F8A43010E04B78102B09D066F3070448
:101E10008B780D2B0BD20378134493F89C3069E038
:101E20000378134493F8A03063F30704F0E78B784A
:101E30000C2B07D98B78102B04D20378134493F81A
:101E4000AC3057E08B78102B50D0234664F3070357
:101E50001C460B78E4B202EB830C037881461CF835
:101E600003000443887802EB8000C05C44EAD000A1
:101E70004C78897802EB8404E45C02EB8101C95C54
:101E8000490744EA116801E050E023E04D4CC4F8F2
:101E9000846104F5C27400F07DFB404600F07AFBDB
:101EA00099F800103E4805FA01F1001D02684FF64E
:101EB000F0731A400260256000BF00BF00BF00BF82
:101EC000266000BF00BF00BF00BF026801F00F0125
:101ED0000A4302603878002828D03B49087890B13E
:101EE000401E10F0FF00087008D00CE00378134487
:101EF00093F8A830234363F30704AAE73348017833
:101F000041F0080101703248017871B1491E11F0A9
:101F1000FF01017009D12F490E702F490A78184925
:101F20000A7006701A487F2101703E70BDE8F09F6C
:101F3000F8030020650000205E0000203E00002025
:101F400047000020640000204E00002050000020C8
:101F500063000020920000208E0000205600002028
:101F60009100002053000020040000209A0000206F
:101F70009600002084030020980000209C00002090
:101F80004B0000208B0000204C000020400400206B
:101F9000590000206A0000208D0000206C00002005
:101FA000080C01405C000020620000208804002032
:101FB00052000020510000208A0000208C000020E8
:101FC0006A4300080000214294000020AA0000207B
:101FD000540000205A000020900000207047FEE7C7
:101FE000F0B554488BB000240471C47184714471FD
:101FF00044720472504A214601EB8103002002EB37
:1020000043031C54401CC0B20A28FAD3491CC9B26D
:102010001E29F1D3494B002101EB8102002003EB83
:1020200042021454401CC0B20A28FAD3491CC9B257
:102030001E29F1D30125E8034FF470468DE85100C5
:102040000394CDE905540E27CDE908570795694655
:102050003B480495FEF73CFB08B1FEF7FEF9022071
:10206000CDE904503748C021007841EAD001090287
:1020700001EB40108DE851000394CDE90857CDE9FC
:10208000064569462E48FEF723FB08B1FEF7E5F941
:102090000094CDE9014605A90320CDE9034581E877
:1020A0003100CDE9085769462548FEF711FB08B114
:1020B000FEF7D3F9042005904AF260108DE8510034
:1020C0000394CDE90857CDE9064569461C480495B7
:1020D000FEF7FEFA08B1FEF7C0F9CDE900640296FA
:1020E00005A90520CDE9034581E83100CDE9085770
:1020F00069461348FEF7ECFA08B1FEF7AEF905A9F8
:102100000A2081E831004EF22000CDE90204CDE939
:1021100000040494CDE9085769460948FEF7D8FA47
:1021200013210748FEF754FA0548FEF733FE0BB0BB
:10213000F0BD00000C000020BC000020E8010020E1
:10214000C4030020440000202DE9F05FDFF808916F
:1021500099F800C05FEA8C717BD5434CDFF80CB175
:102160008046217800223D4F3D4E3E489BF800308E
:102170004FF0030E4FF0100AA1F11005B8F1010F56
:1021800025D0B8F1020F38D0B8F1030F5BD15FEA68
:102190000C7158D538482CF0080189F80010344EDD
:1021A000344C05780BB155B14DE08DBB0270012068
:1021B0008BF80000314832700270227043E00270E8
:1021C0002F488BF800203270007820703BE0FBB184
:1021D000DFF8B080012B88F800E001D0042B15D186
:1021E00032223A706E2D04D2491CC9B221707E2968
:1021F00017D3514684F800A013E04BB1DFF8848078
:10220000012B88F800E004D0042B02D0022B10D060
:1022100019E032223A706E2DEBD2102907D0491EF8
:102220002170317001221049FEF7A8F90BE07D21E1
:10223000F6E73A70317001220B49FEF79FF92178D9
:10224000112000F07FFD99F8001021F0020189F8BB
:102250000010BDE8F09F0000AA00002054000020FC
:102260004600002000FC0108440000205A00002025
:102270005B0000204B0000204D0000208B00002060
:102280009000002092000020F0B52E480026006843
:10229000132101EAD02000F0030151EA90022C49F9
:1022A000294D2A4B0F7810D0104600245FEAC07CDD
:1022B00001D0761CF6B2641C4008E4B2032CF5D3BE
:1022C000032E13D927F0020039E0AA20187027F056
:1022D0001000020962F3C300C20862F3861082098B
:1022E00062F34510087000202870F0BD194C0020E2
:1022F000AA2AFAD0265C964203D0401CC0B2062817
:10230000F6D3154C401C2278824201D02070F0BDDB
:10231000187882420AD01A701E20287027F04000D8
:1023200040F00200830963F345100870032AEED1E0
:1023300008780207EBD520F0040040F00200087096
:10234000F0BD0000080C0140940000209300002024
:10235000AA00002034460008550000200E4810B5A1
:102360000C4901602D21416000214FF44022816021
:10237000C0E903124FF48012426101764176817602
:10238000C17601774177FEF79FFB002801D072B636
:10239000FEE710BD00640040C40300202DE9F041B9
:1023A00086B0002428480094019402940394816923
:1023B00041F020018161816901F02001049181696E
:1023C00041F004018161816901F004010491816996
:1023D00041F00801816180691C4F00F00800049001
:1023E00001224FF481713846FEF77BFE00224FF444
:1023F0003F713846FEF775FEDFF8548000223F211A
:102400004046FEF76EFE40F2FE3001250226CDE981
:102410000005CDE9024669463846FEF76DFD3F20CE
:10242000CDE90005CDE9024669464046FEF764FD68
:102430004FF47840CDE90004694640460294FEF727
:102440005BFD06B0BDE8F0810010024000080140CD
:10245000000C014010B586B0002417480094019488
:102460000294039404944FF080410594016041F676
:102470001F41C0E9011441F28731C0E903148461AE
:10248000FFF7BEF908B172B6FEE74FF48050009036
:1024900069460948FFF752FA08B172B6FEE704949C
:1024A00004A905480594FFF777F9002801D072B612
:1024B000FEE706B010BD0000F803002010B586B09E
:1024C000002417480094019402940394049413493F
:1024D0000594016041F61F41C0E901141D21C0E9C6
:1024E00003148461FFF78CF908B172B6FEE74FF46C
:1024F0008050009069460A48FFF720FA08B172B68A
:10250000FEE7049404A906480594FFF745F900285E
:1025100001D072B6FEE706B010BD00000004004016
:102520004004002010B586B00024174800940194A0
:1025300002940394049413490594016041F61F41E9
:10254000C0E901141321C0E903148461FFF758F9AD
:1025500008B172B6FEE74FF48050009069460A4811
:10256000FFF7ECF908B172B6FEE7049404A9064837
:102570000594FFF711F9002801D072B6FEE706B006
:1025800010BD00000008004088040020FEE7FEE7C0
:102590007047000030B50D490023C1F8943100BFE9
:1025A0000722012420FA02F505F00105C1F89C512B
:1025B00000BFC1F8944100BF00BFC1F8943100BF13
:1025C00000BF00BF521EEDD530BD0000000021420B
:1025D000704700002DE9F04F4748DFF818A1DFF8F9
:1025E0002491027846489AF80010DFF810E1037849
:1025F0004FF000084FF0550B09F10300914203D151
:102600009EF8001099421CD0012B24D0042B22D01C
:102610003D49097801703B49C91D4C78447089785F
:10262000817080F8038000BF8AF800208EF80030A7
:10263000027889F80020427889F80120827889F8A8
:10264000022032490A78002A51D103220A70017807
:1026500055293BD134E080F800B080F80380A2F126
:1026600010016E2928D24C1C0A2194FBF1F595FB30
:10267000F1F601FB16553035EEB294FBF1F501FB96
:1026800015413031CDB2DFF888C000211CF801704F
:10269000BE4200D14170BD4200D18170491CC9B217
:1026A0002429F3D3642CBFDB1A49097811B1012125
:1026B0000170B9E75621FBE7212141708170B3E732
:1026C0004178552902D18178552905D0594680F89D
:1026D00000B080F801B007E099F80020027099F886
:1026E0000120427099F80210817080F80380BDE8E3
:1026F000F08F000088000020440000205B000020D4
:102700005A000020010000209E00002092000020BE
:102710004442000852000020FEF722BD30B58FB0C1
:1027200028216846FDF7A8FD14210AA8FDF7A4FD9D
:102730000920012100904FF480300024049106917B
:10274000CDE901040225CDE907504FF4E0100990CE
:102750006846FEF77BFE08B172B6FEE70F20CDE9B2
:102760000A054FF48060CDE90C4002210AA80E94BE
:10277000FEF7A0FD002801D072B6FEE70FB030BD15
:10278000704700000148FFF745B90000F80300203A
:102790000148FFF73FB90000400400200148FFF75F
:1027A00039B9000088040020F0B50268164B174CB8
:1027B000174D4FF08047984205D0B84203D0A04251
:1027C00001D0A84203D122F070064A6832439842F1
:1027D00005D0B84203D0A04201D0A84203D122F4D0
:1027E0004074CA6822434C6922F08002224302608E
:1027F0008A68C2620A688262984201D109690163EB
:1028000001214161F0BD0000002C014000040040A6
:102810000008004010B5846842EA032224F47F4493
:102820000A432243826010BD826822F070020A438C
:1028300042F007018160704710B5036A046A24F012
:1028400001040462846924F0F00444EA021423F0D1
:102850000A020A438461026210BD10B5036A23F0C4
:10286000100303628369046A23F4704343EA02326B
:1028700024F0A00343EA01118261016210BD00004F
:102880002DE9F05FDFF828A19AF80000002871D048
:102890004FF400414748FEF71FFC4748017847487E
:1028A000B9B347494A78303A4270C97830398170B3
:1028B0004FF0550E834680F800E0DFF808C1002590
:1028C000414F424B8CF800500A263E701978DFF8D1
:1028D000EC90A9F1040999F80000814264D01878BD
:1028E000C04300075DD000203949012293F80080E1
:1028F00002FA00F414EA080F3DD08CF800503E7044
:102900000C7048B1012813D002281FD0032843D1EE
:1029100026E0FFE72F49C5E74FF056085C468BF8E5
:1029200000804FF01E088BF801804FF019080AE074
:102930004FF057085C468BF800804FF00D088BF87D
:1029400001804FF0170884F8028025E08BF800E042
:102950004FF00F088BF801808BF8028008241AE0F2
:102960008BF800E04FF015088BF801808BF802809F
:10297000042410E01AE0022806D291F8008028EA28
:10298000040881F8008007E00C7802D124F00804E4
:1029900001E024F004040C7000F10100C0B204282E
:1029A000A4D3197889F800108AF80050BDE8F09F88
:1029B00095000020000C014052000020040000207F
:1029C000D04400088B000020560000205C0000204E
:1029D0005E000020CA4400080148FDF777BF0000F0
:1029E000C40300200148FDF771BF0000C4030020AC
:1029F000FEE70907090E002804DB00F1E02080F85B
:102A00000014704700F00F0000F1E02080F8141D62
:102A10007047000030B428494A791E2AFCD04A7A0F
:102A2000B82302EB8204254A02F81430244B4C7A76
:102A30001B7804EB840402EB440463704C7A80231B
:102A400004EB840402EB4404A3701E4B1C884D7AF3
:102A500005EB850502EB4505EC701B884C7A1B0ADB
:102A600004EB840402EB44042371174B1B784C7A6B
:102A700004EB840402EB440463714B7A03EB83039D
:102A800002EB430398714C7A030A04EB840402EBD3
:102A90004404E3714C7A030C04EB840402EB440419
:102AA0002372497A000E01EB810102EB4101487269
:102AB00030BC00F00BB800000C000020E801002042
:102AC00044000020660000208900002030B52F4C13
:102AD00087B0A089401CA0812D480078002844D0F0
:102AE0002C480078552840D0607A00251D283ED01B
:102AF000607A401C607201212748FDF760FE207A51
:102B000000EB8001254800EB41014978227A02EB75
:102B1000820210F8122002F0F00201EBC2010091D3
:102B2000217A01EB810110F81110029501F00F01DB
:102B3000CDE90351217A154A01EB810100EB4100F7
:102B400006AB50F8021FC4F82A104068C4F82E00E3
:102B50002A3269461048FDF74DFD50B16079401C9E
:102B6000607101210C48FDF733FD07B030BD65727F
:102B7000C1E76089401C6081207A1D2803D0207A3B
:102B8000401C2072EDE72572EBE700000C000020EE
:102B90004F00002058000020C4030020E80100205E
:102BA0008F280BD004DC022808D0052804D105E0CA
:102BB000902803D0912801D0002070470120704751
:102BC0002DE9F047284D95F82010002941D1012723
:102BD000322185F82010A97D6A7AB84611434FF05A
:102BE00000020BD1214955230B701A234B7014237B
:102BF0008B70AB7BABB1EA71097829729146EA72AE
:102C0000002826D01A4E002416F83400FFF7C8FF1B
:102C1000002806EBC40007D0C179B943C1710DD0BB
:102C200013E085F80780E7E7817839420DD016F880
:102C300034100E2902D1417810290CD0AA7E08FA4E
:102C400004F18A43AA7680F80590641CE4B2082C4B
:102C5000DAD3BDE8F087AB7E08FA04F21A43AA760D
:102C600080F80580F1E70000440000200400002007
:102C70008403002070B52F48552202700E21417048
:102C80000F2181700021C1702B480423C377817408
:102C90000174322380F82030C18481728175C1753E
:102CA0008171847B0123ECB3C1710272437040F2E5
:102CB000A112C262204A4FF40073303213804FF4E5
:102CC00040735380C17601771C4BC174002203F11D
:102CD000380400BFC2EBC205EE18717104EBC206E6
:102CE0007171595504F83210521CD2B2F171082A90
:102CF000F0D3114C00223634E31DA1549954521CD8
:102D0000D2B2072AF9D34177817781760C4A1268CB
:102D1000C2F3C3220276037E074A28321370037E71
:102D2000537000E003E0037E9370417670BDC37181
:102D3000BBE7000004000020440000204C030020FA
:102D4000080C014030B4164A53791E2BFCD0537A3C
:102D5000F82403EB8305134B03F81540557A6424DC
:102D600005EB850503EB45056C70547A04EB840490
:102D700003EB4404A070507A00EB800003EB4000AA
:102D8000C17004200021547A04EB840403EB440452
:102D90002154401CC0B20928F5D930BCFFF796BEBB
:102DA0000C000020E8010020FEF7E2F9FFF7B6FC76
:102DB000FFF7F4FAFFF7D2FAFFF74CFBFFF77EFBC1
:102DC000FFF7B0FBA948A8490426C0E9001640F661
:102DD000FF718160FEF790F908B172B6FEE7A34873
:102DE000FEF7B7F9A24C002201212046FEF779F93F
:102DF000002202212046FEF774F900220421204619
:102E0000FEF76FF9002208212046FEF76AF9994C77
:102E1000012211022046FEF764F9012251022046E8
:102E2000FEF75FF991480C30FEF75CFD8F48543097
:102E3000FEF758FD8D489C30FEF754FD8E4D287DE1
:102E40005A2814D0552812D0AA2028758748FEF792
:102E500080F90024AC73012288498748FDF782FB82
:102E60000120687028786E2806D828B106E02879F5
:102E700040F010002871E7E7102028707B48FEF72B
:102E800068F96C752878A870FFF7F4FE7748FEF7AC
:102E900060F9FFF7A5F80520FDF7C8FFB346EE7708
:102EA0007F20774E68757148FEF753F9E87F38B98F
:102EB000E87A28B1287B18B985F81FB000F0DAFD50
:102EC000307808B100F030F9688C28B1E87818B98A
:102ED0006C846C48FFF79EFDA87A18B1AC72002094
:102EE000FFF76EFEA88C18B101F0B8F82C71AC8415
:102EF000287D55280BD1287B48B9FFF771F8287930
:102F000040F01000287148F24010A8842C75687DAC
:102F10007F28C8D0322085F82000A046AC725348E4
:102F2000FEF717F96C7600F0CBFDDFF84091B24662
:102F3000A9F1A0094D48FEF70CF99AF8000008B174
:102F400000F0F2F8687BB0B1FFF79EF9687CFFF7FC
:102F5000FBF8A87D10B1FFF73DFB0AE0687DF02883
:102F600005D0687A012804D1E87B0A2801D9FFF747
:102F700087FC85F80D80E87F48B9E87A38B1287B6E
:102F800028B9A87D18B985F81FB000F073FDA87A9C
:102F900020B185F80A800120FFF712FE6B7D7F2BA0
:102FA00010D1297E687F4C464140002021FA00F272
:102FB000C0EBC0062644401C02F00102C0B2727190
:102FC0000828F3D3052BB5D12E7E687F4640687E56
:102FD0008642AFD05FF0000426FA04F000F0010151
:102FE000687EE04000F0010088421DD0C4EBC402BE
:102FF00002EB0907797119F802C0BCF1000F13D078
:103000001D4A002036323B5C1354401CC0B20728D6
:10301000F9D3BCF1020F0DD0BCF1050F00D119B1ED
:103020001548363001F05EF8641CE4B2082CD3D3A6
:103030006E767FE7A87D0028F6D10F482130007812
:10304000800703D4F8786979884203D00A4836307B
:1030500001F048F808482130017821F002010170A0
:10306000F8786871E0E7000000300040EC030020D1
:10307000000C0140000801404400002000FC010851
:10308000100000200000040578B5264D00EB400636
:1030900005EB8602481E147903D300FB04F3DBB270
:1030A00000E0002335F82650B5F5C34F1FD00ADCE9
:1030B00005F6EA75B5F5005526D005F6B665B5F501
:1030C000C04F07D10DE005F5ED55B5F5004508D029
:1030D000202D12D0002000909168002906D06A4669
:1030E0001CE091680978C140C807000C78BD92685F
:1030F000C1EBC100C01F105C78BD90686FF0070283
:1031000002EBC101405C78BD46F2A81000EB014023
:1031100078BD1D184D5D1554401CC0B2A042F8D3B7
:10312000009878BDF04400082DE9F04FF94C89B0C3
:10313000A07900EB8001F84810F811C0F849DFF8D9
:10314000ECB3F64E0A785527DFF8D8E3DFF8D883DA
:103150000025F7499BF80030BCF1A00F7ED006DCBB
:10316000BCF1000F7BD0BCF1800F2BD108E04FF0F9
:103170000A0ABCF1C00F26D0BCF1F00FF5D145E230
:10318000A17901EB810100EB41018978A27902EB81
:10319000820200EB4202D278002913D0317805294F
:1031A000E3D1E44A0021A37903EB830300EB43035B
:1031B0000B449B785354491CC9B20729F3D3DD480B
:1031C00000F0B8FC34E3A17901EB810100EB41018F
:1031D0008F78DFF864B307F0E003D849DFF860C305
:1031E000DFF86093D84E402B78D003DCC3B3202B9C
:1031F00004D105E0602B72D0802B71D0D34816E04B
:10320000A179C54801EB810100EB4101B1F80380D0
:10321000A17901EB810100EB41004079BD4B0146F2
:103220000190DB1C3A46404600F0DEFB10B1FFF790
:10323000F1FBFDE2B80732D5A079B74E00EB800074
:1032400006EB40000199D0F80620E07800F076FF08
:103250000028ECD1A07900EB800002E0B0E28FE121
:1032600027E006EB40004146D0F806306020019A86
:1032700000F028FBA8F51051CA39A3D1B4480122A7
:103280000178B44811B1012907D002E0A4490978B6
:1032900019B105700078B049AFE10270FAE7002378
:1032A00041466020019A00F00DFBA9F800800198CA
:1032B000ADE0B9F80020002A74D0FA0673D4FA07FA
:1032C0000FD0B9F80020113AB2F5C0420DD0EF2A64
:1032D0001DD0A2F58072EF3A60D13CE064E0A7E037
:1032E00012E19E48FFF796FB0EE1924A0021A37976
:1032F00003EB830300EB43030B44DB785354491C7B
:10330000C9B20729F3D38B4800F014FC46E0002231
:103310003378A779C3EBC3030B44134413F8073C7A
:1033200007EB870700EB47071744FF78BB420DD038
:10333000A37903EB830300EB43031344DB78377873
:10334000C7EBC7070F44174407F8073C521CD2B21B
:10335000052ADDD322E000213278A3790CEBC202EA
:103360000A4412F8082C03EB830300EB43030B44DD
:10337000DB789A420CD0A27902EB820200EB420287
:103380000A44D27833780CEBC3030B4403F8082CBF
:10339000491CC9B20529DFD300F092FB0022114677
:1033A0002020AFE04BE048E0A17901EB810100EB88
:1033B0004101B1F803100291A17901EB810100EB09
:1033C00041004079534B80460146DB1C3A46029847
:1033D00000F00AFB00287FF412AFE078604900EBB0
:1033E000400201EB820211799378042913D9B8F1D4
:1033F000000002D10BB1024615E00B460246402008
:10340000029900F05FFA0298A9F800004046307077
:103410008BF800A00CE2B8F1000100D113B9FFF75E
:1034200033FE034642464220029900F04BFAFFE188
:10343000B9F8000018B1F80603D54A4852E74A48DF
:1034400050E7B9F8000046F21007C31BB84246D057
:103450000ADC00F6F87006A9B0F500500CD001287F
:103460001CD0022850D12BE0012B3AD0F02B3BD0BE
:10347000B3F5F87F48D13FE03C4B3D4F002052B1BF
:1034800017F800C001F800C0401CC0B20628F6D3EF
:103490000A46062112E013F800C0F3E7354B364F19
:1034A000002042B117F800C001F800C0401CC0B2B3
:1034B0000628F6D30EE013F800C0F5E7012021E05E
:1034C000002073464AB118F800700F54401CC0B277
:1034D0000628F7D30A460521F0E71F5CF5E7274ADF
:1034E00000E0144A0721E9E73078C0EBC000421839
:1034F00007210120D21F05E0307807210CEBC00224
:103500000120083A00F030FAA9F8005035708BF825
:1035100000508DE10C000020BC000020590000206C
:1035200052000020CA440008D04400084400002093
:103530000400002081000020470000204C030020F0
:10354000840300206600002089000020010004059B
:103550004A0000204B0000209000002012000706C7
:10356000F04400080000030500000106DC440008E8
:10357000E8440008D6440008E24400087A0000202D
:1035800094F806C00CEB8C0C00EB4C0C9CF803C0C0
:10359000BCF1000F01D09C45BBD1A37903EB8303A1
:1035A00000EB4300807882280ED006DC012809D089
:1035B000802809D0812807D107E0F0280AD0F22816
:1035C00002D10CE00520307032E1AF480570FDF704
:1035D0005FFE2DE1F02030700620AC490DE072B1A5
:1035E00098F801003038487098F803003038887037
:1035F0000F70A748A74905700420087018E19EF8CD
:103600000120303A4A709EF80300EFE7A17901EB00
:10361000810100EB4101497865295AD1A17986469B
:1036200001EB810100EB410090F80280DFF8689225
:10363000DFF868C29A499B48B8F1110F09D0B8F178
:10364000120F47D0B8F1130F7ED0B8F1140F40D14C
:10365000A3E00223037089F80050A07900EB8000FA
:103660000EEB4000C6788BF80060A07900EB80007C
:103670000EEB400086798C480670A67906EB86062C
:103680000EEB460636794670A67906EB86060EEBFB
:1036900046035B798370E146467890F802C00023C8
:1036A00019F80380464500D14B70C44500D18B709A
:1036B0005B1CDBB2262BF3D312B10178202900D892
:1036C00007702421202E00D84170BCF1200F00D8B3
:1036D0008170ADE0032202707448A3F110026E2ADB
:1036E00005707148077054D2714A12780F3A7D2BD9
:1036F00017D392FBFAF70AFB1722422330324370AA
:10370000D2B282705FF000001CF80060B34200D1BA
:103710004870B24200D18870401CC0B22428F3D354
:1037200086E0732B19D392FBFAF70AFB1722412389
:1037300030324370D2B282705FF000001CF800603B
:10374000B34200D1487000E02AE0B24200D1887054
:10375000401CC0B22428F1D36AE0534692FBF3F632
:1037600092FBFAF730360AFB1722F6B23032467077
:10377000D2B282705FF000001CF800309E4200D18F
:1037800048709A4200D18870401CC0B22428F3D3FC
:103790004EE05621417057219AE7042101700CE058
:1037A0003949A5220A700178022905D17F2131709B
:1037B00040490A788BF80020057089F8005037E0FE
:1037C000A27902EB820200EB42025278A37903EB6A
:1037D000830300EB43039B780B2A29D143BB364B71
:1037E0000022A67906EB860600EB46061644B6785C
:1037F0009E54521CD2B2082AF3D3D8790206CA7852
:1038000002D542F0020201E022F00202CA70C007B3
:10381000C87802D040F0010001E020F00100C8703B
:103820009879010725482AD501221021FDF759FC76
:1038300012212348FCF7C3FFA0791D2821D0A079CD
:10384000401CA0712079401E2071E5792679122153
:103850001B48FCF7BDFEA079854201D21E35EDB2B2
:103860001E20B6FBF0F100FB1160A179691A8842B5
:1038700002D005485A21017009B0BDE8F08F00223E
:10388000D3E7A571DEE700005800002056000020B5
:103890008B000020630000205B00002044420008F1
:1038A000080000205A0000209E0000208800002010
:1038B0004400002046000020A20000200008014033
:1038C000C4030020F0B4254C65791E2DFCD0657A28
:1038D000B82605EB8507224D05F81760214E677A5B
:1038E000367807EB870705EB47077E70667A06EBAD
:1038F000860605EB4606B070607A00EB800005EBAB
:103900004000C170080A617A01EB810105EB4101B9
:103910000871607A00EB800005EB40004271607A2C
:1039200000EB800005EB40008371617A180A01EB1F
:10393000810105EB4101C871617A180C01EB81012D
:1039400005EB41010872617A180E01EB810105EB6C
:1039500041014872F0BCFFF7B9B800000C0000202C
:10396000E801002044000020F0B41C4C63791E2BB9
:10397000FCD0637AB82503EB8306194B03F8165085
:10398000184D667A2D7806EB860603EB46067570B1
:10399000657A05EB850503EB4505A87000200AE074
:1039A00012F8015B667A06EB860603EB46060644D0
:1039B000F570401CC0B28842F2D3002008E0627A61
:1039C00002EB820203EB42020A44D070491CC9B2E6
:1039D0000729F4D3F0BCFFF779B800000C000020F1
:1039E000E801002044000020F0B5002426461D4DCB
:1039F0004FF6FF7E2BE0874227D105EB8C06B67889
:103A00008E4221D30120B0EB521F1AD104EB4400A7
:103A100005EB800514482E79920707D5042E07D9A7
:103A2000002910D1AA78002A0DD001E0042E0AD96D
:103A30000D48EA78801C002A05D011B9A978002920
:103A400001D11C700020F0BD0126641CE4B204EB1F
:103A5000440C35F82C707745CDD10EB10348F0BD3C
:103A60000348F0BDF04400080000010611000906FB
:103A7000000002060E4841791E29FCD0417AE1225D
:103A800001EB81030B4901F813200B4A437A1278AA
:103A900003EB830301EB43035A70084A407A127820
:103AA00000EB800001EB40008270FFF70FB80000D0
:103AB0000C000020E80100204400002059000020F4
:103AC00030B51A4900200870194B012213F8304014
:103AD0008F2C25D006DC022C22D0052C20D00E2CD9
:103AE00014D104E0902C1BD0912C0FD118E003EBE3
:103AF000C00464780A2C13D004DC012C10D0092CEB
:103B000004D10DE09A2C0BD0A12C09D00D7802FA2B
:103B100000F4A5430D70401CC0B20828D6D330BDB8
:103B20000D7802FA00F42C430C70F4E760000020DA
:103B3000840300202DE9F047067801460025304631
:103B4000FFF72EF8FA4CFB4B0122E8B3022E05D00A
:103B50004878FF284FF0000002D024E0C878F8E74A
:103B600014F83070B74218D104EBC00797F806C0BC
:103B7000BCF1010F11D197F807C091F802803CEA1F
:103B8000080C87F807C008D193F8008002FA00FCFF
:103B900028EA0C0883F800807D71401CC0B2082818
:103BA000DED3BDE8F0870E7814F83070BE4240D105
:103BB00004EBC0064F7896F801C0674539D1CF783D
:103BC00096F803C0674500E038E032D18F7896F868
:103BD00002C017EA0C0F2CD096F804C091F80480AC
:103BE0002CEA080C5FEA0C7C23D196F806C0BCF1E5
:103BF000010F1ED191F805C05FEACC7C0FD093F87D
:103C0000008002FA00FC4CEA080C83F800C096F829
:103C100007C04CEA070C86F807C0727109E0F5711D
:103C200093F800C002FA00F72CEA070C83F800C0F2
:103C30007571401CC0B20828B5D3B2E7BE48DFF8A2
:103C4000FCC2BF4F402E10D0422E41D0412E74D026
:103C5000492E72D0442E6CD00E2E6BD0142EFCD078
:103C6000152EFAD0452E7DD039E08A780078824230
:103C700097D19CF80000002893D10B794979B14A7B
:103C80005524155CAB4201D1787007E063B1202B5D
:103C90000AD01DB1401CC0B25F28F2D30020135CD3
:103CA000994203D1B87009E07C70F7E773B169B14C
:103CB00020290BD0401CC0B25F28F0D3B87855281B
:103CC000BBD1262078702720B8706AE7BC70F5E772
:103CD0008E780078864202D19CF8000078B10020EE
:103CE0000E7814F83070BE4208D104EBC0064F784D
:103CF00096F801C067457DD0002FFCD09BE1487944
:103D0000A0B1487800F0030038703878022800D954
:103D10003D703A788C4872B14978C1F30111017055
:103D2000387855303870387888495DE13D70ECE777
:103D300003E0BFE0EFE00570F2E74878844F412EE2
:103D400019D0492EC1D10007BFD000200E7814F839
:103D500030C066450ED104EBC00691F802C096F85B
:103D6000028000E028E1C44504D196F806C0BCF109
:103D7000010F5ED098E000200E7814F830C0664540
:103D800052D104EBC00691F802C096F80280C445F7
:103D90004AD196F806C0BCF1010F45D191F80180D7
:103DA00096F801C0C14608EA0C085FEA887802D19B
:103DB000BCF1000F2FD191F803C096F80380C445E1
:103DC00005D0BCF1FF0F02D0B8F1000F23D191F85C
:103DD000048096F804C018EA0C0F02D1BCF1000F61
:103DE00019D197F800C0BCF1000F0FD05FEA191C81
:103DF00011D10BE0FAE000BF93F8008002FA00FC5A
:103E00004CEA080C83F800C072710DE091F805C00F
:103E10005FEACC7CF0D193F8008002FA00FC28EA3B
:103E20000C0883F800807571401CC0B20828A3D329
:103E3000B7E691F801C096F80180E1460CEA080C5B
:103E40005FEA0C7C27D091F803C096F80380C44544
:103E500002D0BCF1FF0F1ED191F804C096F8048087
:103E60001CEA080F17D097F800C0BCF1000F0DD066
:103E70005FEA191C0FD109E093F8008002FA00FCF8
:103E80004CEA080C83F800C072710DE091F805C08F
:103E90005FEACC7CF0D193F8008002FA00FC28EABB
:103EA0000C0883F800807571401CC0B20828FFF42C
:103EB0004DAF76E600200D7814F83060B54225D17C
:103EC00004EBC0054F786E783740BF0700D1EEB9DC
:103ED000CE78EF78BE4202D0FF2E00D0B7B98E78F0
:103EE000AF78BE4212D10F792E79374200D16EB928
:103EF000AE79012E0AD14E79F60707D01F7802FA63
:103F000000F63E431E701426EE716A71401CC0B26A
:103F10000828D0D345E648788B283CD01ADC1028F6
:103F200086D0812837D0862822D08828C1D115E0B4
:103F3000840300205E000020450000205A0000207D
:103F400004000020444200088B0000204C000020A8
:103F50008F0000208F2801D09028AAD1394A8828C4
:103F600027D08F2822D09028A3D14879107018E646
:103F7000497935480029F97804D041F00201F970F7
:103F8000012203E021F00201F9700022BDE8F047B0
:103F90000421FDF7A6B848790028F87802D040F04F
:103FA000010001E020F00100F870FAE54879507056
:103FB000F7E548799070F4E5C8784B7840EA03203B
:103FC000A0F514530D3BA5D14879204BC0F3011146
:103FD000197000F00F011E4BC1EB0111C9001980CF
:103FE0001C4980090A701C490870DAE5CF7896F8F8
:103FF00003C067451FD18F7896F802C067451AD174
:1040000091F804C037791CEA070F00D19FB9B7793E
:10401000012F10D14F7993F800C0FF0702FA00F783
:1040200004D047EA0C071F70727104E02CEA070CF9
:1040300083F800C07571401CC0B20828FFF450AE70
:10404000AFE500000C0000200008014097000020B0
:10405000980000209C0000209D00002030B41C4AE5
:1040600050791E28FCD0507A182100EB80031948A3
:1040700000F813101849537A097803EB830300EB17
:10408000430359701549537A098803EB830300EB06
:1040900043039970537A090A03EB830300EB43034C
:1040A000D9700F49537A097803EB830300EB43037C
:1040B000197105210023547A04EB840400EB4404B5
:1040C0006354491CC9B20929F5D930BCFEF7FEBCBE
:1040D0000C000020E80100204400002068000020BF
:1040E0004800002030B4124A51791E29FCD0537A7E
:1040F000972103EB83040F4B03F814100E49547AF5
:10410000097804EB840403EB440461705FF0000160
:1041100010F8014B557A05EB850503EB45050D4479
:10412000AC70491CC9B20729F2D330BCFEF7CEBC33
:104130000C000020E8010020440000202DE9F74396
:104140003A4A00EB400502EB85064B1E347903D357
:1041500003FB04F7FFB200E00027DFF8D08000EB9C
:10416000400032F825C008EB80000CF5F55C806853
:104170004FF00109BCF5004C10D0DDF80880BCF10F
:10418000200F08F0FF081DD0BCF5807F06D0BCF5DD
:10419000907F1CD070B3002002A929E00278029C15
:1041A00022FA03F3C4F3C03403F00103A34207D09F
:1041B0000123491E8B4014B11343DAB200E09A4345
:1041C000027030E078B3C1EBC101C91F04E050B305
:1041D0006FF0070202EBC10100F8018023E00B5CE5
:1041E00007EB0008D6F808C0401CC0B20CF8083035
:1041F000A042F4D332F82510A1F514500D3812D195
:104200000B480C4A0078C0F30111117000F00F0147
:10421000094AC1EB0111C9001180084A0849800907
:1042200082F8009008700020BDE8FE83F04400088A
:104230005700002097000020980000209C000020DC
:104240009D000020323334353638394145464850D8
:10425000524247534B3031374344494A4C4D4E4FFD
:10426000545155565758595A200055554001D4D4E9
:10427000D495C181959595D55401D5D5D595D5C100
:10428000DC1D15545C1D95D495C09555C1C11C1CF1
:104290001C18280A0154634143435555D5C0D581A4
:1042A00035C216161C0841554155495D2222220887
:1042B000343488888080594D4141D14CD145C94121
:1042C0009945994D5141D94DD94500004CD1000037
:1042D00000000000000000000000000000000000DE
:1042E0004C990000000000000000000000000000E9
:1042F00000000000498900000000000000000000EC
:1043000000000000000000004599000000000000CF
:104310000000000000006000C00010000800040061
:104320001000400000010004001000400100008067
:1043300080000200080020000002000800200400A5
:104340001000400000010004001000400100008047
:104350008000020008002000000200080020600029
:10436000C00010000800E000FFFF0B01101A1A1037
:10437000101A101011111A10010B1B11010B1B1137
:10438000111B1A10111B1111111B0B01010B010143
:10439000010B111111110101111B0109111B1E1437
:1043A000141E1B11010B1A10020A010909011B112D
:1043B000111B101018100404080A0B01010B1E1425
:1043C000141E0E04040E1B1110100B01010111111B
:1043D0001B11111913111B11111B0404040E1B19BD
:1043E000111B1B11111101030901111B1111000AED
:1043F0000A0004040A000A02080A00000000000083
:104400000000000004040404000000000004000098
:10441000040000040000040000000400000000008C
:10442000000000000000000000000000000000008C
:10443000000000000000000000000000000000007C
:10444000000000000000000000000000000000006C
:10445000000000000000000000000000000000005C
:10446000000000000000000000000000000000004C
:10447000000000000000000000000000000000003C
:10448000000000000000000000000000000000002C
:10449000000000000000000000000000000000001C
:1044A000000000000000000000000000000000000C
:1044B00000000000000000000000000000000000FC
:1044C0000000C8C8C8C83838383856312E304100C6
:1044D00056312E34420056312E33000056475335A4
:1044E000303256312E310000472D37343200000073
:1044F0000010000004000000700000200110000007
:104500000100000048000020081000000600000024
:10451000DC4400080910000005000000D644000833
:104520000A10000005000000CA4400081610080028
:104530000400000000000000181004010400000046
:104540000000000000600300020000007400002072
:104550000160000101000000450000202061080109
:104560000400000000000000406108010400000099
:1045700000000000606108010400000061000020EC
:10458000806108010400000052030020206208013D
:104590000400000000000000406208010400000068
:1045A00000000000606208010400000062000020BA
:1045B00080620801040000008A03002010600000EF
:1045C000070000000000000011600001070000006B
:1045D000000000000061080107000000000000006A
:1045E000006208010700000000000000FD2F00002D
:1045F000010000005C000020FE2F0001010000000F
:104600005E000020CA240001010000004A000020D2
:10461000EE240001010000008F0000200D250001A4
:104620000100000057000020FFFF00000000000014
:1046300000000000010204AA0000000000000000C9
:10464000010203040607080968460008000000206C
:10465000BC0000002801000824470008BC0000201E
:10466000940A00004401000800000000000000005F
:10467000000000000000000000000000000000003A
:10468000000000000000000000000000000000002A
:10469000000000000000000000000000000000001A
:1046A000000000000000000000000000000000000A
:1046B00000000000000000000000000000000000FA
:1046C00000000000000000000000000000000000EA
:1046D00000000000000000000000000000000000DA
:1046E00000000000000000000000000000000000CA
:1046F00000000000000000000000000000000000BA
:1047000000000000000000000000000000000000A9
:104710000000000001000000100000000000000088
:044720000024F4007D
:04000005080000ED02
:00000001FF
